{
  "address": "0x15dEBed7142159A331EBEa55bD48994B34F0c473",
  "abi": [
    {
      "inputs": [],
      "stateMutability": "nonpayable",
      "type": "constructor"
    },
    {
      "anonymous": false,
      "inputs": [
        {
          "indexed": false,
          "internalType": "uint32",
          "name": "chainId",
          "type": "uint32"
        },
        {
          "indexed": false,
          "internalType": "bool",
          "name": "supported",
          "type": "bool"
        }
      ],
      "name": "ChainSupported",
      "type": "event"
    },
    {
      "anonymous": false,
      "inputs": [
        {
          "indexed": true,
          "internalType": "address",
          "name": "nftContract",
          "type": "address"
        },
        {
          "indexed": false,
          "internalType": "bool",
          "name": "authorized",
          "type": "bool"
        }
      ],
      "name": "ContractAuthorized",
      "type": "event"
    },
    {
      "anonymous": false,
      "inputs": [
        {
          "indexed": true,
          "internalType": "address",
          "name": "nftContract",
          "type": "address"
        },
        {
          "indexed": true,
          "internalType": "uint256",
          "name": "tokenId",
          "type": "uint256"
        },
        {
          "indexed": true,
          "internalType": "address",
          "name": "owner",
          "type": "address"
        },
        {
          "indexed": false,
          "internalType": "uint32",
          "name": "destinationChainId",
          "type": "uint32"
        },
        {
          "indexed": false,
          "internalType": "bytes32",
          "name": "messageHash",
          "type": "bytes32"
        }
      ],
      "name": "NFTLocked",
      "type": "event"
    },
    {
      "anonymous": false,
      "inputs": [
        {
          "indexed": true,
          "internalType": "address",
          "name": "nftContract",
          "type": "address"
        },
        {
          "indexed": true,
          "internalType": "uint256",
          "name": "tokenId",
          "type": "uint256"
        },
        {
          "indexed": true,
          "internalType": "address",
          "name": "owner",
          "type": "address"
        },
        {
          "indexed": false,
          "internalType": "bytes32",
          "name": "messageHash",
          "type": "bytes32"
        }
      ],
      "name": "NFTUnlocked",
      "type": "event"
    },
    {
      "anonymous": false,
      "inputs": [
        {
          "indexed": true,
          "internalType": "address",
          "name": "previousOwner",
          "type": "address"
        },
        {
          "indexed": true,
          "internalType": "address",
          "name": "newOwner",
          "type": "address"
        }
      ],
      "name": "OwnershipTransferred",
      "type": "event"
    },
    {
      "anonymous": false,
      "inputs": [
        {
          "indexed": false,
          "internalType": "address",
          "name": "account",
          "type": "address"
        }
      ],
      "name": "Paused",
      "type": "event"
    },
    {
      "anonymous": false,
      "inputs": [
        {
          "indexed": false,
          "internalType": "address",
          "name": "account",
          "type": "address"
        }
      ],
      "name": "Unpaused",
      "type": "event"
    },
    {
      "anonymous": false,
      "inputs": [
        {
          "indexed": true,
          "internalType": "bytes32",
          "name": "messageHash",
          "type": "bytes32"
        },
        {
          "indexed": false,
          "internalType": "enum XCMBridge.MessageType",
          "name": "messageType",
          "type": "uint8"
        },
        {
          "indexed": false,
          "internalType": "uint32",
          "name": "sourceChainId",
          "type": "uint32"
        }
      ],
      "name": "XCMMessageReceived",
      "type": "event"
    },
    {
      "anonymous": false,
      "inputs": [
        {
          "indexed": true,
          "internalType": "bytes32",
          "name": "messageHash",
          "type": "bytes32"
        },
        {
          "indexed": false,
          "internalType": "enum XCMBridge.MessageType",
          "name": "messageType",
          "type": "uint8"
        },
        {
          "indexed": false,
          "internalType": "uint32",
          "name": "destinationChainId",
          "type": "uint32"
        }
      ],
      "name": "XCMMessageSent",
      "type": "event"
    },
    {
      "inputs": [],
      "name": "MOONBASE_ALPHA_CHAIN_ID",
      "outputs": [
        {
          "internalType": "uint32",
          "name": "",
          "type": "uint32"
        }
      ],
      "stateMutability": "view",
      "type": "function"
    },
    {
      "inputs": [],
      "name": "POLKADOT_HUB_CHAIN_ID",
      "outputs": [
        {
          "internalType": "uint32",
          "name": "",
          "type": "uint32"
        }
      ],
      "stateMutability": "view",
      "type": "function"
    },
    {
      "inputs": [
        {
          "internalType": "address",
          "name": "",
          "type": "address"
        }
      ],
      "name": "authorizedContracts",
      "outputs": [
        {
          "internalType": "bool",
          "name": "",
          "type": "bool"
        }
      ],
      "stateMutability": "view",
      "type": "function"
    },
    {
      "inputs": [
        {
          "internalType": "bytes32",
          "name": "",
          "type": "bytes32"
        }
      ],
      "name": "crossChainNFTs",
      "outputs": [
        {
          "internalType": "address",
          "name": "originalContract",
          "type": "address"
        },
        {
          "internalType": "uint256",
          "name": "originalTokenId",
          "type": "uint256"
        },
        {
          "internalType": "address",
          "name": "originalOwner",
          "type": "address"
        },
        {
          "internalType": "uint32",
          "name": "sourceChainId",
          "type": "uint32"
        },
        {
          "internalType": "uint32",
          "name": "destinationChainId",
          "type": "uint32"
        },
        {
          "internalType": "bool",
          "name": "isLocked",
          "type": "bool"
        },
        {
          "internalType": "uint256",
          "name": "timestamp",
          "type": "uint256"
        }
      ],
      "stateMutability": "view",
      "type": "function"
    },
    {
      "inputs": [
        {
          "internalType": "address",
          "name": "nftContract",
          "type": "address"
        },
        {
          "internalType": "uint256",
          "name": "tokenId",
          "type": "uint256"
        },
        {
          "internalType": "address",
          "name": "to",
          "type": "address"
        }
      ],
      "name": "emergencyWithdraw",
      "outputs": [],
      "stateMutability": "nonpayable",
      "type": "function"
    },
    {
      "inputs": [
        {
          "internalType": "bytes32",
          "name": "messageHash",
          "type": "bytes32"
        }
      ],
      "name": "getCrossChainNFT",
      "outputs": [
        {
          "components": [
            {
              "internalType": "address",
              "name": "originalContract",
              "type": "address"
            },
            {
              "internalType": "uint256",
              "name": "originalTokenId",
              "type": "uint256"
            },
            {
              "internalType": "address",
              "name": "originalOwner",
              "type": "address"
            },
            {
              "internalType": "uint32",
              "name": "sourceChainId",
              "type": "uint32"
            },
            {
              "internalType": "uint32",
              "name": "destinationChainId",
              "type": "uint32"
            },
            {
              "internalType": "bool",
              "name": "isLocked",
              "type": "bool"
            },
            {
              "internalType": "uint256",
              "name": "timestamp",
              "type": "uint256"
            }
          ],
          "internalType": "struct XCMBridge.CrossChainNFT",
          "name": "",
          "type": "tuple"
        }
      ],
      "stateMutability": "view",
      "type": "function"
    },
    {
      "inputs": [
        {
          "internalType": "bytes32",
          "name": "messageHash",
          "type": "bytes32"
        }
      ],
      "name": "getXCMMessage",
      "outputs": [
        {
          "components": [
            {
              "internalType": "enum XCMBridge.MessageType",
              "name": "messageType",
              "type": "uint8"
            },
            {
              "internalType": "address",
              "name": "nftContract",
              "type": "address"
            },
            {
              "internalType": "uint256",
              "name": "tokenId",
              "type": "uint256"
            },
            {
              "internalType": "address",
              "name": "recipient",
              "type": "address"
            },
            {
              "internalType": "uint32",
              "name": "sourceChainId",
              "type": "uint32"
            },
            {
              "internalType": "uint32",
              "name": "destinationChainId",
              "type": "uint32"
            },
            {
              "internalType": "bytes32",
              "name": "messageHash",
              "type": "bytes32"
            },
            {
              "internalType": "bool",
              "name": "processed",
              "type": "bool"
            }
          ],
          "internalType": "struct XCMBridge.XCMMessage",
          "name": "",
          "type": "tuple"
        }
      ],
      "stateMutability": "view",
      "type": "function"
    },
    {
      "inputs": [
        {
          "internalType": "address",
          "name": "nftContract",
          "type": "address"
        },
        {
          "internalType": "uint256",
          "name": "tokenId",
          "type": "uint256"
        },
        {
          "internalType": "uint32",
          "name": "destinationChainId",
          "type": "uint32"
        }
      ],
      "name": "lockNFT",
      "outputs": [],
      "stateMutability": "nonpayable",
      "type": "function"
    },
    {
      "inputs": [
        {
          "internalType": "address",
          "name": "",
          "type": "address"
        },
        {
          "internalType": "address",
          "name": "",
          "type": "address"
        },
        {
          "internalType": "uint256",
          "name": "",
          "type": "uint256"
        },
        {
          "internalType": "bytes",
          "name": "",
          "type": "bytes"
        }
      ],
      "name": "onERC721Received",
      "outputs": [
        {
          "internalType": "bytes4",
          "name": "",
          "type": "bytes4"
        }
      ],
      "stateMutability": "pure",
      "type": "function"
    },
    {
      "inputs": [],
      "name": "owner",
      "outputs": [
        {
          "internalType": "address",
          "name": "",
          "type": "address"
        }
      ],
      "stateMutability": "view",
      "type": "function"
    },
    {
      "inputs": [],
      "name": "pause",
      "outputs": [],
      "stateMutability": "nonpayable",
      "type": "function"
    },
    {
      "inputs": [],
      "name": "paused",
      "outputs": [
        {
          "internalType": "bool",
          "name": "",
          "type": "bool"
        }
      ],
      "stateMutability": "view",
      "type": "function"
    },
    {
      "inputs": [
        {
          "internalType": "bytes32",
          "name": "messageHash",
          "type": "bytes32"
        },
        {
          "internalType": "enum XCMBridge.MessageType",
          "name": "messageType",
          "type": "uint8"
        },
        {
          "internalType": "address",
          "name": "nftContract",
          "type": "address"
        },
        {
          "internalType": "uint256",
          "name": "tokenId",
          "type": "uint256"
        },
        {
          "internalType": "address",
          "name": "recipient",
          "type": "address"
        },
        {
          "internalType": "uint32",
          "name": "sourceChainId",
          "type": "uint32"
        }
      ],
      "name": "processXCMMessage",
      "outputs": [],
      "stateMutability": "nonpayable",
      "type": "function"
    },
    {
      "inputs": [],
      "name": "renounceOwnership",
      "outputs": [],
      "stateMutability": "nonpayable",
      "type": "function"
    },
    {
      "inputs": [
        {
          "internalType": "uint32",
          "name": "chainId",
          "type": "uint32"
        },
        {
          "internalType": "bool",
          "name": "supported",
          "type": "bool"
        }
      ],
      "name": "setChainSupport",
      "outputs": [],
      "stateMutability": "nonpayable",
      "type": "function"
    },
    {
      "inputs": [
        {
          "internalType": "address",
          "name": "nftContract",
          "type": "address"
        },
        {
          "internalType": "bool",
          "name": "authorized",
          "type": "bool"
        }
      ],
      "name": "setContractAuthorization",
      "outputs": [],
      "stateMutability": "nonpayable",
      "type": "function"
    },
    {
      "inputs": [
        {
          "internalType": "uint32",
          "name": "",
          "type": "uint32"
        }
      ],
      "name": "supportedChains",
      "outputs": [
        {
          "internalType": "bool",
          "name": "",
          "type": "bool"
        }
      ],
      "stateMutability": "view",
      "type": "function"
    },
    {
      "inputs": [
        {
          "internalType": "address",
          "name": "newOwner",
          "type": "address"
        }
      ],
      "name": "transferOwnership",
      "outputs": [],
      "stateMutability": "nonpayable",
      "type": "function"
    },
    {
      "inputs": [
        {
          "internalType": "bytes32",
          "name": "messageHash",
          "type": "bytes32"
        }
      ],
      "name": "unlockNFT",
      "outputs": [],
      "stateMutability": "nonpayable",
      "type": "function"
    },
    {
      "inputs": [],
      "name": "unpause",
      "outputs": [],
      "stateMutability": "nonpayable",
      "type": "function"
    },
    {
      "inputs": [
        {
          "internalType": "bytes32",
          "name": "",
          "type": "bytes32"
        }
      ],
      "name": "xcmMessages",
      "outputs": [
        {
          "internalType": "enum XCMBridge.MessageType",
          "name": "messageType",
          "type": "uint8"
        },
        {
          "internalType": "address",
          "name": "nftContract",
          "type": "address"
        },
        {
          "internalType": "uint256",
          "name": "tokenId",
          "type": "uint256"
        },
        {
          "internalType": "address",
          "name": "recipient",
          "type": "address"
        },
        {
          "internalType": "uint32",
          "name": "sourceChainId",
          "type": "uint32"
        },
        {
          "internalType": "uint32",
          "name": "destinationChainId",
          "type": "uint32"
        },
        {
          "internalType": "bytes32",
          "name": "messageHash",
          "type": "bytes32"
        },
        {
          "internalType": "bool",
          "name": "processed",
          "type": "bool"
        }
      ],
      "stateMutability": "view",
      "type": "function"
    }
  ],
  "transactionHash": "0x70d58498a29f35440298764fae49d21f3ae1a9749f2bee484e367523a109bc45",
  "args": [],
  "numDeployments": 1,
  "solcInputHash": "bc6d7f8aa63b13844b1d59e454e1afc6",
  "bytecode": "0x608080604052346100905760008054336001600160a01b0319821681178355906001600160a01b03167f8be0079c531659141344cd1fd0a4f28419497f9722a3daafe3b4186f6b6457e08380a3600180556001604060ff1992836002541660025563190f1b46815260066020528181208385825416179055610507815220918254161790556114a290816100968239f35b600080fdfe608080604052600436101561001357600080fd5b600090813560e01c908163137982321461112057508063150b7a02146110ad5780631abb86b114610f79578063248514dd14610f3f5780633f4ba83a14610eaa578063551512de14610e245780635c975abb14610e01578063715018a614610db95780638456cb5914610d5e5780638da5cb5b14610d37578063a0c0ce3714610bc7578063a89a73e014610b32578063bce706d714610b13578063c5ed290314610af6578063d29e665b146108b8578063d5b9221b14610879578063f2fde38b146107c8578063f60ccc8614610751578063f6ee27b7146106d8578063f7bef2421461065a5763fdc4a91a1461010857600080fd5b346106575760603660031901126106575761012161121a565b60443563ffffffff81168103610652576101396113f6565b6101416113b2565b6001600160a01b03821683526005602052604083205460ff16156106135763ffffffff81168352600660205260ff604084205416156105d8576040516331a9108f60e11b81526024803560048301526020908290816001600160a01b0387165afa9081156105cd578491610576575b50336001600160a01b039091160361053f57604051606083811b6001600160601b0319166020830190815260243560348401523390911b605483015246606883015260e083901b6001600160e01b031916608883015242608c80840191909152825290929060c084016001600160401b038111858210176105295760408190528451909120938591906001600160a01b0384163b1561052557632142170760e11b82528290829060bf199061026c602435303360c4850161132d565b030181836001600160a01b0388165af1801561051a57610502575b5050604051610295816112e3565b60018060a01b0382168152602435602082015233604082015263ffffffff4616606082015263ffffffff83166080820152600160a08201524260c08201528385526003602052600360c0604087209260018060a01b0381511660018060a01b0319855416178455602081015160018501556002840160018060a01b0360408301511660018060a01b031982541617815561033963ffffffff6060840151168261134f565b61034d63ffffffff60808401511682611372565b60a0820151815460ff60e01b191690151560e01b60ff60e01b16179055015191015560405161037b816112fe565b84815260018060a01b0382166020820152602435604082015233606082015263ffffffff4616608082015263ffffffff831660a08201528360c08201528460e082015283855260046020526040852090805160048110156104ee5782600460e060409694610490947ffcf52a516c5105a13e7715d225090e8081472fffe4648188a8f82d1652230c8599975460ff610100600160a81b03602085015160081b1692169060018060a81b0319161717845587810151600185015561047b6002850160018060a01b0360608401511660018060a01b031982541617815561046a63ffffffff6080850151168261134f565b63ffffffff60a08401511690611372565b60c081015160038501550151151591016113a1565b82519063ffffffff8316825285602083015233917f592bb6d61f2bb9df16a802049c93a5995aa0560158c1dece8bab0e0f30aadb16856024359360018060a01b031692a463ffffffff82519160008352166020820152a26001805580f35b634e487b7160e01b87526021600452602487fd5b61050b9061131a565b610516578338610287565b8380fd5b6040513d84823e3d90fd5b8280fd5b634e487b7160e01b600052604160045260246000fd5b60405162461bcd60e51b815260206004820152600f60248201526e2737ba103a37b5b2b71037bbb732b960891b6044820152606490fd5b905060203d6020116105c6575b601f8101601f191682016001600160401b038111838210176105295760209183916040528101031261051657516001600160a01b038116810361051657386101b0565b503d610583565b6040513d86823e3d90fd5b60405162461bcd60e51b815260206004820152601360248201527210da185a5b881b9bdd081cdd5c1c1bdc9d1959606a1b6044820152606490fd5b60405162461bcd60e51b815260206004820152601760248201527610dbdb9d1c9858dd081b9bdd08185d5d1a1bdc9a5e9959604a1b6044820152606490fd5b600080fd5b80fd5b503461065757602036600319011261065757604060e091600435815260036020522060018060a01b0360ff8183541692600181015492600360028301549201549360405195865260208601528116604085015263ffffffff808260a01c1660608601528160c01c166080850152841c16151560a083015260c0820152f35b5034610657576040366003190112610657577f8c3c71aedf3488faccc5d8b353f31837995f6ce36c04f9449471680016f2adc16040610715611269565b63ffffffff61072261127c565b9161072b61128b565b16908185526006602052610741818487206113a1565b825191825215156020820152a180f35b50346106575760403660031901126106575761076b61121a565b7f3213ab8ec2ed122402f038736b41878b69ae9f61f49a7edd0666bce891d29fc9602061079661127c565b9261079f61128b565b60018060a01b031692838552600582526107bc81604087206113a1565b6040519015158152a280f35b5034610657576020366003190112610657576107e261121a565b6107ea61128b565b6001600160a01b03908116908115610825576000548260018060a01b03198216176000551660008051602061144d833981519152600080a380f35b60405162461bcd60e51b815260206004820152602660248201527f4f776e61626c653a206e6577206f776e657220697320746865207a65726f206160448201526564647265737360d01b6064820152608490fd5b50346106575760203660031901126106575760209060ff906040906001600160a01b036108a461121a565b168152600584522054166040519015158152f35b50346106575760c0366003190112610657576004356024356004811015610525576108e1611230565b6084356001600160a01b0381811692918390036106525760a4359263ffffffff8085168095036106525761091361128b565b8688526020936004855260ff600460408b20015416610ab5578589526006855260ff60408a20541615610a7357918891889360405195610952876112fe565b61095c8a88611395565b8088880192168252604087019060643582526060880194855260808801918a835260a08901938546168552604060c08b01988a8a5260e08c019a60018c52815260048d52209951906004821015610a5e5794610a33877fa4c75f3934813d3ea3822a68ad93195b7c13927a6600022ba0f52e4b799a6a7c9f9d9b979660409f9d9a9596610a3b9760049b96610a4b9e9a60ff8f5491610100600160a81b03905160081b1692169060018060a81b03191617178d555160018d015560028c0196511660018060a01b031987541617865551168461134f565b511690611372565b51600384015551151591016113a1565b610a5784518094611246565b820152a280f35b50634e487b7160e01b8f52602160045260248ffd5b60405162461bcd60e51b815260048101869052601a60248201527914dbdd5c98d94818da185a5b881b9bdd081cdd5c1c1bdc9d195960321b6044820152606490fd5b60405162461bcd60e51b815260048101869052601960248201527813595cdcd859d948185b1c9958591e481c1c9bd8d95cdcd959603a1b6044820152606490fd5b503461065757806003193601126106575760206040516105078152f35b5034610657578060031936011261065757602060405163190f1b468152f35b50346106575760203660031901126106575760406101009160043581526004602052208054600182015491600281015460ff60046003840154930154169260405194610b818660ff8416611246565b60018060a01b03809260081c16602087015260408601528116606085015263ffffffff90818160a01c16608086015260c01c1660a084015260c0830152151560e0820152f35b503461065757602036600319011261065757600435610be46113f6565b610bec6113b2565b808252600360205260408220600281019081549060ff8260e01c1615610d01576001600160a01b0382811692909190338403610cc75760ff60e01b19168455858282541660018301948554823b1561051657610c6292849283604051809681958294632142170760e11b8452306004850161132d565b03925af1801561051a57610caf575b5050817f5c923049e0611c2a757e42dd18ce8168a8546cd1fa5056c6c1785200dd5323fa926020925416935494541694604051908152a46001805580f35b610cb89061131a565b610cc3578538610c71565b8580fd5b60405162461bcd60e51b81526020600482015260126024820152712737ba1037b934b3b4b730b61037bbb732b960711b6044820152606490fd5b60405162461bcd60e51b815260206004820152600e60248201526d139195081b9bdd081b1bd8dad95960921b6044820152606490fd5b5034610657578060031936011261065757546040516001600160a01b039091168152602090f35b5034610657578060031936011261065757610d7761128b565b610d7f6113b2565b600160ff1960025416176002557f62e78cea01bee320cd4e420270b5ea74000d11b0c9f74754ebdbfc544b05a2586020604051338152a180f35b5034610657578060031936011261065757610dd261128b565b600080546001600160a01b0319811682556001600160a01b031660008051602061144d8339815191528280a380f35b5034610657578060031936011261065757602060ff600254166040519015158152f35b50346106575760603660031901126106575780610e3f61121a565b610e47611230565b90610e5061128b565b6001600160a01b031690813b15610ea6578291610e8891604051948580948193632142170760e11b835260243590306004850161132d565b03925af1801561051a57610e9a575080f35b610ea39061131a565b80f35b5050fd5b5034610657578060031936011261065757610ec361128b565b60025460ff811615610f035760ff19166002557f5db9ee0a495bf2e6ff9c91a7834c1ba4fdd244a5e8aa4e537bd38aeae4b073aa6020604051338152a180f35b60405162461bcd60e51b815260206004820152601460248201527314185d5cd8589b194e881b9bdd081c185d5cd95960621b6044820152606490fd5b50346106575760203660031901126106575760ff604060209263ffffffff610f65611269565b168152600684522054166040519015158152f35b5034610657576020366003190112610657576040816101009260e08351610f9f816112fe565b82815282602082015282858201528260608201528260808201528260a08201528260c082015201526004358152600460205220604051610fde816112fe565b815491610fee60ff841683611395565b602082019260018060a01b039060081c16835263ffffffff600182015492604081019384528160806002850154926060810160018060a01b0385168152838560a01c16838301528360a083019560c01c16855260ff600460038901549860c08501998a520154169760e0830198151589526040519961106e8b8551611246565b516001600160a01b0390811660208c0152905160408b015290511660608901520151166080860152511660a08401525160c083015251151560e0820152f35b5034610657576080366003190112610657576110c761121a565b506024356001600160a01b03811603610657576064356001600160401b038082116105255736602383011215610525578160040135908111610525573691016024011161065757604051630a85bd0160e11b8152602090f35b905034611216576020366003190112611216578160e09260c0836111456040956112e3565b82815282602082015282858201528260608201528260808201528260a08201520152600435815260036020522060405161117e816112e3565b60018060a01b039182815416928383526001820154916020840192835260028101549260408501928085168452606086019063ffffffff948593848860a01c16845260c0600360808b0197878b841c16895260ff60a08d019b8f1c1615158b5201549901988952604051998a525160208a015251166040880152511660608601525116608084015251151560a08301525160c0820152f35b5080fd5b600435906001600160a01b038216820361065257565b604435906001600160a01b038216820361065257565b9060048210156112535752565b634e487b7160e01b600052602160045260246000fd5b6004359063ffffffff8216820361065257565b60243590811515820361065257565b6000546001600160a01b0316330361129f57565b606460405162461bcd60e51b815260206004820152602060248201527f4f776e61626c653a2063616c6c6572206973206e6f7420746865206f776e65726044820152fd5b60e081019081106001600160401b0382111761052957604052565b61010081019081106001600160401b0382111761052957604052565b6001600160401b03811161052957604052565b6001600160a01b03918216815291166020820152604081019190915260600190565b805463ffffffff60a01b191660a09290921b63ffffffff60a01b16919091179055565b805463ffffffff60c01b191660c09290921b63ffffffff60c01b16919091179055565b60048210156112535752565b9060ff801983541691151516179055565b60ff600254166113be57565b60405162461bcd60e51b815260206004820152601060248201526f14185d5cd8589b194e881c185d5cd95960821b6044820152606490fd5b600260015414611407576002600155565b60405162461bcd60e51b815260206004820152601f60248201527f5265656e7472616e637947756172643a207265656e7472616e742063616c6c006044820152606490fdfe8be0079c531659141344cd1fd0a4f28419497f9722a3daafe3b4186f6b6457e0a26469706673582212206f23de2ac27bdccb205680969e03efdee152ef0ff8d70eee517c8a3ad74d327f64736f6c63430008110033",
  "devdoc": {
    "details": "Cross-chain NFT bridge contract for Polkadot XCM integration Handles NFT locking/unlocking and cross-chain message processing",
    "kind": "dev",
    "methods": {
      "emergencyWithdraw(address,uint256,address)": {
        "details": "Emergency withdrawal function (only owner)",
        "params": {
          "nftContract": "NFT contract address",
          "to": "Recipient address",
          "tokenId": "Token ID"
        }
      },
      "getCrossChainNFT(bytes32)": {
        "details": "Get cross-chain NFT information",
        "params": {
          "messageHash": "Message hash"
        },
        "returns": {
          "_0": "CrossChainNFT information"
        }
      },
      "getXCMMessage(bytes32)": {
        "details": "Get XCM message information",
        "params": {
          "messageHash": "Message hash"
        },
        "returns": {
          "_0": "XCMMessage information"
        }
      },
      "lockNFT(address,uint256,uint32)": {
        "details": "Lock NFT for cross-chain transfer",
        "params": {
          "destinationChainId": "Target chain ID",
          "nftContract": "Address of the NFT contract",
          "tokenId": "Token ID to lock"
        }
      },
      "onERC721Received(address,address,uint256,bytes)": {
        "details": "Handle NFT reception"
      },
      "owner()": {
        "details": "Returns the address of the current owner."
      },
      "pause()": {
        "details": "Emergency pause function"
      },
      "paused()": {
        "details": "Returns true if the contract is paused, and false otherwise."
      },
      "processXCMMessage(bytes32,uint8,address,uint256,address,uint32)": {
        "details": "Process incoming XCM message",
        "params": {
          "messageHash": "Hash of the XCM message",
          "messageType": "Type of XCM message",
          "nftContract": "NFT contract address",
          "recipient": "Recipient address",
          "sourceChainId": "Source chain ID",
          "tokenId": "Token ID"
        }
      },
      "renounceOwnership()": {
        "details": "Leaves the contract without owner. It will not be possible to call `onlyOwner` functions. Can only be called by the current owner. NOTE: Renouncing ownership will leave the contract without an owner, thereby disabling any functionality that is only available to the owner."
      },
      "setChainSupport(uint32,bool)": {
        "details": "Set chain support status",
        "params": {
          "chainId": "Chain ID",
          "supported": "Support status"
        }
      },
      "setContractAuthorization(address,bool)": {
        "details": "Authorize NFT contract for cross-chain transfers",
        "params": {
          "authorized": "Authorization status",
          "nftContract": "Address of the NFT contract"
        }
      },
      "transferOwnership(address)": {
        "details": "Transfers ownership of the contract to a new account (`newOwner`). Can only be called by the current owner."
      },
      "unlockNFT(bytes32)": {
        "details": "Unlock NFT after cross-chain transfer completion",
        "params": {
          "messageHash": "Hash of the original lock message"
        }
      },
      "unpause()": {
        "details": "Unpause function"
      }
    },
    "title": "XCMBridge",
    "version": 1
  },
  "userdoc": {
    "kind": "user",
    "methods": {},
    "version": 1
  },
  "storageLayout": {
    "storage": [
      {
        "astId": 7,
        "contract": "contracts/XCMBridge.sol:XCMBridge",
        "label": "_owner",
        "offset": 0,
        "slot": "0",
        "type": "t_address"
      },
      {
        "astId": 278,
        "contract": "contracts/XCMBridge.sol:XCMBridge",
        "label": "_status",
        "offset": 0,
        "slot": "1",
        "type": "t_uint256"
      },
      {
        "astId": 177,
        "contract": "contracts/XCMBridge.sol:XCMBridge",
        "label": "_paused",
        "offset": 0,
        "slot": "2",
        "type": "t_bool"
      },
      {
        "astId": 5529,
        "contract": "contracts/XCMBridge.sol:XCMBridge",
        "label": "crossChainNFTs",
        "offset": 0,
        "slot": "3",
        "type": "t_mapping(t_bytes32,t_struct(CrossChainNFT)5500_storage)"
      },
      {
        "astId": 5534,
        "contract": "contracts/XCMBridge.sol:XCMBridge",
        "label": "xcmMessages",
        "offset": 0,
        "slot": "4",
        "type": "t_mapping(t_bytes32,t_struct(XCMMessage)5518_storage)"
      },
      {
        "astId": 5538,
        "contract": "contracts/XCMBridge.sol:XCMBridge",
        "label": "authorizedContracts",
        "offset": 0,
        "slot": "5",
        "type": "t_mapping(t_address,t_bool)"
      },
      {
        "astId": 5542,
        "contract": "contracts/XCMBridge.sol:XCMBridge",
        "label": "supportedChains",
        "offset": 0,
        "slot": "6",
        "type": "t_mapping(t_uint32,t_bool)"
      }
    ],
    "types": {
      "t_address": {
        "encoding": "inplace",
        "label": "address",
        "numberOfBytes": "20"
      },
      "t_bool": {
        "encoding": "inplace",
        "label": "bool",
        "numberOfBytes": "1"
      },
      "t_bytes32": {
        "encoding": "inplace",
        "label": "bytes32",
        "numberOfBytes": "32"
      },
      "t_enum(MessageType)5485": {
        "encoding": "inplace",
        "label": "enum XCMBridge.MessageType",
        "numberOfBytes": "1"
      },
      "t_mapping(t_address,t_bool)": {
        "encoding": "mapping",
        "key": "t_address",
        "label": "mapping(address => bool)",
        "numberOfBytes": "32",
        "value": "t_bool"
      },
      "t_mapping(t_bytes32,t_struct(CrossChainNFT)5500_storage)": {
        "encoding": "mapping",
        "key": "t_bytes32",
        "label": "mapping(bytes32 => struct XCMBridge.CrossChainNFT)",
        "numberOfBytes": "32",
        "value": "t_struct(CrossChainNFT)5500_storage"
      },
      "t_mapping(t_bytes32,t_struct(XCMMessage)5518_storage)": {
        "encoding": "mapping",
        "key": "t_bytes32",
        "label": "mapping(bytes32 => struct XCMBridge.XCMMessage)",
        "numberOfBytes": "32",
        "value": "t_struct(XCMMessage)5518_storage"
      },
      "t_mapping(t_uint32,t_bool)": {
        "encoding": "mapping",
        "key": "t_uint32",
        "label": "mapping(uint32 => bool)",
        "numberOfBytes": "32",
        "value": "t_bool"
      },
      "t_struct(CrossChainNFT)5500_storage": {
        "encoding": "inplace",
        "label": "struct XCMBridge.CrossChainNFT",
        "members": [
          {
            "astId": 5487,
            "contract": "contracts/XCMBridge.sol:XCMBridge",
            "label": "originalContract",
            "offset": 0,
            "slot": "0",
            "type": "t_address"
          },
          {
            "astId": 5489,
            "contract": "contracts/XCMBridge.sol:XCMBridge",
            "label": "originalTokenId",
            "offset": 0,
            "slot": "1",
            "type": "t_uint256"
          },
          {
            "astId": 5491,
            "contract": "contracts/XCMBridge.sol:XCMBridge",
            "label": "originalOwner",
            "offset": 0,
            "slot": "2",
            "type": "t_address"
          },
          {
            "astId": 5493,
            "contract": "contracts/XCMBridge.sol:XCMBridge",
            "label": "sourceChainId",
            "offset": 20,
            "slot": "2",
            "type": "t_uint32"
          },
          {
            "astId": 5495,
            "contract": "contracts/XCMBridge.sol:XCMBridge",
            "label": "destinationChainId",
            "offset": 24,
            "slot": "2",
            "type": "t_uint32"
          },
          {
            "astId": 5497,
            "contract": "contracts/XCMBridge.sol:XCMBridge",
            "label": "isLocked",
            "offset": 28,
            "slot": "2",
            "type": "t_bool"
          },
          {
            "astId": 5499,
            "contract": "contracts/XCMBridge.sol:XCMBridge",
            "label": "timestamp",
            "offset": 0,
            "slot": "3",
            "type": "t_uint256"
          }
        ],
        "numberOfBytes": "128"
      },
      "t_struct(XCMMessage)5518_storage": {
        "encoding": "inplace",
        "label": "struct XCMBridge.XCMMessage",
        "members": [
          {
            "astId": 5503,
            "contract": "contracts/XCMBridge.sol:XCMBridge",
            "label": "messageType",
            "offset": 0,
            "slot": "0",
            "type": "t_enum(MessageType)5485"
          },
          {
            "astId": 5505,
            "contract": "contracts/XCMBridge.sol:XCMBridge",
            "label": "nftContract",
            "offset": 1,
            "slot": "0",
            "type": "t_address"
          },
          {
            "astId": 5507,
            "contract": "contracts/XCMBridge.sol:XCMBridge",
            "label": "tokenId",
            "offset": 0,
            "slot": "1",
            "type": "t_uint256"
          },
          {
            "astId": 5509,
            "contract": "contracts/XCMBridge.sol:XCMBridge",
            "label": "recipient",
            "offset": 0,
            "slot": "2",
            "type": "t_address"
          },
          {
            "astId": 5511,
            "contract": "contracts/XCMBridge.sol:XCMBridge",
            "label": "sourceChainId",
            "offset": 20,
            "slot": "2",
            "type": "t_uint32"
          },
          {
            "astId": 5513,
            "contract": "contracts/XCMBridge.sol:XCMBridge",
            "label": "destinationChainId",
            "offset": 24,
            "slot": "2",
            "type": "t_uint32"
          },
          {
            "astId": 5515,
            "contract": "contracts/XCMBridge.sol:XCMBridge",
            "label": "messageHash",
            "offset": 0,
            "slot": "3",
            "type": "t_bytes32"
          },
          {
            "astId": 5517,
            "contract": "contracts/XCMBridge.sol:XCMBridge",
            "label": "processed",
            "offset": 0,
            "slot": "4",
            "type": "t_bool"
          }
        ],
        "numberOfBytes": "160"
      },
      "t_uint256": {
        "encoding": "inplace",
        "label": "uint256",
        "numberOfBytes": "32"
      },
      "t_uint32": {
        "encoding": "inplace",
        "label": "uint32",
        "numberOfBytes": "4"
      }
    }
  }
}