{
  "_format": "hh3-artifact-1",
  "contractName": "VotingTicket",
  "sourceName": "contracts/VotingTicket.sol",
  "abi": [
    {
      "inputs": [],
      "stateMutability": "nonpayable",
      "type": "constructor"
    },
    {
      "inputs": [
        {
          "internalType": "address",
          "name": "spender",
          "type": "address"
        },
        {
          "internalType": "uint256",
          "name": "allowance",
          "type": "uint256"
        },
        {
          "internalType": "uint256",
          "name": "needed",
          "type": "uint256"
        }
      ],
      "name": "ERC20InsufficientAllowance",
      "type": "error"
    },
    {
      "inputs": [
        {
          "internalType": "address",
          "name": "sender",
          "type": "address"
        },
        {
          "internalType": "uint256",
          "name": "balance",
          "type": "uint256"
        },
        {
          "internalType": "uint256",
          "name": "needed",
          "type": "uint256"
        }
      ],
      "name": "ERC20InsufficientBalance",
      "type": "error"
    },
    {
      "inputs": [
        {
          "internalType": "address",
          "name": "approver",
          "type": "address"
        }
      ],
      "name": "ERC20InvalidApprover",
      "type": "error"
    },
    {
      "inputs": [
        {
          "internalType": "address",
          "name": "receiver",
          "type": "address"
        }
      ],
      "name": "ERC20InvalidReceiver",
      "type": "error"
    },
    {
      "inputs": [
        {
          "internalType": "address",
          "name": "sender",
          "type": "address"
        }
      ],
      "name": "ERC20InvalidSender",
      "type": "error"
    },
    {
      "inputs": [
        {
          "internalType": "address",
          "name": "spender",
          "type": "address"
        }
      ],
      "name": "ERC20InvalidSpender",
      "type": "error"
    },
    {
      "inputs": [],
      "name": "EnforcedPause",
      "type": "error"
    },
    {
      "inputs": [],
      "name": "ExpectedPause",
      "type": "error"
    },
    {
      "inputs": [
        {
          "internalType": "address",
          "name": "owner",
          "type": "address"
        }
      ],
      "name": "OwnableInvalidOwner",
      "type": "error"
    },
    {
      "inputs": [
        {
          "internalType": "address",
          "name": "account",
          "type": "address"
        }
      ],
      "name": "OwnableUnauthorizedAccount",
      "type": "error"
    },
    {
      "anonymous": false,
      "inputs": [
        {
          "indexed": true,
          "internalType": "address",
          "name": "owner",
          "type": "address"
        },
        {
          "indexed": true,
          "internalType": "address",
          "name": "spender",
          "type": "address"
        },
        {
          "indexed": false,
          "internalType": "uint256",
          "name": "value",
          "type": "uint256"
        }
      ],
      "name": "Approval",
      "type": "event"
    },
    {
      "anonymous": false,
      "inputs": [
        {
          "indexed": true,
          "internalType": "address",
          "name": "account",
          "type": "address"
        }
      ],
      "name": "MinterAdded",
      "type": "event"
    },
    {
      "anonymous": false,
      "inputs": [
        {
          "indexed": true,
          "internalType": "address",
          "name": "account",
          "type": "address"
        }
      ],
      "name": "MinterRemoved",
      "type": "event"
    },
    {
      "anonymous": false,
      "inputs": [
        {
          "indexed": true,
          "internalType": "address",
          "name": "previousOwner",
          "type": "address"
        },
        {
          "indexed": true,
          "internalType": "address",
          "name": "newOwner",
          "type": "address"
        }
      ],
      "name": "OwnershipTransferred",
      "type": "event"
    },
    {
      "anonymous": false,
      "inputs": [
        {
          "indexed": false,
          "internalType": "address",
          "name": "account",
          "type": "address"
        }
      ],
      "name": "Paused",
      "type": "event"
    },
    {
      "anonymous": false,
      "inputs": [
        {
          "indexed": true,
          "internalType": "address",
          "name": "from",
          "type": "address"
        },
        {
          "indexed": false,
          "internalType": "uint256",
          "name": "amount",
          "type": "uint256"
        }
      ],
      "name": "TokensBurned",
      "type": "event"
    },
    {
      "anonymous": false,
      "inputs": [
        {
          "indexed": true,
          "internalType": "address",
          "name": "to",
          "type": "address"
        },
        {
          "indexed": false,
          "internalType": "uint256",
          "name": "amount",
          "type": "uint256"
        }
      ],
      "name": "TokensMinted",
      "type": "event"
    },
    {
      "anonymous": false,
      "inputs": [
        {
          "indexed": true,
          "internalType": "address",
          "name": "from",
          "type": "address"
        },
        {
          "indexed": true,
          "internalType": "address",
          "name": "to",
          "type": "address"
        },
        {
          "indexed": false,
          "internalType": "uint256",
          "name": "value",
          "type": "uint256"
        }
      ],
      "name": "Transfer",
      "type": "event"
    },
    {
      "anonymous": false,
      "inputs": [
        {
          "indexed": false,
          "internalType": "address",
          "name": "account",
          "type": "address"
        }
      ],
      "name": "Unpaused",
      "type": "event"
    },
    {
      "inputs": [
        {
          "internalType": "address",
          "name": "account",
          "type": "address"
        }
      ],
      "name": "addMinter",
      "outputs": [],
      "stateMutability": "nonpayable",
      "type": "function"
    },
    {
      "inputs": [
        {
          "internalType": "address",
          "name": "owner",
          "type": "address"
        },
        {
          "internalType": "address",
          "name": "spender",
          "type": "address"
        }
      ],
      "name": "allowance",
      "outputs": [
        {
          "internalType": "uint256",
          "name": "",
          "type": "uint256"
        }
      ],
      "stateMutability": "view",
      "type": "function"
    },
    {
      "inputs": [
        {
          "internalType": "address",
          "name": "spender",
          "type": "address"
        },
        {
          "internalType": "uint256",
          "name": "value",
          "type": "uint256"
        }
      ],
      "name": "approve",
      "outputs": [
        {
          "internalType": "bool",
          "name": "",
          "type": "bool"
        }
      ],
      "stateMutability": "nonpayable",
      "type": "function"
    },
    {
      "inputs": [
        {
          "internalType": "address",
          "name": "account",
          "type": "address"
        }
      ],
      "name": "balanceOf",
      "outputs": [
        {
          "internalType": "uint256",
          "name": "",
          "type": "uint256"
        }
      ],
      "stateMutability": "view",
      "type": "function"
    },
    {
      "inputs": [
        {
          "internalType": "address[]",
          "name": "holders",
          "type": "address[]"
        },
        {
          "internalType": "uint256[]",
          "name": "amounts",
          "type": "uint256[]"
        }
      ],
      "name": "batchBurn",
      "outputs": [],
      "stateMutability": "nonpayable",
      "type": "function"
    },
    {
      "inputs": [
        {
          "internalType": "address[]",
          "name": "recipients",
          "type": "address[]"
        },
        {
          "internalType": "uint256[]",
          "name": "amounts",
          "type": "uint256[]"
        }
      ],
      "name": "batchMint",
      "outputs": [],
      "stateMutability": "nonpayable",
      "type": "function"
    },
    {
      "inputs": [
        {
          "internalType": "address",
          "name": "from",
          "type": "address"
        },
        {
          "internalType": "uint256",
          "name": "amount",
          "type": "uint256"
        }
      ],
      "name": "burn",
      "outputs": [],
      "stateMutability": "nonpayable",
      "type": "function"
    },
    {
      "inputs": [],
      "name": "decimals",
      "outputs": [
        {
          "internalType": "uint8",
          "name": "",
          "type": "uint8"
        }
      ],
      "stateMutability": "view",
      "type": "function"
    },
    {
      "inputs": [],
      "name": "getMaxSupply",
      "outputs": [
        {
          "internalType": "uint256",
          "name": "",
          "type": "uint256"
        }
      ],
      "stateMutability": "view",
      "type": "function"
    },
    {
      "inputs": [],
      "name": "getRemainingSupply",
      "outputs": [
        {
          "internalType": "uint256",
          "name": "",
          "type": "uint256"
        }
      ],
      "stateMutability": "view",
      "type": "function"
    },
    {
      "inputs": [],
      "name": "getTotalSupply",
      "outputs": [
        {
          "internalType": "uint256",
          "name": "",
          "type": "uint256"
        }
      ],
      "stateMutability": "view",
      "type": "function"
    },
    {
      "inputs": [
        {
          "internalType": "address",
          "name": "account",
          "type": "address"
        }
      ],
      "name": "isMinter",
      "outputs": [
        {
          "internalType": "bool",
          "name": "",
          "type": "bool"
        }
      ],
      "stateMutability": "view",
      "type": "function"
    },
    {
      "inputs": [],
      "name": "maxSupply",
      "outputs": [
        {
          "internalType": "uint256",
          "name": "",
          "type": "uint256"
        }
      ],
      "stateMutability": "view",
      "type": "function"
    },
    {
      "inputs": [
        {
          "internalType": "address",
          "name": "to",
          "type": "address"
        },
        {
          "internalType": "uint256",
          "name": "amount",
          "type": "uint256"
        }
      ],
      "name": "mint",
      "outputs": [],
      "stateMutability": "nonpayable",
      "type": "function"
    },
    {
      "inputs": [
        {
          "internalType": "address",
          "name": "",
          "type": "address"
        }
      ],
      "name": "minters",
      "outputs": [
        {
          "internalType": "bool",
          "name": "",
          "type": "bool"
        }
      ],
      "stateMutability": "view",
      "type": "function"
    },
    {
      "inputs": [],
      "name": "name",
      "outputs": [
        {
          "internalType": "string",
          "name": "",
          "type": "string"
        }
      ],
      "stateMutability": "view",
      "type": "function"
    },
    {
      "inputs": [],
      "name": "owner",
      "outputs": [
        {
          "internalType": "address",
          "name": "",
          "type": "address"
        }
      ],
      "stateMutability": "view",
      "type": "function"
    },
    {
      "inputs": [],
      "name": "pause",
      "outputs": [],
      "stateMutability": "nonpayable",
      "type": "function"
    },
    {
      "inputs": [],
      "name": "paused",
      "outputs": [
        {
          "internalType": "bool",
          "name": "",
          "type": "bool"
        }
      ],
      "stateMutability": "view",
      "type": "function"
    },
    {
      "inputs": [
        {
          "internalType": "address",
          "name": "account",
          "type": "address"
        }
      ],
      "name": "removeMinter",
      "outputs": [],
      "stateMutability": "nonpayable",
      "type": "function"
    },
    {
      "inputs": [],
      "name": "renounceOwnership",
      "outputs": [],
      "stateMutability": "nonpayable",
      "type": "function"
    },
    {
      "inputs": [
        {
          "internalType": "uint256",
          "name": "newMaxSupply",
          "type": "uint256"
        }
      ],
      "name": "setMaxSupply",
      "outputs": [],
      "stateMutability": "nonpayable",
      "type": "function"
    },
    {
      "inputs": [],
      "name": "symbol",
      "outputs": [
        {
          "internalType": "string",
          "name": "",
          "type": "string"
        }
      ],
      "stateMutability": "view",
      "type": "function"
    },
    {
      "inputs": [],
      "name": "totalSupply",
      "outputs": [
        {
          "internalType": "uint256",
          "name": "",
          "type": "uint256"
        }
      ],
      "stateMutability": "view",
      "type": "function"
    },
    {
      "inputs": [
        {
          "internalType": "address",
          "name": "to",
          "type": "address"
        },
        {
          "internalType": "uint256",
          "name": "value",
          "type": "uint256"
        }
      ],
      "name": "transfer",
      "outputs": [
        {
          "internalType": "bool",
          "name": "",
          "type": "bool"
        }
      ],
      "stateMutability": "nonpayable",
      "type": "function"
    },
    {
      "inputs": [
        {
          "internalType": "address",
          "name": "from",
          "type": "address"
        },
        {
          "internalType": "address",
          "name": "to",
          "type": "address"
        },
        {
          "internalType": "uint256",
          "name": "value",
          "type": "uint256"
        }
      ],
      "name": "transferFrom",
      "outputs": [
        {
          "internalType": "bool",
          "name": "",
          "type": "bool"
        }
      ],
      "stateMutability": "nonpayable",
      "type": "function"
    },
    {
      "inputs": [
        {
          "internalType": "address",
          "name": "newOwner",
          "type": "address"
        }
      ],
      "name": "transferOwnership",
      "outputs": [],
      "stateMutability": "nonpayable",
      "type": "function"
    },
    {
      "inputs": [],
      "name": "unpause",
      "outputs": [],
      "stateMutability": "nonpayable",
      "type": "function"
    }
  ],
  "bytecode": "0x60c0604052600d60809081526c159bdd1a5b99c8151a58dad95d609a1b60a05260069061002c9082610326565b50604080518082019091526007808252661d951a58dad95d60ca1b6020830152906100579082610326565b506008805460ff1916601290811790915561007390600a6104d9565b610081906305f5e1006104ee565b60095534801561008f575f5ffd5b50336006805461009e906102a2565b80601f01602080910402602001604051908101604052809291908181526020018280546100ca906102a2565b80156101155780601f106100ec57610100808354040283529160200191610115565b820191905f5260205f20905b8154815290600101906020018083116100f857829003601f168201915b505050505060078054610127906102a2565b80601f0160208091040260200160405190810160405280929190818152602001828054610153906102a2565b801561019e5780601f106101755761010080835404028352916020019161019e565b820191905f5260205f20905b81548152906001019060200180831161018157829003601f168201915b505050505081600390816101b29190610326565b5060046101bf8282610326565b5050506001600160a01b0381166101ef57604051631e4fbdf760e01b81525f600482015260240160405180910390fd5b6101f88161023d565b50335f818152600a6020526040808220805460ff19166001179055517f6ae172837ea30b801fbfcdd4108aa1d5bf8ff775444fd70256b44e6bf3dfc3f69190a2610505565b600580546001600160a01b038381166001600160a01b0319831681179093556040519116919082907f8be0079c531659141344cd1fd0a4f28419497f9722a3daafe3b4186f6b6457e0905f90a35050565b634e487b7160e01b5f52604160045260245ffd5b600181811c908216806102b657607f821691505b6020821081036102d457634e487b7160e01b5f52602260045260245ffd5b50919050565b601f82111561032157805f5260205f20601f840160051c810160208510156102ff5750805b601f840160051c820191505b8181101561031e575f815560010161030b565b50505b505050565b81516001600160401b0381111561033f5761033f61028e565b6103538161034d84546102a2565b846102da565b6020601f821160018114610385575f831561036e5750848201515b5f19600385901b1c1916600184901b17845561031e565b5f84815260208120601f198516915b828110156103b45787850151825560209485019460019092019101610394565b50848210156103d157868401515f19600387901b60f8161c191681555b50505050600190811b01905550565b634e487b7160e01b5f52601160045260245ffd5b6001815b600184111561042f57808504811115610413576104136103e0565b600184161561042157908102905b60019390931c9280026103f8565b935093915050565b5f82610445575060016104d3565b8161045157505f6104d3565b816001811461046757600281146104715761048d565b60019150506104d3565b60ff841115610482576104826103e0565b50506001821b6104d3565b5060208310610133831016604e8410600b84101617156104b0575081810a6104d3565b6104bc5f1984846103f4565b805f19048211156104cf576104cf6103e0565b0290505b92915050565b5f6104e760ff841683610437565b9392505050565b80820281158282048414176104d3576104d36103e0565b6117d0806105125f395ff3fe608060405234801561000f575f5ffd5b50600436106101bb575f3560e01c8063715018a6116100f3578063aa271e1a11610093578063dd62ed3e1161006e578063dd62ed3e1461038d578063e4b7fb73146103c5578063f2fde38b146103cd578063f46eccc4146103e0575f5ffd5b8063aa271e1a14610351578063c4e41b221461037c578063d5abeb0114610384575f5ffd5b806395d89b41116100ce57806395d89b4114610310578063983b2d56146103185780639dc29fac1461032b578063a9059cbb1461033e575f5ffd5b8063715018a6146102e55780638456cb59146102ed5780638da5cb5b146102f5575f5ffd5b806340c10f191161015e5780635c975abb116101395780635c975abb1461028557806368573107146102975780636f8b44b0146102aa57806370a08231146102bd575f5ffd5b806340c10f19146102575780634a6cc6771461026a5780634c0f38c21461027d575f5ffd5b806323b872dd1161019957806323b872dd146102125780633092afd514610225578063313ce5671461023a5780633f4ba83a1461024f575f5ffd5b806306fdde03146101bf578063095ea7b3146101dd57806318160ddd14610200575b5f5ffd5b6101c7610402565b6040516101d49190611546565b60405180910390f35b6101f06101eb366004611596565b610492565b60405190151581526020016101d4565b6002545b6040519081526020016101d4565b6101f06102203660046115be565b6104ab565b6102386102333660046115f8565b6104ce565b005b60085460405160ff90911681526020016101d4565b61023861063e565b610238610265366004611596565b610650565b610238610278366004611660565b6107ba565b600954610204565b600554600160a01b900460ff166101f0565b6102386102a5366004611660565b610a48565b6102386102b83660046116cc565b610cee565b6102046102cb3660046115f8565b6001600160a01b03165f9081526020819052604090205490565b610238610d66565b610238610d77565b6005546040516001600160a01b0390911681526020016101d4565b6101c7610d87565b6102386103263660046115f8565b610d96565b610238610339366004611596565b610e99565b6101f061034c366004611596565b611009565b6101f061035f3660046115f8565b6001600160a01b03165f908152600a602052604090205460ff1690565b610204611016565b61020460095481565b61020461039b3660046116e3565b6001600160a01b039182165f90815260016020908152604080832093909416825291909152205490565b610204611025565b6102386103db3660046115f8565b61103c565b6101f06103ee3660046115f8565b600a6020525f908152604090205460ff1681565b60606006805461041190611714565b80601f016020809104026020016040519081016040528092919081815260200182805461043d90611714565b80156104885780601f1061045f57610100808354040283529160200191610488565b820191905f5260205f20905b81548152906001019060200180831161046b57829003601f168201915b5050505050905090565b5f3361049f818585611079565b60019150505b92915050565b5f336104b885828561108b565b6104c3858585611107565b506001949350505050565b6104d6611164565b6001600160a01b0381166105235760405162461bcd60e51b815260206004820152600f60248201526e496e76616c6964206164647265737360881b60448201526064015b60405180910390fd5b6001600160a01b0381165f908152600a602052604090205460ff1661058a5760405162461bcd60e51b815260206004820152601760248201527f41646472657373206973206e6f742061206d696e746572000000000000000000604482015260640161051a565b6005546001600160a01b03166001600160a01b0316816001600160a01b0316036105f65760405162461bcd60e51b815260206004820152601d60248201527f43616e6e6f742072656d6f7665206f776e6572206173206d696e746572000000604482015260640161051a565b6001600160a01b0381165f818152600a6020526040808220805460ff19169055517fe94479a9f7e1952cc78f2d6baab678adc1b772d936c6583def489e524cb666929190a250565b610646611164565b61064e611191565b565b335f908152600a602052604090205460ff166106ae5760405162461bcd60e51b815260206004820181905260248201527f43616c6c6572206973206e6f7420617574686f72697a656420746f206d696e74604482015260640161051a565b6001600160a01b0382166107045760405162461bcd60e51b815260206004820152601b60248201527f43616e6e6f74206d696e7420746f207a65726f20616464726573730000000000604482015260640161051a565b6009548161071160025490565b61071b9190611760565b11156107695760405162461bcd60e51b815260206004820152601b60248201527f576f756c6420657863656564206d6178696d756d20737570706c790000000000604482015260640161051a565b61077382826111e6565b816001600160a01b03167f3f2c9d57c068687834f0de942a9babb9e5acab57d516d3480a3c16ee165a4273826040516107ae91815260200190565b60405180910390a25050565b335f908152600a602052604090205460ff166108185760405162461bcd60e51b815260206004820181905260248201527f43616c6c6572206973206e6f7420617574686f72697a656420746f206275726e604482015260640161051a565b8281146108605760405162461bcd60e51b8152602060048201526016602482015275082e4e4c2f2e640d8cadccee8d040dad2e6dac2e8c6d60531b604482015260640161051a565b5f5b83811015610a41575f85858381811061087d5761087d611773565b905060200201602081019061089291906115f8565b6001600160a01b0316036108e85760405162461bcd60e51b815260206004820152601d60248201527f43616e6e6f74206275726e2066726f6d207a65726f2061646472657373000000604482015260640161051a565b8282828181106108fa576108fa611773565b9050602002013561092b86868481811061091657610916611773565b90506020020160208101906102cb91906115f8565b10156109705760405162461bcd60e51b8152602060048201526014602482015273496e73756666696369656e742062616c616e636560601b604482015260640161051a565b6109b885858381811061098557610985611773565b905060200201602081019061099a91906115f8565b8484848181106109ac576109ac611773565b9050602002013561121e565b8484828181106109ca576109ca611773565b90506020020160208101906109df91906115f8565b6001600160a01b03167ffd38818f5291bf0bb3a2a48aadc06ba8757865d1dabd804585338aab3009dcb6848484818110610a1b57610a1b611773565b90506020020135604051610a3191815260200190565b60405180910390a2600101610862565b5050505050565b335f908152600a602052604090205460ff16610aa65760405162461bcd60e51b815260206004820181905260248201527f43616c6c6572206973206e6f7420617574686f72697a656420746f206d696e74604482015260640161051a565b828114610aee5760405162461bcd60e51b8152602060048201526016602482015275082e4e4c2f2e640d8cadccee8d040dad2e6dac2e8c6d60531b604482015260640161051a565b5f805b82811015610b2757838382818110610b0b57610b0b611773565b9050602002013582610b1d9190611760565b9150600101610af1565b5060095481610b3560025490565b610b3f9190611760565b1115610b8d5760405162461bcd60e51b815260206004820152601b60248201527f576f756c6420657863656564206d6178696d756d20737570706c790000000000604482015260640161051a565b5f5b84811015610ce6575f868683818110610baa57610baa611773565b9050602002016020810190610bbf91906115f8565b6001600160a01b031603610c155760405162461bcd60e51b815260206004820152601b60248201527f43616e6e6f74206d696e7420746f207a65726f20616464726573730000000000604482015260640161051a565b610c5d868683818110610c2a57610c2a611773565b9050602002016020810190610c3f91906115f8565b858584818110610c5157610c51611773565b905060200201356111e6565b858582818110610c6f57610c6f611773565b9050602002016020810190610c8491906115f8565b6001600160a01b03167f3f2c9d57c068687834f0de942a9babb9e5acab57d516d3480a3c16ee165a4273858584818110610cc057610cc0611773565b90506020020135604051610cd691815260200190565b60405180910390a2600101610b8f565b505050505050565b610cf6611164565b600254811015610d615760405162461bcd60e51b815260206004820152603060248201527f43616e6e6f7420736574206d617820737570706c792062656c6f77206375727260448201526f656e7420746f74616c20737570706c7960801b606482015260840161051a565b600955565b610d6e611164565b61064e5f611252565b610d7f611164565b61064e6112a3565b60606007805461041190611714565b610d9e611164565b6001600160a01b038116610de65760405162461bcd60e51b815260206004820152600f60248201526e496e76616c6964206164647265737360881b604482015260640161051a565b6001600160a01b0381165f908152600a602052604090205460ff1615610e4e5760405162461bcd60e51b815260206004820152601b60248201527f4164647265737320697320616c72656164792061206d696e7465720000000000604482015260640161051a565b6001600160a01b0381165f818152600a6020526040808220805460ff19166001179055517f6ae172837ea30b801fbfcdd4108aa1d5bf8ff775444fd70256b44e6bf3dfc3f69190a250565b335f908152600a602052604090205460ff1680610ebe5750336001600160a01b038316145b610f0a5760405162461bcd60e51b815260206004820181905260248201527f43616c6c6572206973206e6f7420617574686f72697a656420746f206275726e604482015260640161051a565b6001600160a01b038216610f605760405162461bcd60e51b815260206004820152601d60248201527f43616e6e6f74206275726e2066726f6d207a65726f2061646472657373000000604482015260640161051a565b80610f7f836001600160a01b03165f9081526020819052604090205490565b1015610fc45760405162461bcd60e51b8152602060048201526014602482015273496e73756666696369656e742062616c616e636560601b604482015260640161051a565b610fce828261121e565b816001600160a01b03167ffd38818f5291bf0bb3a2a48aadc06ba8757865d1dabd804585338aab3009dcb6826040516107ae91815260200190565b5f3361049f818585611107565b5f61102060025490565b905090565b5f61102f60025490565b6009546110209190611787565b611044611164565b6001600160a01b03811661106d57604051631e4fbdf760e01b81525f600482015260240161051a565b61107681611252565b50565b61108683838360016112e6565b505050565b6001600160a01b038381165f908152600160209081526040808320938616835292905220545f1981101561110157818110156110f357604051637dc7a0d960e11b81526001600160a01b0384166004820152602481018290526044810183905260640161051a565b61110184848484035f6112e6565b50505050565b6001600160a01b03831661113057604051634b637e8f60e11b81525f600482015260240161051a565b6001600160a01b0382166111595760405163ec442f0560e01b81525f600482015260240161051a565b6110868383836113b8565b6005546001600160a01b0316331461064e5760405163118cdaa760e01b815233600482015260240161051a565b6111996113cb565b6005805460ff60a01b191690557f5db9ee0a495bf2e6ff9c91a7834c1ba4fdd244a5e8aa4e537bd38aeae4b073aa335b6040516001600160a01b03909116815260200160405180910390a1565b6001600160a01b03821661120f5760405163ec442f0560e01b81525f600482015260240161051a565b61121a5f83836113b8565b5050565b6001600160a01b03821661124757604051634b637e8f60e11b81525f600482015260240161051a565b61121a825f836113b8565b600580546001600160a01b038381166001600160a01b0319831681179093556040519116919082907f8be0079c531659141344cd1fd0a4f28419497f9722a3daafe3b4186f6b6457e0905f90a35050565b6112ab6113f5565b6005805460ff60a01b1916600160a01b1790557f62e78cea01bee320cd4e420270b5ea74000d11b0c9f74754ebdbfc544b05a2586111c93390565b6001600160a01b03841661130f5760405163e602df0560e01b81525f600482015260240161051a565b6001600160a01b03831661133857604051634a1406b160e11b81525f600482015260240161051a565b6001600160a01b038085165f908152600160209081526040808320938716835292905220829055801561110157826001600160a01b0316846001600160a01b03167f8c5be1e5ebec7d5bd14f71427d1e84f3dd0314c0f7b2291e5b200ac8c7c3b925846040516113aa91815260200190565b60405180910390a350505050565b6113c06113f5565b611086838383611420565b600554600160a01b900460ff1661064e57604051638dfc202b60e01b815260040160405180910390fd5b600554600160a01b900460ff161561064e5760405163d93c066560e01b815260040160405180910390fd5b6001600160a01b03831661144a578060025f82825461143f9190611760565b909155506114ba9050565b6001600160a01b0383165f908152602081905260409020548181101561149c5760405163391434e360e21b81526001600160a01b0385166004820152602481018290526044810183905260640161051a565b6001600160a01b0384165f9081526020819052604090209082900390555b6001600160a01b0382166114d6576002805482900390556114f4565b6001600160a01b0382165f9081526020819052604090208054820190555b816001600160a01b0316836001600160a01b03167fddf252ad1be2c89b69c2b068fc378daa952ba7f163c4a11628f55a4df523b3ef8360405161153991815260200190565b60405180910390a3505050565b602081525f82518060208401528060208501604085015e5f604082850101526040601f19601f83011684010191505092915050565b80356001600160a01b0381168114611591575f5ffd5b919050565b5f5f604083850312156115a7575f5ffd5b6115b08361157b565b946020939093013593505050565b5f5f5f606084860312156115d0575f5ffd5b6115d98461157b565b92506115e76020850161157b565b929592945050506040919091013590565b5f60208284031215611608575f5ffd5b6116118261157b565b9392505050565b5f5f83601f840112611628575f5ffd5b50813567ffffffffffffffff81111561163f575f5ffd5b6020830191508360208260051b8501011115611659575f5ffd5b9250929050565b5f5f5f5f60408587031215611673575f5ffd5b843567ffffffffffffffff811115611689575f5ffd5b61169587828801611618565b909550935050602085013567ffffffffffffffff8111156116b4575f5ffd5b6116c087828801611618565b95989497509550505050565b5f602082840312156116dc575f5ffd5b5035919050565b5f5f604083850312156116f4575f5ffd5b6116fd8361157b565b915061170b6020840161157b565b90509250929050565b600181811c9082168061172857607f821691505b60208210810361174657634e487b7160e01b5f52602260045260245ffd5b50919050565b634e487b7160e01b5f52601160045260245ffd5b808201808211156104a5576104a561174c565b634e487b7160e01b5f52603260045260245ffd5b818103818111156104a5576104a561174c56fea2646970667358221220eb04ff3bc4e52b5b863b481c81c57f2ac067739fdd28684f2c1c0cce30deb1c264736f6c634300081c0033",
  "linkReferences": {},
  "deployedLinkReferences": {},
  "immutableReferences": {},
  "inputSourceName": "project/contracts/VotingTicket.sol",
  "buildInfoId": "solc-0_8_28-d4d6c68c7d0cb705578b6198e9a43a5fe3abbff2"
}