{
  "_format": "hh3-artifact-1",
  "contractName": "VotingNFTReward",
  "sourceName": "contracts/VotingNFTReward.sol",
  "abi": [
    {
      "inputs": [
        {
          "internalType": "string",
          "name": "name",
          "type": "string"
        },
        {
          "internalType": "string",
          "name": "symbol",
          "type": "string"
        }
      ],
      "stateMutability": "nonpayable",
      "type": "constructor"
    },
    {
      "inputs": [
        {
          "internalType": "address",
          "name": "sender",
          "type": "address"
        },
        {
          "internalType": "uint256",
          "name": "tokenId",
          "type": "uint256"
        },
        {
          "internalType": "address",
          "name": "owner",
          "type": "address"
        }
      ],
      "name": "ERC721IncorrectOwner",
      "type": "error"
    },
    {
      "inputs": [
        {
          "internalType": "address",
          "name": "operator",
          "type": "address"
        },
        {
          "internalType": "uint256",
          "name": "tokenId",
          "type": "uint256"
        }
      ],
      "name": "ERC721InsufficientApproval",
      "type": "error"
    },
    {
      "inputs": [
        {
          "internalType": "address",
          "name": "approver",
          "type": "address"
        }
      ],
      "name": "ERC721InvalidApprover",
      "type": "error"
    },
    {
      "inputs": [
        {
          "internalType": "address",
          "name": "operator",
          "type": "address"
        }
      ],
      "name": "ERC721InvalidOperator",
      "type": "error"
    },
    {
      "inputs": [
        {
          "internalType": "address",
          "name": "owner",
          "type": "address"
        }
      ],
      "name": "ERC721InvalidOwner",
      "type": "error"
    },
    {
      "inputs": [
        {
          "internalType": "address",
          "name": "receiver",
          "type": "address"
        }
      ],
      "name": "ERC721InvalidReceiver",
      "type": "error"
    },
    {
      "inputs": [
        {
          "internalType": "address",
          "name": "sender",
          "type": "address"
        }
      ],
      "name": "ERC721InvalidSender",
      "type": "error"
    },
    {
      "inputs": [
        {
          "internalType": "uint256",
          "name": "tokenId",
          "type": "uint256"
        }
      ],
      "name": "ERC721NonexistentToken",
      "type": "error"
    },
    {
      "inputs": [],
      "name": "EnforcedPause",
      "type": "error"
    },
    {
      "inputs": [],
      "name": "ExpectedPause",
      "type": "error"
    },
    {
      "inputs": [
        {
          "internalType": "address",
          "name": "owner",
          "type": "address"
        }
      ],
      "name": "OwnableInvalidOwner",
      "type": "error"
    },
    {
      "inputs": [
        {
          "internalType": "address",
          "name": "account",
          "type": "address"
        }
      ],
      "name": "OwnableUnauthorizedAccount",
      "type": "error"
    },
    {
      "anonymous": false,
      "inputs": [
        {
          "indexed": true,
          "internalType": "address",
          "name": "owner",
          "type": "address"
        },
        {
          "indexed": true,
          "internalType": "address",
          "name": "approved",
          "type": "address"
        },
        {
          "indexed": true,
          "internalType": "uint256",
          "name": "tokenId",
          "type": "uint256"
        }
      ],
      "name": "Approval",
      "type": "event"
    },
    {
      "anonymous": false,
      "inputs": [
        {
          "indexed": true,
          "internalType": "address",
          "name": "owner",
          "type": "address"
        },
        {
          "indexed": true,
          "internalType": "address",
          "name": "operator",
          "type": "address"
        },
        {
          "indexed": false,
          "internalType": "bool",
          "name": "approved",
          "type": "bool"
        }
      ],
      "name": "ApprovalForAll",
      "type": "event"
    },
    {
      "anonymous": false,
      "inputs": [
        {
          "indexed": false,
          "internalType": "string",
          "name": "oldURI",
          "type": "string"
        },
        {
          "indexed": false,
          "internalType": "string",
          "name": "newURI",
          "type": "string"
        }
      ],
      "name": "BaseURIUpdated",
      "type": "event"
    },
    {
      "anonymous": false,
      "inputs": [
        {
          "indexed": true,
          "internalType": "address",
          "name": "to",
          "type": "address"
        },
        {
          "indexed": true,
          "internalType": "uint256",
          "name": "tokenId",
          "type": "uint256"
        }
      ],
      "name": "GenesisNFTMinted",
      "type": "event"
    },
    {
      "anonymous": false,
      "inputs": [
        {
          "indexed": true,
          "internalType": "address",
          "name": "to",
          "type": "address"
        },
        {
          "indexed": true,
          "internalType": "uint256",
          "name": "tokenId",
          "type": "uint256"
        },
        {
          "indexed": false,
          "internalType": "uint256",
          "name": "votingPeriodId",
          "type": "uint256"
        },
        {
          "indexed": false,
          "internalType": "string",
          "name": "rarity",
          "type": "string"
        }
      ],
      "name": "NFTMinted",
      "type": "event"
    },
    {
      "anonymous": false,
      "inputs": [
        {
          "indexed": true,
          "internalType": "address",
          "name": "previousOwner",
          "type": "address"
        },
        {
          "indexed": true,
          "internalType": "address",
          "name": "newOwner",
          "type": "address"
        }
      ],
      "name": "OwnershipTransferred",
      "type": "event"
    },
    {
      "anonymous": false,
      "inputs": [
        {
          "indexed": false,
          "internalType": "address",
          "name": "account",
          "type": "address"
        }
      ],
      "name": "Paused",
      "type": "event"
    },
    {
      "anonymous": false,
      "inputs": [
        {
          "indexed": true,
          "internalType": "address",
          "name": "from",
          "type": "address"
        },
        {
          "indexed": true,
          "internalType": "address",
          "name": "to",
          "type": "address"
        },
        {
          "indexed": true,
          "internalType": "uint256",
          "name": "tokenId",
          "type": "uint256"
        }
      ],
      "name": "Transfer",
      "type": "event"
    },
    {
      "anonymous": false,
      "inputs": [
        {
          "indexed": false,
          "internalType": "address",
          "name": "account",
          "type": "address"
        }
      ],
      "name": "Unpaused",
      "type": "event"
    },
    {
      "inputs": [
        {
          "internalType": "address",
          "name": "to",
          "type": "address"
        },
        {
          "internalType": "uint256",
          "name": "tokenId",
          "type": "uint256"
        }
      ],
      "name": "approve",
      "outputs": [],
      "stateMutability": "nonpayable",
      "type": "function"
    },
    {
      "inputs": [
        {
          "internalType": "address",
          "name": "owner",
          "type": "address"
        }
      ],
      "name": "balanceOf",
      "outputs": [
        {
          "internalType": "uint256",
          "name": "",
          "type": "uint256"
        }
      ],
      "stateMutability": "view",
      "type": "function"
    },
    {
      "inputs": [
        {
          "internalType": "uint256",
          "name": "tokenId",
          "type": "uint256"
        }
      ],
      "name": "getApproved",
      "outputs": [
        {
          "internalType": "address",
          "name": "",
          "type": "address"
        }
      ],
      "stateMutability": "view",
      "type": "function"
    },
    {
      "inputs": [
        {
          "internalType": "uint256",
          "name": "tokenId",
          "type": "uint256"
        }
      ],
      "name": "getNFTMetadata",
      "outputs": [
        {
          "components": [
            {
              "internalType": "uint256",
              "name": "votingPeriodId",
              "type": "uint256"
            },
            {
              "internalType": "uint256",
              "name": "predictionYears",
              "type": "uint256"
            },
            {
              "internalType": "uint256",
              "name": "ticketsUsed",
              "type": "uint256"
            },
            {
              "internalType": "uint256",
              "name": "mintTime",
              "type": "uint256"
            },
            {
              "internalType": "string",
              "name": "rarity",
              "type": "string"
            },
            {
              "internalType": "bool",
              "name": "isGenesis",
              "type": "bool"
            }
          ],
          "internalType": "struct VotingNFTReward.NFTMetadata",
          "name": "",
          "type": "tuple"
        }
      ],
      "stateMutability": "view",
      "type": "function"
    },
    {
      "inputs": [
        {
          "internalType": "string",
          "name": "rarity",
          "type": "string"
        }
      ],
      "name": "getRarityCount",
      "outputs": [
        {
          "internalType": "uint256",
          "name": "",
          "type": "uint256"
        }
      ],
      "stateMutability": "view",
      "type": "function"
    },
    {
      "inputs": [
        {
          "internalType": "uint256",
          "name": "votingPeriodId",
          "type": "uint256"
        }
      ],
      "name": "getVotingPeriodNFTCount",
      "outputs": [
        {
          "internalType": "uint256",
          "name": "",
          "type": "uint256"
        }
      ],
      "stateMutability": "view",
      "type": "function"
    },
    {
      "inputs": [
        {
          "internalType": "address",
          "name": "owner",
          "type": "address"
        },
        {
          "internalType": "address",
          "name": "operator",
          "type": "address"
        }
      ],
      "name": "isApprovedForAll",
      "outputs": [
        {
          "internalType": "bool",
          "name": "",
          "type": "bool"
        }
      ],
      "stateMutability": "view",
      "type": "function"
    },
    {
      "inputs": [
        {
          "internalType": "address",
          "name": "to",
          "type": "address"
        },
        {
          "internalType": "uint256",
          "name": "votingPeriodId",
          "type": "uint256"
        },
        {
          "internalType": "uint256",
          "name": "predictionYears",
          "type": "uint256"
        },
        {
          "internalType": "uint256",
          "name": "ticketsUsed",
          "type": "uint256"
        }
      ],
      "name": "mintCorrectPredictionNFT",
      "outputs": [
        {
          "internalType": "uint256",
          "name": "",
          "type": "uint256"
        }
      ],
      "stateMutability": "nonpayable",
      "type": "function"
    },
    {
      "inputs": [
        {
          "internalType": "address",
          "name": "to",
          "type": "address"
        }
      ],
      "name": "mintGenesisNFT",
      "outputs": [
        {
          "internalType": "uint256",
          "name": "",
          "type": "uint256"
        }
      ],
      "stateMutability": "nonpayable",
      "type": "function"
    },
    {
      "inputs": [],
      "name": "name",
      "outputs": [
        {
          "internalType": "string",
          "name": "",
          "type": "string"
        }
      ],
      "stateMutability": "view",
      "type": "function"
    },
    {
      "inputs": [
        {
          "internalType": "uint256",
          "name": "",
          "type": "uint256"
        }
      ],
      "name": "nftMetadata",
      "outputs": [
        {
          "internalType": "uint256",
          "name": "votingPeriodId",
          "type": "uint256"
        },
        {
          "internalType": "uint256",
          "name": "predictionYears",
          "type": "uint256"
        },
        {
          "internalType": "uint256",
          "name": "ticketsUsed",
          "type": "uint256"
        },
        {
          "internalType": "uint256",
          "name": "mintTime",
          "type": "uint256"
        },
        {
          "internalType": "string",
          "name": "rarity",
          "type": "string"
        },
        {
          "internalType": "bool",
          "name": "isGenesis",
          "type": "bool"
        }
      ],
      "stateMutability": "view",
      "type": "function"
    },
    {
      "inputs": [],
      "name": "owner",
      "outputs": [
        {
          "internalType": "address",
          "name": "",
          "type": "address"
        }
      ],
      "stateMutability": "view",
      "type": "function"
    },
    {
      "inputs": [
        {
          "internalType": "uint256",
          "name": "tokenId",
          "type": "uint256"
        }
      ],
      "name": "ownerOf",
      "outputs": [
        {
          "internalType": "address",
          "name": "",
          "type": "address"
        }
      ],
      "stateMutability": "view",
      "type": "function"
    },
    {
      "inputs": [],
      "name": "pause",
      "outputs": [],
      "stateMutability": "nonpayable",
      "type": "function"
    },
    {
      "inputs": [],
      "name": "paused",
      "outputs": [
        {
          "internalType": "bool",
          "name": "",
          "type": "bool"
        }
      ],
      "stateMutability": "view",
      "type": "function"
    },
    {
      "inputs": [
        {
          "internalType": "string",
          "name": "",
          "type": "string"
        }
      ],
      "name": "rarityCount",
      "outputs": [
        {
          "internalType": "uint256",
          "name": "",
          "type": "uint256"
        }
      ],
      "stateMutability": "view",
      "type": "function"
    },
    {
      "inputs": [],
      "name": "renounceOwnership",
      "outputs": [],
      "stateMutability": "nonpayable",
      "type": "function"
    },
    {
      "inputs": [
        {
          "internalType": "address",
          "name": "from",
          "type": "address"
        },
        {
          "internalType": "address",
          "name": "to",
          "type": "address"
        },
        {
          "internalType": "uint256",
          "name": "tokenId",
          "type": "uint256"
        }
      ],
      "name": "safeTransferFrom",
      "outputs": [],
      "stateMutability": "nonpayable",
      "type": "function"
    },
    {
      "inputs": [
        {
          "internalType": "address",
          "name": "from",
          "type": "address"
        },
        {
          "internalType": "address",
          "name": "to",
          "type": "address"
        },
        {
          "internalType": "uint256",
          "name": "tokenId",
          "type": "uint256"
        },
        {
          "internalType": "bytes",
          "name": "data",
          "type": "bytes"
        }
      ],
      "name": "safeTransferFrom",
      "outputs": [],
      "stateMutability": "nonpayable",
      "type": "function"
    },
    {
      "inputs": [
        {
          "internalType": "address",
          "name": "operator",
          "type": "address"
        },
        {
          "internalType": "bool",
          "name": "approved",
          "type": "bool"
        }
      ],
      "name": "setApprovalForAll",
      "outputs": [],
      "stateMutability": "nonpayable",
      "type": "function"
    },
    {
      "inputs": [
        {
          "internalType": "string",
          "name": "newBaseURI",
          "type": "string"
        }
      ],
      "name": "setBaseURI",
      "outputs": [],
      "stateMutability": "nonpayable",
      "type": "function"
    },
    {
      "inputs": [
        {
          "internalType": "bytes4",
          "name": "interfaceId",
          "type": "bytes4"
        }
      ],
      "name": "supportsInterface",
      "outputs": [
        {
          "internalType": "bool",
          "name": "",
          "type": "bool"
        }
      ],
      "stateMutability": "view",
      "type": "function"
    },
    {
      "inputs": [],
      "name": "symbol",
      "outputs": [
        {
          "internalType": "string",
          "name": "",
          "type": "string"
        }
      ],
      "stateMutability": "view",
      "type": "function"
    },
    {
      "inputs": [
        {
          "internalType": "uint256",
          "name": "tokenId",
          "type": "uint256"
        }
      ],
      "name": "tokenURI",
      "outputs": [
        {
          "internalType": "string",
          "name": "",
          "type": "string"
        }
      ],
      "stateMutability": "view",
      "type": "function"
    },
    {
      "inputs": [],
      "name": "totalSupply",
      "outputs": [
        {
          "internalType": "uint256",
          "name": "",
          "type": "uint256"
        }
      ],
      "stateMutability": "view",
      "type": "function"
    },
    {
      "inputs": [
        {
          "internalType": "address",
          "name": "from",
          "type": "address"
        },
        {
          "internalType": "address",
          "name": "to",
          "type": "address"
        },
        {
          "internalType": "uint256",
          "name": "tokenId",
          "type": "uint256"
        }
      ],
      "name": "transferFrom",
      "outputs": [],
      "stateMutability": "nonpayable",
      "type": "function"
    },
    {
      "inputs": [
        {
          "internalType": "address",
          "name": "newOwner",
          "type": "address"
        }
      ],
      "name": "transferOwnership",
      "outputs": [],
      "stateMutability": "nonpayable",
      "type": "function"
    },
    {
      "inputs": [],
      "name": "unpause",
      "outputs": [],
      "stateMutability": "nonpayable",
      "type": "function"
    },
    {
      "inputs": [
        {
          "internalType": "uint256",
          "name": "",
          "type": "uint256"
        }
      ],
      "name": "votingPeriodNFTCount",
      "outputs": [
        {
          "internalType": "uint256",
          "name": "",
          "type": "uint256"
        }
      ],
      "stateMutability": "view",
      "type": "function"
    }
  ],
  "bytecode": "0x608060405234801561000f575f5ffd5b506040516122c93803806122c983398101604081905261002e9161019f565b3382825f61003c8382610288565b5060016100498282610288565b5050506001600160a01b03811661007957604051631e4fbdf760e01b81525f600482015260240160405180910390fd5b610082816100b1565b506040518060600160405280602381526020016122a660239139600b906100a99082610288565b505050610342565b600680546001600160a01b038381166001600160a01b0319831681179093556040519116919082907f8be0079c531659141344cd1fd0a4f28419497f9722a3daafe3b4186f6b6457e0905f90a35050565b634e487b7160e01b5f52604160045260245ffd5b5f82601f830112610125575f5ffd5b81516001600160401b0381111561013e5761013e610102565b604051601f8201601f19908116603f011681016001600160401b038111828210171561016c5761016c610102565b604052818152838201602001851015610183575f5ffd5b8160208501602083015e5f918101602001919091529392505050565b5f5f604083850312156101b0575f5ffd5b82516001600160401b038111156101c5575f5ffd5b6101d185828601610116565b602085015190935090506001600160401b038111156101ee575f5ffd5b6101fa85828601610116565b9150509250929050565b600181811c9082168061021857607f821691505b60208210810361023657634e487b7160e01b5f52602260045260245ffd5b50919050565b601f82111561028357805f5260205f20601f840160051c810160208510156102615750805b601f840160051c820191505b81811015610280575f815560010161026d565b50505b505050565b81516001600160401b038111156102a1576102a1610102565b6102b5816102af8454610204565b8461023c565b6020601f8211600181146102e7575f83156102d05750848201515b5f19600385901b1c1916600184901b178455610280565b5f84815260208120601f198516915b8281101561031657878501518255602094850194600190920191016102f6565b508482101561033357868401515f19600387901b60f8161c191681555b50505050600190811b01905550565b611f578061034f5f395ff3fe608060405234801561000f575f5ffd5b50600436106101c6575f3560e01c80636352211e116100fe578063a22cb4651161009e578063e985e9c51161006e578063e985e9c5146103f9578063ebd7792e1461040c578063f2fde38b1461041f578063fe6e5b1014610432575f5ffd5b8063a22cb465146103a1578063a71425d9146103b4578063b88d4fde146103d3578063c87b56dd146103e6575f5ffd5b8063715018a6116100d9578063715018a6146103785780638456cb59146103805780638da5cb5b1461038857806395d89b4114610399575f5ffd5b80636352211e146103325780636be9a6f11461034557806370a0823114610365575f5ffd5b806323b872dd11610169578063495410151161014457806349541015146102bd5780634e91d0c8146102e257806355f804b31461030d5780635c975abb14610320575f5ffd5b806323b872dd1461028f5780633f4ba83a146102a257806342842e0e146102aa575f5ffd5b8063095ea7b3116101a4578063095ea7b3146102325780630f0c44b01461024757806317b59da81461026857806318160ddd14610287575f5ffd5b806301ffc9a7146101ca57806306fdde03146101f2578063081812fc14610207575b5f5ffd5b6101dd6101d836600461179c565b610445565b60405190151581526020015b60405180910390f35b6101fa610496565b6040516101e991906117e5565b61021a6102153660046117f7565b610525565b6040516001600160a01b0390911681526020016101e9565b610245610240366004611824565b61054c565b005b61025a61025536600461184c565b61055b565b6040519081526020016101e9565b61025a6102763660046117f7565b5f908152600a602052604090205490565b60075461025a565b61024561029d3660046118ba565b610585565b610245610613565b6102456102b83660046118ba565b610625565b6102d06102cb3660046117f7565b610644565b6040516101e9969594939291906118f4565b61025a6102f03660046119be565b805160208183018101805160088252928201919093012091525481565b61024561031b36600461184c565b610703565b600654600160a01b900460ff166101dd565b61021a6103403660046117f7565b6107e9565b6103586103533660046117f7565b6107f3565b6040516101e99190611a0b565b61025a610373366004611a66565b61096a565b6102456109af565b6102456109c0565b6006546001600160a01b031661021a565b6101fa6109d0565b6102456103af366004611a7f565b6109df565b61025a6103c23660046117f7565b600a6020525f908152604090205481565b6102456103e1366004611ab8565b6109ea565b6101fa6103f43660046117f7565b610a02565b6101dd610407366004611b2f565b610b80565b61025a61041a366004611b60565b610bad565b61024561042d366004611a66565b610bcc565b61025a610440366004611a66565b610c09565b5f6001600160e01b031982166380ac58cd60e01b148061047557506001600160e01b03198216635b5e139f60e01b145b8061049057506301ffc9a760e01b6001600160e01b03198316145b92915050565b60605f80546104a490611b96565b80601f01602080910402602001604051908101604052809291908181526020018280546104d090611b96565b801561051b5780601f106104f25761010080835404028352916020019161051b565b820191905f5260205f20905b8154815290600101906020018083116104fe57829003601f168201915b5050505050905090565b5f61052f82610d4a565b505f828152600460205260409020546001600160a01b0316610490565b610557828233610d82565b5050565b5f6008838360405161056e929190611bce565b908152602001604051809103902054905092915050565b6001600160a01b0382166105b357604051633250574960e11b81525f60048201526024015b60405180910390fd5b5f6105bf838333610d8f565b9050836001600160a01b0316816001600160a01b03161461060d576040516364283d7b60e01b81526001600160a01b03808616600483015260248201849052821660448201526064016105aa565b50505050565b61061b610dad565b610623610dda565b565b61063f83838360405180602001604052805f8152506109ea565b505050565b60096020525f908152604090208054600182015460028301546003840154600485018054949593949293919261067990611b96565b80601f01602080910402602001604051908101604052809291908181526020018280546106a590611b96565b80156106f05780601f106106c7576101008083540402835291602001916106f0565b820191905f5260205f20905b8154815290600101906020018083116106d357829003601f168201915b5050506005909301549192505060ff1686565b61070b610dad565b5f600b805461071990611b96565b80601f016020809104026020016040519081016040528092919081815260200182805461074590611b96565b80156107905780601f1061076757610100808354040283529160200191610790565b820191905f5260205f20905b81548152906001019060200180831161077357829003601f168201915b505050505090508282600b91826107a8929190611c21565b507f309b29ded109b9e28fb9885757b3e0096eb75c51d23aa4635d68bcd569f6adc18184846040516107dc93929190611cdb565b60405180910390a1505050565b5f61049082610d4a565b6108296040518060c001604052805f81526020015f81526020015f81526020015f8152602001606081526020015f151581525090565b5f610833836107e9565b6001600160a01b0316036108805760405162461bcd60e51b8152602060048201526014602482015273151bdad95b88191bd95cc81b9bdd08195e1a5cdd60621b60448201526064016105aa565b60095f8381526020019081526020015f206040518060c00160405290815f82015481526020016001820154815260200160028201548152602001600382015481526020016004820180546108d390611b96565b80601f01602080910402602001604051908101604052809291908181526020018280546108ff90611b96565b801561094a5780601f106109215761010080835404028352916020019161094a565b820191905f5260205f20905b81548152906001019060200180831161092d57829003601f168201915b50505091835250506005919091015460ff16151560209091015292915050565b5f6001600160a01b038216610994576040516322718ad960e21b81525f60048201526024016105aa565b506001600160a01b03165f9081526003602052604090205490565b6109b7610dad565b6106235f610e2f565b6109c8610dad565b610623610e80565b6060600180546104a490611b96565b610557338383610ec3565b6109f5848484610585565b61060d3385858585610f61565b60605f610a0e836107e9565b6001600160a01b031603610a5b5760405162461bcd60e51b8152602060048201526014602482015273151bdad95b88191bd95cc81b9bdd08195e1a5cdd60621b60448201526064016105aa565b5f60095f8481526020019081526020015f206040518060c00160405290815f8201548152602001600182015481526020016002820154815260200160038201548152602001600482018054610aaf90611b96565b80601f0160208091040260200160405190810160405280929190818152602001828054610adb90611b96565b8015610b265780601f10610afd57610100808354040283529160200191610b26565b820191905f5260205f20905b815481529060010190602001808311610b0957829003601f168201915b50505091835250506005919091015460ff16151560209091015290505f610b4b611089565b905080610b5785611098565b604051602001610b68929190611d36565b60405160208183030381529060405292505050919050565b6001600160a01b039182165f90815260056020908152604080832093909416825291909152205460ff1690565b5f610bb6610dad565b610bc3858585855f6111be565b95945050505050565b610bd4610dad565b6001600160a01b038116610bfd57604051631e4fbdf760e01b81525f60048201526024016105aa565b610c0681610e2f565b50565b5f610c12610dad565b600780549081905f610c2383611d5e565b9190505550610c328382611312565b6040805180820182526009808252684c6567656e6461727960b81b602080840191909152835160c0810185525f808252818301818152828701828152426060850190815260808501888152600160a087018190528b865297909652979092208351815590519481019490945551600284015593516003830155519192916004820190610cbe9082611d76565b5060a091909101516005909101805460ff1916911515919091179055604051600890610ceb908390611e31565b9081526040519081900360200190208054905f610d0783611d5e565b909155505060405182906001600160a01b038616907f9c849b4b70070724cc5397b607e02a7a1ae411a1973fb5300a92dac1204af74f905f90a35090505b919050565b5f818152600260205260408120546001600160a01b03168061049057604051637e27328960e01b8152600481018490526024016105aa565b61063f838383600161132b565b5f610d9861142f565b610da384848461145a565b90505b9392505050565b6006546001600160a01b031633146106235760405163118cdaa760e01b81523360048201526024016105aa565b610de261154c565b6006805460ff60a01b191690557f5db9ee0a495bf2e6ff9c91a7834c1ba4fdd244a5e8aa4e537bd38aeae4b073aa335b6040516001600160a01b03909116815260200160405180910390a1565b600680546001600160a01b038381166001600160a01b0319831681179093556040519116919082907f8be0079c531659141344cd1fd0a4f28419497f9722a3daafe3b4186f6b6457e0905f90a35050565b610e8861142f565b6006805460ff60a01b1916600160a01b1790557f62e78cea01bee320cd4e420270b5ea74000d11b0c9f74754ebdbfc544b05a258610e123390565b6001600160a01b038216610ef557604051630b61174360e31b81526001600160a01b03831660048201526024016105aa565b6001600160a01b038381165f81815260056020908152604080832094871680845294825291829020805460ff191686151590811790915591519182527f17307eab39ab6107e8899845ad3d59bd9653f200f220920489ca2b5937696c31910160405180910390a3505050565b6001600160a01b0383163b1561108257604051630a85bd0160e11b81526001600160a01b0384169063150b7a0290610fa3908890889087908790600401611e3c565b6020604051808303815f875af1925050508015610fdd575060408051601f3d908101601f19168201909252610fda91810190611e78565b60015b611044573d80801561100a576040519150601f19603f3d011682016040523d82523d5f602084013e61100f565b606091505b5080515f0361103c57604051633250574960e11b81526001600160a01b03851660048201526024016105aa565b805160208201fd5b6001600160e01b03198116630a85bd0160e11b1461108057604051633250574960e11b81526001600160a01b03851660048201526024016105aa565b505b5050505050565b6060600b80546104a490611b96565b6060815f036110be5750506040805180820190915260018152600360fc1b602082015290565b815f5b81156110e757806110d181611d5e565b91506110e09050600a83611e93565b91506110c1565b5f8167ffffffffffffffff81111561110157611101611933565b6040519080825280601f01601f19166020018201604052801561112b576020820181803683370190505b509050815b85156111b557611141600182611eb2565b90505f61114f600a88611e93565b61115a90600a611ec5565b6111649088611eb2565b61116f906030611edc565b90505f8160f81b90508084848151811061118b5761118b611ef5565b60200101906001600160f81b03191690815f1a9053506111ac600a89611e93565b97505050611130565b50949350505050565b600780545f918190836111d083611d5e565b91905055506111df8782611312565b5f6111eb858789611576565b6040805160c08101825289815260208082018a81528284018a81524260608501908152608085018781528b151560a08701525f8a815260099095529590932084518155915160018301555160028201559051600382015591519293509160048201906112579082611d76565b5060a091909101516005909101805460ff1916911515919091179055604051600890611284908390611e31565b9081526040519081900360200190208054905f6112a083611d5e565b90915550505f878152600a602052604081208054916112be83611d5e565b919050555081886001600160a01b03167f01f8bd07e6c27ff813d5c6d3c4bf0313a1d75043cf978214b504b794075e526689846040516112ff929190611f09565b60405180910390a3509695505050505050565b610557828260405180602001604052805f81525061164a565b808061133f57506001600160a01b03821615155b15611400575f61134e84610d4a565b90506001600160a01b0383161580159061137a5750826001600160a01b0316816001600160a01b031614155b801561138d575061138b8184610b80565b155b156113b65760405163a9fbf51f60e01b81526001600160a01b03841660048201526024016105aa565b81156113fe5783856001600160a01b0316826001600160a01b03167f8c5be1e5ebec7d5bd14f71427d1e84f3dd0314c0f7b2291e5b200ac8c7c3b92560405160405180910390a45b505b50505f90815260046020526040902080546001600160a01b0319166001600160a01b0392909216919091179055565b600654600160a01b900460ff16156106235760405163d93c066560e01b815260040160405180910390fd5b5f828152600260205260408120546001600160a01b039081169083161561148657611486818486611661565b6001600160a01b038116156114c0576114a15f855f5f61132b565b6001600160a01b0381165f90815260036020526040902080545f190190555b6001600160a01b038516156114ee576001600160a01b0385165f908152600360205260409020805460010190555b5f8481526002602052604080822080546001600160a01b0319166001600160a01b0389811691821790925591518793918516917fddf252ad1be2c89b69c2b068fc378daa952ba7f163c4a11628f55a4df523b3ef91a4949350505050565b600654600160a01b900460ff1661062357604051638dfc202b60e01b815260040160405180910390fd5b60606103e884106115a757506040805180820190915260098152684c6567656e6461727960b81b6020820152610da6565b6101f484106115d157506040805180820190915260048152634570696360e01b6020820152610da6565b606484106115fa57506040805180820190915260048152635261726560e01b6020820152610da6565b6032841061162757506040805180820190915260088152672ab731b7b6b6b7b760c11b6020820152610da6565b5060408051808201909152600681526521b7b6b6b7b760d11b6020820152610da6565b61165483836116c5565b61063f335f858585610f61565b61166c838383611726565b61063f576001600160a01b03831661169a57604051637e27328960e01b8152600481018290526024016105aa565b60405163177e802f60e01b81526001600160a01b0383166004820152602481018290526044016105aa565b6001600160a01b0382166116ee57604051633250574960e11b81525f60048201526024016105aa565b5f6116fa83835f610d8f565b90506001600160a01b0381161561063f576040516339e3563760e11b81525f60048201526024016105aa565b5f6001600160a01b03831615801590610da35750826001600160a01b0316846001600160a01b0316148061175f575061175f8484610b80565b80610da35750505f908152600460205260409020546001600160a01b03908116911614919050565b6001600160e01b031981168114610c06575f5ffd5b5f602082840312156117ac575f5ffd5b8135610da681611787565b5f81518084528060208401602086015e5f602082860101526020601f19601f83011685010191505092915050565b602081525f610da660208301846117b7565b5f60208284031215611807575f5ffd5b5035919050565b80356001600160a01b0381168114610d45575f5ffd5b5f5f60408385031215611835575f5ffd5b61183e8361180e565b946020939093013593505050565b5f5f6020838503121561185d575f5ffd5b823567ffffffffffffffff811115611873575f5ffd5b8301601f81018513611883575f5ffd5b803567ffffffffffffffff811115611899575f5ffd5b8560208284010111156118aa575f5ffd5b6020919091019590945092505050565b5f5f5f606084860312156118cc575f5ffd5b6118d58461180e565b92506118e36020850161180e565b929592945050506040919091013590565b86815285602082015284604082015283606082015260c060808201525f61191e60c08301856117b7565b905082151560a0830152979650505050505050565b634e487b7160e01b5f52604160045260245ffd5b5f5f67ffffffffffffffff84111561196157611961611933565b50604051601f19601f85018116603f0116810181811067ffffffffffffffff8211171561199057611990611933565b6040528381529050808284018510156119a7575f5ffd5b838360208301375f60208583010152509392505050565b5f602082840312156119ce575f5ffd5b813567ffffffffffffffff8111156119e4575f5ffd5b8201601f810184136119f4575f5ffd5b611a0384823560208401611947565b949350505050565b60208152815160208201526020820151604082015260408201516060820152606082015160808201525f608083015160c060a0840152611a4e60e08401826117b7565b905060a0840151151560c08401528091505092915050565b5f60208284031215611a76575f5ffd5b610da68261180e565b5f5f60408385031215611a90575f5ffd5b611a998361180e565b915060208301358015158114611aad575f5ffd5b809150509250929050565b5f5f5f5f60808587031215611acb575f5ffd5b611ad48561180e565b9350611ae26020860161180e565b925060408501359150606085013567ffffffffffffffff811115611b04575f5ffd5b8501601f81018713611b14575f5ffd5b611b2387823560208401611947565b91505092959194509250565b5f5f60408385031215611b40575f5ffd5b611b498361180e565b9150611b576020840161180e565b90509250929050565b5f5f5f5f60808587031215611b73575f5ffd5b611b7c8561180e565b966020860135965060408601359560600135945092505050565b600181811c90821680611baa57607f821691505b602082108103611bc857634e487b7160e01b5f52602260045260245ffd5b50919050565b818382375f9101908152919050565b601f82111561063f57805f5260205f20601f840160051c81016020851015611c025750805b601f840160051c820191505b81811015611082575f8155600101611c0e565b67ffffffffffffffff831115611c3957611c39611933565b611c4d83611c478354611b96565b83611bdd565b5f601f841160018114611c7e575f8515611c675750838201355b5f19600387901b1c1916600186901b178355611082565b5f83815260208120601f198716915b82811015611cad5786850135825560209485019460019092019101611c8d565b5086821015611cc9575f1960f88860031b161c19848701351681555b505060018560011b0183555050505050565b604081525f611ced60408301866117b7565b8281036020840152838152838560208301375f602085830101526020601f19601f860116820101915050949350505050565b5f81518060208401855e5f93019283525090919050565b5f610da3611d448386611d1f565b84611d1f565b634e487b7160e01b5f52601160045260245ffd5b5f60018201611d6f57611d6f611d4a565b5060010190565b815167ffffffffffffffff811115611d9057611d90611933565b611da481611d9e8454611b96565b84611bdd565b6020601f821160018114611dd6575f8315611dbf5750848201515b5f19600385901b1c1916600184901b178455611082565b5f84815260208120601f198516915b82811015611e055787850151825560209485019460019092019101611de5565b5084821015611e2257868401515f19600387901b60f8161c191681555b50505050600190811b01905550565b5f610da68284611d1f565b6001600160a01b03858116825284166020820152604081018390526080606082018190525f90611e6e908301846117b7565b9695505050505050565b5f60208284031215611e88575f5ffd5b8151610da681611787565b5f82611ead57634e487b7160e01b5f52601260045260245ffd5b500490565b8181038181111561049057610490611d4a565b808202811582820484141761049057610490611d4a565b60ff818116838216019081111561049057610490611d4a565b634e487b7160e01b5f52603260045260245ffd5b828152604060208201525f610da360408301846117b756fea26469706673582212202595e4b106c787cdf93ecd084be941806d2b31ba755742b7e425444ca6faabd964736f6c634300081c003368747470733a2f2f6170692e766f74696e676e66742e636f6d2f6d657461646174612f",
  "linkReferences": {},
  "deployedLinkReferences": {},
  "immutableReferences": {},
  "inputSourceName": "project/contracts/VotingNFTReward.sol",
  "buildInfoId": "solc-0_8_28-fc84d32ce1c79604bae337ce26ee7f7b5597da9f"
}