{
  "_format": "hh3-artifact-1",
  "contractName": "BTCOracle",
  "sourceName": "contracts/BTCOracle.sol",
  "abi": [
    {
      "inputs": [
        {
          "internalType": "address",
          "name": "_btcPriceFeed",
          "type": "address"
        },
        {
          "internalType": "address",
          "name": "_votingContract",
          "type": "address"
        }
      ],
      "stateMutability": "nonpayable",
      "type": "constructor"
    },
    {
      "inputs": [],
      "name": "EnforcedPause",
      "type": "error"
    },
    {
      "inputs": [],
      "name": "ExpectedPause",
      "type": "error"
    },
    {
      "inputs": [
        {
          "internalType": "address",
          "name": "owner",
          "type": "address"
        }
      ],
      "name": "OwnableInvalidOwner",
      "type": "error"
    },
    {
      "inputs": [
        {
          "internalType": "address",
          "name": "account",
          "type": "address"
        }
      ],
      "name": "OwnableUnauthorizedAccount",
      "type": "error"
    },
    {
      "anonymous": false,
      "inputs": [
        {
          "indexed": false,
          "internalType": "uint256",
          "name": "newSupply",
          "type": "uint256"
        }
      ],
      "name": "BTCSupplyUpdated",
      "type": "event"
    },
    {
      "anonymous": false,
      "inputs": [
        {
          "indexed": true,
          "internalType": "uint256",
          "name": "competitorId",
          "type": "uint256"
        },
        {
          "indexed": false,
          "internalType": "string",
          "name": "name",
          "type": "string"
        },
        {
          "indexed": false,
          "internalType": "address",
          "name": "priceFeed",
          "type": "address"
        }
      ],
      "name": "CompetitorAdded",
      "type": "event"
    },
    {
      "anonymous": false,
      "inputs": [
        {
          "indexed": true,
          "internalType": "uint256",
          "name": "competitorId",
          "type": "uint256"
        },
        {
          "indexed": false,
          "internalType": "bool",
          "name": "active",
          "type": "bool"
        }
      ],
      "name": "CompetitorStatusChanged",
      "type": "event"
    },
    {
      "anonymous": false,
      "inputs": [
        {
          "indexed": true,
          "internalType": "uint256",
          "name": "competitorId",
          "type": "uint256"
        },
        {
          "indexed": false,
          "internalType": "uint256",
          "name": "newSupply",
          "type": "uint256"
        }
      ],
      "name": "CompetitorUpdated",
      "type": "event"
    },
    {
      "anonymous": false,
      "inputs": [
        {
          "indexed": true,
          "internalType": "uint256",
          "name": "votingPeriodId",
          "type": "uint256"
        },
        {
          "indexed": false,
          "internalType": "uint256",
          "name": "btcCap",
          "type": "uint256"
        },
        {
          "indexed": false,
          "internalType": "uint256",
          "name": "highestCompetitorCap",
          "type": "uint256"
        },
        {
          "indexed": false,
          "internalType": "uint256",
          "name": "winningCompetitorId",
          "type": "uint256"
        }
      ],
      "name": "MarketSnapshotTaken",
      "type": "event"
    },
    {
      "anonymous": false,
      "inputs": [
        {
          "indexed": true,
          "internalType": "address",
          "name": "previousOwner",
          "type": "address"
        },
        {
          "indexed": true,
          "internalType": "address",
          "name": "newOwner",
          "type": "address"
        }
      ],
      "name": "OwnershipTransferred",
      "type": "event"
    },
    {
      "anonymous": false,
      "inputs": [
        {
          "indexed": false,
          "internalType": "address",
          "name": "account",
          "type": "address"
        }
      ],
      "name": "Paused",
      "type": "event"
    },
    {
      "anonymous": false,
      "inputs": [
        {
          "indexed": true,
          "internalType": "uint256",
          "name": "votingPeriodId",
          "type": "uint256"
        },
        {
          "indexed": false,
          "internalType": "uint256",
          "name": "btcThreshold",
          "type": "uint256"
        },
        {
          "indexed": false,
          "internalType": "uint256",
          "name": "competitorThreshold",
          "type": "uint256"
        }
      ],
      "name": "ThresholdUpdated",
      "type": "event"
    },
    {
      "anonymous": false,
      "inputs": [
        {
          "indexed": false,
          "internalType": "address",
          "name": "account",
          "type": "address"
        }
      ],
      "name": "Unpaused",
      "type": "event"
    },
    {
      "anonymous": false,
      "inputs": [
        {
          "indexed": false,
          "internalType": "address",
          "name": "oldContract",
          "type": "address"
        },
        {
          "indexed": false,
          "internalType": "address",
          "name": "newContract",
          "type": "address"
        }
      ],
      "name": "VotingContractUpdated",
      "type": "event"
    },
    {
      "anonymous": false,
      "inputs": [
        {
          "indexed": true,
          "internalType": "uint256",
          "name": "votingPeriodId",
          "type": "uint256"
        },
        {
          "indexed": false,
          "internalType": "uint256",
          "name": "correctYear",
          "type": "uint256"
        }
      ],
      "name": "VotingPeriodFinalized",
      "type": "event"
    },
    {
      "inputs": [],
      "name": "SNAPSHOT_INTERVAL",
      "outputs": [
        {
          "internalType": "uint256",
          "name": "",
          "type": "uint256"
        }
      ],
      "stateMutability": "view",
      "type": "function"
    },
    {
      "inputs": [],
      "name": "VOTING_DURATION",
      "outputs": [
        {
          "internalType": "uint256",
          "name": "",
          "type": "uint256"
        }
      ],
      "stateMutability": "view",
      "type": "function"
    },
    {
      "inputs": [
        {
          "internalType": "string",
          "name": "name",
          "type": "string"
        },
        {
          "internalType": "address",
          "name": "priceFeed",
          "type": "address"
        },
        {
          "internalType": "uint256",
          "name": "circulatingSupply",
          "type": "uint256"
        }
      ],
      "name": "addCompetitor",
      "outputs": [],
      "stateMutability": "nonpayable",
      "type": "function"
    },
    {
      "inputs": [],
      "name": "btcCirculatingSupply",
      "outputs": [
        {
          "internalType": "uint256",
          "name": "",
          "type": "uint256"
        }
      ],
      "stateMutability": "view",
      "type": "function"
    },
    {
      "inputs": [
        {
          "internalType": "uint256",
          "name": "votingPeriodId",
          "type": "uint256"
        }
      ],
      "name": "canTakeSnapshot",
      "outputs": [
        {
          "internalType": "bool",
          "name": "",
          "type": "bool"
        }
      ],
      "stateMutability": "view",
      "type": "function"
    },
    {
      "inputs": [],
      "name": "competitorCount",
      "outputs": [
        {
          "internalType": "uint256",
          "name": "",
          "type": "uint256"
        }
      ],
      "stateMutability": "view",
      "type": "function"
    },
    {
      "inputs": [
        {
          "internalType": "uint256",
          "name": "",
          "type": "uint256"
        }
      ],
      "name": "competitors",
      "outputs": [
        {
          "internalType": "string",
          "name": "name",
          "type": "string"
        },
        {
          "internalType": "address",
          "name": "priceFeed",
          "type": "address"
        },
        {
          "internalType": "uint256",
          "name": "circulatingSupply",
          "type": "uint256"
        },
        {
          "internalType": "bool",
          "name": "isActive",
          "type": "bool"
        },
        {
          "internalType": "uint256",
          "name": "lastUpdatedTime",
          "type": "uint256"
        }
      ],
      "stateMutability": "view",
      "type": "function"
    },
    {
      "inputs": [],
      "name": "currentVotingPeriod",
      "outputs": [
        {
          "internalType": "uint256",
          "name": "",
          "type": "uint256"
        }
      ],
      "stateMutability": "view",
      "type": "function"
    },
    {
      "inputs": [
        {
          "internalType": "uint256",
          "name": "votingPeriodId",
          "type": "uint256"
        }
      ],
      "name": "finalizeVotingPeriod",
      "outputs": [],
      "stateMutability": "nonpayable",
      "type": "function"
    },
    {
      "inputs": [],
      "name": "getAllCompetitors",
      "outputs": [
        {
          "components": [
            {
              "internalType": "string",
              "name": "name",
              "type": "string"
            },
            {
              "internalType": "address",
              "name": "priceFeed",
              "type": "address"
            },
            {
              "internalType": "uint256",
              "name": "circulatingSupply",
              "type": "uint256"
            },
            {
              "internalType": "bool",
              "name": "isActive",
              "type": "bool"
            },
            {
              "internalType": "uint256",
              "name": "lastUpdatedTime",
              "type": "uint256"
            }
          ],
          "internalType": "struct BTCOracle.CompetitorChain[]",
          "name": "",
          "type": "tuple[]"
        }
      ],
      "stateMutability": "view",
      "type": "function"
    },
    {
      "inputs": [],
      "name": "getBTCPrice",
      "outputs": [
        {
          "internalType": "int256",
          "name": "",
          "type": "int256"
        }
      ],
      "stateMutability": "view",
      "type": "function"
    },
    {
      "inputs": [
        {
          "internalType": "uint256",
          "name": "competitorId",
          "type": "uint256"
        }
      ],
      "name": "getCompetitorInfo",
      "outputs": [
        {
          "components": [
            {
              "internalType": "string",
              "name": "name",
              "type": "string"
            },
            {
              "internalType": "address",
              "name": "priceFeed",
              "type": "address"
            },
            {
              "internalType": "uint256",
              "name": "circulatingSupply",
              "type": "uint256"
            },
            {
              "internalType": "bool",
              "name": "isActive",
              "type": "bool"
            },
            {
              "internalType": "uint256",
              "name": "lastUpdatedTime",
              "type": "uint256"
            }
          ],
          "internalType": "struct BTCOracle.CompetitorChain",
          "name": "",
          "type": "tuple"
        }
      ],
      "stateMutability": "view",
      "type": "function"
    },
    {
      "inputs": [
        {
          "internalType": "uint256",
          "name": "votingPeriodId",
          "type": "uint256"
        },
        {
          "internalType": "uint256",
          "name": "snapshotIndex",
          "type": "uint256"
        },
        {
          "internalType": "uint256",
          "name": "competitorId",
          "type": "uint256"
        }
      ],
      "name": "getCompetitorMarketCap",
      "outputs": [
        {
          "internalType": "uint256",
          "name": "",
          "type": "uint256"
        }
      ],
      "stateMutability": "view",
      "type": "function"
    },
    {
      "inputs": [
        {
          "internalType": "uint256",
          "name": "votingPeriodId",
          "type": "uint256"
        }
      ],
      "name": "getLatestSnapshotInfo",
      "outputs": [
        {
          "internalType": "uint256",
          "name": "timestamp",
          "type": "uint256"
        },
        {
          "internalType": "uint256",
          "name": "btcMarketCap",
          "type": "uint256"
        },
        {
          "internalType": "uint256",
          "name": "highestCompetitorCap",
          "type": "uint256"
        },
        {
          "internalType": "uint256",
          "name": "winningCompetitorId",
          "type": "uint256"
        },
        {
          "internalType": "enum BTCOracle.VoteResult",
          "name": "result",
          "type": "uint8"
        }
      ],
      "stateMutability": "view",
      "type": "function"
    },
    {
      "inputs": [
        {
          "internalType": "uint256",
          "name": "votingPeriodId",
          "type": "uint256"
        },
        {
          "internalType": "uint256",
          "name": "snapshotIndex",
          "type": "uint256"
        }
      ],
      "name": "getSnapshot",
      "outputs": [
        {
          "internalType": "uint256",
          "name": "timestamp",
          "type": "uint256"
        },
        {
          "internalType": "uint256",
          "name": "btcCap",
          "type": "uint256"
        },
        {
          "internalType": "uint256",
          "name": "highestCompetitorCap",
          "type": "uint256"
        },
        {
          "internalType": "uint256",
          "name": "winningCompetitorId",
          "type": "uint256"
        },
        {
          "internalType": "enum BTCOracle.VoteResult",
          "name": "result",
          "type": "uint8"
        }
      ],
      "stateMutability": "view",
      "type": "function"
    },
    {
      "inputs": [
        {
          "internalType": "uint256",
          "name": "votingPeriodId",
          "type": "uint256"
        }
      ],
      "name": "getSnapshotCount",
      "outputs": [
        {
          "internalType": "uint256",
          "name": "",
          "type": "uint256"
        }
      ],
      "stateMutability": "view",
      "type": "function"
    },
    {
      "inputs": [
        {
          "internalType": "uint256",
          "name": "votingPeriodId",
          "type": "uint256"
        }
      ],
      "name": "getVotingEndTime",
      "outputs": [
        {
          "internalType": "uint256",
          "name": "",
          "type": "uint256"
        }
      ],
      "stateMutability": "view",
      "type": "function"
    },
    {
      "inputs": [
        {
          "internalType": "uint256",
          "name": "votingPeriodId",
          "type": "uint256"
        }
      ],
      "name": "isVotingPeriodResolved",
      "outputs": [
        {
          "internalType": "bool",
          "name": "",
          "type": "bool"
        }
      ],
      "stateMutability": "view",
      "type": "function"
    },
    {
      "inputs": [
        {
          "internalType": "uint256",
          "name": "",
          "type": "uint256"
        }
      ],
      "name": "lastSnapshotTime",
      "outputs": [
        {
          "internalType": "uint256",
          "name": "",
          "type": "uint256"
        }
      ],
      "stateMutability": "view",
      "type": "function"
    },
    {
      "inputs": [],
      "name": "owner",
      "outputs": [
        {
          "internalType": "address",
          "name": "",
          "type": "address"
        }
      ],
      "stateMutability": "view",
      "type": "function"
    },
    {
      "inputs": [],
      "name": "pause",
      "outputs": [],
      "stateMutability": "nonpayable",
      "type": "function"
    },
    {
      "inputs": [],
      "name": "paused",
      "outputs": [
        {
          "internalType": "bool",
          "name": "",
          "type": "bool"
        }
      ],
      "stateMutability": "view",
      "type": "function"
    },
    {
      "inputs": [],
      "name": "renounceOwnership",
      "outputs": [],
      "stateMutability": "nonpayable",
      "type": "function"
    },
    {
      "inputs": [
        {
          "internalType": "uint256",
          "name": "competitorId",
          "type": "uint256"
        },
        {
          "internalType": "bool",
          "name": "active",
          "type": "bool"
        }
      ],
      "name": "setCompetitorActive",
      "outputs": [],
      "stateMutability": "nonpayable",
      "type": "function"
    },
    {
      "inputs": [
        {
          "internalType": "uint256",
          "name": "votingPeriodId",
          "type": "uint256"
        },
        {
          "internalType": "uint256",
          "name": "btcThreshold",
          "type": "uint256"
        },
        {
          "internalType": "uint256",
          "name": "competitorThreshold",
          "type": "uint256"
        }
      ],
      "name": "setThreshold",
      "outputs": [],
      "stateMutability": "nonpayable",
      "type": "function"
    },
    {
      "inputs": [
        {
          "internalType": "uint256",
          "name": "votingPeriodId",
          "type": "uint256"
        }
      ],
      "name": "takeMarketSnapshot",
      "outputs": [],
      "stateMutability": "nonpayable",
      "type": "function"
    },
    {
      "inputs": [
        {
          "internalType": "uint256",
          "name": "",
          "type": "uint256"
        }
      ],
      "name": "thresholds",
      "outputs": [
        {
          "internalType": "uint256",
          "name": "btcMarketCap",
          "type": "uint256"
        },
        {
          "internalType": "uint256",
          "name": "competitorCap",
          "type": "uint256"
        },
        {
          "internalType": "bool",
          "name": "isActive",
          "type": "bool"
        }
      ],
      "stateMutability": "view",
      "type": "function"
    },
    {
      "inputs": [
        {
          "internalType": "address",
          "name": "newOwner",
          "type": "address"
        }
      ],
      "name": "transferOwnership",
      "outputs": [],
      "stateMutability": "nonpayable",
      "type": "function"
    },
    {
      "inputs": [],
      "name": "unpause",
      "outputs": [],
      "stateMutability": "nonpayable",
      "type": "function"
    },
    {
      "inputs": [
        {
          "internalType": "uint256",
          "name": "newSupply",
          "type": "uint256"
        }
      ],
      "name": "updateBTCSupply",
      "outputs": [],
      "stateMutability": "nonpayable",
      "type": "function"
    },
    {
      "inputs": [
        {
          "internalType": "uint256",
          "name": "competitorId",
          "type": "uint256"
        },
        {
          "internalType": "uint256",
          "name": "newSupply",
          "type": "uint256"
        }
      ],
      "name": "updateCompetitorSupply",
      "outputs": [],
      "stateMutability": "nonpayable",
      "type": "function"
    },
    {
      "inputs": [
        {
          "internalType": "address",
          "name": "newVotingContract",
          "type": "address"
        }
      ],
      "name": "updateVotingContract",
      "outputs": [],
      "stateMutability": "nonpayable",
      "type": "function"
    },
    {
      "inputs": [],
      "name": "votingContract",
      "outputs": [
        {
          "internalType": "address",
          "name": "",
          "type": "address"
        }
      ],
      "stateMutability": "view",
      "type": "function"
    },
    {
      "inputs": [
        {
          "internalType": "uint256",
          "name": "",
          "type": "uint256"
        },
        {
          "internalType": "uint256",
          "name": "",
          "type": "uint256"
        }
      ],
      "name": "votingPeriodSnapshots",
      "outputs": [
        {
          "internalType": "uint256",
          "name": "timestamp",
          "type": "uint256"
        },
        {
          "internalType": "uint256",
          "name": "btcMarketCap",
          "type": "uint256"
        },
        {
          "internalType": "uint256",
          "name": "highestCompetitorCap",
          "type": "uint256"
        },
        {
          "internalType": "uint256",
          "name": "winningCompetitorId",
          "type": "uint256"
        },
        {
          "internalType": "enum BTCOracle.VoteResult",
          "name": "result",
          "type": "uint8"
        }
      ],
      "stateMutability": "view",
      "type": "function"
    }
  ],
  "bytecode": "0x60806040526606ed83c14fe00060075534801561001a575f5ffd5b5060405161214c38038061214c833981016040819052610039916101b3565b338061005e57604051631e4fbdf760e01b81525f600482015260240160405180910390fd5b61006781610149565b50600180546001600160a01b03199081166001600160a01b0394851617825560088054909116929093169190911790915560098190556040805160608101825264e8d4a51000815264746a52880060208083019182529282018481525f949094526003909252517fa15bc60c955c405d20d9149c709e2460f1c2d9a497496a7f46004d1772c3054c55517fa15bc60c955c405d20d9149c709e2460f1c2d9a497496a7f46004d1772c3054d55517fa15bc60c955c405d20d9149c709e2460f1c2d9a497496a7f46004d1772c3054e805460ff19169115159190911790556101e4565b5f80546001600160a01b038381166001600160a01b0319831681178455604051919092169283917f8be0079c531659141344cd1fd0a4f28419497f9722a3daafe3b4186f6b6457e09190a35050565b80516001600160a01b03811681146101ae575f5ffd5b919050565b5f5f604083850312156101c4575f5ffd5b6101cd83610198565b91506101db60208401610198565b90509250929050565b611f5b806101f15f395ff3fe608060405234801561000f575f5ffd5b50600436106101fc575f3560e01c80638ff036f911610114578063b6c22611116100a9578063cb94dc6a11610079578063cb94dc6a1461049f578063d98f7daa146104b2578063dd22db80146104c7578063df1a86a0146104cf578063f2fde38b146104e2575f5ffd5b8063b6c2261114610418578063b8bd0ddd14610466578063c1fc006a14610479578063c4d9a70b1461048c575f5ffd5b8063a08aa601116100e4578063a08aa601146103de578063a438d208146103e7578063afc85a73146103f2578063b21cf99f14610405575f5ffd5b80638ff036f91461037f5780639d86801f146103885780639e506491146103ac5780639ef1b1d2146103cb575f5ffd5b80633f4ba83a116101955780636d2beef1116101655780636d2beef11461032e5780636e6fc59714610338578063715018a61461034b5780638456cb59146103535780638da5cb5b1461035b575f5ffd5b80633f4ba83a146102ef5780635c975abb146102f757806366e68cc61461030857806369ab00051461031b575f5ffd5b80633a049e02116101d05780633a049e021461028f5780633a199da2146102985780633a500f55146102b85780633e240e2e146102cb575f5ffd5b80622fd847146102005780630ea6c0dc1461023257806315e25ea61461024557806324af8fb01461027a575b5f5ffd5b61021f61020e3660046118da565b60046020525f908152604090205481565b6040519081526020015b60405180910390f35b61021f6102403660046118da565b6104f5565b61026a6102533660046118da565b5f9081526003602052604090206002015460ff1690565b6040519015158152602001610229565b61028d6102883660046118da565b610571565b005b61021f60095481565b6102ab6102a63660046118da565b61069d565b6040516102299190611971565b61028d6102c63660046119b2565b6107db565b6102de6102d9366004611a7f565b610982565b604051610229959493929190611ab3565b61028d610a3b565b5f54600160a01b900460ff1661026a565b61021f610316366004611afb565b610a4d565b61028d610329366004611afb565b610aea565b61021f6201518081565b6102de6103463660046118da565b610b6f565b61028d610baa565b61028d610bbb565b5f546001600160a01b03165b6040516001600160a01b039091168152602001610229565b61021f60065481565b61039b6103963660046118da565b610bcb565b604051610229959493929190611b24565b61021f6103ba3660046118da565b5f9081526002602052604090205490565b61026a6103d93660046118da565b610c8f565b61021f60075481565b61021f6301e1338081565b61028d610400366004611b70565b610d0a565b61028d6104133660046118da565b610d9b565b6104496104263660046118da565b60036020525f908152604090208054600182015460029092015490919060ff1683565b604080519384526020840192909252151590820152606001610229565b61028d6104743660046118da565b610e80565b600854610367906001600160a01b031681565b6102de61049a366004611a7f565b610f07565b61028d6104ad366004611a7f565b610f54565b6104ba61101b565b6040516102299190611b9e565b61021f6111bd565b61028d6104dd366004611c01565b6111d9565b61028d6104f0366004611c01565b611298565b6008546040516317d87e4960e11b8152600481018390525f916001600160a01b03169082908290632fb0fc929060240160a060405180830381865afa158015610540573d5f5f3e3d5ffd5b505050506040513d601f19601f820116820180604052508101906105649190611c1a565b5091979650505050505050565b6105796112d5565b610582816104f5565b4210156105c95760405162461bcd60e51b815260206004820152601060248201526f14195c9a5bd9081b9bdd08195b99195960821b60448201526064015b60405180910390fd5b6105d281610c8f565b156106125760405162461bcd60e51b815260206004820152601060248201526f105b1c9958591e481c995cdbdb1d995960821b60448201526064016105c0565b5f61061c82611301565b90505f6001600583015460ff16600281111561063a5761063a611a9f565b0361065157815461064a90611389565b9050610654565b505f5b61065e83826113cc565b827f2be53b4bf4d021a2a7b0729ab697295064affec6e278f58c5e573110d08869248260405161069091815260200190565b60405180910390a2505050565b6106d66040518060a00160405280606081526020015f6001600160a01b031681526020015f81526020015f151581526020015f81525090565b60065482106106f75760405162461bcd60e51b81526004016105c090611c6e565b5f8281526005602052604090819020815160a0810190925280548290829061071e90611ca5565b80601f016020809104026020016040519081016040528092919081815260200182805461074a90611ca5565b80156107955780601f1061076c57610100808354040283529160200191610795565b820191905f5260205f20905b81548152906001019060200180831161077857829003601f168201915b505050918352505060018201546001600160a01b0316602082015260028201546040820152600382015460ff161515606082015260049091015460809091015292915050565b6107e36112d5565b6001600160a01b0382166108395760405162461bcd60e51b815260206004820152601a60248201527f496e76616c69642070726963652066656564206164647265737300000000000060448201526064016105c0565b5f81116108885760405162461bcd60e51b815260206004820152601a60248201527f496e76616c69642063697263756c6174696e6720737570706c7900000000000060448201526064016105c0565b6006546040805160a0810182528581526001600160a01b038516602080830191909152818301859052600160608301524260808301525f848152600590915291909120815181906108d99082611d23565b5060208201516001820180546001600160a01b0319166001600160a01b0390921691909117905560408201516002820155606082015160038201805460ff191691151591909117905560809091015160049091015560068054905f61093d83611df2565b9190505550807fba0c2231b5f0736aeed4199416ab2c5f39be39d7567bba2c7e07cf6aad2222aa8585604051610974929190611e0a565b60405180910390a250505050565b5f82815260026020526040812054819081908190819086106109e05760405162461bcd60e51b815260206004820152601760248201527614db985c1cda1bdd08191bd95cc81b9bdd08195e1a5cdd604a1b60448201526064016105c0565b5f8781526002602052604081208054889081106109ff576109ff611e33565b5f91825260209091206006909102018054600182015460038301546004840154600590940154929c919b50995091975060ff1695509350505050565b610a436112d5565b610a4b611428565b565b5f838152600260205260408120548310610aa35760405162461bcd60e51b815260206004820152601760248201527614db985c1cda1bdd08191bd95cc81b9bdd08195e1a5cdd604a1b60448201526064016105c0565b5f848152600260205260408120805485908110610ac257610ac2611e33565b5f91825260208083209583526006919091029094016002019093525050604090205492915050565b610af26112d5565b60408051606081018252838152602080820184815260018385018181525f8981526003855286902094518555915190840155516002909201805460ff191692151592909217909155815184815290810183905284917f57776b67dc318e1b02763e26fc5c0f75e1b429afc48e2a3aeec56c8fc87752dd9101610690565b5f5f5f5f5f5f610b7e87611301565b8054600182015460038301546004840154600590940154929b919a50985091965060ff16945092505050565b610bb26112d5565b610a4b5f61147c565b610bc36112d5565b610a4b6114cb565b60056020525f9081526040902080548190610be590611ca5565b80601f0160208091040260200160405190810160405280929190818152602001828054610c1190611ca5565b8015610c5c5780601f10610c3357610100808354040283529160200191610c5c565b820191905f5260205f20905b815481529060010190602001808311610c3f57829003601f168201915b50505060018401546002850154600386015460049096015494956001600160a01b039092169490935060ff909116915085565b6008546040516317d87e4960e11b8152600481018390525f916001600160a01b03169082908290632fb0fc929060240160a060405180830381865afa158015610cda573d5f5f3e3d5ffd5b505050506040513d601f19601f82011682018060405250810190610cfe9190611c1a565b50979650505050505050565b610d126112d5565b6006548210610d335760405162461bcd60e51b81526004016105c090611c6e565b5f828152600560205260409081902060038101805484151560ff19909116179055426004909101555182907f5db25654c2faea84d388d4b8e52d9761052faa140250951c0fbbdf97750ad56590610d8f90841515815260200190565b60405180910390a25050565b610da361150d565b5f8181526003602052604090206002015460ff16610df75760405162461bcd60e51b8152602060048201526011602482015270151a1c995cda1bdb19081b9bdd081cd95d607a1b60448201526064016105c0565b5f5f610e01611537565b915091505f5f610e108361168a565b9092509050600284831115610e2757506001610e2a565b505f5b610e388686868686866116e6565b610e41866104f5565b4210610e78576001816002811115610e5b57610e5b611a9f565b03610e78575f610e6a42611389565b9050610e7687826113cc565b505b505050505050565b610e886112d5565b5f8111610ecc5760405162461bcd60e51b8152602060048201526012602482015271496e76616c69642042544320737570706c7960701b60448201526064016105c0565b60078190556040518181527f7f93adc81d71bd3c406abd638227243324aa034bebd0dbadc4d2972f403986419060200160405180910390a150565b6002602052815f5260405f208181548110610f20575f80fd5b5f91825260209091206006909102018054600182015460038301546004840154600590940154929550909350919060ff1685565b610f5c6112d5565b6006548210610f7d5760405162461bcd60e51b81526004016105c090611c6e565b5f8111610fcc5760405162461bcd60e51b815260206004820152601a60248201527f496e76616c69642063697263756c6174696e6720737570706c7900000000000060448201526064016105c0565b5f828152600560205260409081902060028101839055426004909101555182907f55bca6a3fac03472eed55faca158eef393dee05a17abc58d5798e56c08120d8d90610d8f9084815260200190565b60605f60065467ffffffffffffffff81111561103957611039611983565b6040519080825280602002602001820160405280156110a357816020015b6110906040518060a00160405280606081526020015f6001600160a01b031681526020015f81526020015f151581526020015f81525090565b8152602001906001900390816110575790505b5090505f5b6006548110156111b7575f8181526005602052604090819020815160a081019092528054829082906110d990611ca5565b80601f016020809104026020016040519081016040528092919081815260200182805461110590611ca5565b80156111505780601f1061112757610100808354040283529160200191611150565b820191905f5260205f20905b81548152906001019060200180831161113357829003601f168201915b505050918352505060018201546001600160a01b0316602082015260028201546040820152600382015460ff161515606082015260049091015460809091015282518390839081106111a4576111a4611e33565b60209081029190910101526001016110a8565b50919050565b6001545f906111d4906001600160a01b03166117ea565b905090565b6111e16112d5565b6001600160a01b0381166112375760405162461bcd60e51b815260206004820152601860248201527f496e76616c696420636f6e74726163742061646472657373000000000000000060448201526064016105c0565b600880546001600160a01b038381166001600160a01b031983168117909355604080519190921680825260208201939093527f611f57b6ac3f6c0c57f787b9d2cfd17f1bdd71c6352d80d928fef718f47593d5910160405180910390a15050565b6112a06112d5565b6001600160a01b0381166112c957604051631e4fbdf760e01b81525f60048201526024016105c0565b6112d28161147c565b50565b5f546001600160a01b03163314610a4b5760405163118cdaa760e01b81523360048201526024016105c0565b5f81815260026020526040812080546113555760405162461bcd60e51b81526020600482015260166024820152754e6f20736e617073686f747320617661696c61626c6560501b60448201526064016105c0565b8054819061136590600190611e47565b8154811061137557611375611e33565b905f5260205f209060060201915050919050565b5f806113996301e1338084611e6e565b6113a5906107b2611e81565b90506113b2600282611e94565b5f036113c6576113c3600182611e81565b90505b92915050565b600854604051631b54b5c960e21b815260048101849052602481018390526001600160a01b0390911690636d52d724906044015f604051808303815f87803b158015611416575f5ffd5b505af1158015610e78573d5f5f3e3d5ffd5b611430611858565b5f805460ff60a01b191690557f5db9ee0a495bf2e6ff9c91a7834c1ba4fdd244a5e8aa4e537bd38aeae4b073aa335b6040516001600160a01b03909116815260200160405180910390a1565b5f80546001600160a01b038381166001600160a01b0319831681178455604051919092169283917f8be0079c531659141344cd1fd0a4f28419497f9722a3daafe3b4186f6b6457e09190a35050565b6114d361150d565b5f805460ff60a01b1916600160a01b1790557f62e78cea01bee320cd4e420270b5ea74000d11b0c9f74754ebdbfc544b05a25861145f3390565b5f54600160a01b900460ff1615610a4b5760405163d93c066560e01b815260040160405180910390fd5b6001545f906060908290611553906001600160a01b03166117ea565b90505f81136115985760405162461bcd60e51b8152602060048201526011602482015270496e76616c69642042544320707269636560781b60448201526064016105c0565b6115a481600754611881565b925060065467ffffffffffffffff8111156115c1576115c1611983565b6040519080825280602002602001820160405280156115ea578160200160208202803683370190505b5091505f5b600654811015611684575f8181526005602052604090206003015460ff161561167c575f81815260056020526040812060010154611635906001600160a01b03166117ea565b90505f81131561167a575f8281526005602052604090206002015461165b908290611881565b84838151811061166d5761166d611e33565b6020026020010181815250505b505b6001016115ef565b50509091565b5f80805b83518110156116e057828482815181106116aa576116aa611e33565b602002602001015111156116d8578381815181106116ca576116ca611e33565b602002602001015192508091505b60010161168e565b50915091565b5f86815260026020818152604083208054600181810183559185529190932042600690920201908155808301889055600381018690556004810185905560058101805491938593919260ff191691849081111561174557611745611a9f565b02179055505f5b855181101561178c5785818151811061176757611767611e33565b6020908102919091018101515f8381526002850190925260409091205560010161174c565b505f87815260046020908152604091829020429055815188815290810186905290810184905287907fe9eb253ccbd5563ee204557d342c26f3d00f63bbfc70834136476a4f6cde21f69060600160405180910390a250505050505050565b5f5f826001600160a01b031663feaf968c6040518163ffffffff1660e01b815260040160a060405180830381865afa158015611828573d5f5f3e3d5ffd5b505050506040513d601f19601f8201168201806040525081019061184c9190611ec0565b50919695505050505050565b5f54600160a01b900460ff16610a4b57604051638dfc202b60e01b815260040160405180910390fd5b5f5f83136118c15760405162461bcd60e51b815260206004820152600d60248201526c496e76616c696420707269636560981b60448201526064016105c0565b6305f5e1006118d08385611f0e565b6113c39190611e6e565b5f602082840312156118ea575f5ffd5b5035919050565b5f81518084528060208401602086015e5f602082860101526020601f19601f83011685010191505092915050565b5f815160a0845261193360a08501826118f1565b6020848101516001600160a01b0316908601526040808501519086015260608085015115159086015260809384015193909401929092525090919050565b602081525f6113c3602083018461191f565b634e487b7160e01b5f52604160045260245ffd5b80356001600160a01b03811681146119ad575f5ffd5b919050565b5f5f5f606084860312156119c4575f5ffd5b833567ffffffffffffffff8111156119da575f5ffd5b8401601f810186136119ea575f5ffd5b803567ffffffffffffffff811115611a0457611a04611983565b604051601f8201601f19908116603f0116810167ffffffffffffffff81118282101715611a3357611a33611983565b604052818152828201602001881015611a4a575f5ffd5b816020840160208301375f60208383010152809550505050611a6e60208501611997565b929592945050506040919091013590565b5f5f60408385031215611a90575f5ffd5b50508035926020909101359150565b634e487b7160e01b5f52602160045260245ffd5b5f60a08201905086825285602083015284604083015283606083015260038310611aeb57634e487b7160e01b5f52602160045260245ffd5b8260808301529695505050505050565b5f5f5f60608486031215611b0d575f5ffd5b505081359360208301359350604090920135919050565b60a081525f611b3660a08301886118f1565b6001600160a01b039690961660208301525060408101939093529015156060830152608090910152919050565b80151581146112d2575f5ffd5b5f5f60408385031215611b81575f5ffd5b823591506020830135611b9381611b63565b809150509250929050565b5f602082016020835280845180835260408501915060408160051b8601019250602086015f5b82811015611bf557603f19878603018452611be085835161191f565b94506020938401939190910190600101611bc4565b50929695505050505050565b5f60208284031215611c11575f5ffd5b6113c382611997565b5f5f5f5f5f60a08688031215611c2e575f5ffd5b8551602087015160408801519196509450611c4881611b63565b6060870151909350611c5981611b63565b60809690960151949793965091949392915050565b60208082526019908201527f436f6d70657469746f7220646f6573206e6f7420657869737400000000000000604082015260600190565b600181811c90821680611cb957607f821691505b6020821081036111b757634e487b7160e01b5f52602260045260245ffd5b601f821115611d1e57805f5260205f20601f840160051c81016020851015611cfc5750805b601f840160051c820191505b81811015611d1b575f8155600101611d08565b50505b505050565b815167ffffffffffffffff811115611d3d57611d3d611983565b611d5181611d4b8454611ca5565b84611cd7565b6020601f821160018114611d83575f8315611d6c5750848201515b5f19600385901b1c1916600184901b178455611d1b565b5f84815260208120601f198516915b82811015611db25787850151825560209485019460019092019101611d92565b5084821015611dcf57868401515f19600387901b60f8161c191681555b50505050600190811b01905550565b634e487b7160e01b5f52601160045260245ffd5b5f60018201611e0357611e03611dde565b5060010190565b604081525f611e1c60408301856118f1565b905060018060a01b03831660208301529392505050565b634e487b7160e01b5f52603260045260245ffd5b818103818111156113c6576113c6611dde565b634e487b7160e01b5f52601260045260245ffd5b5f82611e7c57611e7c611e5a565b500490565b808201808211156113c6576113c6611dde565b5f82611ea257611ea2611e5a565b500690565b805169ffffffffffffffffffff811681146119ad575f5ffd5b5f5f5f5f5f60a08688031215611ed4575f5ffd5b611edd86611ea7565b60208701516040880151606089015192975090955093509150611f0260808701611ea7565b90509295509295909350565b80820281158282048414176113c6576113c6611dde56fea2646970667358221220c487e4f5163dfc865fec8ab13eefd98d29a1438f5f532ca6b807c3927f71119d64736f6c634300081c0033",
  "linkReferences": {},
  "deployedLinkReferences": {},
  "immutableReferences": {},
  "inputSourceName": "project/contracts/BTCOracle.sol",
  "buildInfoId": "solc-0_8_28-366dc03df4ec1006f5dd91b66790736870480ac0"
}