{
  "_format": "hh3-artifact-1",
  "contractName": "vDOT",
  "sourceName": "contracts/vDOT.sol",
  "abi": [
    {
      "inputs": [],
      "stateMutability": "nonpayable",
      "type": "constructor"
    },
    {
      "inputs": [
        {
          "internalType": "address",
          "name": "spender",
          "type": "address"
        },
        {
          "internalType": "uint256",
          "name": "allowance",
          "type": "uint256"
        },
        {
          "internalType": "uint256",
          "name": "needed",
          "type": "uint256"
        }
      ],
      "name": "ERC20InsufficientAllowance",
      "type": "error"
    },
    {
      "inputs": [
        {
          "internalType": "address",
          "name": "sender",
          "type": "address"
        },
        {
          "internalType": "uint256",
          "name": "balance",
          "type": "uint256"
        },
        {
          "internalType": "uint256",
          "name": "needed",
          "type": "uint256"
        }
      ],
      "name": "ERC20InsufficientBalance",
      "type": "error"
    },
    {
      "inputs": [
        {
          "internalType": "address",
          "name": "approver",
          "type": "address"
        }
      ],
      "name": "ERC20InvalidApprover",
      "type": "error"
    },
    {
      "inputs": [
        {
          "internalType": "address",
          "name": "receiver",
          "type": "address"
        }
      ],
      "name": "ERC20InvalidReceiver",
      "type": "error"
    },
    {
      "inputs": [
        {
          "internalType": "address",
          "name": "sender",
          "type": "address"
        }
      ],
      "name": "ERC20InvalidSender",
      "type": "error"
    },
    {
      "inputs": [
        {
          "internalType": "address",
          "name": "spender",
          "type": "address"
        }
      ],
      "name": "ERC20InvalidSpender",
      "type": "error"
    },
    {
      "inputs": [],
      "name": "EnforcedPause",
      "type": "error"
    },
    {
      "inputs": [],
      "name": "ExpectedPause",
      "type": "error"
    },
    {
      "inputs": [
        {
          "internalType": "address",
          "name": "owner",
          "type": "address"
        }
      ],
      "name": "OwnableInvalidOwner",
      "type": "error"
    },
    {
      "inputs": [
        {
          "internalType": "address",
          "name": "account",
          "type": "address"
        }
      ],
      "name": "OwnableUnauthorizedAccount",
      "type": "error"
    },
    {
      "inputs": [],
      "name": "ReentrancyGuardReentrantCall",
      "type": "error"
    },
    {
      "anonymous": false,
      "inputs": [
        {
          "indexed": true,
          "internalType": "address",
          "name": "owner",
          "type": "address"
        },
        {
          "indexed": true,
          "internalType": "address",
          "name": "spender",
          "type": "address"
        },
        {
          "indexed": false,
          "internalType": "uint256",
          "name": "value",
          "type": "uint256"
        }
      ],
      "name": "Approval",
      "type": "event"
    },
    {
      "anonymous": false,
      "inputs": [
        {
          "indexed": true,
          "internalType": "address",
          "name": "user",
          "type": "address"
        },
        {
          "indexed": false,
          "internalType": "uint256",
          "name": "amount",
          "type": "uint256"
        }
      ],
      "name": "Deposit",
      "type": "event"
    },
    {
      "anonymous": false,
      "inputs": [
        {
          "indexed": true,
          "internalType": "address",
          "name": "previousOwner",
          "type": "address"
        },
        {
          "indexed": true,
          "internalType": "address",
          "name": "newOwner",
          "type": "address"
        }
      ],
      "name": "OwnershipTransferred",
      "type": "event"
    },
    {
      "anonymous": false,
      "inputs": [
        {
          "indexed": false,
          "internalType": "address",
          "name": "account",
          "type": "address"
        }
      ],
      "name": "Paused",
      "type": "event"
    },
    {
      "anonymous": false,
      "inputs": [
        {
          "indexed": true,
          "internalType": "address",
          "name": "from",
          "type": "address"
        },
        {
          "indexed": true,
          "internalType": "address",
          "name": "to",
          "type": "address"
        },
        {
          "indexed": false,
          "internalType": "uint256",
          "name": "value",
          "type": "uint256"
        }
      ],
      "name": "Transfer",
      "type": "event"
    },
    {
      "anonymous": false,
      "inputs": [
        {
          "indexed": false,
          "internalType": "address",
          "name": "account",
          "type": "address"
        }
      ],
      "name": "Unpaused",
      "type": "event"
    },
    {
      "anonymous": false,
      "inputs": [
        {
          "indexed": true,
          "internalType": "address",
          "name": "user",
          "type": "address"
        },
        {
          "indexed": false,
          "internalType": "uint256",
          "name": "amount",
          "type": "uint256"
        }
      ],
      "name": "Withdraw",
      "type": "event"
    },
    {
      "inputs": [
        {
          "internalType": "address",
          "name": "owner",
          "type": "address"
        },
        {
          "internalType": "address",
          "name": "spender",
          "type": "address"
        }
      ],
      "name": "allowance",
      "outputs": [
        {
          "internalType": "uint256",
          "name": "",
          "type": "uint256"
        }
      ],
      "stateMutability": "view",
      "type": "function"
    },
    {
      "inputs": [
        {
          "internalType": "address",
          "name": "spender",
          "type": "address"
        },
        {
          "internalType": "uint256",
          "name": "value",
          "type": "uint256"
        }
      ],
      "name": "approve",
      "outputs": [
        {
          "internalType": "bool",
          "name": "",
          "type": "bool"
        }
      ],
      "stateMutability": "nonpayable",
      "type": "function"
    },
    {
      "inputs": [
        {
          "internalType": "address",
          "name": "account",
          "type": "address"
        }
      ],
      "name": "balanceOf",
      "outputs": [
        {
          "internalType": "uint256",
          "name": "",
          "type": "uint256"
        }
      ],
      "stateMutability": "view",
      "type": "function"
    },
    {
      "inputs": [],
      "name": "decimals",
      "outputs": [
        {
          "internalType": "uint8",
          "name": "",
          "type": "uint8"
        }
      ],
      "stateMutability": "view",
      "type": "function"
    },
    {
      "inputs": [],
      "name": "deposit",
      "outputs": [],
      "stateMutability": "payable",
      "type": "function"
    },
    {
      "inputs": [],
      "name": "getContractBalance",
      "outputs": [
        {
          "internalType": "uint256",
          "name": "",
          "type": "uint256"
        }
      ],
      "stateMutability": "view",
      "type": "function"
    },
    {
      "inputs": [],
      "name": "name",
      "outputs": [
        {
          "internalType": "string",
          "name": "",
          "type": "string"
        }
      ],
      "stateMutability": "view",
      "type": "function"
    },
    {
      "inputs": [],
      "name": "owner",
      "outputs": [
        {
          "internalType": "address",
          "name": "",
          "type": "address"
        }
      ],
      "stateMutability": "view",
      "type": "function"
    },
    {
      "inputs": [],
      "name": "pause",
      "outputs": [],
      "stateMutability": "nonpayable",
      "type": "function"
    },
    {
      "inputs": [],
      "name": "paused",
      "outputs": [
        {
          "internalType": "bool",
          "name": "",
          "type": "bool"
        }
      ],
      "stateMutability": "view",
      "type": "function"
    },
    {
      "inputs": [],
      "name": "renounceOwnership",
      "outputs": [],
      "stateMutability": "nonpayable",
      "type": "function"
    },
    {
      "inputs": [],
      "name": "symbol",
      "outputs": [
        {
          "internalType": "string",
          "name": "",
          "type": "string"
        }
      ],
      "stateMutability": "view",
      "type": "function"
    },
    {
      "inputs": [],
      "name": "totalSupply",
      "outputs": [
        {
          "internalType": "uint256",
          "name": "",
          "type": "uint256"
        }
      ],
      "stateMutability": "view",
      "type": "function"
    },
    {
      "inputs": [
        {
          "internalType": "address",
          "name": "to",
          "type": "address"
        },
        {
          "internalType": "uint256",
          "name": "value",
          "type": "uint256"
        }
      ],
      "name": "transfer",
      "outputs": [
        {
          "internalType": "bool",
          "name": "",
          "type": "bool"
        }
      ],
      "stateMutability": "nonpayable",
      "type": "function"
    },
    {
      "inputs": [
        {
          "internalType": "address",
          "name": "from",
          "type": "address"
        },
        {
          "internalType": "address",
          "name": "to",
          "type": "address"
        },
        {
          "internalType": "uint256",
          "name": "value",
          "type": "uint256"
        }
      ],
      "name": "transferFrom",
      "outputs": [
        {
          "internalType": "bool",
          "name": "",
          "type": "bool"
        }
      ],
      "stateMutability": "nonpayable",
      "type": "function"
    },
    {
      "inputs": [
        {
          "internalType": "address",
          "name": "newOwner",
          "type": "address"
        }
      ],
      "name": "transferOwnership",
      "outputs": [],
      "stateMutability": "nonpayable",
      "type": "function"
    },
    {
      "inputs": [],
      "name": "unpause",
      "outputs": [],
      "stateMutability": "nonpayable",
      "type": "function"
    },
    {
      "inputs": [
        {
          "internalType": "uint256",
          "name": "amount",
          "type": "uint256"
        }
      ],
      "name": "withdraw",
      "outputs": [],
      "stateMutability": "nonpayable",
      "type": "function"
    },
    {
      "stateMutability": "payable",
      "type": "receive"
    }
  ],
  "bytecode": "0x60806040526007805460ff1916601217905534801561001c575f5ffd5b50336040518060400160405280600b81526020016a15dc985c1c1959081113d560aa1b815250604051806040016040528060048152602001631d9113d560e21b815250816003908161006e91906101a8565b50600461007b82826101a8565b5050506001600160a01b0381166100ab57604051631e4fbdf760e01b81525f600482015260240160405180910390fd5b6100b4816100bf565b506001600655610262565b600580546001600160a01b038381166001600160a01b0319831681179093556040519116919082907f8be0079c531659141344cd1fd0a4f28419497f9722a3daafe3b4186f6b6457e0905f90a35050565b634e487b7160e01b5f52604160045260245ffd5b600181811c9082168061013857607f821691505b60208210810361015657634e487b7160e01b5f52602260045260245ffd5b50919050565b601f8211156101a357805f5260205f20601f840160051c810160208510156101815750805b601f840160051c820191505b818110156101a0575f815560010161018d565b50505b505050565b81516001600160401b038111156101c1576101c1610110565b6101d5816101cf8454610124565b8461015c565b6020601f821160018114610207575f83156101f05750848201515b5f19600385901b1c1916600184901b1784556101a0565b5f84815260208120601f198516915b828110156102365787850151825560209485019460019092019101610216565b508482101561025357868401515f19600387901b60f8161c191681555b50505050600190811b01905550565b610e638061026f5f395ff3fe608060405260043610610108575f3560e01c806370a082311161009257806395d89b411161006257806395d89b4114610340578063a9059cbb14610354578063d0e30db014610373578063dd62ed3e1461037b578063f2fde38b146103bf575f5ffd5b806370a08231146102bd578063715018a6146102f15780638456cb59146103055780638da5cb5b14610319575f5ffd5b80632e1a7d4d116100d85780632e1a7d4d14610237578063313ce567146102585780633f4ba83a146102795780635c975abb1461028d5780636f9fb98a146102ab575f5ffd5b806306fdde03146101a1578063095ea7b3146101cb57806318160ddd146101fa57806323b872dd14610218575f5ffd5b3661019d575f341161015c5760405162461bcd60e51b815260206004820152601860248201527704d757374206465706f736974206d6f7265207468616e20360441b60448201526064015b60405180910390fd5b61016633346103de565b60405134815233907fe1fffcc4923d04b559f4d29a8bfc6cda04eb5b0d3c460751c2402c5c5cc9109c9060200160405180910390a2005b5f5ffd5b3480156101ac575f5ffd5b506101b5610416565b6040516101c29190610cbc565b60405180910390f35b3480156101d6575f5ffd5b506101ea6101e5366004610d0c565b6104a6565b60405190151581526020016101c2565b348015610205575f5ffd5b506002545b6040519081526020016101c2565b348015610223575f5ffd5b506101ea610232366004610d34565b6104bf565b348015610242575f5ffd5b50610256610251366004610d6e565b6104e2565b005b348015610263575f5ffd5b5060075460405160ff90911681526020016101c2565b348015610284575f5ffd5b506102566106d1565b348015610298575f5ffd5b50600554600160a01b900460ff166101ea565b3480156102b6575f5ffd5b504761020a565b3480156102c8575f5ffd5b5061020a6102d7366004610d85565b6001600160a01b03165f9081526020819052604090205490565b3480156102fc575f5ffd5b506102566106e3565b348015610310575f5ffd5b506102566106f4565b348015610324575f5ffd5b506005546040516001600160a01b0390911681526020016101c2565b34801561034b575f5ffd5b506101b5610704565b34801561035f575f5ffd5b506101ea61036e366004610d0c565b610713565b610256610720565b348015610386575f5ffd5b5061020a610395366004610da5565b6001600160a01b039182165f90815260016020908152604080832093909416825291909152205490565b3480156103ca575f5ffd5b506102566103d9366004610d85565b6107c3565b6001600160a01b0382166104075760405163ec442f0560e01b81525f6004820152602401610153565b6104125f83836107fd565b5050565b60606003805461042590610dd6565b80601f016020809104026020016040519081016040528092919081815260200182805461045190610dd6565b801561049c5780601f106104735761010080835404028352916020019161049c565b820191905f5260205f20905b81548152906001019060200180831161047f57829003601f168201915b5050505050905090565b5f336104b3818585610815565b60019150505b92915050565b5f336104cc858285610822565b6104d785858561089e565b506001949350505050565b6104ea6108fb565b6104f2610925565b5f81116105415760405162461bcd60e51b815260206004820152601960248201527f4d757374207769746864726177206d6f7265207468616e2030000000000000006044820152606401610153565b335f9081526020819052604090205481111561059f5760405162461bcd60e51b815260206004820152601960248201527f496e73756666696369656e742076444f542062616c616e6365000000000000006044820152606401610153565b804710156105f95760405162461bcd60e51b815260206004820152602160248201527f496e73756666696369656e7420636f6e7472616374204554482062616c616e636044820152606560f81b6064820152608401610153565b6106033382610950565b6040515f90339083908381818185875af1925050503d805f8114610642576040519150601f19603f3d011682016040523d82523d5f602084013e610647565b606091505b505090508061068e5760405162461bcd60e51b8152602060048201526013602482015272115512081d1c985b9cd9995c8819985a5b1959606a1b6044820152606401610153565b60405182815233907f884edad9ce6fa2440d8a54cc123490eb96d2768479d49ff9c7366125a94243649060200160405180910390a2506106ce6001600655565b50565b6106d9610984565b6106e16109b1565b565b6106eb610984565b6106e15f610a06565b6106fc610984565b6106e1610a57565b60606004805461042590610dd6565b5f336104b381858561089e565b6107286108fb565b610730610925565b5f341161077a5760405162461bcd60e51b815260206004820152601860248201527704d757374206465706f736974206d6f7265207468616e20360441b6044820152606401610153565b61078433346103de565b60405134815233907fe1fffcc4923d04b559f4d29a8bfc6cda04eb5b0d3c460751c2402c5c5cc9109c9060200160405180910390a26106e16001600655565b6107cb610984565b6001600160a01b0381166107f457604051631e4fbdf760e01b81525f6004820152602401610153565b6106ce81610a06565b610805610925565b610810838383610a9a565b505050565b6108108383836001610bc0565b6001600160a01b038381165f908152600160209081526040808320938616835292905220545f19811015610898578181101561088a57604051637dc7a0d960e11b81526001600160a01b03841660048201526024810182905260448101839052606401610153565b61089884848484035f610bc0565b50505050565b6001600160a01b0383166108c757604051634b637e8f60e11b81525f6004820152602401610153565b6001600160a01b0382166108f05760405163ec442f0560e01b81525f6004820152602401610153565b6108108383836107fd565b60026006540361091e57604051633ee5aeb560e01b815260040160405180910390fd5b6002600655565b600554600160a01b900460ff16156106e15760405163d93c066560e01b815260040160405180910390fd5b6001600160a01b03821661097957604051634b637e8f60e11b81525f6004820152602401610153565b610412825f836107fd565b6005546001600160a01b031633146106e15760405163118cdaa760e01b8152336004820152602401610153565b6109b9610c92565b6005805460ff60a01b191690557f5db9ee0a495bf2e6ff9c91a7834c1ba4fdd244a5e8aa4e537bd38aeae4b073aa335b6040516001600160a01b03909116815260200160405180910390a1565b600580546001600160a01b038381166001600160a01b0319831681179093556040519116919082907f8be0079c531659141344cd1fd0a4f28419497f9722a3daafe3b4186f6b6457e0905f90a35050565b610a5f610925565b6005805460ff60a01b1916600160a01b1790557f62e78cea01bee320cd4e420270b5ea74000d11b0c9f74754ebdbfc544b05a2586109e93390565b6001600160a01b038316610ac4578060025f828254610ab99190610e0e565b90915550610b349050565b6001600160a01b0383165f9081526020819052604090205481811015610b165760405163391434e360e21b81526001600160a01b03851660048201526024810182905260448101839052606401610153565b6001600160a01b0384165f9081526020819052604090209082900390555b6001600160a01b038216610b5057600280548290039055610b6e565b6001600160a01b0382165f9081526020819052604090208054820190555b816001600160a01b0316836001600160a01b03167fddf252ad1be2c89b69c2b068fc378daa952ba7f163c4a11628f55a4df523b3ef83604051610bb391815260200190565b60405180910390a3505050565b6001600160a01b038416610be95760405163e602df0560e01b81525f6004820152602401610153565b6001600160a01b038316610c1257604051634a1406b160e11b81525f6004820152602401610153565b6001600160a01b038085165f908152600160209081526040808320938716835292905220829055801561089857826001600160a01b0316846001600160a01b03167f8c5be1e5ebec7d5bd14f71427d1e84f3dd0314c0f7b2291e5b200ac8c7c3b92584604051610c8491815260200190565b60405180910390a350505050565b600554600160a01b900460ff166106e157604051638dfc202b60e01b815260040160405180910390fd5b602081525f82518060208401528060208501604085015e5f604082850101526040601f19601f83011684010191505092915050565b80356001600160a01b0381168114610d07575f5ffd5b919050565b5f5f60408385031215610d1d575f5ffd5b610d2683610cf1565b946020939093013593505050565b5f5f5f60608486031215610d46575f5ffd5b610d4f84610cf1565b9250610d5d60208501610cf1565b929592945050506040919091013590565b5f60208284031215610d7e575f5ffd5b5035919050565b5f60208284031215610d95575f5ffd5b610d9e82610cf1565b9392505050565b5f5f60408385031215610db6575f5ffd5b610dbf83610cf1565b9150610dcd60208401610cf1565b90509250929050565b600181811c90821680610dea57607f821691505b602082108103610e0857634e487b7160e01b5f52602260045260245ffd5b50919050565b808201808211156104b957634e487b7160e01b5f52601160045260245ffdfea2646970667358221220b33ca3114e6b3cc4e2c9bab24de63819cac8bcc308cc85c3825b57b97c7f00ec64736f6c634300081c0033",
  "linkReferences": {},
  "deployedLinkReferences": {},
  "immutableReferences": {},
  "inputSourceName": "project/contracts/vDOT.sol",
  "buildInfoId": "solc-0_8_28-667c8e0c96e220fd8fd4cfb5d346e8c00f3f8fdb"
}