{
  "_format": "hh3-artifact-1",
  "contractName": "VotingContract",
  "sourceName": "contracts/VotingContract.sol",
  "abi": [
    {
      "inputs": [
        {
          "internalType": "address",
          "name": "_votingTicketToken",
          "type": "address"
        },
        {
          "internalType": "address",
          "name": "_oracleContract",
          "type": "address"
        }
      ],
      "stateMutability": "nonpayable",
      "type": "constructor"
    },
    {
      "inputs": [],
      "name": "EnforcedPause",
      "type": "error"
    },
    {
      "inputs": [],
      "name": "ExpectedPause",
      "type": "error"
    },
    {
      "inputs": [
        {
          "internalType": "address",
          "name": "owner",
          "type": "address"
        }
      ],
      "name": "OwnableInvalidOwner",
      "type": "error"
    },
    {
      "inputs": [
        {
          "internalType": "address",
          "name": "account",
          "type": "address"
        }
      ],
      "name": "OwnableUnauthorizedAccount",
      "type": "error"
    },
    {
      "inputs": [],
      "name": "ReentrancyGuardReentrantCall",
      "type": "error"
    },
    {
      "inputs": [
        {
          "internalType": "address",
          "name": "token",
          "type": "address"
        }
      ],
      "name": "SafeERC20FailedOperation",
      "type": "error"
    },
    {
      "anonymous": false,
      "inputs": [
        {
          "indexed": false,
          "internalType": "address",
          "name": "oldOracle",
          "type": "address"
        },
        {
          "indexed": false,
          "internalType": "address",
          "name": "newOracle",
          "type": "address"
        }
      ],
      "name": "OracleContractUpdated",
      "type": "event"
    },
    {
      "anonymous": false,
      "inputs": [
        {
          "indexed": true,
          "internalType": "address",
          "name": "previousOwner",
          "type": "address"
        },
        {
          "indexed": true,
          "internalType": "address",
          "name": "newOwner",
          "type": "address"
        }
      ],
      "name": "OwnershipTransferred",
      "type": "event"
    },
    {
      "anonymous": false,
      "inputs": [
        {
          "indexed": false,
          "internalType": "address",
          "name": "account",
          "type": "address"
        }
      ],
      "name": "Paused",
      "type": "event"
    },
    {
      "anonymous": false,
      "inputs": [
        {
          "indexed": true,
          "internalType": "address",
          "name": "user",
          "type": "address"
        },
        {
          "indexed": false,
          "internalType": "uint256",
          "name": "voteIndex",
          "type": "uint256"
        },
        {
          "indexed": false,
          "internalType": "uint256",
          "name": "rewardAmount",
          "type": "uint256"
        }
      ],
      "name": "RewardClaimed",
      "type": "event"
    },
    {
      "anonymous": false,
      "inputs": [
        {
          "indexed": false,
          "internalType": "address",
          "name": "account",
          "type": "address"
        }
      ],
      "name": "Unpaused",
      "type": "event"
    },
    {
      "anonymous": false,
      "inputs": [
        {
          "indexed": true,
          "internalType": "address",
          "name": "user",
          "type": "address"
        },
        {
          "indexed": false,
          "internalType": "uint256",
          "name": "votingPeriodId",
          "type": "uint256"
        },
        {
          "indexed": false,
          "internalType": "uint256",
          "name": "predictedYear",
          "type": "uint256"
        },
        {
          "indexed": false,
          "internalType": "uint256",
          "name": "ticketsUsed",
          "type": "uint256"
        }
      ],
      "name": "VoteCast",
      "type": "event"
    },
    {
      "anonymous": false,
      "inputs": [
        {
          "indexed": true,
          "internalType": "uint256",
          "name": "votingPeriodId",
          "type": "uint256"
        },
        {
          "indexed": false,
          "internalType": "uint256",
          "name": "correctYear",
          "type": "uint256"
        }
      ],
      "name": "VotingPeriodResolved",
      "type": "event"
    },
    {
      "inputs": [
        {
          "internalType": "address",
          "name": "user",
          "type": "address"
        },
        {
          "internalType": "uint256",
          "name": "voteIndex",
          "type": "uint256"
        }
      ],
      "name": "canClaimReward",
      "outputs": [
        {
          "internalType": "bool",
          "name": "",
          "type": "bool"
        }
      ],
      "stateMutability": "view",
      "type": "function"
    },
    {
      "inputs": [
        {
          "internalType": "uint256",
          "name": "voteIndex",
          "type": "uint256"
        }
      ],
      "name": "claimReward",
      "outputs": [],
      "stateMutability": "nonpayable",
      "type": "function"
    },
    {
      "inputs": [
        {
          "internalType": "uint256",
          "name": "duration",
          "type": "uint256"
        }
      ],
      "name": "createVotingPeriod",
      "outputs": [],
      "stateMutability": "nonpayable",
      "type": "function"
    },
    {
      "inputs": [],
      "name": "currentVotingPeriodId",
      "outputs": [
        {
          "internalType": "uint256",
          "name": "",
          "type": "uint256"
        }
      ],
      "stateMutability": "view",
      "type": "function"
    },
    {
      "inputs": [],
      "name": "getContractTicketBalance",
      "outputs": [
        {
          "internalType": "uint256",
          "name": "",
          "type": "uint256"
        }
      ],
      "stateMutability": "view",
      "type": "function"
    },
    {
      "inputs": [],
      "name": "getCurrentVotingPeriod",
      "outputs": [
        {
          "components": [
            {
              "internalType": "uint256",
              "name": "startTime",
              "type": "uint256"
            },
            {
              "internalType": "uint256",
              "name": "endTime",
              "type": "uint256"
            },
            {
              "internalType": "bool",
              "name": "active",
              "type": "bool"
            },
            {
              "internalType": "bool",
              "name": "resolved",
              "type": "bool"
            },
            {
              "internalType": "uint256",
              "name": "correctAnswerYear",
              "type": "uint256"
            }
          ],
          "internalType": "struct VotingContract.VotingPeriod",
          "name": "",
          "type": "tuple"
        }
      ],
      "stateMutability": "view",
      "type": "function"
    },
    {
      "inputs": [
        {
          "internalType": "address",
          "name": "user",
          "type": "address"
        },
        {
          "internalType": "uint256",
          "name": "index",
          "type": "uint256"
        }
      ],
      "name": "getUserVote",
      "outputs": [
        {
          "components": [
            {
              "internalType": "uint256",
              "name": "predictedYear",
              "type": "uint256"
            },
            {
              "internalType": "uint256",
              "name": "ticketsUsed",
              "type": "uint256"
            },
            {
              "internalType": "uint256",
              "name": "votingPeriodId",
              "type": "uint256"
            },
            {
              "internalType": "uint256",
              "name": "timestamp",
              "type": "uint256"
            },
            {
              "internalType": "bool",
              "name": "claimed",
              "type": "bool"
            }
          ],
          "internalType": "struct VotingContract.UserVote",
          "name": "",
          "type": "tuple"
        }
      ],
      "stateMutability": "view",
      "type": "function"
    },
    {
      "inputs": [
        {
          "internalType": "address",
          "name": "user",
          "type": "address"
        }
      ],
      "name": "getUserVoteCount",
      "outputs": [
        {
          "internalType": "uint256",
          "name": "",
          "type": "uint256"
        }
      ],
      "stateMutability": "view",
      "type": "function"
    },
    {
      "inputs": [
        {
          "internalType": "uint256",
          "name": "votingPeriodId",
          "type": "uint256"
        },
        {
          "internalType": "uint256",
          "name": "year",
          "type": "uint256"
        }
      ],
      "name": "getVoteStats",
      "outputs": [
        {
          "internalType": "uint256",
          "name": "",
          "type": "uint256"
        }
      ],
      "stateMutability": "view",
      "type": "function"
    },
    {
      "inputs": [],
      "name": "oracleContract",
      "outputs": [
        {
          "internalType": "address",
          "name": "",
          "type": "address"
        }
      ],
      "stateMutability": "view",
      "type": "function"
    },
    {
      "inputs": [],
      "name": "owner",
      "outputs": [
        {
          "internalType": "address",
          "name": "",
          "type": "address"
        }
      ],
      "stateMutability": "view",
      "type": "function"
    },
    {
      "inputs": [],
      "name": "pause",
      "outputs": [],
      "stateMutability": "nonpayable",
      "type": "function"
    },
    {
      "inputs": [],
      "name": "paused",
      "outputs": [
        {
          "internalType": "bool",
          "name": "",
          "type": "bool"
        }
      ],
      "stateMutability": "view",
      "type": "function"
    },
    {
      "inputs": [],
      "name": "renounceOwnership",
      "outputs": [],
      "stateMutability": "nonpayable",
      "type": "function"
    },
    {
      "inputs": [
        {
          "internalType": "uint256",
          "name": "votingPeriodId",
          "type": "uint256"
        },
        {
          "internalType": "uint256",
          "name": "correctYear",
          "type": "uint256"
        }
      ],
      "name": "resolveVotingPeriod",
      "outputs": [],
      "stateMutability": "nonpayable",
      "type": "function"
    },
    {
      "inputs": [
        {
          "internalType": "address",
          "name": "newOwner",
          "type": "address"
        }
      ],
      "name": "transferOwnership",
      "outputs": [],
      "stateMutability": "nonpayable",
      "type": "function"
    },
    {
      "inputs": [],
      "name": "unpause",
      "outputs": [],
      "stateMutability": "nonpayable",
      "type": "function"
    },
    {
      "inputs": [
        {
          "internalType": "address",
          "name": "newOracle",
          "type": "address"
        }
      ],
      "name": "updateOracleContract",
      "outputs": [],
      "stateMutability": "nonpayable",
      "type": "function"
    },
    {
      "inputs": [
        {
          "internalType": "address",
          "name": "",
          "type": "address"
        },
        {
          "internalType": "uint256",
          "name": "",
          "type": "uint256"
        }
      ],
      "name": "userVotes",
      "outputs": [
        {
          "internalType": "uint256",
          "name": "predictedYear",
          "type": "uint256"
        },
        {
          "internalType": "uint256",
          "name": "ticketsUsed",
          "type": "uint256"
        },
        {
          "internalType": "uint256",
          "name": "votingPeriodId",
          "type": "uint256"
        },
        {
          "internalType": "uint256",
          "name": "timestamp",
          "type": "uint256"
        },
        {
          "internalType": "bool",
          "name": "claimed",
          "type": "bool"
        }
      ],
      "stateMutability": "view",
      "type": "function"
    },
    {
      "inputs": [
        {
          "internalType": "uint256",
          "name": "predictedYear",
          "type": "uint256"
        },
        {
          "internalType": "uint256",
          "name": "ticketsToUse",
          "type": "uint256"
        }
      ],
      "name": "vote",
      "outputs": [],
      "stateMutability": "nonpayable",
      "type": "function"
    },
    {
      "inputs": [
        {
          "internalType": "uint256",
          "name": "",
          "type": "uint256"
        }
      ],
      "name": "votingPeriods",
      "outputs": [
        {
          "internalType": "uint256",
          "name": "startTime",
          "type": "uint256"
        },
        {
          "internalType": "uint256",
          "name": "endTime",
          "type": "uint256"
        },
        {
          "internalType": "bool",
          "name": "active",
          "type": "bool"
        },
        {
          "internalType": "bool",
          "name": "resolved",
          "type": "bool"
        },
        {
          "internalType": "uint256",
          "name": "correctAnswerYear",
          "type": "uint256"
        }
      ],
      "stateMutability": "view",
      "type": "function"
    },
    {
      "inputs": [],
      "name": "votingTicketToken",
      "outputs": [
        {
          "internalType": "contract IERC20",
          "name": "",
          "type": "address"
        }
      ],
      "stateMutability": "view",
      "type": "function"
    }
  ],
  "bytecode": "0x608060405234801561000f575f5ffd5b5060405161194438038061194483398101604081905261002e91610214565b338061005357604051631e4fbdf760e01b81525f600482015260240160405180910390fd5b61005c816101aa565b50600180805560028054610100600160a81b0319166101006001600160a01b038681169190910291909117909155600780546001600160a01b0319169184169190911790556003556040805160a081019091524280825260208201906100c6906301e13380610245565b8152600160208083018290525f604080850182905260609485018290529290526004815283517fabd6e7cb50984ff9c2f3e18a2660c3353dadf4e3291deeb275dae2cd1e44fe05558301517fabd6e7cb50984ff9c2f3e18a2660c3353dadf4e3291deeb275dae2cd1e44fe06558201517fabd6e7cb50984ff9c2f3e18a2660c3353dadf4e3291deeb275dae2cd1e44fe0780549284015115156101000261ff00199215159290921661ffff1990931692909217179055608001517fabd6e7cb50984ff9c2f3e18a2660c3353dadf4e3291deeb275dae2cd1e44fe08555061026a9050565b5f80546001600160a01b038381166001600160a01b0319831681178455604051919092169283917f8be0079c531659141344cd1fd0a4f28419497f9722a3daafe3b4186f6b6457e09190a35050565b80516001600160a01b038116811461020f575f5ffd5b919050565b5f5f60408385031215610225575f5ffd5b61022e836101f9565b915061023c602084016101f9565b90509250929050565b8082018082111561026457634e487b7160e01b5f52601160045260245ffd5b92915050565b6116cd806102775f395ff3fe608060405234801561000f575f5ffd5b506004361061013d575f3560e01c8063a01bc01f116100b4578063c273c53e11610079578063c273c53e14610391578063c3049756146103a4578063d3bab58f146103b7578063efe2b9d0146103ca578063f2fde38b146103f8578063f980c92b1461040b575f5ffd5b8063a01bc01f146102b5578063ae169a501461030b578063ae40bc791461031e578063b384abef1461036b578063bece75321461037e575f5ffd5b80636d52d724116101055780636d52d724146102155780636f3e9ff714610228578063715018a6146102585780638456cb59146102605780638b3511f7146102685780638da5cb5b146102a5575f5ffd5b80632fb0fc92146101415780633f4ba83a146101b557806358200e7a146101bf5780635c975abb146101d6578063669ea37a146101ed575b5f5ffd5b61018261014f36600461157c565b60046020525f908152604090208054600182015460028301546003909301549192909160ff808316926101009004169085565b604080519586526020860194909452911515928401929092529015156060830152608082015260a0015b60405180910390f35b6101bd610413565b005b6101c860035481565b6040519081526020016101ac565b60025460ff165b60405190151581526020016101ac565b6101c86101fb3660046115ae565b6001600160a01b03165f9081526005602052604090205490565b6101bd6102233660046115ce565b610425565b6002546102409061010090046001600160a01b031681565b6040516001600160a01b0390911681526020016101ac565b6101bd610612565b6101bd610623565b61027b6102763660046115ee565b610633565b6040805195865260208601949094529284019190915260608301521515608082015260a0016101ac565b5f546001600160a01b0316610240565b6102c86102c33660046115ee565b610680565b6040516101ac91905f60a0820190508251825260208301516020830152604083015160408301526060830151606083015260808301511515608083015292915050565b6101bd61031936600461157c565b610786565b6103266109e2565b6040516101ac91905f60a08201905082518252602083015160208301526040830151151560408301526060830151151560608301526080830151608083015292915050565b6101bd6103793660046115ce565b610a6e565b600754610240906001600160a01b031681565b6101dd61039f3660046115ee565b610f67565b6101bd6103b236600461157c565b611090565b6101bd6103c53660046115ae565b61118c565b6101c86103d83660046115ce565b5f9182526006602090815260408084209284526001909201905290205490565b6101bd6104063660046115ae565b611244565b6101c861127e565b61041b6112f2565b61042361131e565b565b6007546001600160a01b031633146104845760405162461bcd60e51b815260206004820152601760248201527f4f6e6c79206f7261636c652063616e207265736f6c766500000000000000000060448201526064015b60405180910390fd5b6107eb81101580610493575080155b6104f55760405162461bcd60e51b815260206004820152602d60248201527f496e76616c6964207965617220286d757374206265203e3d2032303237206f7260448201526c203020666f72206e657665722960981b606482015260840161047b565b5f8281526004602052604090206002015460ff166105555760405162461bcd60e51b815260206004820152601860248201527f566f74696e6720706572696f64206e6f74206163746976650000000000000000604482015260640161047b565b5f82815260046020526040902060020154610100900460ff16156105ae5760405162461bcd60e51b815260206004820152601060248201526f105b1c9958591e481c995cdbdb1d995960821b604482015260640161047b565b5f828152600460205260409081902060028101805461ff0019166101001790556003018290555182907f80f6c503a9b97bdff75e901cfa0d8887a0752691764d996a27469f8814597565906106069084815260200190565b60405180910390a25050565b61061a6112f2565b6104235f611370565b61062b6112f2565b6104236113bf565b6005602052815f5260405f20818154811061064c575f80fd5b5f91825260209091206005909102018054600182015460028301546003840154600490940154929550909350919060ff1685565b6106af6040518060a001604052805f81526020015f81526020015f81526020015f81526020015f151581525090565b6001600160a01b0383165f9081526005602052604090205482106107055760405162461bcd60e51b815260206004820152600d60248201526c092dcecc2d8d2c840d2dcc8caf609b1b604482015260640161047b565b6001600160a01b0383165f90815260056020526040902080548390811061072e5761072e611616565b5f9182526020918290206040805160a0810182526005909302909101805483526001810154938301939093526002830154908201526003820154606082015260049091015460ff161515608082015290505b92915050565b61078e6113fc565b335f9081526005602052604090205481106107e05760405162461bcd60e51b8152602060048201526012602482015271092dcecc2d8d2c840ecdee8ca40d2dcc8caf60731b604482015260640161047b565b335f90815260056020526040812080548390811061080057610800611616565b5f9182526020909120600590910201600481015490915060ff16156108605760405162461bcd60e51b815260206004820152601660248201527514995dd85c9908185b1c9958591e4818db185a5b595960521b604482015260640161047b565b6002808201545f90815260046020908152604091829020825160a081018452815481526001820154928101929092529283015460ff808216151593830193909352610100900490911615156060820181905260039092015460808201529061090a5760405162461bcd60e51b815260206004820152601a60248201527f566f74696e6720706572696f64206e6f74207265736f6c766564000000000000604482015260640161047b565b81546080820151146109535760405162461bcd60e51b8152602060048201526012602482015271159bdd19481dd85cc81a5b98dbdc9c9958dd60721b604482015260640161047b565b60018201546002905f9061096890839061163e565b60048501805460ff19166001179055600254909150610997906001600160a01b03610100909104163383611426565b604080518681526020810183905233917ff01da32686223933d8a18a391060918c7f11a3648639edd87ae013e2e2731743910160405180910390a2505050506109df60018055565b50565b610a136040518060a001604052805f81526020015f81526020015f151581526020015f151581526020015f81525090565b50600380545f90815260046020908152604091829020825160a08101845281548152600182015492810192909252600281015460ff808216151594840194909452610100900490921615156060820152910154608082015290565b610a766113fc565b610a7e61148a565b5f8111610acd5760405162461bcd60e51b815260206004820152601a60248201527f4d75737420757365206174206c656173742031207469636b6574000000000000604482015260640161047b565b6107eb82101580610adc575081155b610b4e5760405162461bcd60e51b815260206004820152603860248201527f496e76616c69642070726564696374696f6e207965617220286d75737420626560448201527f203e3d2032303237206f72203020666f72206e65766572290000000000000000606482015260840161047b565b6002546040516370a0823160e01b8152336004820152829161010090046001600160a01b0316906370a0823190602401602060405180830381865afa158015610b99573d5f5f3e3d5ffd5b505050506040513d601f19601f82011682018060405250810190610bbd9190611655565b1015610c0b5760405162461bcd60e51b815260206004820152601b60248201527f496e73756666696369656e74207469636b65742062616c616e63650000000000604482015260640161047b565b600254604051636eb1769f60e11b8152336004820152306024820152829161010090046001600160a01b03169063dd62ed3e90604401602060405180830381865afa158015610c5c573d5f5f3e3d5ffd5b505050506040513d601f19601f82011682018060405250810190610c809190611655565b1015610cc75760405162461bcd60e51b8152602060048201526016602482015275496e73756666696369656e7420616c6c6f77616e636560501b604482015260640161047b565b6003545f908152600460205260409020600281015460ff16610d2b5760405162461bcd60e51b815260206004820152601760248201527f4e6f2061637469766520766f74696e6720706572696f64000000000000000000604482015260640161047b565b8054421015610d7c5760405162461bcd60e51b815260206004820152601960248201527f566f74696e6720706572696f64206e6f74207374617274656400000000000000604482015260640161047b565b8060010154421115610dc65760405162461bcd60e51b8152602060048201526013602482015272159bdd1a5b99c81c195c9a5bd908195b991959606a1b604482015260640161047b565b6002810154610100900460ff1615610e205760405162461bcd60e51b815260206004820152601e60248201527f566f74696e6720706572696f6420616c7265616479207265736f6c7665640000604482015260640161047b565b600254610e3d9061010090046001600160a01b03163330856114ae565b6040805160a08101825284815260208082018581526003805484860190815242606086019081525f6080870181815233825260058088528983208054600180820183559185528985208b51919093029092019182559651968101969096559251600286015590518484015590516004909301805460ff1916931515939093179092555481526006909152918220805491928592610edb90849061166c565b90915550506003545f90815260066020908152604080832087845260010190915281208054859290610f0e90849061166c565b90915550506003546040805191825260208201869052810184905233907fa23fc440c6fc2e19ce408adc0b47622097fa7ea64409d71d33ba3fcdb5b4cd959060600160405180910390a25050610f6360018055565b5050565b6001600160a01b0382165f908152600560205260408120548210610f8c57505f610780565b6001600160a01b0383165f908152600560205260408120805484908110610fb557610fb5611616565b5f9182526020918290206040805160a0810182526005909302909101805483526001810154938301939093526002830154908201526003820154606082015260049091015460ff161580156080830152909150611015575f915050610780565b6040808201515f9081526004602090815290829020825160a08101845281548152600182015492810192909252600281015460ff8082161515948401949094526101009004909216151560608201819052600390920154608082015290611080575f92505050610780565b9051608090910151149392505050565b6110986112f2565b5f81116110e75760405162461bcd60e51b815260206004820152601f60248201527f4475726174696f6e206d7573742062652067726561746572207468616e203000604482015260640161047b565b60038054905f6110f68361167f565b91905055506040518060a001604052804281526020018242611118919061166c565b8152600160208083018290525f604080850182905260609485018290526003805483526004845291819020865181559286015193830193909355918401516002820180549486015115156101000261ff00199215159290921661ffff19909516949094171790925560809092015191015550565b6111946112f2565b6001600160a01b0381166111e35760405162461bcd60e51b8152602060048201526016602482015275496e76616c6964206f7261636c65206164647265737360501b604482015260640161047b565b600780546001600160a01b038381166001600160a01b031983168117909355604080519190921680825260208201939093527fbf7ec739eb17989ec37b8022950e7d1780f24bd2f029fe363f8320b6b6042f7c910160405180910390a15050565b61124c6112f2565b6001600160a01b03811661127557604051631e4fbdf760e01b81525f600482015260240161047b565b6109df81611370565b6002546040516370a0823160e01b81523060048201525f9161010090046001600160a01b0316906370a0823190602401602060405180830381865afa1580156112c9573d5f5f3e3d5ffd5b505050506040513d601f19601f820116820180604052508101906112ed9190611655565b905090565b5f546001600160a01b031633146104235760405163118cdaa760e01b815233600482015260240161047b565b6113266114ed565b6002805460ff191690557f5db9ee0a495bf2e6ff9c91a7834c1ba4fdd244a5e8aa4e537bd38aeae4b073aa335b6040516001600160a01b03909116815260200160405180910390a1565b5f80546001600160a01b038381166001600160a01b0319831681178455604051919092169283917f8be0079c531659141344cd1fd0a4f28419497f9722a3daafe3b4186f6b6457e09190a35050565b6113c761148a565b6002805460ff191660011790557f62e78cea01bee320cd4e420270b5ea74000d11b0c9f74754ebdbfc544b05a2586113533390565b60026001540361141f57604051633ee5aeb560e01b815260040160405180910390fd5b6002600155565b6040516001600160a01b0383811660248301526044820183905261148591859182169063a9059cbb906064015b604051602081830303815290604052915060e01b6020820180516001600160e01b038381831617835250505050611510565b505050565b60025460ff16156104235760405163d93c066560e01b815260040160405180910390fd5b6040516001600160a01b0384811660248301528381166044830152606482018390526114e79186918216906323b872dd90608401611453565b50505050565b60025460ff1661042357604051638dfc202b60e01b815260040160405180910390fd5b5f5f60205f8451602086015f885af18061152f576040513d5f823e3d81fd5b50505f513d91508115611546578060011415611553565b6001600160a01b0384163b155b156114e757604051635274afe760e01b81526001600160a01b038516600482015260240161047b565b5f6020828403121561158c575f5ffd5b5035919050565b80356001600160a01b03811681146115a9575f5ffd5b919050565b5f602082840312156115be575f5ffd5b6115c782611593565b9392505050565b5f5f604083850312156115df575f5ffd5b50508035926020909101359150565b5f5f604083850312156115ff575f5ffd5b61160883611593565b946020939093013593505050565b634e487b7160e01b5f52603260045260245ffd5b634e487b7160e01b5f52601160045260245ffd5b80820281158282048414176107805761078061162a565b5f60208284031215611665575f5ffd5b5051919050565b808201808211156107805761078061162a565b5f600182016116905761169061162a565b506001019056fea2646970667358221220bc9779863ec5689f05dd9442b5256f58af0f9da6467dfb753476d23d2217885464736f6c634300081c0033",
  "linkReferences": {},
  "deployedLinkReferences": {},
  "immutableReferences": {},
  "inputSourceName": "project/contracts/VotingContract.sol",
  "buildInfoId": "solc-0_8_28-498c17da91b67cf47ced9be06cf3d81211affa2a"
}