{
  "_format": "hh3-artifact-1",
  "contractName": "StakingContract",
  "sourceName": "contracts/StakingContract.sol",
  "abi": [
    {
      "inputs": [
        {
          "internalType": "address",
          "name": "_vDOTToken",
          "type": "address"
        },
        {
          "internalType": "address",
          "name": "_votingTicketToken",
          "type": "address"
        },
        {
          "internalType": "address",
          "name": "_votingContract",
          "type": "address"
        }
      ],
      "stateMutability": "nonpayable",
      "type": "constructor"
    },
    {
      "inputs": [],
      "name": "EnforcedPause",
      "type": "error"
    },
    {
      "inputs": [],
      "name": "ExpectedPause",
      "type": "error"
    },
    {
      "inputs": [
        {
          "internalType": "address",
          "name": "owner",
          "type": "address"
        }
      ],
      "name": "OwnableInvalidOwner",
      "type": "error"
    },
    {
      "inputs": [
        {
          "internalType": "address",
          "name": "account",
          "type": "address"
        }
      ],
      "name": "OwnableUnauthorizedAccount",
      "type": "error"
    },
    {
      "inputs": [],
      "name": "ReentrancyGuardReentrantCall",
      "type": "error"
    },
    {
      "inputs": [
        {
          "internalType": "address",
          "name": "token",
          "type": "address"
        }
      ],
      "name": "SafeERC20FailedOperation",
      "type": "error"
    },
    {
      "anonymous": false,
      "inputs": [
        {
          "indexed": true,
          "internalType": "address",
          "name": "token",
          "type": "address"
        },
        {
          "indexed": false,
          "internalType": "uint256",
          "name": "amount",
          "type": "uint256"
        }
      ],
      "name": "EmergencyWithdraw",
      "type": "event"
    },
    {
      "anonymous": false,
      "inputs": [
        {
          "indexed": true,
          "internalType": "address",
          "name": "previousOwner",
          "type": "address"
        },
        {
          "indexed": true,
          "internalType": "address",
          "name": "newOwner",
          "type": "address"
        }
      ],
      "name": "OwnershipTransferred",
      "type": "event"
    },
    {
      "anonymous": false,
      "inputs": [
        {
          "indexed": false,
          "internalType": "address",
          "name": "account",
          "type": "address"
        }
      ],
      "name": "Paused",
      "type": "event"
    },
    {
      "anonymous": false,
      "inputs": [
        {
          "indexed": true,
          "internalType": "address",
          "name": "user",
          "type": "address"
        },
        {
          "indexed": false,
          "internalType": "uint256",
          "name": "amount",
          "type": "uint256"
        },
        {
          "indexed": false,
          "internalType": "uint256",
          "name": "votingPeriodId",
          "type": "uint256"
        },
        {
          "indexed": false,
          "internalType": "uint256",
          "name": "ticketsMinted",
          "type": "uint256"
        }
      ],
      "name": "Staked",
      "type": "event"
    },
    {
      "anonymous": false,
      "inputs": [
        {
          "indexed": false,
          "internalType": "address",
          "name": "account",
          "type": "address"
        }
      ],
      "name": "Unpaused",
      "type": "event"
    },
    {
      "anonymous": false,
      "inputs": [
        {
          "indexed": true,
          "internalType": "address",
          "name": "user",
          "type": "address"
        },
        {
          "indexed": false,
          "internalType": "uint256",
          "name": "stakeIndex",
          "type": "uint256"
        },
        {
          "indexed": false,
          "internalType": "uint256",
          "name": "amount",
          "type": "uint256"
        }
      ],
      "name": "Unstaked",
      "type": "event"
    },
    {
      "anonymous": false,
      "inputs": [
        {
          "indexed": false,
          "internalType": "address",
          "name": "oldContract",
          "type": "address"
        },
        {
          "indexed": false,
          "internalType": "address",
          "name": "newContract",
          "type": "address"
        }
      ],
      "name": "VotingContractUpdated",
      "type": "event"
    },
    {
      "inputs": [
        {
          "internalType": "uint256",
          "name": "amount",
          "type": "uint256"
        }
      ],
      "name": "calculateTickets",
      "outputs": [
        {
          "internalType": "uint256",
          "name": "",
          "type": "uint256"
        }
      ],
      "stateMutability": "pure",
      "type": "function"
    },
    {
      "inputs": [
        {
          "internalType": "address",
          "name": "user",
          "type": "address"
        },
        {
          "internalType": "uint256",
          "name": "stakeIndex",
          "type": "uint256"
        }
      ],
      "name": "canUnstake",
      "outputs": [
        {
          "internalType": "bool",
          "name": "",
          "type": "bool"
        }
      ],
      "stateMutability": "view",
      "type": "function"
    },
    {
      "inputs": [
        {
          "internalType": "address",
          "name": "token",
          "type": "address"
        },
        {
          "internalType": "uint256",
          "name": "amount",
          "type": "uint256"
        }
      ],
      "name": "emergencyWithdraw",
      "outputs": [],
      "stateMutability": "nonpayable",
      "type": "function"
    },
    {
      "inputs": [],
      "name": "getContractTicketBalance",
      "outputs": [
        {
          "internalType": "uint256",
          "name": "",
          "type": "uint256"
        }
      ],
      "stateMutability": "view",
      "type": "function"
    },
    {
      "inputs": [],
      "name": "getContractVDOTBalance",
      "outputs": [
        {
          "internalType": "uint256",
          "name": "",
          "type": "uint256"
        }
      ],
      "stateMutability": "view",
      "type": "function"
    },
    {
      "inputs": [
        {
          "internalType": "address",
          "name": "user",
          "type": "address"
        },
        {
          "internalType": "uint256",
          "name": "index",
          "type": "uint256"
        }
      ],
      "name": "getUserStake",
      "outputs": [
        {
          "components": [
            {
              "internalType": "uint256",
              "name": "amount",
              "type": "uint256"
            },
            {
              "internalType": "uint256",
              "name": "votingPeriodId",
              "type": "uint256"
            },
            {
              "internalType": "uint256",
              "name": "startTime",
              "type": "uint256"
            },
            {
              "internalType": "uint256",
              "name": "ticketsMinted",
              "type": "uint256"
            },
            {
              "internalType": "bool",
              "name": "active",
              "type": "bool"
            }
          ],
          "internalType": "struct StakingContract.StakeInfo",
          "name": "",
          "type": "tuple"
        }
      ],
      "stateMutability": "view",
      "type": "function"
    },
    {
      "inputs": [
        {
          "internalType": "address",
          "name": "user",
          "type": "address"
        }
      ],
      "name": "getUserStakeCount",
      "outputs": [
        {
          "internalType": "uint256",
          "name": "",
          "type": "uint256"
        }
      ],
      "stateMutability": "view",
      "type": "function"
    },
    {
      "inputs": [],
      "name": "owner",
      "outputs": [
        {
          "internalType": "address",
          "name": "",
          "type": "address"
        }
      ],
      "stateMutability": "view",
      "type": "function"
    },
    {
      "inputs": [],
      "name": "pause",
      "outputs": [],
      "stateMutability": "nonpayable",
      "type": "function"
    },
    {
      "inputs": [],
      "name": "paused",
      "outputs": [
        {
          "internalType": "bool",
          "name": "",
          "type": "bool"
        }
      ],
      "stateMutability": "view",
      "type": "function"
    },
    {
      "inputs": [],
      "name": "renounceOwnership",
      "outputs": [],
      "stateMutability": "nonpayable",
      "type": "function"
    },
    {
      "inputs": [
        {
          "internalType": "uint256",
          "name": "amount",
          "type": "uint256"
        }
      ],
      "name": "stake",
      "outputs": [],
      "stateMutability": "nonpayable",
      "type": "function"
    },
    {
      "inputs": [],
      "name": "totalStaked",
      "outputs": [
        {
          "internalType": "uint256",
          "name": "",
          "type": "uint256"
        }
      ],
      "stateMutability": "view",
      "type": "function"
    },
    {
      "inputs": [
        {
          "internalType": "address",
          "name": "newOwner",
          "type": "address"
        }
      ],
      "name": "transferOwnership",
      "outputs": [],
      "stateMutability": "nonpayable",
      "type": "function"
    },
    {
      "inputs": [],
      "name": "unpause",
      "outputs": [],
      "stateMutability": "nonpayable",
      "type": "function"
    },
    {
      "inputs": [
        {
          "internalType": "uint256",
          "name": "stakeIndex",
          "type": "uint256"
        }
      ],
      "name": "unstake",
      "outputs": [],
      "stateMutability": "nonpayable",
      "type": "function"
    },
    {
      "inputs": [
        {
          "internalType": "address",
          "name": "newVotingContract",
          "type": "address"
        }
      ],
      "name": "updateVotingContract",
      "outputs": [],
      "stateMutability": "nonpayable",
      "type": "function"
    },
    {
      "inputs": [
        {
          "internalType": "address",
          "name": "",
          "type": "address"
        },
        {
          "internalType": "uint256",
          "name": "",
          "type": "uint256"
        }
      ],
      "name": "userStakes",
      "outputs": [
        {
          "internalType": "uint256",
          "name": "amount",
          "type": "uint256"
        },
        {
          "internalType": "uint256",
          "name": "votingPeriodId",
          "type": "uint256"
        },
        {
          "internalType": "uint256",
          "name": "startTime",
          "type": "uint256"
        },
        {
          "internalType": "uint256",
          "name": "ticketsMinted",
          "type": "uint256"
        },
        {
          "internalType": "bool",
          "name": "active",
          "type": "bool"
        }
      ],
      "stateMutability": "view",
      "type": "function"
    },
    {
      "inputs": [],
      "name": "vDOTToken",
      "outputs": [
        {
          "internalType": "contract IERC20",
          "name": "",
          "type": "address"
        }
      ],
      "stateMutability": "view",
      "type": "function"
    },
    {
      "inputs": [],
      "name": "votingContract",
      "outputs": [
        {
          "internalType": "contract IVotingContract",
          "name": "",
          "type": "address"
        }
      ],
      "stateMutability": "view",
      "type": "function"
    },
    {
      "inputs": [],
      "name": "votingTicketToken",
      "outputs": [
        {
          "internalType": "contract IVotingTicket",
          "name": "",
          "type": "address"
        }
      ],
      "stateMutability": "view",
      "type": "function"
    }
  ],
  "bytecode": "0x608060405234801561000f575f5ffd5b5060405161137f38038061137f83398101604081905261002e91610116565b338061005357604051631e4fbdf760e01b81525f600482015260240160405180910390fd5b61005c816100ac565b5060018055600280546001600160a01b0394851661010002610100600160a81b0319909116179055600380549284166001600160a01b031993841617905560048054919093169116179055610156565b5f80546001600160a01b038381166001600160a01b0319831681178455604051919092169283917f8be0079c531659141344cd1fd0a4f28419497f9722a3daafe3b4186f6b6457e09190a35050565b80516001600160a01b0381168114610111575f5ffd5b919050565b5f5f5f60608486031215610128575f5ffd5b610131846100fb565b925061013f602085016100fb565b915061014d604085016100fb565b90509250925092565b61121c806101635f395ff3fe608060405234801561000f575f5ffd5b5060043610610132575f3560e01c80638456cb59116100b4578063c1fc006a11610079578063c1fc006a14610288578063cec695fa1461029b578063d0743d43146102f1578063df1a86a014610309578063f2fde38b1461031c578063f980c92b1461032f575f5ffd5b80638456cb591461020d5780638da5cb5b1461021557806395ccea6714610225578063a694fc3a14610238578063b5d5b5fa1461024b575f5ffd5b80636f3e9ff7116100fa5780636f3e9ff7146101b8578063715018a6146101e35780637639af21146101eb5780637c860a5f146101fc578063817b1cd214610204575f5ffd5b80631b545a17146101365780632e17de78146101715780633f4ba83a146101865780635c975abb1461018e5780635e598d12146101a5575b5f5ffd5b61015e6101443660046110c4565b6001600160a01b03165f9081526005602052604090205490565b6040519081526020015b60405180910390f35b61018461017f3660046110e4565b610337565b005b6101846105c6565b60025460ff165b6040519015158152602001610168565b6101956101b33660046110fb565b6105d8565b6003546101cb906001600160a01b031681565b6040516001600160a01b039091168152602001610168565b610184610706565b61015e6101f93660046110e4565b90565b61015e610717565b61015e60065481565b61018461078c565b5f546001600160a01b03166101cb565b6101846102333660046110fb565b61079c565b6101846102463660046110e4565b610810565b61025e6102593660046110fb565b610bb2565b6040805195865260208601949094529284019190915260608301521515608082015260a001610168565b6004546101cb906001600160a01b031681565b6102ae6102a93660046110fb565b610bff565b60405161016891905f60a0820190508251825260208301516020830152604083015160408301526060830151606083015260808301511515608083015292915050565b6002546101cb9061010090046001600160a01b031681565b6101846103173660046110c4565b610d04565b61018461032a3660046110c4565b610db5565b61015e610def565b61033f610e1f565b335f9081526005602052604090205481106103975760405162461bcd60e51b8152602060048201526013602482015272092dcecc2d8d2c840e6e8c2d6ca40d2dcc8caf606b1b60448201526064015b60405180910390fd5b335f9081526005602052604081208054839081106103b7576103b7611123565b5f9182526020909120600590910201600481015490915060ff166104105760405162461bcd60e51b815260206004820152601060248201526f5374616b65206e6f742061637469766560801b604482015260640161038e565b6004805460018301546040516317d87e4960e11b8152928301525f916001600160a01b0390911690632fb0fc929060240160a060405180830381865afa15801561045c573d5f5f3e3d5ffd5b505050506040513d601f19601f820116820180604052508101906104809190611146565b509350505050806104d35760405162461bcd60e51b815260206004820152601e60248201527f566f74696e6720706572696f64206e6f74207265736f6c766564207965740000604482015260640161038e565b81546002546104f19061010090046001600160a01b03163383610e49565b6003805490840154604051632770a7eb60e21b815233600482015260248101919091526001600160a01b0390911690639dc29fac906044015f604051808303815f87803b158015610540575f5ffd5b505af1158015610552573d5f5f3e3d5ffd5b50505060048401805460ff1916905550600680548291905f906105769084906111a9565b9091555050604080518581526020810183905233917f7fc4727e062e336010f2c282598ef5f14facb3de68cf8195c2f23e1454b2b74e91015b60405180910390a25050506105c360018055565b50565b6105ce610ead565b6105d6610ed9565b565b6001600160a01b0382165f9081526005602052604081205482106105fd57505f610700565b6001600160a01b0383165f90815260056020526040812080548490811061062657610626611123565b5f9182526020918290206040805160a0810182526005909302909101805483526001810154938301939093526002830154908201526003820154606082015260049091015460ff16151560808201819052909150610687575f915050610700565b6004805460208301516040516317d87e4960e11b8152928301525f916001600160a01b0390911690632fb0fc929060240160a060405180830381865afa1580156106d3573d5f5f3e3d5ffd5b505050506040513d601f19601f820116820180604052508101906106f79190611146565b50955050505050505b92915050565b61070e610ead565b6105d65f610f2b565b6002546040516370a0823160e01b81523060048201525f9161010090046001600160a01b0316906370a08231906024015b602060405180830381865afa158015610763573d5f5f3e3d5ffd5b505050506040513d601f19601f8201168201806040525081019061078791906111bc565b905090565b610794610ead565b6105d6610f7a565b6107a4610ead565b6107c96107b85f546001600160a01b031690565b6001600160a01b0384169083610e49565b816001600160a01b03167f5fafa99d0643513820be26656b45130b01e1c03062e1266bf36f88cbd3bd96958260405161080491815260200190565b60405180910390a25050565b610818610e1f565b610820610fb7565b5f811161086f5760405162461bcd60e51b815260206004820152601d60248201527f416d6f756e74206d7573742062652067726561746572207468616e2030000000604482015260640161038e565b6002546040516370a0823160e01b8152336004820152829161010090046001600160a01b0316906370a0823190602401602060405180830381865afa1580156108ba573d5f5f3e3d5ffd5b505050506040513d601f19601f820116820180604052508101906108de91906111bc565b101561092c5760405162461bcd60e51b815260206004820152601960248201527f496e73756666696369656e742076444f542062616c616e636500000000000000604482015260640161038e565b600254604051636eb1769f60e11b8152336004820152306024820152829161010090046001600160a01b03169063dd62ed3e90604401602060405180830381865afa15801561097d573d5f5f3e3d5ffd5b505050506040513d601f19601f820116820180604052508101906109a191906111bc565b10156109e85760405162461bcd60e51b8152602060048201526016602482015275496e73756666696369656e7420616c6c6f77616e636560501b604482015260640161038e565b5f60045f9054906101000a90046001600160a01b03166001600160a01b03166358200e7a6040518163ffffffff1660e01b8152600401602060405180830381865afa158015610a39573d5f5f3e3d5ffd5b505050506040513d601f19601f82011682018060405250810190610a5d91906111bc565b6002549091508290610a7f9061010090046001600160a01b0316333084610fdb565b6003546040516340c10f1960e01b8152336004820152602481018390526001600160a01b03909116906340c10f19906044015f604051808303815f87803b158015610ac8575f5ffd5b505af1158015610ada573d5f5f3e3d5ffd5b50506040805160a08101825286815260208082018781524283850190815260608401888152600160808601818152335f90815260058088529881208054808501825590825296812088519790990290980195865593519085015590516002840155516003830155516004909101805460ff1916911515919091179055600680549194508793509190610b6d9084906111d3565b9091555050604080518581526020810185905290810183905233907fb4caaf29adda3eefee3ad552a8e85058589bf834c7466cae4ee58787f70589ed906060016105af565b6005602052815f5260405f208181548110610bcb575f80fd5b5f91825260209091206005909102018054600182015460028301546003840154600490940154929550909350919060ff1685565b610c2e6040518060a001604052805f81526020015f81526020015f81526020015f81526020015f151581525090565b6001600160a01b0383165f908152600560205260409020548210610c845760405162461bcd60e51b815260206004820152600d60248201526c092dcecc2d8d2c840d2dcc8caf609b1b604482015260640161038e565b6001600160a01b0383165f908152600560205260409020805483908110610cad57610cad611123565b5f9182526020918290206040805160a0810182526005909302909101805483526001810154938301939093526002830154908201526003820154606082015260049091015460ff1615156080820152905092915050565b610d0c610ead565b6001600160a01b038116610d545760405162461bcd60e51b815260206004820152600f60248201526e496e76616c6964206164647265737360881b604482015260640161038e565b600480546001600160a01b038381166001600160a01b031983168117909355604080519190921680825260208201939093527f611f57b6ac3f6c0c57f787b9d2cfd17f1bdd71c6352d80d928fef718f47593d5910160405180910390a15050565b610dbd610ead565b6001600160a01b038116610de657604051631e4fbdf760e01b81525f600482015260240161038e565b6105c381610f2b565b6003546040516370a0823160e01b81523060048201525f916001600160a01b0316906370a0823190602401610748565b600260015403610e4257604051633ee5aeb560e01b815260040160405180910390fd5b6002600155565b6040516001600160a01b03838116602483015260448201839052610ea891859182169063a9059cbb906064015b604051602081830303815290604052915060e01b6020820180516001600160e01b03838183161783525050505061101a565b505050565b5f546001600160a01b031633146105d65760405163118cdaa760e01b815233600482015260240161038e565b610ee1611086565b6002805460ff191690557f5db9ee0a495bf2e6ff9c91a7834c1ba4fdd244a5e8aa4e537bd38aeae4b073aa335b6040516001600160a01b03909116815260200160405180910390a1565b5f80546001600160a01b038381166001600160a01b0319831681178455604051919092169283917f8be0079c531659141344cd1fd0a4f28419497f9722a3daafe3b4186f6b6457e09190a35050565b610f82610fb7565b6002805460ff191660011790557f62e78cea01bee320cd4e420270b5ea74000d11b0c9f74754ebdbfc544b05a258610f0e3390565b60025460ff16156105d65760405163d93c066560e01b815260040160405180910390fd5b6040516001600160a01b0384811660248301528381166044830152606482018390526110149186918216906323b872dd90608401610e76565b50505050565b5f5f60205f8451602086015f885af180611039576040513d5f823e3d81fd5b50505f513d9150811561105057806001141561105d565b6001600160a01b0384163b155b1561101457604051635274afe760e01b81526001600160a01b038516600482015260240161038e565b60025460ff166105d657604051638dfc202b60e01b815260040160405180910390fd5b80356001600160a01b03811681146110bf575f5ffd5b919050565b5f602082840312156110d4575f5ffd5b6110dd826110a9565b9392505050565b5f602082840312156110f4575f5ffd5b5035919050565b5f5f6040838503121561110c575f5ffd5b611115836110a9565b946020939093013593505050565b634e487b7160e01b5f52603260045260245ffd5b805180151581146110bf575f5ffd5b5f5f5f5f5f60a0868803121561115a575f5ffd5b85516020870151909550935061117260408701611137565b925061118060608701611137565b60809690960151949793965091949392915050565b634e487b7160e01b5f52601160045260245ffd5b8181038181111561070057610700611195565b5f602082840312156111cc575f5ffd5b5051919050565b808201808211156107005761070061119556fea264697066735822122031e0992232875e7f6aea1feeec6936a506ff9e6d979362ea6d237a95e8bf2a1664736f6c634300081c0033",
  "linkReferences": {},
  "deployedLinkReferences": {},
  "immutableReferences": {},
  "inputSourceName": "project/contracts/StakingContract.sol",
  "buildInfoId": "solc-0_8_28-8d193d3571a2069316b0e3f61760700389717c58"
}