{
  "_format": "hh-sol-artifact-1",
  "contractName": "DeciCourt",
  "sourceName": "contracts/DeciCourt.sol",
  "abi": [
    {
      "inputs": [
        {
          "internalType": "address",
          "name": "_tokenAddress",
          "type": "address"
        },
        {
          "internalType": "uint256",
          "name": "_filingFee",
          "type": "uint256"
        },
        {
          "internalType": "uint256",
          "name": "_jurorStake",
          "type": "uint256"
        },
        {
          "internalType": "uint256",
          "name": "_jurySize",
          "type": "uint256"
        },
        {
          "internalType": "uint256",
          "name": "_commitDuration",
          "type": "uint256"
        },
        {
          "internalType": "uint256",
          "name": "_revealDuration",
          "type": "uint256"
        },
        {
          "internalType": "uint256",
          "name": "_penaltyRate",
          "type": "uint256"
        },
        {
          "internalType": "uint256",
          "name": "_appealDepositMultiplier",
          "type": "uint256"
        },
        {
          "internalType": "uint256",
          "name": "_appealDuration",
          "type": "uint256"
        },
        {
          "internalType": "uint256",
          "name": "_appealJurySize",
          "type": "uint256"
        }
      ],
      "stateMutability": "nonpayable",
      "type": "constructor"
    },
    {
      "inputs": [],
      "name": "ReentrancyGuardReentrantCall",
      "type": "error"
    },
    {
      "anonymous": false,
      "inputs": [
        {
          "indexed": true,
          "internalType": "uint256",
          "name": "caseId",
          "type": "uint256"
        },
        {
          "indexed": true,
          "internalType": "address",
          "name": "appellant",
          "type": "address"
        },
        {
          "indexed": false,
          "internalType": "uint256",
          "name": "appealDeposit",
          "type": "uint256"
        }
      ],
      "name": "AppealInitiated",
      "type": "event"
    },
    {
      "anonymous": false,
      "inputs": [
        {
          "indexed": true,
          "internalType": "uint256",
          "name": "caseId",
          "type": "uint256"
        },
        {
          "indexed": false,
          "internalType": "address",
          "name": "winner",
          "type": "address"
        },
        {
          "indexed": false,
          "internalType": "bool",
          "name": "appealSuccessful",
          "type": "bool"
        }
      ],
      "name": "AppealResolved",
      "type": "event"
    },
    {
      "anonymous": false,
      "inputs": [
        {
          "indexed": true,
          "internalType": "uint256",
          "name": "caseId",
          "type": "uint256"
        },
        {
          "indexed": true,
          "internalType": "address",
          "name": "plaintiff",
          "type": "address"
        },
        {
          "indexed": true,
          "internalType": "address",
          "name": "defendant",
          "type": "address"
        },
        {
          "indexed": false,
          "internalType": "uint256",
          "name": "filingFee",
          "type": "uint256"
        }
      ],
      "name": "CaseCreated",
      "type": "event"
    },
    {
      "anonymous": false,
      "inputs": [
        {
          "indexed": true,
          "internalType": "uint256",
          "name": "caseId",
          "type": "uint256"
        },
        {
          "indexed": false,
          "internalType": "address",
          "name": "winner",
          "type": "address"
        },
        {
          "indexed": false,
          "internalType": "uint256",
          "name": "plaintiffReward",
          "type": "uint256"
        },
        {
          "indexed": false,
          "internalType": "uint256",
          "name": "defendantReward",
          "type": "uint256"
        },
        {
          "indexed": false,
          "internalType": "uint256",
          "name": "totalJurorReward",
          "type": "uint256"
        }
      ],
      "name": "CaseResolved",
      "type": "event"
    },
    {
      "anonymous": false,
      "inputs": [
        {
          "indexed": true,
          "internalType": "address",
          "name": "juror",
          "type": "address"
        },
        {
          "indexed": false,
          "internalType": "uint256",
          "name": "penaltyAmount",
          "type": "uint256"
        },
        {
          "indexed": false,
          "internalType": "uint256",
          "name": "penaltyRate",
          "type": "uint256"
        },
        {
          "indexed": false,
          "internalType": "string",
          "name": "reason",
          "type": "string"
        }
      ],
      "name": "JurorPenalized",
      "type": "event"
    },
    {
      "anonymous": false,
      "inputs": [
        {
          "indexed": true,
          "internalType": "address",
          "name": "juror",
          "type": "address"
        },
        {
          "indexed": false,
          "internalType": "uint256",
          "name": "stakeAmount",
          "type": "uint256"
        }
      ],
      "name": "JurorRegistered",
      "type": "event"
    },
    {
      "anonymous": false,
      "inputs": [
        {
          "indexed": true,
          "internalType": "address",
          "name": "juror",
          "type": "address"
        },
        {
          "indexed": false,
          "internalType": "uint256",
          "name": "newReputation",
          "type": "uint256"
        },
        {
          "indexed": false,
          "internalType": "uint256",
          "name": "correctVotes",
          "type": "uint256"
        },
        {
          "indexed": false,
          "internalType": "uint256",
          "name": "totalVotes",
          "type": "uint256"
        }
      ],
      "name": "JurorReputationUpdated",
      "type": "event"
    },
    {
      "anonymous": false,
      "inputs": [
        {
          "indexed": true,
          "internalType": "address",
          "name": "juror",
          "type": "address"
        }
      ],
      "name": "JurorUnregistered",
      "type": "event"
    },
    {
      "anonymous": false,
      "inputs": [
        {
          "indexed": true,
          "internalType": "uint256",
          "name": "caseId",
          "type": "uint256"
        },
        {
          "indexed": true,
          "internalType": "address",
          "name": "juror",
          "type": "address"
        }
      ],
      "name": "VoteCommitted",
      "type": "event"
    },
    {
      "anonymous": false,
      "inputs": [
        {
          "indexed": true,
          "internalType": "uint256",
          "name": "caseId",
          "type": "uint256"
        },
        {
          "indexed": true,
          "internalType": "address",
          "name": "juror",
          "type": "address"
        },
        {
          "indexed": false,
          "internalType": "enum DeciCourt.VoteOption",
          "name": "vote",
          "type": "uint8"
        }
      ],
      "name": "VoteRevealed",
      "type": "event"
    },
    {
      "inputs": [
        {
          "internalType": "uint256",
          "name": "_caseId",
          "type": "uint256"
        }
      ],
      "name": "appeal",
      "outputs": [],
      "stateMutability": "nonpayable",
      "type": "function"
    },
    {
      "inputs": [],
      "name": "appealDepositMultiplier",
      "outputs": [
        {
          "internalType": "uint256",
          "name": "",
          "type": "uint256"
        }
      ],
      "stateMutability": "view",
      "type": "function"
    },
    {
      "inputs": [],
      "name": "appealDuration",
      "outputs": [
        {
          "internalType": "uint256",
          "name": "",
          "type": "uint256"
        }
      ],
      "stateMutability": "view",
      "type": "function"
    },
    {
      "inputs": [],
      "name": "appealJurySize",
      "outputs": [
        {
          "internalType": "uint256",
          "name": "",
          "type": "uint256"
        }
      ],
      "stateMutability": "view",
      "type": "function"
    },
    {
      "inputs": [
        {
          "internalType": "uint256",
          "name": "",
          "type": "uint256"
        }
      ],
      "name": "cases",
      "outputs": [
        {
          "internalType": "uint256",
          "name": "id",
          "type": "uint256"
        },
        {
          "internalType": "address",
          "name": "plaintiff",
          "type": "address"
        },
        {
          "internalType": "address",
          "name": "defendant",
          "type": "address"
        },
        {
          "internalType": "string",
          "name": "evidenceCID",
          "type": "string"
        },
        {
          "internalType": "enum DeciCourt.CaseStatus",
          "name": "status",
          "type": "uint8"
        },
        {
          "internalType": "uint256",
          "name": "filingFee",
          "type": "uint256"
        },
        {
          "internalType": "uint256",
          "name": "plaintiffVoteCount",
          "type": "uint256"
        },
        {
          "internalType": "uint256",
          "name": "defendantVoteCount",
          "type": "uint256"
        },
        {
          "internalType": "uint256",
          "name": "creationTime",
          "type": "uint256"
        },
        {
          "internalType": "uint256",
          "name": "commitDeadline",
          "type": "uint256"
        },
        {
          "internalType": "uint256",
          "name": "revealDeadline",
          "type": "uint256"
        },
        {
          "internalType": "address",
          "name": "winner",
          "type": "address"
        },
        {
          "internalType": "address",
          "name": "appellant",
          "type": "address"
        },
        {
          "internalType": "uint256",
          "name": "appealDeposit",
          "type": "uint256"
        },
        {
          "internalType": "uint256",
          "name": "appealDeadline",
          "type": "uint256"
        },
        {
          "internalType": "bool",
          "name": "isAppealed",
          "type": "bool"
        },
        {
          "internalType": "uint256",
          "name": "appealJurySize",
          "type": "uint256"
        }
      ],
      "stateMutability": "view",
      "type": "function"
    },
    {
      "inputs": [],
      "name": "commitDuration",
      "outputs": [
        {
          "internalType": "uint256",
          "name": "",
          "type": "uint256"
        }
      ],
      "stateMutability": "view",
      "type": "function"
    },
    {
      "inputs": [
        {
          "internalType": "uint256",
          "name": "_caseId",
          "type": "uint256"
        },
        {
          "internalType": "bytes32",
          "name": "_voteHash",
          "type": "bytes32"
        }
      ],
      "name": "commitVote",
      "outputs": [],
      "stateMutability": "nonpayable",
      "type": "function"
    },
    {
      "inputs": [
        {
          "internalType": "address",
          "name": "_defendant",
          "type": "address"
        },
        {
          "internalType": "string",
          "name": "_evidenceCID",
          "type": "string"
        }
      ],
      "name": "createCase",
      "outputs": [],
      "stateMutability": "nonpayable",
      "type": "function"
    },
    {
      "inputs": [
        {
          "internalType": "uint256",
          "name": "_caseId",
          "type": "uint256"
        }
      ],
      "name": "executeVerdict",
      "outputs": [],
      "stateMutability": "nonpayable",
      "type": "function"
    },
    {
      "inputs": [],
      "name": "filingFeeAmount",
      "outputs": [
        {
          "internalType": "uint256",
          "name": "",
          "type": "uint256"
        }
      ],
      "stateMutability": "view",
      "type": "function"
    },
    {
      "inputs": [
        {
          "internalType": "uint256",
          "name": "_caseId",
          "type": "uint256"
        }
      ],
      "name": "getCaseDetails",
      "outputs": [
        {
          "internalType": "uint256",
          "name": "id",
          "type": "uint256"
        },
        {
          "internalType": "address",
          "name": "plaintiff",
          "type": "address"
        },
        {
          "internalType": "address",
          "name": "defendant",
          "type": "address"
        },
        {
          "internalType": "string",
          "name": "evidenceCID",
          "type": "string"
        },
        {
          "internalType": "enum DeciCourt.CaseStatus",
          "name": "status",
          "type": "uint8"
        },
        {
          "internalType": "uint256",
          "name": "filingFee",
          "type": "uint256"
        },
        {
          "internalType": "uint256",
          "name": "plaintiffVoteCount",
          "type": "uint256"
        },
        {
          "internalType": "uint256",
          "name": "defendantVoteCount",
          "type": "uint256"
        },
        {
          "internalType": "uint256",
          "name": "creationTime",
          "type": "uint256"
        },
        {
          "internalType": "uint256",
          "name": "commitDeadline",
          "type": "uint256"
        },
        {
          "internalType": "uint256",
          "name": "revealDeadline",
          "type": "uint256"
        },
        {
          "internalType": "address",
          "name": "winner",
          "type": "address"
        }
      ],
      "stateMutability": "view",
      "type": "function"
    },
    {
      "inputs": [
        {
          "internalType": "uint256",
          "name": "_caseId",
          "type": "uint256"
        }
      ],
      "name": "getCaseJurors",
      "outputs": [
        {
          "internalType": "address[]",
          "name": "",
          "type": "address[]"
        }
      ],
      "stateMutability": "view",
      "type": "function"
    },
    {
      "inputs": [
        {
          "internalType": "address",
          "name": "_juror",
          "type": "address"
        }
      ],
      "name": "getJurorReputation",
      "outputs": [
        {
          "internalType": "uint256",
          "name": "correctVotes",
          "type": "uint256"
        },
        {
          "internalType": "uint256",
          "name": "totalVotes",
          "type": "uint256"
        },
        {
          "internalType": "uint256",
          "name": "reputationScore",
          "type": "uint256"
        },
        {
          "internalType": "uint256",
          "name": "consecutiveWrong",
          "type": "uint256"
        },
        {
          "internalType": "uint256",
          "name": "accuracyRate",
          "type": "uint256"
        }
      ],
      "stateMutability": "view",
      "type": "function"
    },
    {
      "inputs": [],
      "name": "jurorPenaltyRate",
      "outputs": [
        {
          "internalType": "uint256",
          "name": "",
          "type": "uint256"
        }
      ],
      "stateMutability": "view",
      "type": "function"
    },
    {
      "inputs": [
        {
          "internalType": "uint256",
          "name": "",
          "type": "uint256"
        }
      ],
      "name": "jurorPool",
      "outputs": [
        {
          "internalType": "address",
          "name": "",
          "type": "address"
        }
      ],
      "stateMutability": "view",
      "type": "function"
    },
    {
      "inputs": [],
      "name": "jurorStakeAmount",
      "outputs": [
        {
          "internalType": "uint256",
          "name": "",
          "type": "uint256"
        }
      ],
      "stateMutability": "view",
      "type": "function"
    },
    {
      "inputs": [
        {
          "internalType": "address",
          "name": "",
          "type": "address"
        }
      ],
      "name": "jurorsInfo",
      "outputs": [
        {
          "internalType": "bool",
          "name": "isRegistered",
          "type": "bool"
        },
        {
          "internalType": "uint256",
          "name": "stakedAmount",
          "type": "uint256"
        },
        {
          "internalType": "bool",
          "name": "isServing",
          "type": "bool"
        },
        {
          "internalType": "uint256",
          "name": "correctVotes",
          "type": "uint256"
        },
        {
          "internalType": "uint256",
          "name": "totalVotes",
          "type": "uint256"
        },
        {
          "internalType": "uint256",
          "name": "reputationScore",
          "type": "uint256"
        },
        {
          "internalType": "uint256",
          "name": "consecutiveWrong",
          "type": "uint256"
        }
      ],
      "stateMutability": "view",
      "type": "function"
    },
    {
      "inputs": [],
      "name": "jurySize",
      "outputs": [
        {
          "internalType": "uint256",
          "name": "",
          "type": "uint256"
        }
      ],
      "stateMutability": "view",
      "type": "function"
    },
    {
      "inputs": [],
      "name": "juryToken",
      "outputs": [
        {
          "internalType": "contract IERC20",
          "name": "",
          "type": "address"
        }
      ],
      "stateMutability": "view",
      "type": "function"
    },
    {
      "inputs": [],
      "name": "nextCaseId",
      "outputs": [
        {
          "internalType": "uint256",
          "name": "",
          "type": "uint256"
        }
      ],
      "stateMutability": "view",
      "type": "function"
    },
    {
      "inputs": [],
      "name": "registerAsJuror",
      "outputs": [],
      "stateMutability": "nonpayable",
      "type": "function"
    },
    {
      "inputs": [],
      "name": "revealDuration",
      "outputs": [
        {
          "internalType": "uint256",
          "name": "",
          "type": "uint256"
        }
      ],
      "stateMutability": "view",
      "type": "function"
    },
    {
      "inputs": [
        {
          "internalType": "uint256",
          "name": "_caseId",
          "type": "uint256"
        },
        {
          "internalType": "enum DeciCourt.VoteOption",
          "name": "_vote",
          "type": "uint8"
        },
        {
          "internalType": "bytes32",
          "name": "_salt",
          "type": "bytes32"
        }
      ],
      "name": "revealVote",
      "outputs": [],
      "stateMutability": "nonpayable",
      "type": "function"
    },
    {
      "inputs": [],
      "name": "unregisterAsJuror",
      "outputs": [],
      "stateMutability": "nonpayable",
      "type": "function"
    }
  ],
  "bytecode": "0x60a03461042457601f61303738819003918201601f19168301916001600160401b0383118484101761042957808492610140946040528339810103126104245780516001600160a01b038116919082900361042457602081015160408201516060830151608084015160a08501519160c08601519360e08701519561012061010089015198015198600160005580156103df57811561039a578215610355578315158061034a575b156103115784156102cd57851561028957606487116102445787156101ec5788156101a857838a1061014d576080526001556002556003556004556005556006556007556008556009556001600a55604051612bf79081610440823960805181818161050c0152818161084d01528181610ad201528181610e14015281816113bf01528181611b6b01528181611cd601528181611d9f01528181611ea80152611f430152f35b60405162461bcd60e51b815260206004820152602d60248201527f41707065616c206a7572792073697a65206d757374206265203e3d207265677560448201526c6c6172206a7572792073697a6560981b6064820152608490fd5b606460405162461bcd60e51b815260206004820152602060248201527f41707065616c206475726174696f6e206d75737420626520706f7369746976656044820152fd5b60405162461bcd60e51b815260206004820152602a60248201527f41707065616c206465706f736974206d756c7469706c696572206d75737420626044820152696520706f73697469766560b01b6064820152608490fd5b60405162461bcd60e51b815260206004820152601f60248201527f50656e616c747920726174652063616e6e6f74206578636565642031303025006044820152606490fd5b606460405162461bcd60e51b815260206004820152602060248201527f52657665616c206475726174696f6e206d75737420626520706f7369746976656044820152fd5b606460405162461bcd60e51b815260206004820152602060248201527f436f6d6d6974206475726174696f6e206d75737420626520706f7369746976656044820152fd5b60405162461bcd60e51b8152602060048201526011602482015270496e76616c6964206a7572792073697a6560781b6044820152606490fd5b5060648411156100a7565b60405162461bcd60e51b815260206004820152601c60248201527f4a75726f72207374616b65206d75737420626520706f736974697665000000006044820152606490fd5b60405162461bcd60e51b815260206004820152601b60248201527f46696c696e6720666565206d75737420626520706f73697469766500000000006044820152606490fd5b60405162461bcd60e51b815260206004820152601560248201527f496e76616c696420746f6b656e206164647265737300000000000000000000006044820152606490fd5b600080fd5b634e487b7160e01b600052604160045260246000fdfe61010080604052600436101561001457600080fd5b60003560e01c90816304495c991461232057508063059a184c146123025780630b05b14f1461205a5780631c204d0e14611569578063232e0c871461154b578063317e48b61461152d57806343bbdd3f146112635780634c4b848c1461118a578063536c8c151461116c5780636350eae81461114e5780636f833811146111305780637035aba21461106f57806371929ad514610db75780637e69b7b0146109f4578063867bc61b146109d6578063886a6de1146109b85780639da691801461087c5780639eacb5b914610837578063a2febe291461045b578063b55796f3146103d6578063c3a90635146102ef578063d496c455146102d1578063f09790dd1461016f5763f643d3d71461012857600080fd5b3461016a57602036600319011261016a57600435600c5481101561016a5761015160209161249f565b905460405160039290921b1c6001600160a01b03168152f35b600080fd5b3461016a57602036600319011261016a576004356000908152600b60205260409020805460018201546001600160a01b0390811660a05260028301541660e0526101bb600383016123fb565b9160ff6004820154166080528080806005810154956009820154600a830154600b840154600c85015491600d8601549361025760018060a01b03600e8901541696601360ff6012601160108d600f60018060a01b03910154169d01549d01549d0154169c01549c60405160c05260c0515260a051602060c051015260e051604060c0510152610220606060c051015261022060c0510190612351565b9b610269608060c05101608051612392565b60a060c051015260c08051015260e060c051015261010060c051015261012060c051015261014060c051015261016060c051015261018060c05101526101a060c05101526101c060c051015215156101e060c051015261020060c051015260c051900360c051f35b3461016a57600036600319011261016a576020600254604051908152f35b3461016a57602036600319011261016a57600435600052600b6020526020604060002080549060018060a01b036001820154169060018060a01b0360028201541660ff6004830154169260058301546009840154600a85015490600b860154926103ab6103a0600c89015496600d8a01549861037b60038c600e60018060a01b03910154169c016123fb565b916040519e8f9e8f908152015260408d015261018060608d01526101808c0190612351565b9860808b0190612392565b60a089015260c088015260e08701526101008601526101208501526101408401526101608301520390f35b3461016a57602036600319011261016a576001600160a01b036103f761233b565b16600052600e60205260e0604060002060ff8154169060018101549060ff6002820154166003820154600483015491600660058501549401549460405196151587526020870152151560408601526060850152608084015260a083015260c0820152f35b3461016a57604036600319011261016a5761047461233b565b6024359067ffffffffffffffff821161016a573660238301121561016a5781600401359067ffffffffffffffff821161016a57366024838501011161016a576001600160a01b0316908115158061082d575b156107f457600c54600354116107af576001546040516323b872dd60e01b8152336004820152306024820152604481019190915260208160648160006001600160a01b037f0000000000000000000000000000000000000000000000000000000000000000165af19081156107a357600091610774575b501561071a57600a549061055082612576565b600a5581600052600b6020526040600020908282556001820160018060a01b0333166bffffffffffffffffffffffff60a01b82541617905560028201846bffffffffffffffffffffffff60a01b8254161790556003820190806000966105b6845461239f565b601f81116106df575b508790601f8311600114610673578892610665575b50508160011b916000199060031b1c19161790555b60048101600160ff19825416179055600154600582015542600b820155600d610626610617600454426125c5565b80600c850155600554906125c5565b910155610632816129ad565b600154906040519182527f5c5f5f5c62d8082bc010726f98db2630d9da2b426a6717bd67bfbd9e8e17963860203393a480f35b6024925001013587806105d4565b84895260208920925090601f198416895b8181106106c457509084600195949392106106a7575b505050811b0190556105e9565b0160240135600019600384901b60f8161c1916905587808061069a565b91936020600181926024888801013581550195019201610684565b61070a90858a5260208a20601f850160051c81019160208610610710575b601f0160051c019061260d565b886105bf565b90915081906106fd565b60405162461bcd60e51b815260206004820152602c60248201527f46696c696e6720666565207472616e73666572206661696c65642e204469642060448201526b796f7520617070726f76653f60a01b6064820152608490fd5b610796915060203d60201161079c575b61078e81836123d9565b8101906125d2565b8461053d565b503d610784565b6040513d6000823e3d90fd5b60405162461bcd60e51b815260206004820152601b60248201527f4e6f7420656e6f75676820617661696c61626c65206a75726f727300000000006044820152606490fd5b60405162461bcd60e51b8152602060048201526011602482015270125b9d985b1a5908191959995b99185b9d607a1b6044820152606490fd5b50338214156104c6565b3461016a57600036600319011261016a576040517f00000000000000000000000000000000000000000000000000000000000000006001600160a01b03168152602090f35b3461016a57604036600319011261016a5760043580600052600b602052604060002060ff60048201541660068110156109a25760016108bb91146124e8565b600c8101544211610968576007906108db6108d63383612624565b61252a565b3360009081529101602081905260409091205461092f5733600081815260209290925260408220602435905591907f3834a2c8ea101e1468b529270d35fbff0a12de32a5a7e5729b8b4dad6fb32c019080a3005b60405162461bcd60e51b8152602060048201526011602482015270105b1c9958591e4818dbdb5b5a5d1d1959607a1b6044820152606490fd5b60405162461bcd60e51b815260206004820152601260248201527110dbdb5b5a5d081c1a185cd948195b99195960721b6044820152606490fd5b634e487b7160e01b600052602160045260246000fd5b3461016a57600036600319011261016a576020600554604051908152f35b3461016a57600036600319011261016a576020600854604051908152f35b3461016a57602036600319011261016a57600435610a10612674565b80600052600b60205260406000206004810160ff81541660068110156109a257600303610d7a5760118201544211610d3c57601282019160ff835416610cff57600e81015460018201546001600160a01b0390811691168103610cfa575060028101546001600160a01b03165b6001600160a01b03163303610cb557610a9d6005820154600754906125b2565b6040516323b872dd60e01b81523360048201523060248201526044810182905290939060208160648160006001600160a01b037f0000000000000000000000000000000000000000000000000000000000000000165af19081156107a357600091610c96575b5015610c5157600f820180546001600160a01b0319163317905560108201849055805460ff1990811660011790915582541660041782556009805460138301556000908201819055600a8201819055600682019491936007850193600886019391925b8754811015610bc95780610b7c6001928a6124d0565b905460039190911b1c60a083901b83900316600090815260208881526040808320839055888252808320805460ff19908116909155600e9092529091206002018054909116905501610b66565b50858780546000825580610c35575b5050610be3836126fe565b600d610bf4610617600454426125c5565b910155600160ff198254161790556040519182527f7055524dc69306fe397256b9b4ef9fe5a3b01235fdb799638b61e323b9e2c3bc60203393a36001600055005b610c4a9160005260206000209081019061260d565b8480610bd8565b60405162461bcd60e51b815260206004820152601e60248201527f41707065616c206465706f736974207472616e73666572206661696c656400006044820152606490fd5b610caf915060203d60201161079c5761078e81836123d9565b86610b03565b60405162461bcd60e51b815260206004820152601c60248201527f4f6e6c79206c6f73696e672070617274792063616e2061707065616c000000006044820152606490fd5b610a7d565b60405162461bcd60e51b815260206004820152601560248201527410d85cd948185b1c9958591e48185c1c19585b1959605a1b6044820152606490fd5b60405162461bcd60e51b8152602060048201526016602482015275105c1c19585b08191958591b1a5b99481c185cdcd95960521b6044820152606490fd5b60405162461bcd60e51b815260206004820152601560248201527410d85cd9481b9bdd081c995cdbdb1d9959081e595d605a1b6044820152606490fd5b3461016a57600036600319011261016a5733600052600e60205260ff60406000205416611035576002546040516323b872dd60e01b8152336004820152306024820152604481019190915260208160648160006001600160a01b037f0000000000000000000000000000000000000000000000000000000000000000165af19081156107a357600091611016575b5015610fc1576002546040519060e082019082821067ffffffffffffffff831117610fab57600691604052600183526020830190815260408301600081526060840160008152608085019060008252610eee60a08701936032855260c08801956000875233600052600e602052610ed06040600020995115158a9060ff801983541691151516179055565b516001890155511515600288019060ff801983541691151516179055565b51600386015551600485015551600584015551910155600c54600160401b811015610fab57610f28816001610f469301600c55600c6124d0565b81546001600160a01b0360039290921b91821b19163390911b179055565b600c546000198101908111610f955733600052600d6020526040600020556002546040519081527f302e82b0b7908cfac0232eeb6a83332cbf587d0cb58eaa7ba72f884c149910fa60203392a2005b634e487b7160e01b600052601160045260246000fd5b634e487b7160e01b600052604160045260246000fd5b60405162461bcd60e51b815260206004820152602760248201527f546f6b656e207472616e73666572206661696c65642e2044696420796f7520616044820152667070726f76653f60c81b6064820152608490fd5b61102f915060203d60201161079c5761078e81836123d9565b81610e45565b60405162461bcd60e51b8152602060048201526012602482015271105b1c9958591e481c9959da5cdd195c995960721b6044820152606490fd5b3461016a57602036600319011261016a57600435600052600b60205260066040600020016040518060208354918281520190819360005260206000209060005b81811061111157505050816110c59103826123d9565b6040519182916020830190602084525180915260408301919060005b8181106110ef575050500390f35b82516001600160a01b03168452859450602093840193909201916001016110e1565b82546001600160a01b03168452602090930192600192830192016110af565b3461016a57600036600319011261016a576020600454604051908152f35b3461016a57600036600319011261016a576020600a54604051908152f35b3461016a57600036600319011261016a576020600354604051908152f35b3461016a57602036600319011261016a576111a361233b565b6001600160a01b03166000908152600e60205260409020805460ff161561122757600381015460048201546005830154600690930154811561121c57606483029383850460641484151715610f95576111fe8360a096612585565b925b6040519485526020850152604084015260608301526080820152f35b60a093600092611200565b60405162461bcd60e51b8152602060048201526014602482015273129d5c9bdc881b9bdd081c9959da5cdd195c995960621b6044820152606490fd5b3461016a57600036600319011261016a5733600052600e602052604060002060ff815416156114ef5760ff600282015416611498576001015433600052600d602052604060002054600c546000198101908111610f95576112c39061249f565b905460039190911b1c6001600160a01b0316611306816112e28461249f565b81546001600160a01b0393841660039290921b91821b9390911b1916919091179055565b600052600d602052604060002055600c548015611482576113b991602091600019016113318161249f565b81549060018060a01b039060031b1b19169055600c5533600052600e82526000600660408220828155826001820155826002820155826003820155826004820155826005820155015533600052600d8252600060408120556040518093819263a9059cbb60e01b8352336004840160209093929193604081019460018060a01b031681520152565b038160007f00000000000000000000000000000000000000000000000000000000000000006001600160a01b03165af19081156107a357600091611463575b501561142657337ff67e7162188cb7e3f756d0f6d7c86d1b7cc88b891ae19dd58118705a7859034b600080a2005b60405162461bcd60e51b8152602060048201526015602482015274151bdad95b881d1c985b9cd9995c8819985a5b1959605a1b6044820152606490fd5b61147c915060203d60201161079c5761078e81836123d9565b816113f8565b634e487b7160e01b600052603160045260246000fd5b60405162461bcd60e51b815260206004820152602960248201527f43616e6e6f7420756e7265676973746572207768696c652073657276696e67206044820152686f6e2061206361736560b81b6064820152608490fd5b60405162461bcd60e51b81526020600482015260166024820152752737ba1030903932b3b4b9ba32b932b210353ab937b960511b6044820152606490fd5b3461016a57600036600319011261016a576020600754604051908152f35b3461016a57600036600319011261016a576020600154604051908152f35b3461016a57602036600319011261016a57611582612674565b600435600052600b602052604060002060ff60048201541660068110156109a25760010361201557600d810154421115611fd05760048101805460ff191660021790556009810154600a8201541015611fbd5760018101546001600160a01b03165b600e820180546001600160a01b0319166001600160a01b03838116918217909255600184015490911603611fb5576001915b6000928390815b60068401548310156119d05761163683600686016124d0565b60018060a01b0391549060031b1c169260ff6040600060018060a01b0387168152600888016020522054169184600052600e60205260406000209261167e6004850154612576565b9081600486015560038610156109a257600381101591826109a257868214806119c3575b15611784575050506116b390612576565b93600383016116c28154612576565b80915560006006850155600584019384546064811061172e575b509354600490940154604080519586526020860192909252908401526001927ff258ac71ca04f4b808e0c4f36355a6bbcd15af6c6cf087ba2655d6b05c81d2d99080606081015b0390a25b019161161d565b919060028301809311610f95576117236004876064867ff258ac71ca04f4b808e0c4f36355a6bbcd15af6c6cf087ba2655d6b05c81d2d99760019b551161177b575b9750505090916116dc565b60648155611770565b91996006869296989498016117998154612576565b80915560036006549411156119b9575b60018111611975575b5060058201549a60468c11611957575b600183019182549260646117d687866125b2565b0493600a60025404806117e987846125a5565b10611937575b50600592611809926118028780946125a5565b90556125c5565b9c111561192b5760058301546004198101908111610f955760058401555b6109a2577f43b8287040b746addd91738208fe6a278fd8dc7325e4979c30bf3c8d0409d7177ff258ac71ca04f4b808e0c4f36355a6bbcd15af6c6cf087ba2655d6b05c81d2d9938592600198600090156000146118fd57506118c36040516118906040826123d9565b60078152664e6f20766f746560c81b60208201525b60405193849384526020840152606060408401526060830190612351565b0390a260058101546118f560046003840154930154604051938493846040919493926060820195825260208201520152565b0390a2611727565b506118c360405161190f6040826123d9565b600a81526957726f6e6720766f746560b01b60208201526118a5565b60006005840155611827565b6118029550926118099261194d600595846125a5565b96509250926117ef565b92605081029080820460501490151715610f955760649004926117c2565b9092906000198101908111610f9557600a810290808204600a1490151715610f95576119a0916125c5565b91605083116119b0575b8b6117b2565b605092506119aa565b9260011c926117a9565b50600092508115156116a2565b915093926000908182809460058701549781611fa2575b505060018601546001600160a01b03848116911603611efc57508580611e70575b505b60005b6006860154811015611acb57611a2681600688016124d0565b9054600391821b1c6001600160a01b03166000818152600889016020526040902054909160ff91909116908a10156109a25760038110156109a2578914611a89575b6000908152600e60205260409020600201805460ff19169055600101611a0d565b9490611ac28560019388600052600e602052611aac8286604060002001546125c5565b89600052600e60205285604060002001556125c5565b95909150611a68565b5085848660ff601282015416600014611e0257506004356000908152600b60205260409020600f81018054929493929091906001600160a01b038781169116148385878315611c7157505050601082018054600381029080820460031490151715610f9557935460405163a9059cbb60e01b81526001600160a01b03909116600482015260029490941c60248501819052936020818060448101038160007f00000000000000000000000000000000000000000000000000000000000000006001600160a01b03165af19788156107a357611bc6611c4996600494611bcc94600080516020612ba28339815191529c611c54575b50546125a5565b906125c5565b925b01805460ff19166005179055604080516001600160a01b03891681526020810192909252600435917fd4406e003c73582310b2b897fd7cacd5866ecaed769ac129eb0b1dcbb09011169190a2604051938493600435978590949392606092608083019660018060a01b03168352602083015260408201520152565b0390a25b6001600055005b611c6c9060203d60201161079c5761078e81836123d9565b611bbf565b60108501805460018088018054969c50929991901c97509193909291906001600160a01b038c8116911603611d5f5750505460405163a9059cbb60e01b81526001600160a01b03909116600482015260248101859052906020828060448101038160007f00000000000000000000000000000000000000000000000000000000000000006001600160a01b03165af19081156107a357611bc686611d34611c4998600080516020612ba28339815191529c600497611d3c97611d42575b506125c5565b985b546125a5565b92611bce565b611d5a9060203d60201161079c5761078e81836123d9565b611d2e565b600286015460405163a9059cbb60e01b81526001600160a01b039091166004820152602481018890529199509697509190506020828060448101038160007f00000000000000000000000000000000000000000000000000000000000000006001600160a01b03165af19081156107a357611bc686611dfc611c4998600080516020612ba28339815191529c600497611d3c97611d4257506125c5565b99611d36565b600080516020612ba2833981519152939291611e6891611e24600854426125c5565b60118201556004600360ff19828401541617910155604051938493600435978590949392606092608083019660018060a01b03168352602083015260408201520152565b0390a2611c4d565b600186015460405163a9059cbb60e01b81526001600160a01b03909116600482015260248101919091526020818060448101038160007f00000000000000000000000000000000000000000000000000000000000000006001600160a01b03165af180156107a35715611a0857611ef59060203d60201161079c5761078e81836123d9565b5087611a08565b9590508080611f0c575b50611a0a565b600286015460405163a9059cbb60e01b81526001600160a01b0390911660048201526024810191909152602081806044810103818a7f00000000000000000000000000000000000000000000000000000000000000006001600160a01b03165af18015611f975715611f0657611f909060203d60201161079c5761078e81836123d9565b5087611f06565b6040513d89823e3d90fd5b611fad929550612585565b9288806119e7565b600291611616565b60028101546001600160a01b03166115e4565b60405162461bcd60e51b815260206004820152601a60248201527f52657665616c207068617365206e6f7420656e646564207965740000000000006044820152606490fd5b60405162461bcd60e51b815260206004820152601a60248201527f43617365206e6f7420726561647920666f7220766572646963740000000000006044820152606490fd5b3461016a57606036600319011261016a57602435600435600382101561016a5780600052600b60205260406000209160ff60048401541660068110156109a25760016120a691146124e8565b600c8301544211156122bd57600d8301544211612283576120ca6108d63385612624565b3360009081526007840160208190526040909120541561224d5733600090815260088501602081905260409091205460ff1660038110156109a2576122155760405191602083016000938560f81b82526044356021820152602181526121316041826123d9565b5190203384526020919091526040832054036121d05733825260205260409020805460ff191660ff831617905560009260001982016121ac576009016121778154612576565b90555b604051926109a25782527ffb0a2a4b906424480a54d601db26ad920592115a97358d199495345723df34cb60203393a3005b600282146121bb575b5061217a565b600a016121c88154612576565b9055836121b5565b60405162461bcd60e51b815260206004820152601a60248201527f566f746520646f6573206e6f74206d6174636820636f6d6d69740000000000006044820152606490fd5b60405162461bcd60e51b815260206004820152601060248201526f105b1c9958591e481c995d99585b195960821b6044820152606490fd5b60405162461bcd60e51b815260206004820152600e60248201526d111a59081b9bdd0818dbdb5b5a5d60921b6044820152606490fd5b60405162461bcd60e51b815260206004820152601260248201527114995d99585b081c1a185cd948195b99195960721b6044820152606490fd5b60405162461bcd60e51b815260206004820152601a60248201527f436f6d6d6974207068617365206e6f7420656e646564207965740000000000006044820152606490fd5b3461016a57600036600319011261016a576020600654604051908152f35b3461016a57600036600319011261016a576020906009548152f35b600435906001600160a01b038216820361016a57565b919082519283825260005b84811061237d575050826000602080949584010152601f8019910116010190565b8060208092840101518282860101520161235c565b9060068210156109a25752565b90600182811c921680156123cf575b60208310146123b957565b634e487b7160e01b600052602260045260246000fd5b91607f16916123ae565b90601f8019910116810190811067ffffffffffffffff821117610fab57604052565b906040519182600082549261240f8461239f565b808452936001811690811561247d5750600114612436575b50612434925003836123d9565b565b90506000929192526020600020906000915b8183106124615750509060206124349282010138612427565b6020919350806001915483858901015201910190918492612448565b90506020925061243494915060ff191682840152151560051b82010138612427565b600c548110156124ba57600c60005260206000200190600090565b634e487b7160e01b600052603260045260246000fd5b80548210156124ba5760005260206000200190600090565b156124ef57565b60405162461bcd60e51b81526020600482015260136024820152724e6f7420696e20766f74696e6720706861736560681b6044820152606490fd5b1561253157565b60405162461bcd60e51b815260206004820152601960248201527f4e6f742061206a75726f7220666f7220746869732063617365000000000000006044820152606490fd5b6000198114610f955760010190565b811561258f570490565b634e487b7160e01b600052601260045260246000fd5b91908203918211610f9557565b81810292918115918404141715610f9557565b91908201809211610f9557565b9081602091031261016a5751801515810361016a5790565b90815491600160401b831015610fab57826112e2916001612434950181556124d0565b818110612618575050565b6000815560010161260d565b9060005b60068301805482101561266b578161263f916124d0565b905460039190911b1c6001600160a01b039081169083161461266357600101612628565b505050600190565b50505050600090565b600260005414612685576002600055565b633ee5aeb560e01b60005260046000fd5b67ffffffffffffffff8111610fab5760051b60200190565b906126b882612696565b6126c560405191826123d9565b82815280926126d6601f1991612696565b0190602036910137565b80518210156124ba5760209160051b010190565b811561258f570690565b9081600052600b6020526040600020600c5492601382015490818510612959578185146128fe576040516020810191428352446040830152606082015265185c1c19585b60d21b6080820152606681526127596086826123d9565b51902091612766856126ae565b6000906000935b808510806128f5575b1561288e576000968760015b156127df575b506000976127d96127d38b8a846127cb8c6127bd60405193849260208401968791606093918352602083015260408201520190565b03601f1981018352826123d9565b5190206126f4565b91612576565b98612782565b6127e981856126e0565b51151580612885575b612788579092975094909461280781896126e0565b5115612821575b5061281890612576565b9395909561276d565b612818919361283f82600161283961287e958d6126e0565b5261249f565b905460039190911b1c6001600160a01b031661285e81600689016125ea565b600052600e6020526002604060002001600160ff19825416179055612576565b929061280e565b508989106127f2565b95965050509050600691500154036128a257565b60405162461bcd60e51b815260206004820152602560248201527f4661696c656420746f2061737369676e20656e6f7567682061707065616c206a60448201526475726f727360d81b6064820152608490fd5b50878310612776565b509192915060060160005b82811061291557505050565b8061292160019261249f565b838060a01b0391549060031b1c1661293981856125ea565b600052600e60205260026040600020018260ff1982541617905501612909565b60405162461bcd60e51b815260206004820152602660248201527f4e6f7420656e6f75676820617661696c61626c65206a75726f727320666f7220604482015265185c1c19585b60d21b6064820152608490fd5b9081600052600b602052604060002090600c54926003548414612b48576040929192516129f4816127bd602082019444428791606093918352602083015260408201520190565b51902090612a01846126ae565b90600080925b600354841080612b3f575b15612ae4576000958660015b15612a5f575b50600096612a596127d38a89846127cb8b6127bd60405193849260208401968791606093918352602083015260408201520190565b97612a1e565b612a6981846126e0565b51151580612adb575b612a24579094919650612a8581886126e0565b5115612a9d575b50612a9690612576565b9294612a07565b612a969192612ab5826001612839612ad4958c6126e0565b905460039190911b1c6001600160a01b031661285e81600688016125ea565b9190612a8c565b50888810612a72565b50509150506006919250015460035403612afa57565b60405162461bcd60e51b815260206004820152601e60248201527f4661696c656420746f2061737369676e20656e6f756768206a75726f727300006044820152606490fd5b50868210612a12565b50919060060160005b828110612b5d57505050565b80612b6960019261249f565b838060a01b0391549060031b1c16612b8181856125ea565b600052600e60205260026040600020018260ff1982541617905501612b5156feb179b08881890bd8e13edde8255f745991199906456a378692ec11430a4560a9a2646970667358221220ecb989fcadbe961aaf747d5c8835d0bea1f22d094fb29d956f8a665189f95cd464736f6c634300081c0033",
  "linkReferences": {},
  "deployedLinkReferences": {}
}