{
  "_format": "hh-sol-artifact-1",
  "contractName": "JuryToken",
  "sourceName": "contracts/JuryToken.sol",
  "abi": [
    {
      "inputs": [],
      "stateMutability": "nonpayable",
      "type": "constructor"
    },
    {
      "inputs": [
        {
          "internalType": "address",
          "name": "spender",
          "type": "address"
        },
        {
          "internalType": "uint256",
          "name": "allowance",
          "type": "uint256"
        },
        {
          "internalType": "uint256",
          "name": "needed",
          "type": "uint256"
        }
      ],
      "name": "ERC20InsufficientAllowance",
      "type": "error"
    },
    {
      "inputs": [
        {
          "internalType": "address",
          "name": "sender",
          "type": "address"
        },
        {
          "internalType": "uint256",
          "name": "balance",
          "type": "uint256"
        },
        {
          "internalType": "uint256",
          "name": "needed",
          "type": "uint256"
        }
      ],
      "name": "ERC20InsufficientBalance",
      "type": "error"
    },
    {
      "inputs": [
        {
          "internalType": "address",
          "name": "approver",
          "type": "address"
        }
      ],
      "name": "ERC20InvalidApprover",
      "type": "error"
    },
    {
      "inputs": [
        {
          "internalType": "address",
          "name": "receiver",
          "type": "address"
        }
      ],
      "name": "ERC20InvalidReceiver",
      "type": "error"
    },
    {
      "inputs": [
        {
          "internalType": "address",
          "name": "sender",
          "type": "address"
        }
      ],
      "name": "ERC20InvalidSender",
      "type": "error"
    },
    {
      "inputs": [
        {
          "internalType": "address",
          "name": "spender",
          "type": "address"
        }
      ],
      "name": "ERC20InvalidSpender",
      "type": "error"
    },
    {
      "inputs": [],
      "name": "EnforcedPause",
      "type": "error"
    },
    {
      "inputs": [],
      "name": "ExpectedPause",
      "type": "error"
    },
    {
      "inputs": [
        {
          "internalType": "address",
          "name": "owner",
          "type": "address"
        }
      ],
      "name": "OwnableInvalidOwner",
      "type": "error"
    },
    {
      "inputs": [
        {
          "internalType": "address",
          "name": "account",
          "type": "address"
        }
      ],
      "name": "OwnableUnauthorizedAccount",
      "type": "error"
    },
    {
      "anonymous": false,
      "inputs": [
        {
          "indexed": true,
          "internalType": "address",
          "name": "owner",
          "type": "address"
        },
        {
          "indexed": true,
          "internalType": "address",
          "name": "spender",
          "type": "address"
        },
        {
          "indexed": false,
          "internalType": "uint256",
          "name": "value",
          "type": "uint256"
        }
      ],
      "name": "Approval",
      "type": "event"
    },
    {
      "anonymous": false,
      "inputs": [
        {
          "indexed": true,
          "internalType": "address",
          "name": "previousOwner",
          "type": "address"
        },
        {
          "indexed": true,
          "internalType": "address",
          "name": "newOwner",
          "type": "address"
        }
      ],
      "name": "OwnershipTransferred",
      "type": "event"
    },
    {
      "anonymous": false,
      "inputs": [
        {
          "indexed": false,
          "internalType": "address",
          "name": "account",
          "type": "address"
        }
      ],
      "name": "Paused",
      "type": "event"
    },
    {
      "anonymous": false,
      "inputs": [
        {
          "indexed": true,
          "internalType": "address",
          "name": "from",
          "type": "address"
        },
        {
          "indexed": true,
          "internalType": "address",
          "name": "to",
          "type": "address"
        },
        {
          "indexed": false,
          "internalType": "uint256",
          "name": "value",
          "type": "uint256"
        }
      ],
      "name": "Transfer",
      "type": "event"
    },
    {
      "anonymous": false,
      "inputs": [
        {
          "indexed": false,
          "internalType": "address",
          "name": "account",
          "type": "address"
        }
      ],
      "name": "Unpaused",
      "type": "event"
    },
    {
      "inputs": [
        {
          "internalType": "address",
          "name": "owner",
          "type": "address"
        },
        {
          "internalType": "address",
          "name": "spender",
          "type": "address"
        }
      ],
      "name": "allowance",
      "outputs": [
        {
          "internalType": "uint256",
          "name": "",
          "type": "uint256"
        }
      ],
      "stateMutability": "view",
      "type": "function"
    },
    {
      "inputs": [
        {
          "internalType": "address",
          "name": "spender",
          "type": "address"
        },
        {
          "internalType": "uint256",
          "name": "value",
          "type": "uint256"
        }
      ],
      "name": "approve",
      "outputs": [
        {
          "internalType": "bool",
          "name": "",
          "type": "bool"
        }
      ],
      "stateMutability": "nonpayable",
      "type": "function"
    },
    {
      "inputs": [
        {
          "internalType": "address",
          "name": "account",
          "type": "address"
        }
      ],
      "name": "balanceOf",
      "outputs": [
        {
          "internalType": "uint256",
          "name": "",
          "type": "uint256"
        }
      ],
      "stateMutability": "view",
      "type": "function"
    },
    {
      "inputs": [
        {
          "internalType": "uint256",
          "name": "value",
          "type": "uint256"
        }
      ],
      "name": "burn",
      "outputs": [],
      "stateMutability": "nonpayable",
      "type": "function"
    },
    {
      "inputs": [
        {
          "internalType": "address",
          "name": "account",
          "type": "address"
        },
        {
          "internalType": "uint256",
          "name": "value",
          "type": "uint256"
        }
      ],
      "name": "burnFrom",
      "outputs": [],
      "stateMutability": "nonpayable",
      "type": "function"
    },
    {
      "inputs": [],
      "name": "decimals",
      "outputs": [
        {
          "internalType": "uint8",
          "name": "",
          "type": "uint8"
        }
      ],
      "stateMutability": "view",
      "type": "function"
    },
    {
      "inputs": [
        {
          "internalType": "address",
          "name": "to",
          "type": "address"
        },
        {
          "internalType": "uint256",
          "name": "amount",
          "type": "uint256"
        }
      ],
      "name": "mint",
      "outputs": [],
      "stateMutability": "nonpayable",
      "type": "function"
    },
    {
      "inputs": [],
      "name": "name",
      "outputs": [
        {
          "internalType": "string",
          "name": "",
          "type": "string"
        }
      ],
      "stateMutability": "view",
      "type": "function"
    },
    {
      "inputs": [],
      "name": "owner",
      "outputs": [
        {
          "internalType": "address",
          "name": "",
          "type": "address"
        }
      ],
      "stateMutability": "view",
      "type": "function"
    },
    {
      "inputs": [],
      "name": "pause",
      "outputs": [],
      "stateMutability": "nonpayable",
      "type": "function"
    },
    {
      "inputs": [],
      "name": "paused",
      "outputs": [
        {
          "internalType": "bool",
          "name": "",
          "type": "bool"
        }
      ],
      "stateMutability": "view",
      "type": "function"
    },
    {
      "inputs": [],
      "name": "renounceOwnership",
      "outputs": [],
      "stateMutability": "nonpayable",
      "type": "function"
    },
    {
      "inputs": [],
      "name": "symbol",
      "outputs": [
        {
          "internalType": "string",
          "name": "",
          "type": "string"
        }
      ],
      "stateMutability": "view",
      "type": "function"
    },
    {
      "inputs": [],
      "name": "totalSupply",
      "outputs": [
        {
          "internalType": "uint256",
          "name": "",
          "type": "uint256"
        }
      ],
      "stateMutability": "view",
      "type": "function"
    },
    {
      "inputs": [
        {
          "internalType": "address",
          "name": "to",
          "type": "address"
        },
        {
          "internalType": "uint256",
          "name": "value",
          "type": "uint256"
        }
      ],
      "name": "transfer",
      "outputs": [
        {
          "internalType": "bool",
          "name": "",
          "type": "bool"
        }
      ],
      "stateMutability": "nonpayable",
      "type": "function"
    },
    {
      "inputs": [
        {
          "internalType": "address",
          "name": "from",
          "type": "address"
        },
        {
          "internalType": "address",
          "name": "to",
          "type": "address"
        },
        {
          "internalType": "uint256",
          "name": "value",
          "type": "uint256"
        }
      ],
      "name": "transferFrom",
      "outputs": [
        {
          "internalType": "bool",
          "name": "",
          "type": "bool"
        }
      ],
      "stateMutability": "nonpayable",
      "type": "function"
    },
    {
      "inputs": [
        {
          "internalType": "address",
          "name": "newOwner",
          "type": "address"
        }
      ],
      "name": "transferOwnership",
      "outputs": [],
      "stateMutability": "nonpayable",
      "type": "function"
    },
    {
      "inputs": [],
      "name": "unpause",
      "outputs": [],
      "stateMutability": "nonpayable",
      "type": "function"
    }
  ],
  "bytecode": "0x60806040523461043c57604080519081016001600160401b038111828210176103475760409081526009825268253ab93caa37b5b2b760b91b602083015280519081016001600160401b038111828210176103475760405260048152634a55525960e01b602082015281516001600160401b03811161034757600354600181811c91168015610432575b602082101461032757601f81116103cd575b50602092601f8211600114610368579281929360009261035d575b50508160011b916000199060031b1c1916176003555b80516001600160401b03811161034757600454600181811c9116801561033d575b602082101461032757601f81116102c2575b50602091601f821160011461025e57918192600092610253575b50508160011b916000199060031b1c1916176004555b331561023d5760058054610100600160a81b0319811633600881811b610100600160a81b03169290921790935590919082901c6001600160a01b03167f8be0079c531659141344cd1fd0a4f28419497f9722a3daafe3b4186f6b6457e0600080a360ff6000911661022e5760025469d3c21bcecceda1000000810180911161021a5760025550336000526000602052604060002069d3c21bcecceda1000000815401905560405169d3c21bcecceda1000000815260007fddf252ad1be2c89b69c2b068fc378daa952ba7f163c4a11628f55a4df523b3ef60203393a3604051610ab990816104428239f35b634e487b7160e01b82526011600452602482fd5b63d93c066560e01b8152600490fd5b631e4fbdf760e01b600052600060045260246000fd5b015190503880610119565b601f198216926004600052806000209160005b8581106102aa57508360019510610291575b505050811b0160045561012f565b015160001960f88460031b161c19169055388080610283565b91926020600181928685015181550194019201610271565b60046000527f8a35acfbc15ff81a39ae7d344fd709f28e8600b4aa8c65c6b64bfe7fe36bd19b601f830160051c8101916020841061031d575b601f0160051c01905b81811061031157506100ff565b60008155600101610304565b90915081906102fb565b634e487b7160e01b600052602260045260246000fd5b90607f16906100ed565b634e487b7160e01b600052604160045260246000fd5b0151905038806100b6565b601f198216936003600052806000209160005b8681106103b5575083600195961061039c575b505050811b016003556100cc565b015160001960f88460031b161c1916905538808061038e565b9192602060018192868501518155019401920161037b565b60036000527fc2575a0e9e593c00f959f8c92f12db2869c3395a3b0502d05e2516446f71f85b601f830160051c81019160208410610428575b601f0160051c01905b81811061041c575061009b565b6000815560010161040f565b9091508190610406565b90607f1690610089565b600080fdfe608080604052600436101561001357600080fd5b60003560e01c90816306fdde031461070757508063095ea7b31461065557806318160ddd1461063757806323b872dd146105ff578063313ce567146105e35780633f4ba83a1461057a57806340c10f19146104be57806342966c68146104a15780635c975abb1461047e57806370a0823114610444578063715018a6146103e357806379cc6790146103b15780638456cb59146103575780638da5cb5b1461032a57806395d89b4114610209578063a9059cbb146101d8578063dd62ed3e146101875763f2fde38b146100e557600080fd5b34610182576020366003190112610182576100fe610823565b6101066109b1565b6001600160a01b03811690811561016c5760058054610100600160a81b03198116600893841b610100600160a81b031617909155901c6001600160a01b03167f8be0079c531659141344cd1fd0a4f28419497f9722a3daafe3b4186f6b6457e0600080a3005b631e4fbdf760e01b600052600060045260246000fd5b600080fd5b34610182576040366003190112610182576101a0610823565b6101a8610839565b6001600160a01b039182166000908152600160209081526040808320949093168252928352819020549051908152f35b34610182576040366003190112610182576101fe6101f4610823565b60243590336108fa565b602060405160018152f35b346101825760003660031901126101825760405160006004548060011c90600181168015610320575b60208310811461030c578285529081156102f05750600114610299575b50819003601f01601f191681019067ffffffffffffffff8211818310176102835761027f829182604052826107da565b0390f35b634e487b7160e01b600052604160045260246000fd5b905060046000527f8a35acfbc15ff81a39ae7d344fd709f28e8600b4aa8c65c6b64bfe7fe36bd19b6000905b8282106102da5750602091508201018261024f565b60018160209254838588010152019101906102c5565b90506020925060ff191682840152151560051b8201018261024f565b634e487b7160e01b84526022600452602484fd5b91607f1691610232565b346101825760003660031901126101825760055460405160089190911c6001600160a01b03168152602090f35b34610182576000366003190112610182576103706109b1565b610378610a66565b600160ff1960055416176005557f62e78cea01bee320cd4e420270b5ea74000d11b0c9f74754ebdbfc544b05a2586020604051338152a1005b34610182576040366003190112610182576103e16103cd610823565b602435906103dc82338361084f565b6109dd565b005b34610182576000366003190112610182576103fc6109b1565b60058054610100600160a81b0319811690915560009060081c6001600160a01b03167f8be0079c531659141344cd1fd0a4f28419497f9722a3daafe3b4186f6b6457e08280a3005b34610182576020366003190112610182576001600160a01b03610465610823565b1660005260006020526020604060002054604051908152f35b3461018257600036600319011261018257602060ff600554166040519015158152f35b34610182576020366003190112610182576103e1600435336109dd565b34610182576040366003190112610182576104d7610823565b602435906104e36109b1565b6001600160a01b03168015610564576104fa610a66565b6002549180830180931161054e576020926002557fddf252ad1be2c89b69c2b068fc378daa952ba7f163c4a11628f55a4df523b3ef600093849284845283825260408420818154019055604051908152a380f35b634e487b7160e01b600052601160045260246000fd5b63ec442f0560e01b600052600060045260246000fd5b34610182576000366003190112610182576105936109b1565b60055460ff8116156105d25760ff19166005557f5db9ee0a495bf2e6ff9c91a7834c1ba4fdd244a5e8aa4e537bd38aeae4b073aa6020604051338152a1005b638dfc202b60e01b60005260046000fd5b3461018257600036600319011261018257602060405160128152f35b34610182576060366003190112610182576101fe61061b610823565b610623610839565b6044359161063283338361084f565b6108fa565b34610182576000366003190112610182576020600254604051908152f35b346101825760403660031901126101825761066e610823565b6024359033156106f1576001600160a01b03169081156106db57336000526001602052604060002082600052602052806040600020556040519081527f8c5be1e5ebec7d5bd14f71427d1e84f3dd0314c0f7b2291e5b200ac8c7c3b92560203392a3602060405160018152f35b634a1406b160e11b600052600060045260246000fd5b63e602df0560e01b600052600060045260246000fd5b346101825760003660031901126101825760006003548060011c906001811680156107d0575b60208310811461030c578285529081156102f057506001146107795750819003601f01601f191681019067ffffffffffffffff8211818310176102835761027f829182604052826107da565b905060036000527fc2575a0e9e593c00f959f8c92f12db2869c3395a3b0502d05e2516446f71f85b6000905b8282106107ba5750602091508201018261024f565b60018160209254838588010152019101906107a5565b91607f169161072d565b91909160208152825180602083015260005b81811061080d575060409293506000838284010152601f8019910116010190565b80602080928701015160408286010152016107ec565b600435906001600160a01b038216820361018257565b602435906001600160a01b038216820361018257565b6001600160a01b03908116600081815260016020908152604080832094861683529390529190912054929190600019841061088b575b50505050565b8284106108d55780156106f1576001600160a01b038216156106db57600052600160205260406000209060018060a01b031660005260205260406000209103905538808080610885565b508290637dc7a0d960e11b60005260018060a01b031660045260245260445260646000fd5b6001600160a01b031690811561099b576001600160a01b031691821561056457610922610a66565b60008281528060205260408120548281106109815791604082827fddf252ad1be2c89b69c2b068fc378daa952ba7f163c4a11628f55a4df523b3ef958760209652828652038282205586815280845220818154019055604051908152a3565b916064928463391434e360e21b8452600452602452604452fd5b634b637e8f60e11b600052600060045260246000fd5b60055460081c6001600160a01b031633036109c857565b63118cdaa760e01b6000523360045260246000fd5b6001600160a01b0316801561099b576109f4610a66565b600091818352826020526040832054818110610a4d57817fddf252ad1be2c89b69c2b068fc378daa952ba7f163c4a11628f55a4df523b3ef926020928587528684520360408620558060025403600255604051908152a3565b6064939263391434e360e21b8452600452602452604452fd5b60ff60055416610a7257565b63d93c066560e01b60005260046000fdfea2646970667358221220ee5c79269cbd1a1e23352576f6e6ba31e249b0157cff93441cbd4baba2c1523464736f6c634300081c0033",
  "linkReferences": {},
  "deployedLinkReferences": {}
}