{
  "contracts/DeciCourt.sol": {
    "DeciCourt": {
      "abi": [
        {
          "inputs": [
            {
              "internalType": "address",
              "name": "_tokenAddress",
              "type": "address"
            },
            {
              "internalType": "uint256",
              "name": "_filingFee",
              "type": "uint256"
            },
            {
              "internalType": "uint256",
              "name": "_jurorStake",
              "type": "uint256"
            },
            {
              "internalType": "uint256",
              "name": "_jurySize",
              "type": "uint256"
            },
            {
              "internalType": "uint256",
              "name": "_commitDuration",
              "type": "uint256"
            },
            {
              "internalType": "uint256",
              "name": "_revealDuration",
              "type": "uint256"
            },
            {
              "internalType": "uint256",
              "name": "_penaltyRate",
              "type": "uint256"
            },
            {
              "internalType": "uint256",
              "name": "_appealDepositMultiplier",
              "type": "uint256"
            },
            {
              "internalType": "uint256",
              "name": "_appealDuration",
              "type": "uint256"
            },
            {
              "internalType": "uint256",
              "name": "_appealJurySize",
              "type": "uint256"
            }
          ],
          "stateMutability": "nonpayable",
          "type": "constructor"
        },
        {
          "inputs": [],
          "name": "ReentrancyGuardReentrantCall",
          "type": "error"
        },
        {
          "anonymous": false,
          "inputs": [
            {
              "indexed": true,
              "internalType": "uint256",
              "name": "caseId",
              "type": "uint256"
            },
            {
              "indexed": true,
              "internalType": "address",
              "name": "appellant",
              "type": "address"
            },
            {
              "indexed": false,
              "internalType": "uint256",
              "name": "appealDeposit",
              "type": "uint256"
            }
          ],
          "name": "AppealInitiated",
          "type": "event"
        },
        {
          "anonymous": false,
          "inputs": [
            {
              "indexed": true,
              "internalType": "uint256",
              "name": "caseId",
              "type": "uint256"
            },
            {
              "indexed": false,
              "internalType": "address",
              "name": "winner",
              "type": "address"
            },
            {
              "indexed": false,
              "internalType": "bool",
              "name": "appealSuccessful",
              "type": "bool"
            }
          ],
          "name": "AppealResolved",
          "type": "event"
        },
        {
          "anonymous": false,
          "inputs": [
            {
              "indexed": true,
              "internalType": "uint256",
              "name": "caseId",
              "type": "uint256"
            },
            {
              "indexed": true,
              "internalType": "address",
              "name": "plaintiff",
              "type": "address"
            },
            {
              "indexed": true,
              "internalType": "address",
              "name": "defendant",
              "type": "address"
            },
            {
              "indexed": false,
              "internalType": "uint256",
              "name": "filingFee",
              "type": "uint256"
            }
          ],
          "name": "CaseCreated",
          "type": "event"
        },
        {
          "anonymous": false,
          "inputs": [
            {
              "indexed": true,
              "internalType": "uint256",
              "name": "caseId",
              "type": "uint256"
            },
            {
              "indexed": false,
              "internalType": "address",
              "name": "winner",
              "type": "address"
            },
            {
              "indexed": false,
              "internalType": "uint256",
              "name": "plaintiffReward",
              "type": "uint256"
            },
            {
              "indexed": false,
              "internalType": "uint256",
              "name": "defendantReward",
              "type": "uint256"
            },
            {
              "indexed": false,
              "internalType": "uint256",
              "name": "totalJurorReward",
              "type": "uint256"
            }
          ],
          "name": "CaseResolved",
          "type": "event"
        },
        {
          "anonymous": false,
          "inputs": [
            {
              "indexed": true,
              "internalType": "address",
              "name": "juror",
              "type": "address"
            },
            {
              "indexed": false,
              "internalType": "uint256",
              "name": "penaltyAmount",
              "type": "uint256"
            },
            {
              "indexed": false,
              "internalType": "uint256",
              "name": "penaltyRate",
              "type": "uint256"
            },
            {
              "indexed": false,
              "internalType": "string",
              "name": "reason",
              "type": "string"
            }
          ],
          "name": "JurorPenalized",
          "type": "event"
        },
        {
          "anonymous": false,
          "inputs": [
            {
              "indexed": true,
              "internalType": "address",
              "name": "juror",
              "type": "address"
            },
            {
              "indexed": false,
              "internalType": "uint256",
              "name": "stakeAmount",
              "type": "uint256"
            }
          ],
          "name": "JurorRegistered",
          "type": "event"
        },
        {
          "anonymous": false,
          "inputs": [
            {
              "indexed": true,
              "internalType": "address",
              "name": "juror",
              "type": "address"
            },
            {
              "indexed": false,
              "internalType": "uint256",
              "name": "newReputation",
              "type": "uint256"
            },
            {
              "indexed": false,
              "internalType": "uint256",
              "name": "correctVotes",
              "type": "uint256"
            },
            {
              "indexed": false,
              "internalType": "uint256",
              "name": "totalVotes",
              "type": "uint256"
            }
          ],
          "name": "JurorReputationUpdated",
          "type": "event"
        },
        {
          "anonymous": false,
          "inputs": [
            {
              "indexed": true,
              "internalType": "address",
              "name": "juror",
              "type": "address"
            }
          ],
          "name": "JurorUnregistered",
          "type": "event"
        },
        {
          "anonymous": false,
          "inputs": [
            {
              "indexed": true,
              "internalType": "uint256",
              "name": "caseId",
              "type": "uint256"
            },
            {
              "indexed": true,
              "internalType": "address",
              "name": "juror",
              "type": "address"
            }
          ],
          "name": "VoteCommitted",
          "type": "event"
        },
        {
          "anonymous": false,
          "inputs": [
            {
              "indexed": true,
              "internalType": "uint256",
              "name": "caseId",
              "type": "uint256"
            },
            {
              "indexed": true,
              "internalType": "address",
              "name": "juror",
              "type": "address"
            },
            {
              "indexed": false,
              "internalType": "enum DeciCourt.VoteOption",
              "name": "vote",
              "type": "uint8"
            }
          ],
          "name": "VoteRevealed",
          "type": "event"
        },
        {
          "inputs": [
            {
              "internalType": "uint256",
              "name": "_caseId",
              "type": "uint256"
            }
          ],
          "name": "appeal",
          "outputs": [],
          "stateMutability": "nonpayable",
          "type": "function"
        },
        {
          "inputs": [],
          "name": "appealDepositMultiplier",
          "outputs": [
            {
              "internalType": "uint256",
              "name": "",
              "type": "uint256"
            }
          ],
          "stateMutability": "view",
          "type": "function"
        },
        {
          "inputs": [],
          "name": "appealDuration",
          "outputs": [
            {
              "internalType": "uint256",
              "name": "",
              "type": "uint256"
            }
          ],
          "stateMutability": "view",
          "type": "function"
        },
        {
          "inputs": [],
          "name": "appealJurySize",
          "outputs": [
            {
              "internalType": "uint256",
              "name": "",
              "type": "uint256"
            }
          ],
          "stateMutability": "view",
          "type": "function"
        },
        {
          "inputs": [
            {
              "internalType": "uint256",
              "name": "",
              "type": "uint256"
            }
          ],
          "name": "cases",
          "outputs": [
            {
              "internalType": "uint256",
              "name": "id",
              "type": "uint256"
            },
            {
              "internalType": "address",
              "name": "plaintiff",
              "type": "address"
            },
            {
              "internalType": "address",
              "name": "defendant",
              "type": "address"
            },
            {
              "internalType": "string",
              "name": "evidenceCID",
              "type": "string"
            },
            {
              "internalType": "enum DeciCourt.CaseStatus",
              "name": "status",
              "type": "uint8"
            },
            {
              "internalType": "uint256",
              "name": "filingFee",
              "type": "uint256"
            },
            {
              "internalType": "uint256",
              "name": "plaintiffVoteCount",
              "type": "uint256"
            },
            {
              "internalType": "uint256",
              "name": "defendantVoteCount",
              "type": "uint256"
            },
            {
              "internalType": "uint256",
              "name": "creationTime",
              "type": "uint256"
            },
            {
              "internalType": "uint256",
              "name": "commitDeadline",
              "type": "uint256"
            },
            {
              "internalType": "uint256",
              "name": "revealDeadline",
              "type": "uint256"
            },
            {
              "internalType": "address",
              "name": "winner",
              "type": "address"
            },
            {
              "internalType": "address",
              "name": "appellant",
              "type": "address"
            },
            {
              "internalType": "uint256",
              "name": "appealDeposit",
              "type": "uint256"
            },
            {
              "internalType": "uint256",
              "name": "appealDeadline",
              "type": "uint256"
            },
            {
              "internalType": "bool",
              "name": "isAppealed",
              "type": "bool"
            },
            {
              "internalType": "uint256",
              "name": "appealJurySize",
              "type": "uint256"
            }
          ],
          "stateMutability": "view",
          "type": "function"
        },
        {
          "inputs": [],
          "name": "commitDuration",
          "outputs": [
            {
              "internalType": "uint256",
              "name": "",
              "type": "uint256"
            }
          ],
          "stateMutability": "view",
          "type": "function"
        },
        {
          "inputs": [
            {
              "internalType": "uint256",
              "name": "_caseId",
              "type": "uint256"
            },
            {
              "internalType": "bytes32",
              "name": "_voteHash",
              "type": "bytes32"
            }
          ],
          "name": "commitVote",
          "outputs": [],
          "stateMutability": "nonpayable",
          "type": "function"
        },
        {
          "inputs": [
            {
              "internalType": "address",
              "name": "_defendant",
              "type": "address"
            },
            {
              "internalType": "string",
              "name": "_evidenceCID",
              "type": "string"
            }
          ],
          "name": "createCase",
          "outputs": [],
          "stateMutability": "nonpayable",
          "type": "function"
        },
        {
          "inputs": [
            {
              "internalType": "uint256",
              "name": "_caseId",
              "type": "uint256"
            }
          ],
          "name": "executeVerdict",
          "outputs": [],
          "stateMutability": "nonpayable",
          "type": "function"
        },
        {
          "inputs": [],
          "name": "filingFeeAmount",
          "outputs": [
            {
              "internalType": "uint256",
              "name": "",
              "type": "uint256"
            }
          ],
          "stateMutability": "view",
          "type": "function"
        },
        {
          "inputs": [
            {
              "internalType": "uint256",
              "name": "_caseId",
              "type": "uint256"
            }
          ],
          "name": "getCaseDetails",
          "outputs": [
            {
              "internalType": "uint256",
              "name": "id",
              "type": "uint256"
            },
            {
              "internalType": "address",
              "name": "plaintiff",
              "type": "address"
            },
            {
              "internalType": "address",
              "name": "defendant",
              "type": "address"
            },
            {
              "internalType": "string",
              "name": "evidenceCID",
              "type": "string"
            },
            {
              "internalType": "enum DeciCourt.CaseStatus",
              "name": "status",
              "type": "uint8"
            },
            {
              "internalType": "uint256",
              "name": "filingFee",
              "type": "uint256"
            },
            {
              "internalType": "uint256",
              "name": "plaintiffVoteCount",
              "type": "uint256"
            },
            {
              "internalType": "uint256",
              "name": "defendantVoteCount",
              "type": "uint256"
            },
            {
              "internalType": "uint256",
              "name": "creationTime",
              "type": "uint256"
            },
            {
              "internalType": "uint256",
              "name": "commitDeadline",
              "type": "uint256"
            },
            {
              "internalType": "uint256",
              "name": "revealDeadline",
              "type": "uint256"
            },
            {
              "internalType": "address",
              "name": "winner",
              "type": "address"
            }
          ],
          "stateMutability": "view",
          "type": "function"
        },
        {
          "inputs": [
            {
              "internalType": "uint256",
              "name": "_caseId",
              "type": "uint256"
            }
          ],
          "name": "getCaseJurors",
          "outputs": [
            {
              "internalType": "address[]",
              "name": "",
              "type": "address[]"
            }
          ],
          "stateMutability": "view",
          "type": "function"
        },
        {
          "inputs": [
            {
              "internalType": "address",
              "name": "_juror",
              "type": "address"
            }
          ],
          "name": "getJurorReputation",
          "outputs": [
            {
              "internalType": "uint256",
              "name": "correctVotes",
              "type": "uint256"
            },
            {
              "internalType": "uint256",
              "name": "totalVotes",
              "type": "uint256"
            },
            {
              "internalType": "uint256",
              "name": "reputationScore",
              "type": "uint256"
            },
            {
              "internalType": "uint256",
              "name": "consecutiveWrong",
              "type": "uint256"
            },
            {
              "internalType": "uint256",
              "name": "accuracyRate",
              "type": "uint256"
            }
          ],
          "stateMutability": "view",
          "type": "function"
        },
        {
          "inputs": [],
          "name": "jurorPenaltyRate",
          "outputs": [
            {
              "internalType": "uint256",
              "name": "",
              "type": "uint256"
            }
          ],
          "stateMutability": "view",
          "type": "function"
        },
        {
          "inputs": [
            {
              "internalType": "uint256",
              "name": "",
              "type": "uint256"
            }
          ],
          "name": "jurorPool",
          "outputs": [
            {
              "internalType": "address",
              "name": "",
              "type": "address"
            }
          ],
          "stateMutability": "view",
          "type": "function"
        },
        {
          "inputs": [],
          "name": "jurorStakeAmount",
          "outputs": [
            {
              "internalType": "uint256",
              "name": "",
              "type": "uint256"
            }
          ],
          "stateMutability": "view",
          "type": "function"
        },
        {
          "inputs": [
            {
              "internalType": "address",
              "name": "",
              "type": "address"
            }
          ],
          "name": "jurorsInfo",
          "outputs": [
            {
              "internalType": "bool",
              "name": "isRegistered",
              "type": "bool"
            },
            {
              "internalType": "uint256",
              "name": "stakedAmount",
              "type": "uint256"
            },
            {
              "internalType": "bool",
              "name": "isServing",
              "type": "bool"
            },
            {
              "internalType": "uint256",
              "name": "correctVotes",
              "type": "uint256"
            },
            {
              "internalType": "uint256",
              "name": "totalVotes",
              "type": "uint256"
            },
            {
              "internalType": "uint256",
              "name": "reputationScore",
              "type": "uint256"
            },
            {
              "internalType": "uint256",
              "name": "consecutiveWrong",
              "type": "uint256"
            }
          ],
          "stateMutability": "view",
          "type": "function"
        },
        {
          "inputs": [],
          "name": "jurySize",
          "outputs": [
            {
              "internalType": "uint256",
              "name": "",
              "type": "uint256"
            }
          ],
          "stateMutability": "view",
          "type": "function"
        },
        {
          "inputs": [],
          "name": "juryToken",
          "outputs": [
            {
              "internalType": "contract IERC20",
              "name": "",
              "type": "address"
            }
          ],
          "stateMutability": "view",
          "type": "function"
        },
        {
          "inputs": [],
          "name": "nextCaseId",
          "outputs": [
            {
              "internalType": "uint256",
              "name": "",
              "type": "uint256"
            }
          ],
          "stateMutability": "view",
          "type": "function"
        },
        {
          "inputs": [],
          "name": "registerAsJuror",
          "outputs": [],
          "stateMutability": "nonpayable",
          "type": "function"
        },
        {
          "inputs": [],
          "name": "revealDuration",
          "outputs": [
            {
              "internalType": "uint256",
              "name": "",
              "type": "uint256"
            }
          ],
          "stateMutability": "view",
          "type": "function"
        },
        {
          "inputs": [
            {
              "internalType": "uint256",
              "name": "_caseId",
              "type": "uint256"
            },
            {
              "internalType": "enum DeciCourt.VoteOption",
              "name": "_vote",
              "type": "uint8"
            },
            {
              "internalType": "bytes32",
              "name": "_salt",
              "type": "bytes32"
            }
          ],
          "name": "revealVote",
          "outputs": [],
          "stateMutability": "nonpayable",
          "type": "function"
        },
        {
          "inputs": [],
          "name": "unregisterAsJuror",
          "outputs": [],
          "stateMutability": "nonpayable",
          "type": "function"
        }
      ],
      "evm": {
        "bytecode": {
          "linkReferences": {},
          "object": "60a03461042457601f61303738819003918201601f19168301916001600160401b0383118484101761042957808492610140946040528339810103126104245780516001600160a01b038116919082900361042457602081015160408201516060830151608084015160a08501519160c08601519360e08701519561012061010089015198015198600160005580156103df57811561039a578215610355578315158061034a575b156103115784156102cd57851561028957606487116102445787156101ec5788156101a857838a1061014d576080526001556002556003556004556005556006556007556008556009556001600a55604051612bf79081610440823960805181818161050c0152818161084d01528181610ad201528181610e14015281816113bf01528181611b6b01528181611cd601528181611d9f01528181611ea80152611f430152f35b60405162461bcd60e51b815260206004820152602d60248201527f41707065616c206a7572792073697a65206d757374206265203e3d207265677560448201526c6c6172206a7572792073697a6560981b6064820152608490fd5b606460405162461bcd60e51b815260206004820152602060248201527f41707065616c206475726174696f6e206d75737420626520706f7369746976656044820152fd5b60405162461bcd60e51b815260206004820152602a60248201527f41707065616c206465706f736974206d756c7469706c696572206d75737420626044820152696520706f73697469766560b01b6064820152608490fd5b60405162461bcd60e51b815260206004820152601f60248201527f50656e616c747920726174652063616e6e6f74206578636565642031303025006044820152606490fd5b606460405162461bcd60e51b815260206004820152602060248201527f52657665616c206475726174696f6e206d75737420626520706f7369746976656044820152fd5b606460405162461bcd60e51b815260206004820152602060248201527f436f6d6d6974206475726174696f6e206d75737420626520706f7369746976656044820152fd5b60405162461bcd60e51b8152602060048201526011602482015270496e76616c6964206a7572792073697a6560781b6044820152606490fd5b5060648411156100a7565b60405162461bcd60e51b815260206004820152601c60248201527f4a75726f72207374616b65206d75737420626520706f736974697665000000006044820152606490fd5b60405162461bcd60e51b815260206004820152601b60248201527f46696c696e6720666565206d75737420626520706f73697469766500000000006044820152606490fd5b60405162461bcd60e51b815260206004820152601560248201527f496e76616c696420746f6b656e206164647265737300000000000000000000006044820152606490fd5b600080fd5b634e487b7160e01b600052604160045260246000fdfe61010080604052600436101561001457600080fd5b60003560e01c90816304495c991461232057508063059a184c146123025780630b05b14f1461205a5780631c204d0e14611569578063232e0c871461154b578063317e48b61461152d57806343bbdd3f146112635780634c4b848c1461118a578063536c8c151461116c5780636350eae81461114e5780636f833811146111305780637035aba21461106f57806371929ad514610db75780637e69b7b0146109f4578063867bc61b146109d6578063886a6de1146109b85780639da691801461087c5780639eacb5b914610837578063a2febe291461045b578063b55796f3146103d6578063c3a90635146102ef578063d496c455146102d1578063f09790dd1461016f5763f643d3d71461012857600080fd5b3461016a57602036600319011261016a57600435600c5481101561016a5761015160209161249f565b905460405160039290921b1c6001600160a01b03168152f35b600080fd5b3461016a57602036600319011261016a576004356000908152600b60205260409020805460018201546001600160a01b0390811660a05260028301541660e0526101bb600383016123fb565b9160ff6004820154166080528080806005810154956009820154600a830154600b840154600c85015491600d8601549361025760018060a01b03600e8901541696601360ff6012601160108d600f60018060a01b03910154169d01549d01549d0154169c01549c60405160c05260c0515260a051602060c051015260e051604060c0510152610220606060c051015261022060c0510190612351565b9b610269608060c05101608051612392565b60a060c051015260c08051015260e060c051015261010060c051015261012060c051015261014060c051015261016060c051015261018060c05101526101a060c05101526101c060c051015215156101e060c051015261020060c051015260c051900360c051f35b3461016a57600036600319011261016a576020600254604051908152f35b3461016a57602036600319011261016a57600435600052600b6020526020604060002080549060018060a01b036001820154169060018060a01b0360028201541660ff6004830154169260058301546009840154600a85015490600b860154926103ab6103a0600c89015496600d8a01549861037b60038c600e60018060a01b03910154169c016123fb565b916040519e8f9e8f908152015260408d015261018060608d01526101808c0190612351565b9860808b0190612392565b60a089015260c088015260e08701526101008601526101208501526101408401526101608301520390f35b3461016a57602036600319011261016a576001600160a01b036103f761233b565b16600052600e60205260e0604060002060ff8154169060018101549060ff6002820154166003820154600483015491600660058501549401549460405196151587526020870152151560408601526060850152608084015260a083015260c0820152f35b3461016a57604036600319011261016a5761047461233b565b6024359067ffffffffffffffff821161016a573660238301121561016a5781600401359067ffffffffffffffff821161016a57366024838501011161016a576001600160a01b0316908115158061082d575b156107f457600c54600354116107af576001546040516323b872dd60e01b8152336004820152306024820152604481019190915260208160648160006001600160a01b037f0000000000000000000000000000000000000000000000000000000000000000165af19081156107a357600091610774575b501561071a57600a549061055082612576565b600a5581600052600b6020526040600020908282556001820160018060a01b0333166bffffffffffffffffffffffff60a01b82541617905560028201846bffffffffffffffffffffffff60a01b8254161790556003820190806000966105b6845461239f565b601f81116106df575b508790601f8311600114610673578892610665575b50508160011b916000199060031b1c19161790555b60048101600160ff19825416179055600154600582015542600b820155600d610626610617600454426125c5565b80600c850155600554906125c5565b910155610632816129ad565b600154906040519182527f5c5f5f5c62d8082bc010726f98db2630d9da2b426a6717bd67bfbd9e8e17963860203393a480f35b6024925001013587806105d4565b84895260208920925090601f198416895b8181106106c457509084600195949392106106a7575b505050811b0190556105e9565b0160240135600019600384901b60f8161c1916905587808061069a565b91936020600181926024888801013581550195019201610684565b61070a90858a5260208a20601f850160051c81019160208610610710575b601f0160051c019061260d565b886105bf565b90915081906106fd565b60405162461bcd60e51b815260206004820152602c60248201527f46696c696e6720666565207472616e73666572206661696c65642e204469642060448201526b796f7520617070726f76653f60a01b6064820152608490fd5b610796915060203d60201161079c575b61078e81836123d9565b8101906125d2565b8461053d565b503d610784565b6040513d6000823e3d90fd5b60405162461bcd60e51b815260206004820152601b60248201527f4e6f7420656e6f75676820617661696c61626c65206a75726f727300000000006044820152606490fd5b60405162461bcd60e51b8152602060048201526011602482015270125b9d985b1a5908191959995b99185b9d607a1b6044820152606490fd5b50338214156104c6565b3461016a57600036600319011261016a576040517f00000000000000000000000000000000000000000000000000000000000000006001600160a01b03168152602090f35b3461016a57604036600319011261016a5760043580600052600b602052604060002060ff60048201541660068110156109a25760016108bb91146124e8565b600c8101544211610968576007906108db6108d63383612624565b61252a565b3360009081529101602081905260409091205461092f5733600081815260209290925260408220602435905591907f3834a2c8ea101e1468b529270d35fbff0a12de32a5a7e5729b8b4dad6fb32c019080a3005b60405162461bcd60e51b8152602060048201526011602482015270105b1c9958591e4818dbdb5b5a5d1d1959607a1b6044820152606490fd5b60405162461bcd60e51b815260206004820152601260248201527110dbdb5b5a5d081c1a185cd948195b99195960721b6044820152606490fd5b634e487b7160e01b600052602160045260246000fd5b3461016a57600036600319011261016a576020600554604051908152f35b3461016a57600036600319011261016a576020600854604051908152f35b3461016a57602036600319011261016a57600435610a10612674565b80600052600b60205260406000206004810160ff81541660068110156109a257600303610d7a5760118201544211610d3c57601282019160ff835416610cff57600e81015460018201546001600160a01b0390811691168103610cfa575060028101546001600160a01b03165b6001600160a01b03163303610cb557610a9d6005820154600754906125b2565b6040516323b872dd60e01b81523360048201523060248201526044810182905290939060208160648160006001600160a01b037f0000000000000000000000000000000000000000000000000000000000000000165af19081156107a357600091610c96575b5015610c5157600f820180546001600160a01b0319163317905560108201849055805460ff1990811660011790915582541660041782556009805460138301556000908201819055600a8201819055600682019491936007850193600886019391925b8754811015610bc95780610b7c6001928a6124d0565b905460039190911b1c60a083901b83900316600090815260208881526040808320839055888252808320805460ff19908116909155600e9092529091206002018054909116905501610b66565b50858780546000825580610c35575b5050610be3836126fe565b600d610bf4610617600454426125c5565b910155600160ff198254161790556040519182527f7055524dc69306fe397256b9b4ef9fe5a3b01235fdb799638b61e323b9e2c3bc60203393a36001600055005b610c4a9160005260206000209081019061260d565b8480610bd8565b60405162461bcd60e51b815260206004820152601e60248201527f41707065616c206465706f736974207472616e73666572206661696c656400006044820152606490fd5b610caf915060203d60201161079c5761078e81836123d9565b86610b03565b60405162461bcd60e51b815260206004820152601c60248201527f4f6e6c79206c6f73696e672070617274792063616e2061707065616c000000006044820152606490fd5b610a7d565b60405162461bcd60e51b815260206004820152601560248201527410d85cd948185b1c9958591e48185c1c19585b1959605a1b6044820152606490fd5b60405162461bcd60e51b8152602060048201526016602482015275105c1c19585b08191958591b1a5b99481c185cdcd95960521b6044820152606490fd5b60405162461bcd60e51b815260206004820152601560248201527410d85cd9481b9bdd081c995cdbdb1d9959081e595d605a1b6044820152606490fd5b3461016a57600036600319011261016a5733600052600e60205260ff60406000205416611035576002546040516323b872dd60e01b8152336004820152306024820152604481019190915260208160648160006001600160a01b037f0000000000000000000000000000000000000000000000000000000000000000165af19081156107a357600091611016575b5015610fc1576002546040519060e082019082821067ffffffffffffffff831117610fab57600691604052600183526020830190815260408301600081526060840160008152608085019060008252610eee60a08701936032855260c08801956000875233600052600e602052610ed06040600020995115158a9060ff801983541691151516179055565b516001890155511515600288019060ff801983541691151516179055565b51600386015551600485015551600584015551910155600c54600160401b811015610fab57610f28816001610f469301600c55600c6124d0565b81546001600160a01b0360039290921b91821b19163390911b179055565b600c546000198101908111610f955733600052600d6020526040600020556002546040519081527f302e82b0b7908cfac0232eeb6a83332cbf587d0cb58eaa7ba72f884c149910fa60203392a2005b634e487b7160e01b600052601160045260246000fd5b634e487b7160e01b600052604160045260246000fd5b60405162461bcd60e51b815260206004820152602760248201527f546f6b656e207472616e73666572206661696c65642e2044696420796f7520616044820152667070726f76653f60c81b6064820152608490fd5b61102f915060203d60201161079c5761078e81836123d9565b81610e45565b60405162461bcd60e51b8152602060048201526012602482015271105b1c9958591e481c9959da5cdd195c995960721b6044820152606490fd5b3461016a57602036600319011261016a57600435600052600b60205260066040600020016040518060208354918281520190819360005260206000209060005b81811061111157505050816110c59103826123d9565b6040519182916020830190602084525180915260408301919060005b8181106110ef575050500390f35b82516001600160a01b03168452859450602093840193909201916001016110e1565b82546001600160a01b03168452602090930192600192830192016110af565b3461016a57600036600319011261016a576020600454604051908152f35b3461016a57600036600319011261016a576020600a54604051908152f35b3461016a57600036600319011261016a576020600354604051908152f35b3461016a57602036600319011261016a576111a361233b565b6001600160a01b03166000908152600e60205260409020805460ff161561122757600381015460048201546005830154600690930154811561121c57606483029383850460641484151715610f95576111fe8360a096612585565b925b6040519485526020850152604084015260608301526080820152f35b60a093600092611200565b60405162461bcd60e51b8152602060048201526014602482015273129d5c9bdc881b9bdd081c9959da5cdd195c995960621b6044820152606490fd5b3461016a57600036600319011261016a5733600052600e602052604060002060ff815416156114ef5760ff600282015416611498576001015433600052600d602052604060002054600c546000198101908111610f95576112c39061249f565b905460039190911b1c6001600160a01b0316611306816112e28461249f565b81546001600160a01b0393841660039290921b91821b9390911b1916919091179055565b600052600d602052604060002055600c548015611482576113b991602091600019016113318161249f565b81549060018060a01b039060031b1b19169055600c5533600052600e82526000600660408220828155826001820155826002820155826003820155826004820155826005820155015533600052600d8252600060408120556040518093819263a9059cbb60e01b8352336004840160209093929193604081019460018060a01b031681520152565b038160007f00000000000000000000000000000000000000000000000000000000000000006001600160a01b03165af19081156107a357600091611463575b501561142657337ff67e7162188cb7e3f756d0f6d7c86d1b7cc88b891ae19dd58118705a7859034b600080a2005b60405162461bcd60e51b8152602060048201526015602482015274151bdad95b881d1c985b9cd9995c8819985a5b1959605a1b6044820152606490fd5b61147c915060203d60201161079c5761078e81836123d9565b816113f8565b634e487b7160e01b600052603160045260246000fd5b60405162461bcd60e51b815260206004820152602960248201527f43616e6e6f7420756e7265676973746572207768696c652073657276696e67206044820152686f6e2061206361736560b81b6064820152608490fd5b60405162461bcd60e51b81526020600482015260166024820152752737ba1030903932b3b4b9ba32b932b210353ab937b960511b6044820152606490fd5b3461016a57600036600319011261016a576020600754604051908152f35b3461016a57600036600319011261016a576020600154604051908152f35b3461016a57602036600319011261016a57611582612674565b600435600052600b602052604060002060ff60048201541660068110156109a25760010361201557600d810154421115611fd05760048101805460ff191660021790556009810154600a8201541015611fbd5760018101546001600160a01b03165b600e820180546001600160a01b0319166001600160a01b03838116918217909255600184015490911603611fb5576001915b6000928390815b60068401548310156119d05761163683600686016124d0565b60018060a01b0391549060031b1c169260ff6040600060018060a01b0387168152600888016020522054169184600052600e60205260406000209261167e6004850154612576565b9081600486015560038610156109a257600381101591826109a257868214806119c3575b15611784575050506116b390612576565b93600383016116c28154612576565b80915560006006850155600584019384546064811061172e575b509354600490940154604080519586526020860192909252908401526001927ff258ac71ca04f4b808e0c4f36355a6bbcd15af6c6cf087ba2655d6b05c81d2d99080606081015b0390a25b019161161d565b919060028301809311610f95576117236004876064867ff258ac71ca04f4b808e0c4f36355a6bbcd15af6c6cf087ba2655d6b05c81d2d99760019b551161177b575b9750505090916116dc565b60648155611770565b91996006869296989498016117998154612576565b80915560036006549411156119b9575b60018111611975575b5060058201549a60468c11611957575b600183019182549260646117d687866125b2565b0493600a60025404806117e987846125a5565b10611937575b50600592611809926118028780946125a5565b90556125c5565b9c111561192b5760058301546004198101908111610f955760058401555b6109a2577f43b8287040b746addd91738208fe6a278fd8dc7325e4979c30bf3c8d0409d7177ff258ac71ca04f4b808e0c4f36355a6bbcd15af6c6cf087ba2655d6b05c81d2d9938592600198600090156000146118fd57506118c36040516118906040826123d9565b60078152664e6f20766f746560c81b60208201525b60405193849384526020840152606060408401526060830190612351565b0390a260058101546118f560046003840154930154604051938493846040919493926060820195825260208201520152565b0390a2611727565b506118c360405161190f6040826123d9565b600a81526957726f6e6720766f746560b01b60208201526118a5565b60006005840155611827565b6118029550926118099261194d600595846125a5565b96509250926117ef565b92605081029080820460501490151715610f955760649004926117c2565b9092906000198101908111610f9557600a810290808204600a1490151715610f95576119a0916125c5565b91605083116119b0575b8b6117b2565b605092506119aa565b9260011c926117a9565b50600092508115156116a2565b915093926000908182809460058701549781611fa2575b505060018601546001600160a01b03848116911603611efc57508580611e70575b505b60005b6006860154811015611acb57611a2681600688016124d0565b9054600391821b1c6001600160a01b03166000818152600889016020526040902054909160ff91909116908a10156109a25760038110156109a2578914611a89575b6000908152600e60205260409020600201805460ff19169055600101611a0d565b9490611ac28560019388600052600e602052611aac8286604060002001546125c5565b89600052600e60205285604060002001556125c5565b95909150611a68565b5085848660ff601282015416600014611e0257506004356000908152600b60205260409020600f81018054929493929091906001600160a01b038781169116148385878315611c7157505050601082018054600381029080820460031490151715610f9557935460405163a9059cbb60e01b81526001600160a01b03909116600482015260029490941c60248501819052936020818060448101038160007f00000000000000000000000000000000000000000000000000000000000000006001600160a01b03165af19788156107a357611bc6611c4996600494611bcc94600080516020612ba28339815191529c611c54575b50546125a5565b906125c5565b925b01805460ff19166005179055604080516001600160a01b03891681526020810192909252600435917fd4406e003c73582310b2b897fd7cacd5866ecaed769ac129eb0b1dcbb09011169190a2604051938493600435978590949392606092608083019660018060a01b03168352602083015260408201520152565b0390a25b6001600055005b611c6c9060203d60201161079c5761078e81836123d9565b611bbf565b60108501805460018088018054969c50929991901c97509193909291906001600160a01b038c8116911603611d5f5750505460405163a9059cbb60e01b81526001600160a01b03909116600482015260248101859052906020828060448101038160007f00000000000000000000000000000000000000000000000000000000000000006001600160a01b03165af19081156107a357611bc686611d34611c4998600080516020612ba28339815191529c600497611d3c97611d42575b506125c5565b985b546125a5565b92611bce565b611d5a9060203d60201161079c5761078e81836123d9565b611d2e565b600286015460405163a9059cbb60e01b81526001600160a01b039091166004820152602481018890529199509697509190506020828060448101038160007f00000000000000000000000000000000000000000000000000000000000000006001600160a01b03165af19081156107a357611bc686611dfc611c4998600080516020612ba28339815191529c600497611d3c97611d4257506125c5565b99611d36565b600080516020612ba2833981519152939291611e6891611e24600854426125c5565b60118201556004600360ff19828401541617910155604051938493600435978590949392606092608083019660018060a01b03168352602083015260408201520152565b0390a2611c4d565b600186015460405163a9059cbb60e01b81526001600160a01b03909116600482015260248101919091526020818060448101038160007f00000000000000000000000000000000000000000000000000000000000000006001600160a01b03165af180156107a35715611a0857611ef59060203d60201161079c5761078e81836123d9565b5087611a08565b9590508080611f0c575b50611a0a565b600286015460405163a9059cbb60e01b81526001600160a01b0390911660048201526024810191909152602081806044810103818a7f00000000000000000000000000000000000000000000000000000000000000006001600160a01b03165af18015611f975715611f0657611f909060203d60201161079c5761078e81836123d9565b5087611f06565b6040513d89823e3d90fd5b611fad929550612585565b9288806119e7565b600291611616565b60028101546001600160a01b03166115e4565b60405162461bcd60e51b815260206004820152601a60248201527f52657665616c207068617365206e6f7420656e646564207965740000000000006044820152606490fd5b60405162461bcd60e51b815260206004820152601a60248201527f43617365206e6f7420726561647920666f7220766572646963740000000000006044820152606490fd5b3461016a57606036600319011261016a57602435600435600382101561016a5780600052600b60205260406000209160ff60048401541660068110156109a25760016120a691146124e8565b600c8301544211156122bd57600d8301544211612283576120ca6108d63385612624565b3360009081526007840160208190526040909120541561224d5733600090815260088501602081905260409091205460ff1660038110156109a2576122155760405191602083016000938560f81b82526044356021820152602181526121316041826123d9565b5190203384526020919091526040832054036121d05733825260205260409020805460ff191660ff831617905560009260001982016121ac576009016121778154612576565b90555b604051926109a25782527ffb0a2a4b906424480a54d601db26ad920592115a97358d199495345723df34cb60203393a3005b600282146121bb575b5061217a565b600a016121c88154612576565b9055836121b5565b60405162461bcd60e51b815260206004820152601a60248201527f566f746520646f6573206e6f74206d6174636820636f6d6d69740000000000006044820152606490fd5b60405162461bcd60e51b815260206004820152601060248201526f105b1c9958591e481c995d99585b195960821b6044820152606490fd5b60405162461bcd60e51b815260206004820152600e60248201526d111a59081b9bdd0818dbdb5b5a5d60921b6044820152606490fd5b60405162461bcd60e51b815260206004820152601260248201527114995d99585b081c1a185cd948195b99195960721b6044820152606490fd5b60405162461bcd60e51b815260206004820152601a60248201527f436f6d6d6974207068617365206e6f7420656e646564207965740000000000006044820152606490fd5b3461016a57600036600319011261016a576020600654604051908152f35b3461016a57600036600319011261016a576020906009548152f35b600435906001600160a01b038216820361016a57565b919082519283825260005b84811061237d575050826000602080949584010152601f8019910116010190565b8060208092840101518282860101520161235c565b9060068210156109a25752565b90600182811c921680156123cf575b60208310146123b957565b634e487b7160e01b600052602260045260246000fd5b91607f16916123ae565b90601f8019910116810190811067ffffffffffffffff821117610fab57604052565b906040519182600082549261240f8461239f565b808452936001811690811561247d5750600114612436575b50612434925003836123d9565b565b90506000929192526020600020906000915b8183106124615750509060206124349282010138612427565b6020919350806001915483858901015201910190918492612448565b90506020925061243494915060ff191682840152151560051b82010138612427565b600c548110156124ba57600c60005260206000200190600090565b634e487b7160e01b600052603260045260246000fd5b80548210156124ba5760005260206000200190600090565b156124ef57565b60405162461bcd60e51b81526020600482015260136024820152724e6f7420696e20766f74696e6720706861736560681b6044820152606490fd5b1561253157565b60405162461bcd60e51b815260206004820152601960248201527f4e6f742061206a75726f7220666f7220746869732063617365000000000000006044820152606490fd5b6000198114610f955760010190565b811561258f570490565b634e487b7160e01b600052601260045260246000fd5b91908203918211610f9557565b81810292918115918404141715610f9557565b91908201809211610f9557565b9081602091031261016a5751801515810361016a5790565b90815491600160401b831015610fab57826112e2916001612434950181556124d0565b818110612618575050565b6000815560010161260d565b9060005b60068301805482101561266b578161263f916124d0565b905460039190911b1c6001600160a01b039081169083161461266357600101612628565b505050600190565b50505050600090565b600260005414612685576002600055565b633ee5aeb560e01b60005260046000fd5b67ffffffffffffffff8111610fab5760051b60200190565b906126b882612696565b6126c560405191826123d9565b82815280926126d6601f1991612696565b0190602036910137565b80518210156124ba5760209160051b010190565b811561258f570690565b9081600052600b6020526040600020600c5492601382015490818510612959578185146128fe576040516020810191428352446040830152606082015265185c1c19585b60d21b6080820152606681526127596086826123d9565b51902091612766856126ae565b6000906000935b808510806128f5575b1561288e576000968760015b156127df575b506000976127d96127d38b8a846127cb8c6127bd60405193849260208401968791606093918352602083015260408201520190565b03601f1981018352826123d9565b5190206126f4565b91612576565b98612782565b6127e981856126e0565b51151580612885575b612788579092975094909461280781896126e0565b5115612821575b5061281890612576565b9395909561276d565b612818919361283f82600161283961287e958d6126e0565b5261249f565b905460039190911b1c6001600160a01b031661285e81600689016125ea565b600052600e6020526002604060002001600160ff19825416179055612576565b929061280e565b508989106127f2565b95965050509050600691500154036128a257565b60405162461bcd60e51b815260206004820152602560248201527f4661696c656420746f2061737369676e20656e6f7567682061707065616c206a60448201526475726f727360d81b6064820152608490fd5b50878310612776565b509192915060060160005b82811061291557505050565b8061292160019261249f565b838060a01b0391549060031b1c1661293981856125ea565b600052600e60205260026040600020018260ff1982541617905501612909565b60405162461bcd60e51b815260206004820152602660248201527f4e6f7420656e6f75676820617661696c61626c65206a75726f727320666f7220604482015265185c1c19585b60d21b6064820152608490fd5b9081600052600b602052604060002090600c54926003548414612b48576040929192516129f4816127bd602082019444428791606093918352602083015260408201520190565b51902090612a01846126ae565b90600080925b600354841080612b3f575b15612ae4576000958660015b15612a5f575b50600096612a596127d38a89846127cb8b6127bd60405193849260208401968791606093918352602083015260408201520190565b97612a1e565b612a6981846126e0565b51151580612adb575b612a24579094919650612a8581886126e0565b5115612a9d575b50612a9690612576565b9294612a07565b612a969192612ab5826001612839612ad4958c6126e0565b905460039190911b1c6001600160a01b031661285e81600688016125ea565b9190612a8c565b50888810612a72565b50509150506006919250015460035403612afa57565b60405162461bcd60e51b815260206004820152601e60248201527f4661696c656420746f2061737369676e20656e6f756768206a75726f727300006044820152606490fd5b50868210612a12565b50919060060160005b828110612b5d57505050565b80612b6960019261249f565b838060a01b0391549060031b1c16612b8181856125ea565b600052600e60205260026040600020018260ff1982541617905501612b5156feb179b08881890bd8e13edde8255f745991199906456a378692ec11430a4560a9a2646970667358221220ecb989fcadbe961aaf747d5c8835d0bea1f22d094fb29d956f8a665189f95cd464736f6c634300081c0033",
          "opcodes": "PUSH1 0xA0 CALLVALUE PUSH2 0x424 JUMPI PUSH1 0x1F PUSH2 0x3037 CODESIZE DUP2 SWAP1 SUB SWAP2 DUP3 ADD PUSH1 0x1F NOT AND DUP4 ADD SWAP2 PUSH1 0x1 PUSH1 0x1 PUSH1 0x40 SHL SUB DUP4 GT DUP5 DUP5 LT OR PUSH2 0x429 JUMPI DUP1 DUP5 SWAP3 PUSH2 0x140 SWAP5 PUSH1 0x40 MSTORE DUP4 CODECOPY DUP2 ADD SUB SLT PUSH2 0x424 JUMPI DUP1 MLOAD PUSH1 0x1 PUSH1 0x1 PUSH1 0xA0 SHL SUB DUP2 AND SWAP2 SWAP1 DUP3 SWAP1 SUB PUSH2 0x424 JUMPI PUSH1 0x20 DUP2 ADD MLOAD PUSH1 0x40 DUP3 ADD MLOAD PUSH1 0x60 DUP4 ADD MLOAD PUSH1 0x80 DUP5 ADD MLOAD PUSH1 0xA0 DUP6 ADD MLOAD SWAP2 PUSH1 0xC0 DUP7 ADD MLOAD SWAP4 PUSH1 0xE0 DUP8 ADD MLOAD SWAP6 PUSH2 0x120 PUSH2 0x100 DUP10 ADD MLOAD SWAP9 ADD MLOAD SWAP9 PUSH1 0x1 PUSH1 0x0 SSTORE DUP1 ISZERO PUSH2 0x3DF JUMPI DUP2 ISZERO PUSH2 0x39A JUMPI DUP3 ISZERO PUSH2 0x355 JUMPI DUP4 ISZERO ISZERO DUP1 PUSH2 0x34A JUMPI JUMPDEST ISZERO PUSH2 0x311 JUMPI DUP5 ISZERO PUSH2 0x2CD JUMPI DUP6 ISZERO PUSH2 0x289 JUMPI PUSH1 0x64 DUP8 GT PUSH2 0x244 JUMPI DUP8 ISZERO PUSH2 0x1EC JUMPI DUP9 ISZERO PUSH2 0x1A8 JUMPI DUP4 DUP11 LT PUSH2 0x14D JUMPI PUSH1 0x80 MSTORE PUSH1 0x1 SSTORE PUSH1 0x2 SSTORE PUSH1 0x3 SSTORE PUSH1 0x4 SSTORE PUSH1 0x5 SSTORE PUSH1 0x6 SSTORE PUSH1 0x7 SSTORE PUSH1 0x8 SSTORE PUSH1 0x9 SSTORE PUSH1 0x1 PUSH1 0xA SSTORE PUSH1 0x40 MLOAD PUSH2 0x2BF7 SWAP1 DUP2 PUSH2 0x440 DUP3 CODECOPY PUSH1 0x80 MLOAD DUP2 DUP2 DUP2 PUSH2 0x50C ADD MSTORE DUP2 DUP2 PUSH2 0x84D ADD MSTORE DUP2 DUP2 PUSH2 0xAD2 ADD MSTORE DUP2 DUP2 PUSH2 0xE14 ADD MSTORE DUP2 DUP2 PUSH2 0x13BF ADD MSTORE DUP2 DUP2 PUSH2 0x1B6B ADD MSTORE DUP2 DUP2 PUSH2 0x1CD6 ADD MSTORE DUP2 DUP2 PUSH2 0x1D9F ADD MSTORE DUP2 DUP2 PUSH2 0x1EA8 ADD MSTORE PUSH2 0x1F43 ADD MSTORE RETURN JUMPDEST PUSH1 0x40 MLOAD PUSH3 0x461BCD PUSH1 0xE5 SHL DUP2 MSTORE PUSH1 0x20 PUSH1 0x4 DUP3 ADD MSTORE PUSH1 0x2D PUSH1 0x24 DUP3 ADD MSTORE PUSH32 0x41707065616C206A7572792073697A65206D757374206265203E3D2072656775 PUSH1 0x44 DUP3 ADD MSTORE PUSH13 0x6C6172206A7572792073697A65 PUSH1 0x98 SHL PUSH1 0x64 DUP3 ADD MSTORE PUSH1 0x84 SWAP1 REVERT JUMPDEST PUSH1 0x64 PUSH1 0x40 MLOAD PUSH3 0x461BCD PUSH1 0xE5 SHL DUP2 MSTORE PUSH1 0x20 PUSH1 0x4 DUP3 ADD MSTORE PUSH1 0x20 PUSH1 0x24 DUP3 ADD MSTORE PUSH32 0x41707065616C206475726174696F6E206D75737420626520706F736974697665 PUSH1 0x44 DUP3 ADD MSTORE REVERT JUMPDEST PUSH1 0x40 MLOAD PUSH3 0x461BCD PUSH1 0xE5 SHL DUP2 MSTORE PUSH1 0x20 PUSH1 0x4 DUP3 ADD MSTORE PUSH1 0x2A PUSH1 0x24 DUP3 ADD MSTORE PUSH32 0x41707065616C206465706F736974206D756C7469706C696572206D7573742062 PUSH1 0x44 DUP3 ADD MSTORE PUSH10 0x6520706F736974697665 PUSH1 0xB0 SHL PUSH1 0x64 DUP3 ADD MSTORE PUSH1 0x84 SWAP1 REVERT JUMPDEST PUSH1 0x40 MLOAD PUSH3 0x461BCD PUSH1 0xE5 SHL DUP2 MSTORE PUSH1 0x20 PUSH1 0x4 DUP3 ADD MSTORE PUSH1 0x1F PUSH1 0x24 DUP3 ADD MSTORE PUSH32 0x50656E616C747920726174652063616E6E6F7420657863656564203130302500 PUSH1 0x44 DUP3 ADD MSTORE PUSH1 0x64 SWAP1 REVERT JUMPDEST PUSH1 0x64 PUSH1 0x40 MLOAD PUSH3 0x461BCD PUSH1 0xE5 SHL DUP2 MSTORE PUSH1 0x20 PUSH1 0x4 DUP3 ADD MSTORE PUSH1 0x20 PUSH1 0x24 DUP3 ADD MSTORE PUSH32 0x52657665616C206475726174696F6E206D75737420626520706F736974697665 PUSH1 0x44 DUP3 ADD MSTORE REVERT JUMPDEST PUSH1 0x64 PUSH1 0x40 MLOAD PUSH3 0x461BCD PUSH1 0xE5 SHL DUP2 MSTORE PUSH1 0x20 PUSH1 0x4 DUP3 ADD MSTORE PUSH1 0x20 PUSH1 0x24 DUP3 ADD MSTORE PUSH32 0x436F6D6D6974206475726174696F6E206D75737420626520706F736974697665 PUSH1 0x44 DUP3 ADD MSTORE REVERT JUMPDEST PUSH1 0x40 MLOAD PUSH3 0x461BCD PUSH1 0xE5 SHL DUP2 MSTORE PUSH1 0x20 PUSH1 0x4 DUP3 ADD MSTORE PUSH1 0x11 PUSH1 0x24 DUP3 ADD MSTORE PUSH17 0x496E76616C6964206A7572792073697A65 PUSH1 0x78 SHL PUSH1 0x44 DUP3 ADD MSTORE PUSH1 0x64 SWAP1 REVERT JUMPDEST POP PUSH1 0x64 DUP5 GT ISZERO PUSH2 0xA7 JUMP JUMPDEST PUSH1 0x40 MLOAD PUSH3 0x461BCD PUSH1 0xE5 SHL DUP2 MSTORE PUSH1 0x20 PUSH1 0x4 DUP3 ADD MSTORE PUSH1 0x1C PUSH1 0x24 DUP3 ADD MSTORE PUSH32 0x4A75726F72207374616B65206D75737420626520706F73697469766500000000 PUSH1 0x44 DUP3 ADD MSTORE PUSH1 0x64 SWAP1 REVERT JUMPDEST PUSH1 0x40 MLOAD PUSH3 0x461BCD PUSH1 0xE5 SHL DUP2 MSTORE PUSH1 0x20 PUSH1 0x4 DUP3 ADD MSTORE PUSH1 0x1B PUSH1 0x24 DUP3 ADD MSTORE PUSH32 0x46696C696E6720666565206D75737420626520706F7369746976650000000000 PUSH1 0x44 DUP3 ADD MSTORE PUSH1 0x64 SWAP1 REVERT JUMPDEST PUSH1 0x40 MLOAD PUSH3 0x461BCD PUSH1 0xE5 SHL DUP2 MSTORE PUSH1 0x20 PUSH1 0x4 DUP3 ADD MSTORE PUSH1 0x15 PUSH1 0x24 DUP3 ADD MSTORE PUSH32 0x496E76616C696420746F6B656E20616464726573730000000000000000000000 PUSH1 0x44 DUP3 ADD MSTORE PUSH1 0x64 SWAP1 REVERT JUMPDEST PUSH1 0x0 DUP1 REVERT JUMPDEST PUSH4 0x4E487B71 PUSH1 0xE0 SHL PUSH1 0x0 MSTORE PUSH1 0x41 PUSH1 0x4 MSTORE PUSH1 0x24 PUSH1 0x0 REVERT INVALID PUSH2 0x100 DUP1 PUSH1 0x40 MSTORE PUSH1 0x4 CALLDATASIZE LT ISZERO PUSH2 0x14 JUMPI PUSH1 0x0 DUP1 REVERT JUMPDEST PUSH1 0x0 CALLDATALOAD PUSH1 0xE0 SHR SWAP1 DUP2 PUSH4 0x4495C99 EQ PUSH2 0x2320 JUMPI POP DUP1 PUSH4 0x59A184C EQ PUSH2 0x2302 JUMPI DUP1 PUSH4 0xB05B14F EQ PUSH2 0x205A JUMPI DUP1 PUSH4 0x1C204D0E EQ PUSH2 0x1569 JUMPI DUP1 PUSH4 0x232E0C87 EQ PUSH2 0x154B JUMPI DUP1 PUSH4 0x317E48B6 EQ PUSH2 0x152D JUMPI DUP1 PUSH4 0x43BBDD3F EQ PUSH2 0x1263 JUMPI DUP1 PUSH4 0x4C4B848C EQ PUSH2 0x118A JUMPI DUP1 PUSH4 0x536C8C15 EQ PUSH2 0x116C JUMPI DUP1 PUSH4 0x6350EAE8 EQ PUSH2 0x114E JUMPI DUP1 PUSH4 0x6F833811 EQ PUSH2 0x1130 JUMPI DUP1 PUSH4 0x7035ABA2 EQ PUSH2 0x106F JUMPI DUP1 PUSH4 0x71929AD5 EQ PUSH2 0xDB7 JUMPI DUP1 PUSH4 0x7E69B7B0 EQ PUSH2 0x9F4 JUMPI DUP1 PUSH4 0x867BC61B EQ PUSH2 0x9D6 JUMPI DUP1 PUSH4 0x886A6DE1 EQ PUSH2 0x9B8 JUMPI DUP1 PUSH4 0x9DA69180 EQ PUSH2 0x87C JUMPI DUP1 PUSH4 0x9EACB5B9 EQ PUSH2 0x837 JUMPI DUP1 PUSH4 0xA2FEBE29 EQ PUSH2 0x45B JUMPI DUP1 PUSH4 0xB55796F3 EQ PUSH2 0x3D6 JUMPI DUP1 PUSH4 0xC3A90635 EQ PUSH2 0x2EF JUMPI DUP1 PUSH4 0xD496C455 EQ PUSH2 0x2D1 JUMPI DUP1 PUSH4 0xF09790DD EQ PUSH2 0x16F JUMPI PUSH4 0xF643D3D7 EQ PUSH2 0x128 JUMPI PUSH1 0x0 DUP1 REVERT JUMPDEST CALLVALUE PUSH2 0x16A JUMPI PUSH1 0x20 CALLDATASIZE PUSH1 0x3 NOT ADD SLT PUSH2 0x16A JUMPI PUSH1 0x4 CALLDATALOAD PUSH1 0xC SLOAD DUP2 LT ISZERO PUSH2 0x16A JUMPI PUSH2 0x151 PUSH1 0x20 SWAP2 PUSH2 0x249F JUMP JUMPDEST SWAP1 SLOAD PUSH1 0x40 MLOAD PUSH1 0x3 SWAP3 SWAP1 SWAP3 SHL SHR PUSH1 0x1 PUSH1 0x1 PUSH1 0xA0 SHL SUB AND DUP2 MSTORE RETURN JUMPDEST PUSH1 0x0 DUP1 REVERT JUMPDEST CALLVALUE PUSH2 0x16A JUMPI PUSH1 0x20 CALLDATASIZE PUSH1 0x3 NOT ADD SLT PUSH2 0x16A JUMPI PUSH1 0x4 CALLDATALOAD PUSH1 0x0 SWAP1 DUP2 MSTORE PUSH1 0xB PUSH1 0x20 MSTORE PUSH1 0x40 SWAP1 KECCAK256 DUP1 SLOAD PUSH1 0x1 DUP3 ADD SLOAD PUSH1 0x1 PUSH1 0x1 PUSH1 0xA0 SHL SUB SWAP1 DUP2 AND PUSH1 0xA0 MSTORE PUSH1 0x2 DUP4 ADD SLOAD AND PUSH1 0xE0 MSTORE PUSH2 0x1BB PUSH1 0x3 DUP4 ADD PUSH2 0x23FB JUMP JUMPDEST SWAP2 PUSH1 0xFF PUSH1 0x4 DUP3 ADD SLOAD AND PUSH1 0x80 MSTORE DUP1 DUP1 DUP1 PUSH1 0x5 DUP2 ADD SLOAD SWAP6 PUSH1 0x9 DUP3 ADD SLOAD PUSH1 0xA DUP4 ADD SLOAD PUSH1 0xB DUP5 ADD SLOAD PUSH1 0xC DUP6 ADD SLOAD SWAP2 PUSH1 0xD DUP7 ADD SLOAD SWAP4 PUSH2 0x257 PUSH1 0x1 DUP1 PUSH1 0xA0 SHL SUB PUSH1 0xE DUP10 ADD SLOAD AND SWAP7 PUSH1 0x13 PUSH1 0xFF PUSH1 0x12 PUSH1 0x11 PUSH1 0x10 DUP14 PUSH1 0xF PUSH1 0x1 DUP1 PUSH1 0xA0 SHL SUB SWAP2 ADD SLOAD AND SWAP14 ADD SLOAD SWAP14 ADD SLOAD SWAP14 ADD SLOAD AND SWAP13 ADD SLOAD SWAP13 PUSH1 0x40 MLOAD PUSH1 0xC0 MSTORE PUSH1 0xC0 MLOAD MSTORE PUSH1 0xA0 MLOAD PUSH1 0x20 PUSH1 0xC0 MLOAD ADD MSTORE PUSH1 0xE0 MLOAD PUSH1 0x40 PUSH1 0xC0 MLOAD ADD MSTORE PUSH2 0x220 PUSH1 0x60 PUSH1 0xC0 MLOAD ADD MSTORE PUSH2 0x220 PUSH1 0xC0 MLOAD ADD SWAP1 PUSH2 0x2351 JUMP JUMPDEST SWAP12 PUSH2 0x269 PUSH1 0x80 PUSH1 0xC0 MLOAD ADD PUSH1 0x80 MLOAD PUSH2 0x2392 JUMP JUMPDEST PUSH1 0xA0 PUSH1 0xC0 MLOAD ADD MSTORE PUSH1 0xC0 DUP1 MLOAD ADD MSTORE PUSH1 0xE0 PUSH1 0xC0 MLOAD ADD MSTORE PUSH2 0x100 PUSH1 0xC0 MLOAD ADD MSTORE PUSH2 0x120 PUSH1 0xC0 MLOAD ADD MSTORE PUSH2 0x140 PUSH1 0xC0 MLOAD ADD MSTORE PUSH2 0x160 PUSH1 0xC0 MLOAD ADD MSTORE PUSH2 0x180 PUSH1 0xC0 MLOAD ADD MSTORE PUSH2 0x1A0 PUSH1 0xC0 MLOAD ADD MSTORE PUSH2 0x1C0 PUSH1 0xC0 MLOAD ADD MSTORE ISZERO ISZERO PUSH2 0x1E0 PUSH1 0xC0 MLOAD ADD MSTORE PUSH2 0x200 PUSH1 0xC0 MLOAD ADD MSTORE PUSH1 0xC0 MLOAD SWAP1 SUB PUSH1 0xC0 MLOAD RETURN JUMPDEST CALLVALUE PUSH2 0x16A JUMPI PUSH1 0x0 CALLDATASIZE PUSH1 0x3 NOT ADD SLT PUSH2 0x16A JUMPI PUSH1 0x20 PUSH1 0x2 SLOAD PUSH1 0x40 MLOAD SWAP1 DUP2 MSTORE RETURN JUMPDEST CALLVALUE PUSH2 0x16A JUMPI PUSH1 0x20 CALLDATASIZE PUSH1 0x3 NOT ADD SLT PUSH2 0x16A JUMPI PUSH1 0x4 CALLDATALOAD PUSH1 0x0 MSTORE PUSH1 0xB PUSH1 0x20 MSTORE PUSH1 0x20 PUSH1 0x40 PUSH1 0x0 KECCAK256 DUP1 SLOAD SWAP1 PUSH1 0x1 DUP1 PUSH1 0xA0 SHL SUB PUSH1 0x1 DUP3 ADD SLOAD AND SWAP1 PUSH1 0x1 DUP1 PUSH1 0xA0 SHL SUB PUSH1 0x2 DUP3 ADD SLOAD AND PUSH1 0xFF PUSH1 0x4 DUP4 ADD SLOAD AND SWAP3 PUSH1 0x5 DUP4 ADD SLOAD PUSH1 0x9 DUP5 ADD SLOAD PUSH1 0xA DUP6 ADD SLOAD SWAP1 PUSH1 0xB DUP7 ADD SLOAD SWAP3 PUSH2 0x3AB PUSH2 0x3A0 PUSH1 0xC DUP10 ADD SLOAD SWAP7 PUSH1 0xD DUP11 ADD SLOAD SWAP9 PUSH2 0x37B PUSH1 0x3 DUP13 PUSH1 0xE PUSH1 0x1 DUP1 PUSH1 0xA0 SHL SUB SWAP2 ADD SLOAD AND SWAP13 ADD PUSH2 0x23FB JUMP JUMPDEST SWAP2 PUSH1 0x40 MLOAD SWAP15 DUP16 SWAP15 DUP16 SWAP1 DUP2 MSTORE ADD MSTORE PUSH1 0x40 DUP14 ADD MSTORE PUSH2 0x180 PUSH1 0x60 DUP14 ADD MSTORE PUSH2 0x180 DUP13 ADD SWAP1 PUSH2 0x2351 JUMP JUMPDEST SWAP9 PUSH1 0x80 DUP12 ADD SWAP1 PUSH2 0x2392 JUMP JUMPDEST PUSH1 0xA0 DUP10 ADD MSTORE PUSH1 0xC0 DUP9 ADD MSTORE PUSH1 0xE0 DUP8 ADD MSTORE PUSH2 0x100 DUP7 ADD MSTORE PUSH2 0x120 DUP6 ADD MSTORE PUSH2 0x140 DUP5 ADD MSTORE PUSH2 0x160 DUP4 ADD MSTORE SUB SWAP1 RETURN JUMPDEST CALLVALUE PUSH2 0x16A JUMPI PUSH1 0x20 CALLDATASIZE PUSH1 0x3 NOT ADD SLT PUSH2 0x16A JUMPI PUSH1 0x1 PUSH1 0x1 PUSH1 0xA0 SHL SUB PUSH2 0x3F7 PUSH2 0x233B JUMP JUMPDEST AND PUSH1 0x0 MSTORE PUSH1 0xE PUSH1 0x20 MSTORE PUSH1 0xE0 PUSH1 0x40 PUSH1 0x0 KECCAK256 PUSH1 0xFF DUP2 SLOAD AND SWAP1 PUSH1 0x1 DUP2 ADD SLOAD SWAP1 PUSH1 0xFF PUSH1 0x2 DUP3 ADD SLOAD AND PUSH1 0x3 DUP3 ADD SLOAD PUSH1 0x4 DUP4 ADD SLOAD SWAP2 PUSH1 0x6 PUSH1 0x5 DUP6 ADD SLOAD SWAP5 ADD SLOAD SWAP5 PUSH1 0x40 MLOAD SWAP7 ISZERO ISZERO DUP8 MSTORE PUSH1 0x20 DUP8 ADD MSTORE ISZERO ISZERO PUSH1 0x40 DUP7 ADD MSTORE PUSH1 0x60 DUP6 ADD MSTORE PUSH1 0x80 DUP5 ADD MSTORE PUSH1 0xA0 DUP4 ADD MSTORE PUSH1 0xC0 DUP3 ADD MSTORE RETURN JUMPDEST CALLVALUE PUSH2 0x16A JUMPI PUSH1 0x40 CALLDATASIZE PUSH1 0x3 NOT ADD SLT PUSH2 0x16A JUMPI PUSH2 0x474 PUSH2 0x233B JUMP JUMPDEST PUSH1 0x24 CALLDATALOAD SWAP1 PUSH8 0xFFFFFFFFFFFFFFFF DUP3 GT PUSH2 0x16A JUMPI CALLDATASIZE PUSH1 0x23 DUP4 ADD SLT ISZERO PUSH2 0x16A JUMPI DUP2 PUSH1 0x4 ADD CALLDATALOAD SWAP1 PUSH8 0xFFFFFFFFFFFFFFFF DUP3 GT PUSH2 0x16A JUMPI CALLDATASIZE PUSH1 0x24 DUP4 DUP6 ADD ADD GT PUSH2 0x16A JUMPI PUSH1 0x1 PUSH1 0x1 PUSH1 0xA0 SHL SUB AND SWAP1 DUP2 ISZERO ISZERO DUP1 PUSH2 0x82D JUMPI JUMPDEST ISZERO PUSH2 0x7F4 JUMPI PUSH1 0xC SLOAD PUSH1 0x3 SLOAD GT PUSH2 0x7AF JUMPI PUSH1 0x1 SLOAD PUSH1 0x40 MLOAD PUSH4 0x23B872DD PUSH1 0xE0 SHL DUP2 MSTORE CALLER PUSH1 0x4 DUP3 ADD MSTORE ADDRESS PUSH1 0x24 DUP3 ADD MSTORE PUSH1 0x44 DUP2 ADD SWAP2 SWAP1 SWAP2 MSTORE PUSH1 0x20 DUP2 PUSH1 0x64 DUP2 PUSH1 0x0 PUSH1 0x1 PUSH1 0x1 PUSH1 0xA0 SHL SUB PUSH32 0x0 AND GAS CALL SWAP1 DUP2 ISZERO PUSH2 0x7A3 JUMPI PUSH1 0x0 SWAP2 PUSH2 0x774 JUMPI JUMPDEST POP ISZERO PUSH2 0x71A JUMPI PUSH1 0xA SLOAD SWAP1 PUSH2 0x550 DUP3 PUSH2 0x2576 JUMP JUMPDEST PUSH1 0xA SSTORE DUP2 PUSH1 0x0 MSTORE PUSH1 0xB PUSH1 0x20 MSTORE PUSH1 0x40 PUSH1 0x0 KECCAK256 SWAP1 DUP3 DUP3 SSTORE PUSH1 0x1 DUP3 ADD PUSH1 0x1 DUP1 PUSH1 0xA0 SHL SUB CALLER AND PUSH12 0xFFFFFFFFFFFFFFFFFFFFFFFF PUSH1 0xA0 SHL DUP3 SLOAD AND OR SWAP1 SSTORE PUSH1 0x2 DUP3 ADD DUP5 PUSH12 0xFFFFFFFFFFFFFFFFFFFFFFFF PUSH1 0xA0 SHL DUP3 SLOAD AND OR SWAP1 SSTORE PUSH1 0x3 DUP3 ADD SWAP1 DUP1 PUSH1 0x0 SWAP7 PUSH2 0x5B6 DUP5 SLOAD PUSH2 0x239F JUMP JUMPDEST PUSH1 0x1F DUP2 GT PUSH2 0x6DF JUMPI JUMPDEST POP DUP8 SWAP1 PUSH1 0x1F DUP4 GT PUSH1 0x1 EQ PUSH2 0x673 JUMPI DUP9 SWAP3 PUSH2 0x665 JUMPI JUMPDEST POP POP DUP2 PUSH1 0x1 SHL SWAP2 PUSH1 0x0 NOT SWAP1 PUSH1 0x3 SHL SHR NOT AND OR SWAP1 SSTORE JUMPDEST PUSH1 0x4 DUP2 ADD PUSH1 0x1 PUSH1 0xFF NOT DUP3 SLOAD AND OR SWAP1 SSTORE PUSH1 0x1 SLOAD PUSH1 0x5 DUP3 ADD SSTORE TIMESTAMP PUSH1 0xB DUP3 ADD SSTORE PUSH1 0xD PUSH2 0x626 PUSH2 0x617 PUSH1 0x4 SLOAD TIMESTAMP PUSH2 0x25C5 JUMP JUMPDEST DUP1 PUSH1 0xC DUP6 ADD SSTORE PUSH1 0x5 SLOAD SWAP1 PUSH2 0x25C5 JUMP JUMPDEST SWAP2 ADD SSTORE PUSH2 0x632 DUP2 PUSH2 0x29AD JUMP JUMPDEST PUSH1 0x1 SLOAD SWAP1 PUSH1 0x40 MLOAD SWAP2 DUP3 MSTORE PUSH32 0x5C5F5F5C62D8082BC010726F98DB2630D9DA2B426A6717BD67BFBD9E8E179638 PUSH1 0x20 CALLER SWAP4 LOG4 DUP1 RETURN JUMPDEST PUSH1 0x24 SWAP3 POP ADD ADD CALLDATALOAD DUP8 DUP1 PUSH2 0x5D4 JUMP JUMPDEST DUP5 DUP10 MSTORE PUSH1 0x20 DUP10 KECCAK256 SWAP3 POP SWAP1 PUSH1 0x1F NOT DUP5 AND DUP10 JUMPDEST DUP2 DUP2 LT PUSH2 0x6C4 JUMPI POP SWAP1 DUP5 PUSH1 0x1 SWAP6 SWAP5 SWAP4 SWAP3 LT PUSH2 0x6A7 JUMPI JUMPDEST POP POP POP DUP2 SHL ADD SWAP1 SSTORE PUSH2 0x5E9 JUMP JUMPDEST ADD PUSH1 0x24 ADD CALLDATALOAD PUSH1 0x0 NOT PUSH1 0x3 DUP5 SWAP1 SHL PUSH1 0xF8 AND SHR NOT AND SWAP1 SSTORE DUP8 DUP1 DUP1 PUSH2 0x69A JUMP JUMPDEST SWAP2 SWAP4 PUSH1 0x20 PUSH1 0x1 DUP2 SWAP3 PUSH1 0x24 DUP9 DUP9 ADD ADD CALLDATALOAD DUP2 SSTORE ADD SWAP6 ADD SWAP3 ADD PUSH2 0x684 JUMP JUMPDEST PUSH2 0x70A SWAP1 DUP6 DUP11 MSTORE PUSH1 0x20 DUP11 KECCAK256 PUSH1 0x1F DUP6 ADD PUSH1 0x5 SHR DUP2 ADD SWAP2 PUSH1 0x20 DUP7 LT PUSH2 0x710 JUMPI JUMPDEST PUSH1 0x1F ADD PUSH1 0x5 SHR ADD SWAP1 PUSH2 0x260D JUMP JUMPDEST DUP9 PUSH2 0x5BF JUMP JUMPDEST SWAP1 SWAP2 POP DUP2 SWAP1 PUSH2 0x6FD JUMP JUMPDEST PUSH1 0x40 MLOAD PUSH3 0x461BCD PUSH1 0xE5 SHL DUP2 MSTORE PUSH1 0x20 PUSH1 0x4 DUP3 ADD MSTORE PUSH1 0x2C PUSH1 0x24 DUP3 ADD MSTORE PUSH32 0x46696C696E6720666565207472616E73666572206661696C65642E2044696420 PUSH1 0x44 DUP3 ADD MSTORE PUSH12 0x796F7520617070726F76653F PUSH1 0xA0 SHL PUSH1 0x64 DUP3 ADD MSTORE PUSH1 0x84 SWAP1 REVERT JUMPDEST PUSH2 0x796 SWAP2 POP PUSH1 0x20 RETURNDATASIZE PUSH1 0x20 GT PUSH2 0x79C JUMPI JUMPDEST PUSH2 0x78E DUP2 DUP4 PUSH2 0x23D9 JUMP JUMPDEST DUP2 ADD SWAP1 PUSH2 0x25D2 JUMP JUMPDEST DUP5 PUSH2 0x53D JUMP JUMPDEST POP RETURNDATASIZE PUSH2 0x784 JUMP JUMPDEST PUSH1 0x40 MLOAD RETURNDATASIZE PUSH1 0x0 DUP3 RETURNDATACOPY RETURNDATASIZE SWAP1 REVERT JUMPDEST PUSH1 0x40 MLOAD PUSH3 0x461BCD PUSH1 0xE5 SHL DUP2 MSTORE PUSH1 0x20 PUSH1 0x4 DUP3 ADD MSTORE PUSH1 0x1B PUSH1 0x24 DUP3 ADD MSTORE PUSH32 0x4E6F7420656E6F75676820617661696C61626C65206A75726F72730000000000 PUSH1 0x44 DUP3 ADD MSTORE PUSH1 0x64 SWAP1 REVERT JUMPDEST PUSH1 0x40 MLOAD PUSH3 0x461BCD PUSH1 0xE5 SHL DUP2 MSTORE PUSH1 0x20 PUSH1 0x4 DUP3 ADD MSTORE PUSH1 0x11 PUSH1 0x24 DUP3 ADD MSTORE PUSH17 0x125B9D985B1A5908191959995B99185B9D PUSH1 0x7A SHL PUSH1 0x44 DUP3 ADD MSTORE PUSH1 0x64 SWAP1 REVERT JUMPDEST POP CALLER DUP3 EQ ISZERO PUSH2 0x4C6 JUMP JUMPDEST CALLVALUE PUSH2 0x16A JUMPI PUSH1 0x0 CALLDATASIZE PUSH1 0x3 NOT ADD SLT PUSH2 0x16A JUMPI PUSH1 0x40 MLOAD PUSH32 0x0 PUSH1 0x1 PUSH1 0x1 PUSH1 0xA0 SHL SUB AND DUP2 MSTORE PUSH1 0x20 SWAP1 RETURN JUMPDEST CALLVALUE PUSH2 0x16A JUMPI PUSH1 0x40 CALLDATASIZE PUSH1 0x3 NOT ADD SLT PUSH2 0x16A JUMPI PUSH1 0x4 CALLDATALOAD DUP1 PUSH1 0x0 MSTORE PUSH1 0xB PUSH1 0x20 MSTORE PUSH1 0x40 PUSH1 0x0 KECCAK256 PUSH1 0xFF PUSH1 0x4 DUP3 ADD SLOAD AND PUSH1 0x6 DUP2 LT ISZERO PUSH2 0x9A2 JUMPI PUSH1 0x1 PUSH2 0x8BB SWAP2 EQ PUSH2 0x24E8 JUMP JUMPDEST PUSH1 0xC DUP2 ADD SLOAD TIMESTAMP GT PUSH2 0x968 JUMPI PUSH1 0x7 SWAP1 PUSH2 0x8DB PUSH2 0x8D6 CALLER DUP4 PUSH2 0x2624 JUMP JUMPDEST PUSH2 0x252A JUMP JUMPDEST CALLER PUSH1 0x0 SWAP1 DUP2 MSTORE SWAP2 ADD PUSH1 0x20 DUP2 SWAP1 MSTORE PUSH1 0x40 SWAP1 SWAP2 KECCAK256 SLOAD PUSH2 0x92F JUMPI CALLER PUSH1 0x0 DUP2 DUP2 MSTORE PUSH1 0x20 SWAP3 SWAP1 SWAP3 MSTORE PUSH1 0x40 DUP3 KECCAK256 PUSH1 0x24 CALLDATALOAD SWAP1 SSTORE SWAP2 SWAP1 PUSH32 0x3834A2C8EA101E1468B529270D35FBFF0A12DE32A5A7E5729B8B4DAD6FB32C01 SWAP1 DUP1 LOG3 STOP JUMPDEST PUSH1 0x40 MLOAD PUSH3 0x461BCD PUSH1 0xE5 SHL DUP2 MSTORE PUSH1 0x20 PUSH1 0x4 DUP3 ADD MSTORE PUSH1 0x11 PUSH1 0x24 DUP3 ADD MSTORE PUSH17 0x105B1C9958591E4818DBDB5B5A5D1D1959 PUSH1 0x7A SHL PUSH1 0x44 DUP3 ADD MSTORE PUSH1 0x64 SWAP1 REVERT JUMPDEST PUSH1 0x40 MLOAD PUSH3 0x461BCD PUSH1 0xE5 SHL DUP2 MSTORE PUSH1 0x20 PUSH1 0x4 DUP3 ADD MSTORE PUSH1 0x12 PUSH1 0x24 DUP3 ADD MSTORE PUSH18 0x10DBDB5B5A5D081C1A185CD948195B991959 PUSH1 0x72 SHL PUSH1 0x44 DUP3 ADD MSTORE PUSH1 0x64 SWAP1 REVERT JUMPDEST PUSH4 0x4E487B71 PUSH1 0xE0 SHL PUSH1 0x0 MSTORE PUSH1 0x21 PUSH1 0x4 MSTORE PUSH1 0x24 PUSH1 0x0 REVERT JUMPDEST CALLVALUE PUSH2 0x16A JUMPI PUSH1 0x0 CALLDATASIZE PUSH1 0x3 NOT ADD SLT PUSH2 0x16A JUMPI PUSH1 0x20 PUSH1 0x5 SLOAD PUSH1 0x40 MLOAD SWAP1 DUP2 MSTORE RETURN JUMPDEST CALLVALUE PUSH2 0x16A JUMPI PUSH1 0x0 CALLDATASIZE PUSH1 0x3 NOT ADD SLT PUSH2 0x16A JUMPI PUSH1 0x20 PUSH1 0x8 SLOAD PUSH1 0x40 MLOAD SWAP1 DUP2 MSTORE RETURN JUMPDEST CALLVALUE PUSH2 0x16A JUMPI PUSH1 0x20 CALLDATASIZE PUSH1 0x3 NOT ADD SLT PUSH2 0x16A JUMPI PUSH1 0x4 CALLDATALOAD PUSH2 0xA10 PUSH2 0x2674 JUMP JUMPDEST DUP1 PUSH1 0x0 MSTORE PUSH1 0xB PUSH1 0x20 MSTORE PUSH1 0x40 PUSH1 0x0 KECCAK256 PUSH1 0x4 DUP2 ADD PUSH1 0xFF DUP2 SLOAD AND PUSH1 0x6 DUP2 LT ISZERO PUSH2 0x9A2 JUMPI PUSH1 0x3 SUB PUSH2 0xD7A JUMPI PUSH1 0x11 DUP3 ADD SLOAD TIMESTAMP GT PUSH2 0xD3C JUMPI PUSH1 0x12 DUP3 ADD SWAP2 PUSH1 0xFF DUP4 SLOAD AND PUSH2 0xCFF JUMPI PUSH1 0xE DUP2 ADD SLOAD PUSH1 0x1 DUP3 ADD SLOAD PUSH1 0x1 PUSH1 0x1 PUSH1 0xA0 SHL SUB SWAP1 DUP2 AND SWAP2 AND DUP2 SUB PUSH2 0xCFA JUMPI POP PUSH1 0x2 DUP2 ADD SLOAD PUSH1 0x1 PUSH1 0x1 PUSH1 0xA0 SHL SUB AND JUMPDEST PUSH1 0x1 PUSH1 0x1 PUSH1 0xA0 SHL SUB AND CALLER SUB PUSH2 0xCB5 JUMPI PUSH2 0xA9D PUSH1 0x5 DUP3 ADD SLOAD PUSH1 0x7 SLOAD SWAP1 PUSH2 0x25B2 JUMP JUMPDEST PUSH1 0x40 MLOAD PUSH4 0x23B872DD PUSH1 0xE0 SHL DUP2 MSTORE CALLER PUSH1 0x4 DUP3 ADD MSTORE ADDRESS PUSH1 0x24 DUP3 ADD MSTORE PUSH1 0x44 DUP2 ADD DUP3 SWAP1 MSTORE SWAP1 SWAP4 SWAP1 PUSH1 0x20 DUP2 PUSH1 0x64 DUP2 PUSH1 0x0 PUSH1 0x1 PUSH1 0x1 PUSH1 0xA0 SHL SUB PUSH32 0x0 AND GAS CALL SWAP1 DUP2 ISZERO PUSH2 0x7A3 JUMPI PUSH1 0x0 SWAP2 PUSH2 0xC96 JUMPI JUMPDEST POP ISZERO PUSH2 0xC51 JUMPI PUSH1 0xF DUP3 ADD DUP1 SLOAD PUSH1 0x1 PUSH1 0x1 PUSH1 0xA0 SHL SUB NOT AND CALLER OR SWAP1 SSTORE PUSH1 0x10 DUP3 ADD DUP5 SWAP1 SSTORE DUP1 SLOAD PUSH1 0xFF NOT SWAP1 DUP2 AND PUSH1 0x1 OR SWAP1 SWAP2 SSTORE DUP3 SLOAD AND PUSH1 0x4 OR DUP3 SSTORE PUSH1 0x9 DUP1 SLOAD PUSH1 0x13 DUP4 ADD SSTORE PUSH1 0x0 SWAP1 DUP3 ADD DUP2 SWAP1 SSTORE PUSH1 0xA DUP3 ADD DUP2 SWAP1 SSTORE PUSH1 0x6 DUP3 ADD SWAP5 SWAP2 SWAP4 PUSH1 0x7 DUP6 ADD SWAP4 PUSH1 0x8 DUP7 ADD SWAP4 SWAP2 SWAP3 JUMPDEST DUP8 SLOAD DUP2 LT ISZERO PUSH2 0xBC9 JUMPI DUP1 PUSH2 0xB7C PUSH1 0x1 SWAP3 DUP11 PUSH2 0x24D0 JUMP JUMPDEST SWAP1 SLOAD PUSH1 0x3 SWAP2 SWAP1 SWAP2 SHL SHR PUSH1 0xA0 DUP4 SWAP1 SHL DUP4 SWAP1 SUB AND PUSH1 0x0 SWAP1 DUP2 MSTORE PUSH1 0x20 DUP9 DUP2 MSTORE PUSH1 0x40 DUP1 DUP4 KECCAK256 DUP4 SWAP1 SSTORE DUP9 DUP3 MSTORE DUP1 DUP4 KECCAK256 DUP1 SLOAD PUSH1 0xFF NOT SWAP1 DUP2 AND SWAP1 SWAP2 SSTORE PUSH1 0xE SWAP1 SWAP3 MSTORE SWAP1 SWAP2 KECCAK256 PUSH1 0x2 ADD DUP1 SLOAD SWAP1 SWAP2 AND SWAP1 SSTORE ADD PUSH2 0xB66 JUMP JUMPDEST POP DUP6 DUP8 DUP1 SLOAD PUSH1 0x0 DUP3 SSTORE DUP1 PUSH2 0xC35 JUMPI JUMPDEST POP POP PUSH2 0xBE3 DUP4 PUSH2 0x26FE JUMP JUMPDEST PUSH1 0xD PUSH2 0xBF4 PUSH2 0x617 PUSH1 0x4 SLOAD TIMESTAMP PUSH2 0x25C5 JUMP JUMPDEST SWAP2 ADD SSTORE PUSH1 0x1 PUSH1 0xFF NOT DUP3 SLOAD AND OR SWAP1 SSTORE PUSH1 0x40 MLOAD SWAP2 DUP3 MSTORE PUSH32 0x7055524DC69306FE397256B9B4EF9FE5A3B01235FDB799638B61E323B9E2C3BC PUSH1 0x20 CALLER SWAP4 LOG3 PUSH1 0x1 PUSH1 0x0 SSTORE STOP JUMPDEST PUSH2 0xC4A SWAP2 PUSH1 0x0 MSTORE PUSH1 0x20 PUSH1 0x0 KECCAK256 SWAP1 DUP2 ADD SWAP1 PUSH2 0x260D JUMP JUMPDEST DUP5 DUP1 PUSH2 0xBD8 JUMP JUMPDEST PUSH1 0x40 MLOAD PUSH3 0x461BCD PUSH1 0xE5 SHL DUP2 MSTORE PUSH1 0x20 PUSH1 0x4 DUP3 ADD MSTORE PUSH1 0x1E PUSH1 0x24 DUP3 ADD MSTORE PUSH32 0x41707065616C206465706F736974207472616E73666572206661696C65640000 PUSH1 0x44 DUP3 ADD MSTORE PUSH1 0x64 SWAP1 REVERT JUMPDEST PUSH2 0xCAF SWAP2 POP PUSH1 0x20 RETURNDATASIZE PUSH1 0x20 GT PUSH2 0x79C JUMPI PUSH2 0x78E DUP2 DUP4 PUSH2 0x23D9 JUMP JUMPDEST DUP7 PUSH2 0xB03 JUMP JUMPDEST PUSH1 0x40 MLOAD PUSH3 0x461BCD PUSH1 0xE5 SHL DUP2 MSTORE PUSH1 0x20 PUSH1 0x4 DUP3 ADD MSTORE PUSH1 0x1C PUSH1 0x24 DUP3 ADD MSTORE PUSH32 0x4F6E6C79206C6F73696E672070617274792063616E2061707065616C00000000 PUSH1 0x44 DUP3 ADD MSTORE PUSH1 0x64 SWAP1 REVERT JUMPDEST PUSH2 0xA7D JUMP JUMPDEST PUSH1 0x40 MLOAD PUSH3 0x461BCD PUSH1 0xE5 SHL DUP2 MSTORE PUSH1 0x20 PUSH1 0x4 DUP3 ADD MSTORE PUSH1 0x15 PUSH1 0x24 DUP3 ADD MSTORE PUSH21 0x10D85CD948185B1C9958591E48185C1C19585B1959 PUSH1 0x5A SHL PUSH1 0x44 DUP3 ADD MSTORE PUSH1 0x64 SWAP1 REVERT JUMPDEST PUSH1 0x40 MLOAD PUSH3 0x461BCD PUSH1 0xE5 SHL DUP2 MSTORE PUSH1 0x20 PUSH1 0x4 DUP3 ADD MSTORE PUSH1 0x16 PUSH1 0x24 DUP3 ADD MSTORE PUSH22 0x105C1C19585B08191958591B1A5B99481C185CDCD959 PUSH1 0x52 SHL PUSH1 0x44 DUP3 ADD MSTORE PUSH1 0x64 SWAP1 REVERT JUMPDEST PUSH1 0x40 MLOAD PUSH3 0x461BCD PUSH1 0xE5 SHL DUP2 MSTORE PUSH1 0x20 PUSH1 0x4 DUP3 ADD MSTORE PUSH1 0x15 PUSH1 0x24 DUP3 ADD MSTORE PUSH21 0x10D85CD9481B9BDD081C995CDBDB1D9959081E595D PUSH1 0x5A SHL PUSH1 0x44 DUP3 ADD MSTORE PUSH1 0x64 SWAP1 REVERT JUMPDEST CALLVALUE PUSH2 0x16A JUMPI PUSH1 0x0 CALLDATASIZE PUSH1 0x3 NOT ADD SLT PUSH2 0x16A JUMPI CALLER PUSH1 0x0 MSTORE PUSH1 0xE PUSH1 0x20 MSTORE PUSH1 0xFF PUSH1 0x40 PUSH1 0x0 KECCAK256 SLOAD AND PUSH2 0x1035 JUMPI PUSH1 0x2 SLOAD PUSH1 0x40 MLOAD PUSH4 0x23B872DD PUSH1 0xE0 SHL DUP2 MSTORE CALLER PUSH1 0x4 DUP3 ADD MSTORE ADDRESS PUSH1 0x24 DUP3 ADD MSTORE PUSH1 0x44 DUP2 ADD SWAP2 SWAP1 SWAP2 MSTORE PUSH1 0x20 DUP2 PUSH1 0x64 DUP2 PUSH1 0x0 PUSH1 0x1 PUSH1 0x1 PUSH1 0xA0 SHL SUB PUSH32 0x0 AND GAS CALL SWAP1 DUP2 ISZERO PUSH2 0x7A3 JUMPI PUSH1 0x0 SWAP2 PUSH2 0x1016 JUMPI JUMPDEST POP ISZERO PUSH2 0xFC1 JUMPI PUSH1 0x2 SLOAD PUSH1 0x40 MLOAD SWAP1 PUSH1 0xE0 DUP3 ADD SWAP1 DUP3 DUP3 LT PUSH8 0xFFFFFFFFFFFFFFFF DUP4 GT OR PUSH2 0xFAB JUMPI PUSH1 0x6 SWAP2 PUSH1 0x40 MSTORE PUSH1 0x1 DUP4 MSTORE PUSH1 0x20 DUP4 ADD SWAP1 DUP2 MSTORE PUSH1 0x40 DUP4 ADD PUSH1 0x0 DUP2 MSTORE PUSH1 0x60 DUP5 ADD PUSH1 0x0 DUP2 MSTORE PUSH1 0x80 DUP6 ADD SWAP1 PUSH1 0x0 DUP3 MSTORE PUSH2 0xEEE PUSH1 0xA0 DUP8 ADD SWAP4 PUSH1 0x32 DUP6 MSTORE PUSH1 0xC0 DUP9 ADD SWAP6 PUSH1 0x0 DUP8 MSTORE CALLER PUSH1 0x0 MSTORE PUSH1 0xE PUSH1 0x20 MSTORE PUSH2 0xED0 PUSH1 0x40 PUSH1 0x0 KECCAK256 SWAP10 MLOAD ISZERO ISZERO DUP11 SWAP1 PUSH1 0xFF DUP1 NOT DUP4 SLOAD AND SWAP2 ISZERO ISZERO AND OR SWAP1 SSTORE JUMP JUMPDEST MLOAD PUSH1 0x1 DUP10 ADD SSTORE MLOAD ISZERO ISZERO PUSH1 0x2 DUP9 ADD SWAP1 PUSH1 0xFF DUP1 NOT DUP4 SLOAD AND SWAP2 ISZERO ISZERO AND OR SWAP1 SSTORE JUMP JUMPDEST MLOAD PUSH1 0x3 DUP7 ADD SSTORE MLOAD PUSH1 0x4 DUP6 ADD SSTORE MLOAD PUSH1 0x5 DUP5 ADD SSTORE MLOAD SWAP2 ADD SSTORE PUSH1 0xC SLOAD PUSH1 0x1 PUSH1 0x40 SHL DUP2 LT ISZERO PUSH2 0xFAB JUMPI PUSH2 0xF28 DUP2 PUSH1 0x1 PUSH2 0xF46 SWAP4 ADD PUSH1 0xC SSTORE PUSH1 0xC PUSH2 0x24D0 JUMP JUMPDEST DUP2 SLOAD PUSH1 0x1 PUSH1 0x1 PUSH1 0xA0 SHL SUB PUSH1 0x3 SWAP3 SWAP1 SWAP3 SHL SWAP2 DUP3 SHL NOT AND CALLER SWAP1 SWAP2 SHL OR SWAP1 SSTORE JUMP JUMPDEST PUSH1 0xC SLOAD PUSH1 0x0 NOT DUP2 ADD SWAP1 DUP2 GT PUSH2 0xF95 JUMPI CALLER PUSH1 0x0 MSTORE PUSH1 0xD PUSH1 0x20 MSTORE PUSH1 0x40 PUSH1 0x0 KECCAK256 SSTORE PUSH1 0x2 SLOAD PUSH1 0x40 MLOAD SWAP1 DUP2 MSTORE PUSH32 0x302E82B0B7908CFAC0232EEB6A83332CBF587D0CB58EAA7BA72F884C149910FA PUSH1 0x20 CALLER SWAP3 LOG2 STOP JUMPDEST PUSH4 0x4E487B71 PUSH1 0xE0 SHL PUSH1 0x0 MSTORE PUSH1 0x11 PUSH1 0x4 MSTORE PUSH1 0x24 PUSH1 0x0 REVERT JUMPDEST PUSH4 0x4E487B71 PUSH1 0xE0 SHL PUSH1 0x0 MSTORE PUSH1 0x41 PUSH1 0x4 MSTORE PUSH1 0x24 PUSH1 0x0 REVERT JUMPDEST PUSH1 0x40 MLOAD PUSH3 0x461BCD PUSH1 0xE5 SHL DUP2 MSTORE PUSH1 0x20 PUSH1 0x4 DUP3 ADD MSTORE PUSH1 0x27 PUSH1 0x24 DUP3 ADD MSTORE PUSH32 0x546F6B656E207472616E73666572206661696C65642E2044696420796F752061 PUSH1 0x44 DUP3 ADD MSTORE PUSH7 0x7070726F76653F PUSH1 0xC8 SHL PUSH1 0x64 DUP3 ADD MSTORE PUSH1 0x84 SWAP1 REVERT JUMPDEST PUSH2 0x102F SWAP2 POP PUSH1 0x20 RETURNDATASIZE PUSH1 0x20 GT PUSH2 0x79C JUMPI PUSH2 0x78E DUP2 DUP4 PUSH2 0x23D9 JUMP JUMPDEST DUP2 PUSH2 0xE45 JUMP JUMPDEST PUSH1 0x40 MLOAD PUSH3 0x461BCD PUSH1 0xE5 SHL DUP2 MSTORE PUSH1 0x20 PUSH1 0x4 DUP3 ADD MSTORE PUSH1 0x12 PUSH1 0x24 DUP3 ADD MSTORE PUSH18 0x105B1C9958591E481C9959DA5CDD195C9959 PUSH1 0x72 SHL PUSH1 0x44 DUP3 ADD MSTORE PUSH1 0x64 SWAP1 REVERT JUMPDEST CALLVALUE PUSH2 0x16A JUMPI PUSH1 0x20 CALLDATASIZE PUSH1 0x3 NOT ADD SLT PUSH2 0x16A JUMPI PUSH1 0x4 CALLDATALOAD PUSH1 0x0 MSTORE PUSH1 0xB PUSH1 0x20 MSTORE PUSH1 0x6 PUSH1 0x40 PUSH1 0x0 KECCAK256 ADD PUSH1 0x40 MLOAD DUP1 PUSH1 0x20 DUP4 SLOAD SWAP2 DUP3 DUP2 MSTORE ADD SWAP1 DUP2 SWAP4 PUSH1 0x0 MSTORE PUSH1 0x20 PUSH1 0x0 KECCAK256 SWAP1 PUSH1 0x0 JUMPDEST DUP2 DUP2 LT PUSH2 0x1111 JUMPI POP POP POP DUP2 PUSH2 0x10C5 SWAP2 SUB DUP3 PUSH2 0x23D9 JUMP JUMPDEST PUSH1 0x40 MLOAD SWAP2 DUP3 SWAP2 PUSH1 0x20 DUP4 ADD SWAP1 PUSH1 0x20 DUP5 MSTORE MLOAD DUP1 SWAP2 MSTORE PUSH1 0x40 DUP4 ADD SWAP2 SWAP1 PUSH1 0x0 JUMPDEST DUP2 DUP2 LT PUSH2 0x10EF JUMPI POP POP POP SUB SWAP1 RETURN JUMPDEST DUP3 MLOAD PUSH1 0x1 PUSH1 0x1 PUSH1 0xA0 SHL SUB AND DUP5 MSTORE DUP6 SWAP5 POP PUSH1 0x20 SWAP4 DUP5 ADD SWAP4 SWAP1 SWAP3 ADD SWAP2 PUSH1 0x1 ADD PUSH2 0x10E1 JUMP JUMPDEST DUP3 SLOAD PUSH1 0x1 PUSH1 0x1 PUSH1 0xA0 SHL SUB AND DUP5 MSTORE PUSH1 0x20 SWAP1 SWAP4 ADD SWAP3 PUSH1 0x1 SWAP3 DUP4 ADD SWAP3 ADD PUSH2 0x10AF JUMP JUMPDEST CALLVALUE PUSH2 0x16A JUMPI PUSH1 0x0 CALLDATASIZE PUSH1 0x3 NOT ADD SLT PUSH2 0x16A JUMPI PUSH1 0x20 PUSH1 0x4 SLOAD PUSH1 0x40 MLOAD SWAP1 DUP2 MSTORE RETURN JUMPDEST CALLVALUE PUSH2 0x16A JUMPI PUSH1 0x0 CALLDATASIZE PUSH1 0x3 NOT ADD SLT PUSH2 0x16A JUMPI PUSH1 0x20 PUSH1 0xA SLOAD PUSH1 0x40 MLOAD SWAP1 DUP2 MSTORE RETURN JUMPDEST CALLVALUE PUSH2 0x16A JUMPI PUSH1 0x0 CALLDATASIZE PUSH1 0x3 NOT ADD SLT PUSH2 0x16A JUMPI PUSH1 0x20 PUSH1 0x3 SLOAD PUSH1 0x40 MLOAD SWAP1 DUP2 MSTORE RETURN JUMPDEST CALLVALUE PUSH2 0x16A JUMPI PUSH1 0x20 CALLDATASIZE PUSH1 0x3 NOT ADD SLT PUSH2 0x16A JUMPI PUSH2 0x11A3 PUSH2 0x233B JUMP JUMPDEST PUSH1 0x1 PUSH1 0x1 PUSH1 0xA0 SHL SUB AND PUSH1 0x0 SWAP1 DUP2 MSTORE PUSH1 0xE PUSH1 0x20 MSTORE PUSH1 0x40 SWAP1 KECCAK256 DUP1 SLOAD PUSH1 0xFF AND ISZERO PUSH2 0x1227 JUMPI PUSH1 0x3 DUP2 ADD SLOAD PUSH1 0x4 DUP3 ADD SLOAD PUSH1 0x5 DUP4 ADD SLOAD PUSH1 0x6 SWAP1 SWAP4 ADD SLOAD DUP2 ISZERO PUSH2 0x121C JUMPI PUSH1 0x64 DUP4 MUL SWAP4 DUP4 DUP6 DIV PUSH1 0x64 EQ DUP5 ISZERO OR ISZERO PUSH2 0xF95 JUMPI PUSH2 0x11FE DUP4 PUSH1 0xA0 SWAP7 PUSH2 0x2585 JUMP JUMPDEST SWAP3 JUMPDEST PUSH1 0x40 MLOAD SWAP5 DUP6 MSTORE PUSH1 0x20 DUP6 ADD MSTORE PUSH1 0x40 DUP5 ADD MSTORE PUSH1 0x60 DUP4 ADD MSTORE PUSH1 0x80 DUP3 ADD MSTORE RETURN JUMPDEST PUSH1 0xA0 SWAP4 PUSH1 0x0 SWAP3 PUSH2 0x1200 JUMP JUMPDEST PUSH1 0x40 MLOAD PUSH3 0x461BCD PUSH1 0xE5 SHL DUP2 MSTORE PUSH1 0x20 PUSH1 0x4 DUP3 ADD MSTORE PUSH1 0x14 PUSH1 0x24 DUP3 ADD MSTORE PUSH20 0x129D5C9BDC881B9BDD081C9959DA5CDD195C9959 PUSH1 0x62 SHL PUSH1 0x44 DUP3 ADD MSTORE PUSH1 0x64 SWAP1 REVERT JUMPDEST CALLVALUE PUSH2 0x16A JUMPI PUSH1 0x0 CALLDATASIZE PUSH1 0x3 NOT ADD SLT PUSH2 0x16A JUMPI CALLER PUSH1 0x0 MSTORE PUSH1 0xE PUSH1 0x20 MSTORE PUSH1 0x40 PUSH1 0x0 KECCAK256 PUSH1 0xFF DUP2 SLOAD AND ISZERO PUSH2 0x14EF JUMPI PUSH1 0xFF PUSH1 0x2 DUP3 ADD SLOAD AND PUSH2 0x1498 JUMPI PUSH1 0x1 ADD SLOAD CALLER PUSH1 0x0 MSTORE PUSH1 0xD PUSH1 0x20 MSTORE PUSH1 0x40 PUSH1 0x0 KECCAK256 SLOAD PUSH1 0xC SLOAD PUSH1 0x0 NOT DUP2 ADD SWAP1 DUP2 GT PUSH2 0xF95 JUMPI PUSH2 0x12C3 SWAP1 PUSH2 0x249F JUMP JUMPDEST SWAP1 SLOAD PUSH1 0x3 SWAP2 SWAP1 SWAP2 SHL SHR PUSH1 0x1 PUSH1 0x1 PUSH1 0xA0 SHL SUB AND PUSH2 0x1306 DUP2 PUSH2 0x12E2 DUP5 PUSH2 0x249F JUMP JUMPDEST DUP2 SLOAD PUSH1 0x1 PUSH1 0x1 PUSH1 0xA0 SHL SUB SWAP4 DUP5 AND PUSH1 0x3 SWAP3 SWAP1 SWAP3 SHL SWAP2 DUP3 SHL SWAP4 SWAP1 SWAP2 SHL NOT AND SWAP2 SWAP1 SWAP2 OR SWAP1 SSTORE JUMP JUMPDEST PUSH1 0x0 MSTORE PUSH1 0xD PUSH1 0x20 MSTORE PUSH1 0x40 PUSH1 0x0 KECCAK256 SSTORE PUSH1 0xC SLOAD DUP1 ISZERO PUSH2 0x1482 JUMPI PUSH2 0x13B9 SWAP2 PUSH1 0x20 SWAP2 PUSH1 0x0 NOT ADD PUSH2 0x1331 DUP2 PUSH2 0x249F JUMP JUMPDEST DUP2 SLOAD SWAP1 PUSH1 0x1 DUP1 PUSH1 0xA0 SHL SUB SWAP1 PUSH1 0x3 SHL SHL NOT AND SWAP1 SSTORE PUSH1 0xC SSTORE CALLER PUSH1 0x0 MSTORE PUSH1 0xE DUP3 MSTORE PUSH1 0x0 PUSH1 0x6 PUSH1 0x40 DUP3 KECCAK256 DUP3 DUP2 SSTORE DUP3 PUSH1 0x1 DUP3 ADD SSTORE DUP3 PUSH1 0x2 DUP3 ADD SSTORE DUP3 PUSH1 0x3 DUP3 ADD SSTORE DUP3 PUSH1 0x4 DUP3 ADD SSTORE DUP3 PUSH1 0x5 DUP3 ADD SSTORE ADD SSTORE CALLER PUSH1 0x0 MSTORE PUSH1 0xD DUP3 MSTORE PUSH1 0x0 PUSH1 0x40 DUP2 KECCAK256 SSTORE PUSH1 0x40 MLOAD DUP1 SWAP4 DUP2 SWAP3 PUSH4 0xA9059CBB PUSH1 0xE0 SHL DUP4 MSTORE CALLER PUSH1 0x4 DUP5 ADD PUSH1 0x20 SWAP1 SWAP4 SWAP3 SWAP2 SWAP4 PUSH1 0x40 DUP2 ADD SWAP5 PUSH1 0x1 DUP1 PUSH1 0xA0 SHL SUB AND DUP2 MSTORE ADD MSTORE JUMP JUMPDEST SUB DUP2 PUSH1 0x0 PUSH32 0x0 PUSH1 0x1 PUSH1 0x1 PUSH1 0xA0 SHL SUB AND GAS CALL SWAP1 DUP2 ISZERO PUSH2 0x7A3 JUMPI PUSH1 0x0 SWAP2 PUSH2 0x1463 JUMPI JUMPDEST POP ISZERO PUSH2 0x1426 JUMPI CALLER PUSH32 0xF67E7162188CB7E3F756D0F6D7C86D1B7CC88B891AE19DD58118705A7859034B PUSH1 0x0 DUP1 LOG2 STOP JUMPDEST PUSH1 0x40 MLOAD PUSH3 0x461BCD PUSH1 0xE5 SHL DUP2 MSTORE PUSH1 0x20 PUSH1 0x4 DUP3 ADD MSTORE PUSH1 0x15 PUSH1 0x24 DUP3 ADD MSTORE PUSH21 0x151BDAD95B881D1C985B9CD9995C8819985A5B1959 PUSH1 0x5A SHL PUSH1 0x44 DUP3 ADD MSTORE PUSH1 0x64 SWAP1 REVERT JUMPDEST PUSH2 0x147C SWAP2 POP PUSH1 0x20 RETURNDATASIZE PUSH1 0x20 GT PUSH2 0x79C JUMPI PUSH2 0x78E DUP2 DUP4 PUSH2 0x23D9 JUMP JUMPDEST DUP2 PUSH2 0x13F8 JUMP JUMPDEST PUSH4 0x4E487B71 PUSH1 0xE0 SHL PUSH1 0x0 MSTORE PUSH1 0x31 PUSH1 0x4 MSTORE PUSH1 0x24 PUSH1 0x0 REVERT JUMPDEST PUSH1 0x40 MLOAD PUSH3 0x461BCD PUSH1 0xE5 SHL DUP2 MSTORE PUSH1 0x20 PUSH1 0x4 DUP3 ADD MSTORE PUSH1 0x29 PUSH1 0x24 DUP3 ADD MSTORE PUSH32 0x43616E6E6F7420756E7265676973746572207768696C652073657276696E6720 PUSH1 0x44 DUP3 ADD MSTORE PUSH9 0x6F6E20612063617365 PUSH1 0xB8 SHL PUSH1 0x64 DUP3 ADD MSTORE PUSH1 0x84 SWAP1 REVERT JUMPDEST PUSH1 0x40 MLOAD PUSH3 0x461BCD PUSH1 0xE5 SHL DUP2 MSTORE PUSH1 0x20 PUSH1 0x4 DUP3 ADD MSTORE PUSH1 0x16 PUSH1 0x24 DUP3 ADD MSTORE PUSH22 0x2737BA1030903932B3B4B9BA32B932B210353AB937B9 PUSH1 0x51 SHL PUSH1 0x44 DUP3 ADD MSTORE PUSH1 0x64 SWAP1 REVERT JUMPDEST CALLVALUE PUSH2 0x16A JUMPI PUSH1 0x0 CALLDATASIZE PUSH1 0x3 NOT ADD SLT PUSH2 0x16A JUMPI PUSH1 0x20 PUSH1 0x7 SLOAD PUSH1 0x40 MLOAD SWAP1 DUP2 MSTORE RETURN JUMPDEST CALLVALUE PUSH2 0x16A JUMPI PUSH1 0x0 CALLDATASIZE PUSH1 0x3 NOT ADD SLT PUSH2 0x16A JUMPI PUSH1 0x20 PUSH1 0x1 SLOAD PUSH1 0x40 MLOAD SWAP1 DUP2 MSTORE RETURN JUMPDEST CALLVALUE PUSH2 0x16A JUMPI PUSH1 0x20 CALLDATASIZE PUSH1 0x3 NOT ADD SLT PUSH2 0x16A JUMPI PUSH2 0x1582 PUSH2 0x2674 JUMP JUMPDEST PUSH1 0x4 CALLDATALOAD PUSH1 0x0 MSTORE PUSH1 0xB PUSH1 0x20 MSTORE PUSH1 0x40 PUSH1 0x0 KECCAK256 PUSH1 0xFF PUSH1 0x4 DUP3 ADD SLOAD AND PUSH1 0x6 DUP2 LT ISZERO PUSH2 0x9A2 JUMPI PUSH1 0x1 SUB PUSH2 0x2015 JUMPI PUSH1 0xD DUP2 ADD SLOAD TIMESTAMP GT ISZERO PUSH2 0x1FD0 JUMPI PUSH1 0x4 DUP2 ADD DUP1 SLOAD PUSH1 0xFF NOT AND PUSH1 0x2 OR SWAP1 SSTORE PUSH1 0x9 DUP2 ADD SLOAD PUSH1 0xA DUP3 ADD SLOAD LT ISZERO PUSH2 0x1FBD JUMPI PUSH1 0x1 DUP2 ADD SLOAD PUSH1 0x1 PUSH1 0x1 PUSH1 0xA0 SHL SUB AND JUMPDEST PUSH1 0xE DUP3 ADD DUP1 SLOAD PUSH1 0x1 PUSH1 0x1 PUSH1 0xA0 SHL SUB NOT AND PUSH1 0x1 PUSH1 0x1 PUSH1 0xA0 SHL SUB DUP4 DUP2 AND SWAP2 DUP3 OR SWAP1 SWAP3 SSTORE PUSH1 0x1 DUP5 ADD SLOAD SWAP1 SWAP2 AND SUB PUSH2 0x1FB5 JUMPI PUSH1 0x1 SWAP2 JUMPDEST PUSH1 0x0 SWAP3 DUP4 SWAP1 DUP2 JUMPDEST PUSH1 0x6 DUP5 ADD SLOAD DUP4 LT ISZERO PUSH2 0x19D0 JUMPI PUSH2 0x1636 DUP4 PUSH1 0x6 DUP7 ADD PUSH2 0x24D0 JUMP JUMPDEST PUSH1 0x1 DUP1 PUSH1 0xA0 SHL SUB SWAP2 SLOAD SWAP1 PUSH1 0x3 SHL SHR AND SWAP3 PUSH1 0xFF PUSH1 0x40 PUSH1 0x0 PUSH1 0x1 DUP1 PUSH1 0xA0 SHL SUB DUP8 AND DUP2 MSTORE PUSH1 0x8 DUP9 ADD PUSH1 0x20 MSTORE KECCAK256 SLOAD AND SWAP2 DUP5 PUSH1 0x0 MSTORE PUSH1 0xE PUSH1 0x20 MSTORE PUSH1 0x40 PUSH1 0x0 KECCAK256 SWAP3 PUSH2 0x167E PUSH1 0x4 DUP6 ADD SLOAD PUSH2 0x2576 JUMP JUMPDEST SWAP1 DUP2 PUSH1 0x4 DUP7 ADD SSTORE PUSH1 0x3 DUP7 LT ISZERO PUSH2 0x9A2 JUMPI PUSH1 0x3 DUP2 LT ISZERO SWAP2 DUP3 PUSH2 0x9A2 JUMPI DUP7 DUP3 EQ DUP1 PUSH2 0x19C3 JUMPI JUMPDEST ISZERO PUSH2 0x1784 JUMPI POP POP POP PUSH2 0x16B3 SWAP1 PUSH2 0x2576 JUMP JUMPDEST SWAP4 PUSH1 0x3 DUP4 ADD PUSH2 0x16C2 DUP2 SLOAD PUSH2 0x2576 JUMP JUMPDEST DUP1 SWAP2 SSTORE PUSH1 0x0 PUSH1 0x6 DUP6 ADD SSTORE PUSH1 0x5 DUP5 ADD SWAP4 DUP5 SLOAD PUSH1 0x64 DUP2 LT PUSH2 0x172E JUMPI JUMPDEST POP SWAP4 SLOAD PUSH1 0x4 SWAP1 SWAP5 ADD SLOAD PUSH1 0x40 DUP1 MLOAD SWAP6 DUP7 MSTORE PUSH1 0x20 DUP7 ADD SWAP3 SWAP1 SWAP3 MSTORE SWAP1 DUP5 ADD MSTORE PUSH1 0x1 SWAP3 PUSH32 0xF258AC71CA04F4B808E0C4F36355A6BBCD15AF6C6CF087BA2655D6B05C81D2D9 SWAP1 DUP1 PUSH1 0x60 DUP2 ADD JUMPDEST SUB SWAP1 LOG2 JUMPDEST ADD SWAP2 PUSH2 0x161D JUMP JUMPDEST SWAP2 SWAP1 PUSH1 0x2 DUP4 ADD DUP1 SWAP4 GT PUSH2 0xF95 JUMPI PUSH2 0x1723 PUSH1 0x4 DUP8 PUSH1 0x64 DUP7 PUSH32 0xF258AC71CA04F4B808E0C4F36355A6BBCD15AF6C6CF087BA2655D6B05C81D2D9 SWAP8 PUSH1 0x1 SWAP12 SSTORE GT PUSH2 0x177B JUMPI JUMPDEST SWAP8 POP POP POP SWAP1 SWAP2 PUSH2 0x16DC JUMP JUMPDEST PUSH1 0x64 DUP2 SSTORE PUSH2 0x1770 JUMP JUMPDEST SWAP2 SWAP10 PUSH1 0x6 DUP7 SWAP3 SWAP7 SWAP9 SWAP5 SWAP9 ADD PUSH2 0x1799 DUP2 SLOAD PUSH2 0x2576 JUMP JUMPDEST DUP1 SWAP2 SSTORE PUSH1 0x3 PUSH1 0x6 SLOAD SWAP5 GT ISZERO PUSH2 0x19B9 JUMPI JUMPDEST PUSH1 0x1 DUP2 GT PUSH2 0x1975 JUMPI JUMPDEST POP PUSH1 0x5 DUP3 ADD SLOAD SWAP11 PUSH1 0x46 DUP13 GT PUSH2 0x1957 JUMPI JUMPDEST PUSH1 0x1 DUP4 ADD SWAP2 DUP3 SLOAD SWAP3 PUSH1 0x64 PUSH2 0x17D6 DUP8 DUP7 PUSH2 0x25B2 JUMP JUMPDEST DIV SWAP4 PUSH1 0xA PUSH1 0x2 SLOAD DIV DUP1 PUSH2 0x17E9 DUP8 DUP5 PUSH2 0x25A5 JUMP JUMPDEST LT PUSH2 0x1937 JUMPI JUMPDEST POP PUSH1 0x5 SWAP3 PUSH2 0x1809 SWAP3 PUSH2 0x1802 DUP8 DUP1 SWAP5 PUSH2 0x25A5 JUMP JUMPDEST SWAP1 SSTORE PUSH2 0x25C5 JUMP JUMPDEST SWAP13 GT ISZERO PUSH2 0x192B JUMPI PUSH1 0x5 DUP4 ADD SLOAD PUSH1 0x4 NOT DUP2 ADD SWAP1 DUP2 GT PUSH2 0xF95 JUMPI PUSH1 0x5 DUP5 ADD SSTORE JUMPDEST PUSH2 0x9A2 JUMPI PUSH32 0x43B8287040B746ADDD91738208FE6A278FD8DC7325E4979C30BF3C8D0409D717 PUSH32 0xF258AC71CA04F4B808E0C4F36355A6BBCD15AF6C6CF087BA2655D6B05C81D2D9 SWAP4 DUP6 SWAP3 PUSH1 0x1 SWAP9 PUSH1 0x0 SWAP1 ISZERO PUSH1 0x0 EQ PUSH2 0x18FD JUMPI POP PUSH2 0x18C3 PUSH1 0x40 MLOAD PUSH2 0x1890 PUSH1 0x40 DUP3 PUSH2 0x23D9 JUMP JUMPDEST PUSH1 0x7 DUP2 MSTORE PUSH7 0x4E6F20766F7465 PUSH1 0xC8 SHL PUSH1 0x20 DUP3 ADD MSTORE JUMPDEST PUSH1 0x40 MLOAD SWAP4 DUP5 SWAP4 DUP5 MSTORE PUSH1 0x20 DUP5 ADD MSTORE PUSH1 0x60 PUSH1 0x40 DUP5 ADD MSTORE PUSH1 0x60 DUP4 ADD SWAP1 PUSH2 0x2351 JUMP JUMPDEST SUB SWAP1 LOG2 PUSH1 0x5 DUP2 ADD SLOAD PUSH2 0x18F5 PUSH1 0x4 PUSH1 0x3 DUP5 ADD SLOAD SWAP4 ADD SLOAD PUSH1 0x40 MLOAD SWAP4 DUP5 SWAP4 DUP5 PUSH1 0x40 SWAP2 SWAP5 SWAP4 SWAP3 PUSH1 0x60 DUP3 ADD SWAP6 DUP3 MSTORE PUSH1 0x20 DUP3 ADD MSTORE ADD MSTORE JUMP JUMPDEST SUB SWAP1 LOG2 PUSH2 0x1727 JUMP JUMPDEST POP PUSH2 0x18C3 PUSH1 0x40 MLOAD PUSH2 0x190F PUSH1 0x40 DUP3 PUSH2 0x23D9 JUMP JUMPDEST PUSH1 0xA DUP2 MSTORE PUSH10 0x57726F6E6720766F7465 PUSH1 0xB0 SHL PUSH1 0x20 DUP3 ADD MSTORE PUSH2 0x18A5 JUMP JUMPDEST PUSH1 0x0 PUSH1 0x5 DUP5 ADD SSTORE PUSH2 0x1827 JUMP JUMPDEST PUSH2 0x1802 SWAP6 POP SWAP3 PUSH2 0x1809 SWAP3 PUSH2 0x194D PUSH1 0x5 SWAP6 DUP5 PUSH2 0x25A5 JUMP JUMPDEST SWAP7 POP SWAP3 POP SWAP3 PUSH2 0x17EF JUMP JUMPDEST SWAP3 PUSH1 0x50 DUP2 MUL SWAP1 DUP1 DUP3 DIV PUSH1 0x50 EQ SWAP1 ISZERO OR ISZERO PUSH2 0xF95 JUMPI PUSH1 0x64 SWAP1 DIV SWAP3 PUSH2 0x17C2 JUMP JUMPDEST SWAP1 SWAP3 SWAP1 PUSH1 0x0 NOT DUP2 ADD SWAP1 DUP2 GT PUSH2 0xF95 JUMPI PUSH1 0xA DUP2 MUL SWAP1 DUP1 DUP3 DIV PUSH1 0xA EQ SWAP1 ISZERO OR ISZERO PUSH2 0xF95 JUMPI PUSH2 0x19A0 SWAP2 PUSH2 0x25C5 JUMP JUMPDEST SWAP2 PUSH1 0x50 DUP4 GT PUSH2 0x19B0 JUMPI JUMPDEST DUP12 PUSH2 0x17B2 JUMP JUMPDEST PUSH1 0x50 SWAP3 POP PUSH2 0x19AA JUMP JUMPDEST SWAP3 PUSH1 0x1 SHR SWAP3 PUSH2 0x17A9 JUMP JUMPDEST POP PUSH1 0x0 SWAP3 POP DUP2 ISZERO ISZERO PUSH2 0x16A2 JUMP JUMPDEST SWAP2 POP SWAP4 SWAP3 PUSH1 0x0 SWAP1 DUP2 DUP3 DUP1 SWAP5 PUSH1 0x5 DUP8 ADD SLOAD SWAP8 DUP2 PUSH2 0x1FA2 JUMPI JUMPDEST POP POP PUSH1 0x1 DUP7 ADD SLOAD PUSH1 0x1 PUSH1 0x1 PUSH1 0xA0 SHL SUB DUP5 DUP2 AND SWAP2 AND SUB PUSH2 0x1EFC JUMPI POP DUP6 DUP1 PUSH2 0x1E70 JUMPI JUMPDEST POP JUMPDEST PUSH1 0x0 JUMPDEST PUSH1 0x6 DUP7 ADD SLOAD DUP2 LT ISZERO PUSH2 0x1ACB JUMPI PUSH2 0x1A26 DUP2 PUSH1 0x6 DUP9 ADD PUSH2 0x24D0 JUMP JUMPDEST SWAP1 SLOAD PUSH1 0x3 SWAP2 DUP3 SHL SHR PUSH1 0x1 PUSH1 0x1 PUSH1 0xA0 SHL SUB AND PUSH1 0x0 DUP2 DUP2 MSTORE PUSH1 0x8 DUP10 ADD PUSH1 0x20 MSTORE PUSH1 0x40 SWAP1 KECCAK256 SLOAD SWAP1 SWAP2 PUSH1 0xFF SWAP2 SWAP1 SWAP2 AND SWAP1 DUP11 LT ISZERO PUSH2 0x9A2 JUMPI PUSH1 0x3 DUP2 LT ISZERO PUSH2 0x9A2 JUMPI DUP10 EQ PUSH2 0x1A89 JUMPI JUMPDEST PUSH1 0x0 SWAP1 DUP2 MSTORE PUSH1 0xE PUSH1 0x20 MSTORE PUSH1 0x40 SWAP1 KECCAK256 PUSH1 0x2 ADD DUP1 SLOAD PUSH1 0xFF NOT AND SWAP1 SSTORE PUSH1 0x1 ADD PUSH2 0x1A0D JUMP JUMPDEST SWAP5 SWAP1 PUSH2 0x1AC2 DUP6 PUSH1 0x1 SWAP4 DUP9 PUSH1 0x0 MSTORE PUSH1 0xE PUSH1 0x20 MSTORE PUSH2 0x1AAC DUP3 DUP7 PUSH1 0x40 PUSH1 0x0 KECCAK256 ADD SLOAD PUSH2 0x25C5 JUMP JUMPDEST DUP10 PUSH1 0x0 MSTORE PUSH1 0xE PUSH1 0x20 MSTORE DUP6 PUSH1 0x40 PUSH1 0x0 KECCAK256 ADD SSTORE PUSH2 0x25C5 JUMP JUMPDEST SWAP6 SWAP1 SWAP2 POP PUSH2 0x1A68 JUMP JUMPDEST POP DUP6 DUP5 DUP7 PUSH1 0xFF PUSH1 0x12 DUP3 ADD SLOAD AND PUSH1 0x0 EQ PUSH2 0x1E02 JUMPI POP PUSH1 0x4 CALLDATALOAD PUSH1 0x0 SWAP1 DUP2 MSTORE PUSH1 0xB PUSH1 0x20 MSTORE PUSH1 0x40 SWAP1 KECCAK256 PUSH1 0xF DUP2 ADD DUP1 SLOAD SWAP3 SWAP5 SWAP4 SWAP3 SWAP1 SWAP2 SWAP1 PUSH1 0x1 PUSH1 0x1 PUSH1 0xA0 SHL SUB DUP8 DUP2 AND SWAP2 AND EQ DUP4 DUP6 DUP8 DUP4 ISZERO PUSH2 0x1C71 JUMPI POP POP POP PUSH1 0x10 DUP3 ADD DUP1 SLOAD PUSH1 0x3 DUP2 MUL SWAP1 DUP1 DUP3 DIV PUSH1 0x3 EQ SWAP1 ISZERO OR ISZERO PUSH2 0xF95 JUMPI SWAP4 SLOAD PUSH1 0x40 MLOAD PUSH4 0xA9059CBB PUSH1 0xE0 SHL DUP2 MSTORE PUSH1 0x1 PUSH1 0x1 PUSH1 0xA0 SHL SUB SWAP1 SWAP2 AND PUSH1 0x4 DUP3 ADD MSTORE PUSH1 0x2 SWAP5 SWAP1 SWAP5 SHR PUSH1 0x24 DUP6 ADD DUP2 SWAP1 MSTORE SWAP4 PUSH1 0x20 DUP2 DUP1 PUSH1 0x44 DUP2 ADD SUB DUP2 PUSH1 0x0 PUSH32 0x0 PUSH1 0x1 PUSH1 0x1 PUSH1 0xA0 SHL SUB AND GAS CALL SWAP8 DUP9 ISZERO PUSH2 0x7A3 JUMPI PUSH2 0x1BC6 PUSH2 0x1C49 SWAP7 PUSH1 0x4 SWAP5 PUSH2 0x1BCC SWAP5 PUSH1 0x0 DUP1 MLOAD PUSH1 0x20 PUSH2 0x2BA2 DUP4 CODECOPY DUP2 MLOAD SWAP2 MSTORE SWAP13 PUSH2 0x1C54 JUMPI JUMPDEST POP SLOAD PUSH2 0x25A5 JUMP JUMPDEST SWAP1 PUSH2 0x25C5 JUMP JUMPDEST SWAP3 JUMPDEST ADD DUP1 SLOAD PUSH1 0xFF NOT AND PUSH1 0x5 OR SWAP1 SSTORE PUSH1 0x40 DUP1 MLOAD PUSH1 0x1 PUSH1 0x1 PUSH1 0xA0 SHL SUB DUP10 AND DUP2 MSTORE PUSH1 0x20 DUP2 ADD SWAP3 SWAP1 SWAP3 MSTORE PUSH1 0x4 CALLDATALOAD SWAP2 PUSH32 0xD4406E003C73582310B2B897FD7CACD5866ECAED769AC129EB0B1DCBB0901116 SWAP2 SWAP1 LOG2 PUSH1 0x40 MLOAD SWAP4 DUP5 SWAP4 PUSH1 0x4 CALLDATALOAD SWAP8 DUP6 SWAP1 SWAP5 SWAP4 SWAP3 PUSH1 0x60 SWAP3 PUSH1 0x80 DUP4 ADD SWAP7 PUSH1 0x1 DUP1 PUSH1 0xA0 SHL SUB AND DUP4 MSTORE PUSH1 0x20 DUP4 ADD MSTORE PUSH1 0x40 DUP3 ADD MSTORE ADD MSTORE JUMP JUMPDEST SUB SWAP1 LOG2 JUMPDEST PUSH1 0x1 PUSH1 0x0 SSTORE STOP JUMPDEST PUSH2 0x1C6C SWAP1 PUSH1 0x20 RETURNDATASIZE PUSH1 0x20 GT PUSH2 0x79C JUMPI PUSH2 0x78E DUP2 DUP4 PUSH2 0x23D9 JUMP JUMPDEST PUSH2 0x1BBF JUMP JUMPDEST PUSH1 0x10 DUP6 ADD DUP1 SLOAD PUSH1 0x1 DUP1 DUP9 ADD DUP1 SLOAD SWAP7 SWAP13 POP SWAP3 SWAP10 SWAP2 SWAP1 SHR SWAP8 POP SWAP2 SWAP4 SWAP1 SWAP3 SWAP2 SWAP1 PUSH1 0x1 PUSH1 0x1 PUSH1 0xA0 SHL SUB DUP13 DUP2 AND SWAP2 AND SUB PUSH2 0x1D5F JUMPI POP POP SLOAD PUSH1 0x40 MLOAD PUSH4 0xA9059CBB PUSH1 0xE0 SHL DUP2 MSTORE PUSH1 0x1 PUSH1 0x1 PUSH1 0xA0 SHL SUB SWAP1 SWAP2 AND PUSH1 0x4 DUP3 ADD MSTORE PUSH1 0x24 DUP2 ADD DUP6 SWAP1 MSTORE SWAP1 PUSH1 0x20 DUP3 DUP1 PUSH1 0x44 DUP2 ADD SUB DUP2 PUSH1 0x0 PUSH32 0x0 PUSH1 0x1 PUSH1 0x1 PUSH1 0xA0 SHL SUB AND GAS CALL SWAP1 DUP2 ISZERO PUSH2 0x7A3 JUMPI PUSH2 0x1BC6 DUP7 PUSH2 0x1D34 PUSH2 0x1C49 SWAP9 PUSH1 0x0 DUP1 MLOAD PUSH1 0x20 PUSH2 0x2BA2 DUP4 CODECOPY DUP2 MLOAD SWAP2 MSTORE SWAP13 PUSH1 0x4 SWAP8 PUSH2 0x1D3C SWAP8 PUSH2 0x1D42 JUMPI JUMPDEST POP PUSH2 0x25C5 JUMP JUMPDEST SWAP9 JUMPDEST SLOAD PUSH2 0x25A5 JUMP JUMPDEST SWAP3 PUSH2 0x1BCE JUMP JUMPDEST PUSH2 0x1D5A SWAP1 PUSH1 0x20 RETURNDATASIZE PUSH1 0x20 GT PUSH2 0x79C JUMPI PUSH2 0x78E DUP2 DUP4 PUSH2 0x23D9 JUMP JUMPDEST PUSH2 0x1D2E JUMP JUMPDEST PUSH1 0x2 DUP7 ADD SLOAD PUSH1 0x40 MLOAD PUSH4 0xA9059CBB PUSH1 0xE0 SHL DUP2 MSTORE PUSH1 0x1 PUSH1 0x1 PUSH1 0xA0 SHL SUB SWAP1 SWAP2 AND PUSH1 0x4 DUP3 ADD MSTORE PUSH1 0x24 DUP2 ADD DUP9 SWAP1 MSTORE SWAP2 SWAP10 POP SWAP7 SWAP8 POP SWAP2 SWAP1 POP PUSH1 0x20 DUP3 DUP1 PUSH1 0x44 DUP2 ADD SUB DUP2 PUSH1 0x0 PUSH32 0x0 PUSH1 0x1 PUSH1 0x1 PUSH1 0xA0 SHL SUB AND GAS CALL SWAP1 DUP2 ISZERO PUSH2 0x7A3 JUMPI PUSH2 0x1BC6 DUP7 PUSH2 0x1DFC PUSH2 0x1C49 SWAP9 PUSH1 0x0 DUP1 MLOAD PUSH1 0x20 PUSH2 0x2BA2 DUP4 CODECOPY DUP2 MLOAD SWAP2 MSTORE SWAP13 PUSH1 0x4 SWAP8 PUSH2 0x1D3C SWAP8 PUSH2 0x1D42 JUMPI POP PUSH2 0x25C5 JUMP JUMPDEST SWAP10 PUSH2 0x1D36 JUMP JUMPDEST PUSH1 0x0 DUP1 MLOAD PUSH1 0x20 PUSH2 0x2BA2 DUP4 CODECOPY DUP2 MLOAD SWAP2 MSTORE SWAP4 SWAP3 SWAP2 PUSH2 0x1E68 SWAP2 PUSH2 0x1E24 PUSH1 0x8 SLOAD TIMESTAMP PUSH2 0x25C5 JUMP JUMPDEST PUSH1 0x11 DUP3 ADD SSTORE PUSH1 0x4 PUSH1 0x3 PUSH1 0xFF NOT DUP3 DUP5 ADD SLOAD AND OR SWAP2 ADD SSTORE PUSH1 0x40 MLOAD SWAP4 DUP5 SWAP4 PUSH1 0x4 CALLDATALOAD SWAP8 DUP6 SWAP1 SWAP5 SWAP4 SWAP3 PUSH1 0x60 SWAP3 PUSH1 0x80 DUP4 ADD SWAP7 PUSH1 0x1 DUP1 PUSH1 0xA0 SHL SUB AND DUP4 MSTORE PUSH1 0x20 DUP4 ADD MSTORE PUSH1 0x40 DUP3 ADD MSTORE ADD MSTORE JUMP JUMPDEST SUB SWAP1 LOG2 PUSH2 0x1C4D JUMP JUMPDEST PUSH1 0x1 DUP7 ADD SLOAD PUSH1 0x40 MLOAD PUSH4 0xA9059CBB PUSH1 0xE0 SHL DUP2 MSTORE PUSH1 0x1 PUSH1 0x1 PUSH1 0xA0 SHL SUB SWAP1 SWAP2 AND PUSH1 0x4 DUP3 ADD MSTORE PUSH1 0x24 DUP2 ADD SWAP2 SWAP1 SWAP2 MSTORE PUSH1 0x20 DUP2 DUP1 PUSH1 0x44 DUP2 ADD SUB DUP2 PUSH1 0x0 PUSH32 0x0 PUSH1 0x1 PUSH1 0x1 PUSH1 0xA0 SHL SUB AND GAS CALL DUP1 ISZERO PUSH2 0x7A3 JUMPI ISZERO PUSH2 0x1A08 JUMPI PUSH2 0x1EF5 SWAP1 PUSH1 0x20 RETURNDATASIZE PUSH1 0x20 GT PUSH2 0x79C JUMPI PUSH2 0x78E DUP2 DUP4 PUSH2 0x23D9 JUMP JUMPDEST POP DUP8 PUSH2 0x1A08 JUMP JUMPDEST SWAP6 SWAP1 POP DUP1 DUP1 PUSH2 0x1F0C JUMPI JUMPDEST POP PUSH2 0x1A0A JUMP JUMPDEST PUSH1 0x2 DUP7 ADD SLOAD PUSH1 0x40 MLOAD PUSH4 0xA9059CBB PUSH1 0xE0 SHL DUP2 MSTORE PUSH1 0x1 PUSH1 0x1 PUSH1 0xA0 SHL SUB SWAP1 SWAP2 AND PUSH1 0x4 DUP3 ADD MSTORE PUSH1 0x24 DUP2 ADD SWAP2 SWAP1 SWAP2 MSTORE PUSH1 0x20 DUP2 DUP1 PUSH1 0x44 DUP2 ADD SUB DUP2 DUP11 PUSH32 0x0 PUSH1 0x1 PUSH1 0x1 PUSH1 0xA0 SHL SUB AND GAS CALL DUP1 ISZERO PUSH2 0x1F97 JUMPI ISZERO PUSH2 0x1F06 JUMPI PUSH2 0x1F90 SWAP1 PUSH1 0x20 RETURNDATASIZE PUSH1 0x20 GT PUSH2 0x79C JUMPI PUSH2 0x78E DUP2 DUP4 PUSH2 0x23D9 JUMP JUMPDEST POP DUP8 PUSH2 0x1F06 JUMP JUMPDEST PUSH1 0x40 MLOAD RETURNDATASIZE DUP10 DUP3 RETURNDATACOPY RETURNDATASIZE SWAP1 REVERT JUMPDEST PUSH2 0x1FAD SWAP3 SWAP6 POP PUSH2 0x2585 JUMP JUMPDEST SWAP3 DUP9 DUP1 PUSH2 0x19E7 JUMP JUMPDEST PUSH1 0x2 SWAP2 PUSH2 0x1616 JUMP JUMPDEST PUSH1 0x2 DUP2 ADD SLOAD PUSH1 0x1 PUSH1 0x1 PUSH1 0xA0 SHL SUB AND PUSH2 0x15E4 JUMP JUMPDEST PUSH1 0x40 MLOAD PUSH3 0x461BCD PUSH1 0xE5 SHL DUP2 MSTORE PUSH1 0x20 PUSH1 0x4 DUP3 ADD MSTORE PUSH1 0x1A PUSH1 0x24 DUP3 ADD MSTORE PUSH32 0x52657665616C207068617365206E6F7420656E64656420796574000000000000 PUSH1 0x44 DUP3 ADD MSTORE PUSH1 0x64 SWAP1 REVERT JUMPDEST PUSH1 0x40 MLOAD PUSH3 0x461BCD PUSH1 0xE5 SHL DUP2 MSTORE PUSH1 0x20 PUSH1 0x4 DUP3 ADD MSTORE PUSH1 0x1A PUSH1 0x24 DUP3 ADD MSTORE PUSH32 0x43617365206E6F7420726561647920666F722076657264696374000000000000 PUSH1 0x44 DUP3 ADD MSTORE PUSH1 0x64 SWAP1 REVERT JUMPDEST CALLVALUE PUSH2 0x16A JUMPI PUSH1 0x60 CALLDATASIZE PUSH1 0x3 NOT ADD SLT PUSH2 0x16A JUMPI PUSH1 0x24 CALLDATALOAD PUSH1 0x4 CALLDATALOAD PUSH1 0x3 DUP3 LT ISZERO PUSH2 0x16A JUMPI DUP1 PUSH1 0x0 MSTORE PUSH1 0xB PUSH1 0x20 MSTORE PUSH1 0x40 PUSH1 0x0 KECCAK256 SWAP2 PUSH1 0xFF PUSH1 0x4 DUP5 ADD SLOAD AND PUSH1 0x6 DUP2 LT ISZERO PUSH2 0x9A2 JUMPI PUSH1 0x1 PUSH2 0x20A6 SWAP2 EQ PUSH2 0x24E8 JUMP JUMPDEST PUSH1 0xC DUP4 ADD SLOAD TIMESTAMP GT ISZERO PUSH2 0x22BD JUMPI PUSH1 0xD DUP4 ADD SLOAD TIMESTAMP GT PUSH2 0x2283 JUMPI PUSH2 0x20CA PUSH2 0x8D6 CALLER DUP6 PUSH2 0x2624 JUMP JUMPDEST CALLER PUSH1 0x0 SWAP1 DUP2 MSTORE PUSH1 0x7 DUP5 ADD PUSH1 0x20 DUP2 SWAP1 MSTORE PUSH1 0x40 SWAP1 SWAP2 KECCAK256 SLOAD ISZERO PUSH2 0x224D JUMPI CALLER PUSH1 0x0 SWAP1 DUP2 MSTORE PUSH1 0x8 DUP6 ADD PUSH1 0x20 DUP2 SWAP1 MSTORE PUSH1 0x40 SWAP1 SWAP2 KECCAK256 SLOAD PUSH1 0xFF AND PUSH1 0x3 DUP2 LT ISZERO PUSH2 0x9A2 JUMPI PUSH2 0x2215 JUMPI PUSH1 0x40 MLOAD SWAP2 PUSH1 0x20 DUP4 ADD PUSH1 0x0 SWAP4 DUP6 PUSH1 0xF8 SHL DUP3 MSTORE PUSH1 0x44 CALLDATALOAD PUSH1 0x21 DUP3 ADD MSTORE PUSH1 0x21 DUP2 MSTORE PUSH2 0x2131 PUSH1 0x41 DUP3 PUSH2 0x23D9 JUMP JUMPDEST MLOAD SWAP1 KECCAK256 CALLER DUP5 MSTORE PUSH1 0x20 SWAP2 SWAP1 SWAP2 MSTORE PUSH1 0x40 DUP4 KECCAK256 SLOAD SUB PUSH2 0x21D0 JUMPI CALLER DUP3 MSTORE PUSH1 0x20 MSTORE PUSH1 0x40 SWAP1 KECCAK256 DUP1 SLOAD PUSH1 0xFF NOT AND PUSH1 0xFF DUP4 AND OR SWAP1 SSTORE PUSH1 0x0 SWAP3 PUSH1 0x0 NOT DUP3 ADD PUSH2 0x21AC JUMPI PUSH1 0x9 ADD PUSH2 0x2177 DUP2 SLOAD PUSH2 0x2576 JUMP JUMPDEST SWAP1 SSTORE JUMPDEST PUSH1 0x40 MLOAD SWAP3 PUSH2 0x9A2 JUMPI DUP3 MSTORE PUSH32 0xFB0A2A4B906424480A54D601DB26AD920592115A97358D199495345723DF34CB PUSH1 0x20 CALLER SWAP4 LOG3 STOP JUMPDEST PUSH1 0x2 DUP3 EQ PUSH2 0x21BB JUMPI JUMPDEST POP PUSH2 0x217A JUMP JUMPDEST PUSH1 0xA ADD PUSH2 0x21C8 DUP2 SLOAD PUSH2 0x2576 JUMP JUMPDEST SWAP1 SSTORE DUP4 PUSH2 0x21B5 JUMP JUMPDEST PUSH1 0x40 MLOAD PUSH3 0x461BCD PUSH1 0xE5 SHL DUP2 MSTORE PUSH1 0x20 PUSH1 0x4 DUP3 ADD MSTORE PUSH1 0x1A PUSH1 0x24 DUP3 ADD MSTORE PUSH32 0x566F746520646F6573206E6F74206D6174636820636F6D6D6974000000000000 PUSH1 0x44 DUP3 ADD MSTORE PUSH1 0x64 SWAP1 REVERT JUMPDEST PUSH1 0x40 MLOAD PUSH3 0x461BCD PUSH1 0xE5 SHL DUP2 MSTORE PUSH1 0x20 PUSH1 0x4 DUP3 ADD MSTORE PUSH1 0x10 PUSH1 0x24 DUP3 ADD MSTORE PUSH16 0x105B1C9958591E481C995D99585B1959 PUSH1 0x82 SHL PUSH1 0x44 DUP3 ADD MSTORE PUSH1 0x64 SWAP1 REVERT JUMPDEST PUSH1 0x40 MLOAD PUSH3 0x461BCD PUSH1 0xE5 SHL DUP2 MSTORE PUSH1 0x20 PUSH1 0x4 DUP3 ADD MSTORE PUSH1 0xE PUSH1 0x24 DUP3 ADD MSTORE PUSH14 0x111A59081B9BDD0818DBDB5B5A5D PUSH1 0x92 SHL PUSH1 0x44 DUP3 ADD MSTORE PUSH1 0x64 SWAP1 REVERT JUMPDEST PUSH1 0x40 MLOAD PUSH3 0x461BCD PUSH1 0xE5 SHL DUP2 MSTORE PUSH1 0x20 PUSH1 0x4 DUP3 ADD MSTORE PUSH1 0x12 PUSH1 0x24 DUP3 ADD MSTORE PUSH18 0x14995D99585B081C1A185CD948195B991959 PUSH1 0x72 SHL PUSH1 0x44 DUP3 ADD MSTORE PUSH1 0x64 SWAP1 REVERT JUMPDEST PUSH1 0x40 MLOAD PUSH3 0x461BCD PUSH1 0xE5 SHL DUP2 MSTORE PUSH1 0x20 PUSH1 0x4 DUP3 ADD MSTORE PUSH1 0x1A PUSH1 0x24 DUP3 ADD MSTORE PUSH32 0x436F6D6D6974207068617365206E6F7420656E64656420796574000000000000 PUSH1 0x44 DUP3 ADD MSTORE PUSH1 0x64 SWAP1 REVERT JUMPDEST CALLVALUE PUSH2 0x16A JUMPI PUSH1 0x0 CALLDATASIZE PUSH1 0x3 NOT ADD SLT PUSH2 0x16A JUMPI PUSH1 0x20 PUSH1 0x6 SLOAD PUSH1 0x40 MLOAD SWAP1 DUP2 MSTORE RETURN JUMPDEST CALLVALUE PUSH2 0x16A JUMPI PUSH1 0x0 CALLDATASIZE PUSH1 0x3 NOT ADD SLT PUSH2 0x16A JUMPI PUSH1 0x20 SWAP1 PUSH1 0x9 SLOAD DUP2 MSTORE RETURN JUMPDEST PUSH1 0x4 CALLDATALOAD SWAP1 PUSH1 0x1 PUSH1 0x1 PUSH1 0xA0 SHL SUB DUP3 AND DUP3 SUB PUSH2 0x16A JUMPI JUMP JUMPDEST SWAP2 SWAP1 DUP3 MLOAD SWAP3 DUP4 DUP3 MSTORE PUSH1 0x0 JUMPDEST DUP5 DUP2 LT PUSH2 0x237D JUMPI POP POP DUP3 PUSH1 0x0 PUSH1 0x20 DUP1 SWAP5 SWAP6 DUP5 ADD ADD MSTORE PUSH1 0x1F DUP1 NOT SWAP2 ADD AND ADD ADD SWAP1 JUMP JUMPDEST DUP1 PUSH1 0x20 DUP1 SWAP3 DUP5 ADD ADD MLOAD DUP3 DUP3 DUP7 ADD ADD MSTORE ADD PUSH2 0x235C JUMP JUMPDEST SWAP1 PUSH1 0x6 DUP3 LT ISZERO PUSH2 0x9A2 JUMPI MSTORE JUMP JUMPDEST SWAP1 PUSH1 0x1 DUP3 DUP2 SHR SWAP3 AND DUP1 ISZERO PUSH2 0x23CF JUMPI JUMPDEST PUSH1 0x20 DUP4 LT EQ PUSH2 0x23B9 JUMPI JUMP JUMPDEST PUSH4 0x4E487B71 PUSH1 0xE0 SHL PUSH1 0x0 MSTORE PUSH1 0x22 PUSH1 0x4 MSTORE PUSH1 0x24 PUSH1 0x0 REVERT JUMPDEST SWAP2 PUSH1 0x7F AND SWAP2 PUSH2 0x23AE JUMP JUMPDEST SWAP1 PUSH1 0x1F DUP1 NOT SWAP2 ADD AND DUP2 ADD SWAP1 DUP2 LT PUSH8 0xFFFFFFFFFFFFFFFF DUP3 GT OR PUSH2 0xFAB JUMPI PUSH1 0x40 MSTORE JUMP JUMPDEST SWAP1 PUSH1 0x40 MLOAD SWAP2 DUP3 PUSH1 0x0 DUP3 SLOAD SWAP3 PUSH2 0x240F DUP5 PUSH2 0x239F JUMP JUMPDEST DUP1 DUP5 MSTORE SWAP4 PUSH1 0x1 DUP2 AND SWAP1 DUP2 ISZERO PUSH2 0x247D JUMPI POP PUSH1 0x1 EQ PUSH2 0x2436 JUMPI JUMPDEST POP PUSH2 0x2434 SWAP3 POP SUB DUP4 PUSH2 0x23D9 JUMP JUMPDEST JUMP JUMPDEST SWAP1 POP PUSH1 0x0 SWAP3 SWAP2 SWAP3 MSTORE PUSH1 0x20 PUSH1 0x0 KECCAK256 SWAP1 PUSH1 0x0 SWAP2 JUMPDEST DUP2 DUP4 LT PUSH2 0x2461 JUMPI POP POP SWAP1 PUSH1 0x20 PUSH2 0x2434 SWAP3 DUP3 ADD ADD CODESIZE PUSH2 0x2427 JUMP JUMPDEST PUSH1 0x20 SWAP2 SWAP4 POP DUP1 PUSH1 0x1 SWAP2 SLOAD DUP4 DUP6 DUP10 ADD ADD MSTORE ADD SWAP2 ADD SWAP1 SWAP2 DUP5 SWAP3 PUSH2 0x2448 JUMP JUMPDEST SWAP1 POP PUSH1 0x20 SWAP3 POP PUSH2 0x2434 SWAP5 SWAP2 POP PUSH1 0xFF NOT AND DUP3 DUP5 ADD MSTORE ISZERO ISZERO PUSH1 0x5 SHL DUP3 ADD ADD CODESIZE PUSH2 0x2427 JUMP JUMPDEST PUSH1 0xC SLOAD DUP2 LT ISZERO PUSH2 0x24BA JUMPI PUSH1 0xC PUSH1 0x0 MSTORE PUSH1 0x20 PUSH1 0x0 KECCAK256 ADD SWAP1 PUSH1 0x0 SWAP1 JUMP JUMPDEST PUSH4 0x4E487B71 PUSH1 0xE0 SHL PUSH1 0x0 MSTORE PUSH1 0x32 PUSH1 0x4 MSTORE PUSH1 0x24 PUSH1 0x0 REVERT JUMPDEST DUP1 SLOAD DUP3 LT ISZERO PUSH2 0x24BA JUMPI PUSH1 0x0 MSTORE PUSH1 0x20 PUSH1 0x0 KECCAK256 ADD SWAP1 PUSH1 0x0 SWAP1 JUMP JUMPDEST ISZERO PUSH2 0x24EF JUMPI JUMP JUMPDEST PUSH1 0x40 MLOAD PUSH3 0x461BCD PUSH1 0xE5 SHL DUP2 MSTORE PUSH1 0x20 PUSH1 0x4 DUP3 ADD MSTORE PUSH1 0x13 PUSH1 0x24 DUP3 ADD MSTORE PUSH19 0x4E6F7420696E20766F74696E67207068617365 PUSH1 0x68 SHL PUSH1 0x44 DUP3 ADD MSTORE PUSH1 0x64 SWAP1 REVERT JUMPDEST ISZERO PUSH2 0x2531 JUMPI JUMP JUMPDEST PUSH1 0x40 MLOAD PUSH3 0x461BCD PUSH1 0xE5 SHL DUP2 MSTORE PUSH1 0x20 PUSH1 0x4 DUP3 ADD MSTORE PUSH1 0x19 PUSH1 0x24 DUP3 ADD MSTORE PUSH32 0x4E6F742061206A75726F7220666F722074686973206361736500000000000000 PUSH1 0x44 DUP3 ADD MSTORE PUSH1 0x64 SWAP1 REVERT JUMPDEST PUSH1 0x0 NOT DUP2 EQ PUSH2 0xF95 JUMPI PUSH1 0x1 ADD SWAP1 JUMP JUMPDEST DUP2 ISZERO PUSH2 0x258F JUMPI DIV SWAP1 JUMP JUMPDEST PUSH4 0x4E487B71 PUSH1 0xE0 SHL PUSH1 0x0 MSTORE PUSH1 0x12 PUSH1 0x4 MSTORE PUSH1 0x24 PUSH1 0x0 REVERT JUMPDEST SWAP2 SWAP1 DUP3 SUB SWAP2 DUP3 GT PUSH2 0xF95 JUMPI JUMP JUMPDEST DUP2 DUP2 MUL SWAP3 SWAP2 DUP2 ISZERO SWAP2 DUP5 DIV EQ OR ISZERO PUSH2 0xF95 JUMPI JUMP JUMPDEST SWAP2 SWAP1 DUP3 ADD DUP1 SWAP3 GT PUSH2 0xF95 JUMPI JUMP JUMPDEST SWAP1 DUP2 PUSH1 0x20 SWAP2 SUB SLT PUSH2 0x16A JUMPI MLOAD DUP1 ISZERO ISZERO DUP2 SUB PUSH2 0x16A JUMPI SWAP1 JUMP JUMPDEST SWAP1 DUP2 SLOAD SWAP2 PUSH1 0x1 PUSH1 0x40 SHL DUP4 LT ISZERO PUSH2 0xFAB JUMPI DUP3 PUSH2 0x12E2 SWAP2 PUSH1 0x1 PUSH2 0x2434 SWAP6 ADD DUP2 SSTORE PUSH2 0x24D0 JUMP JUMPDEST DUP2 DUP2 LT PUSH2 0x2618 JUMPI POP POP JUMP JUMPDEST PUSH1 0x0 DUP2 SSTORE PUSH1 0x1 ADD PUSH2 0x260D JUMP JUMPDEST SWAP1 PUSH1 0x0 JUMPDEST PUSH1 0x6 DUP4 ADD DUP1 SLOAD DUP3 LT ISZERO PUSH2 0x266B JUMPI DUP2 PUSH2 0x263F SWAP2 PUSH2 0x24D0 JUMP JUMPDEST SWAP1 SLOAD PUSH1 0x3 SWAP2 SWAP1 SWAP2 SHL SHR PUSH1 0x1 PUSH1 0x1 PUSH1 0xA0 SHL SUB SWAP1 DUP2 AND SWAP1 DUP4 AND EQ PUSH2 0x2663 JUMPI PUSH1 0x1 ADD PUSH2 0x2628 JUMP JUMPDEST POP POP POP PUSH1 0x1 SWAP1 JUMP JUMPDEST POP POP POP POP PUSH1 0x0 SWAP1 JUMP JUMPDEST PUSH1 0x2 PUSH1 0x0 SLOAD EQ PUSH2 0x2685 JUMPI PUSH1 0x2 PUSH1 0x0 SSTORE JUMP JUMPDEST PUSH4 0x3EE5AEB5 PUSH1 0xE0 SHL PUSH1 0x0 MSTORE PUSH1 0x4 PUSH1 0x0 REVERT JUMPDEST PUSH8 0xFFFFFFFFFFFFFFFF DUP2 GT PUSH2 0xFAB JUMPI PUSH1 0x5 SHL PUSH1 0x20 ADD SWAP1 JUMP JUMPDEST SWAP1 PUSH2 0x26B8 DUP3 PUSH2 0x2696 JUMP JUMPDEST PUSH2 0x26C5 PUSH1 0x40 MLOAD SWAP2 DUP3 PUSH2 0x23D9 JUMP JUMPDEST DUP3 DUP2 MSTORE DUP1 SWAP3 PUSH2 0x26D6 PUSH1 0x1F NOT SWAP2 PUSH2 0x2696 JUMP JUMPDEST ADD SWAP1 PUSH1 0x20 CALLDATASIZE SWAP2 ADD CALLDATACOPY JUMP JUMPDEST DUP1 MLOAD DUP3 LT ISZERO PUSH2 0x24BA JUMPI PUSH1 0x20 SWAP2 PUSH1 0x5 SHL ADD ADD SWAP1 JUMP JUMPDEST DUP2 ISZERO PUSH2 0x258F JUMPI MOD SWAP1 JUMP JUMPDEST SWAP1 DUP2 PUSH1 0x0 MSTORE PUSH1 0xB PUSH1 0x20 MSTORE PUSH1 0x40 PUSH1 0x0 KECCAK256 PUSH1 0xC SLOAD SWAP3 PUSH1 0x13 DUP3 ADD SLOAD SWAP1 DUP2 DUP6 LT PUSH2 0x2959 JUMPI DUP2 DUP6 EQ PUSH2 0x28FE JUMPI PUSH1 0x40 MLOAD PUSH1 0x20 DUP2 ADD SWAP2 TIMESTAMP DUP4 MSTORE PREVRANDAO PUSH1 0x40 DUP4 ADD MSTORE PUSH1 0x60 DUP3 ADD MSTORE PUSH6 0x185C1C19585B PUSH1 0xD2 SHL PUSH1 0x80 DUP3 ADD MSTORE PUSH1 0x66 DUP2 MSTORE PUSH2 0x2759 PUSH1 0x86 DUP3 PUSH2 0x23D9 JUMP JUMPDEST MLOAD SWAP1 KECCAK256 SWAP2 PUSH2 0x2766 DUP6 PUSH2 0x26AE JUMP JUMPDEST PUSH1 0x0 SWAP1 PUSH1 0x0 SWAP4 JUMPDEST DUP1 DUP6 LT DUP1 PUSH2 0x28F5 JUMPI JUMPDEST ISZERO PUSH2 0x288E JUMPI PUSH1 0x0 SWAP7 DUP8 PUSH1 0x1 JUMPDEST ISZERO PUSH2 0x27DF JUMPI JUMPDEST POP PUSH1 0x0 SWAP8 PUSH2 0x27D9 PUSH2 0x27D3 DUP12 DUP11 DUP5 PUSH2 0x27CB DUP13 PUSH2 0x27BD PUSH1 0x40 MLOAD SWAP4 DUP5 SWAP3 PUSH1 0x20 DUP5 ADD SWAP7 DUP8 SWAP2 PUSH1 0x60 SWAP4 SWAP2 DUP4 MSTORE PUSH1 0x20 DUP4 ADD MSTORE PUSH1 0x40 DUP3 ADD MSTORE ADD SWAP1 JUMP JUMPDEST SUB PUSH1 0x1F NOT DUP2 ADD DUP4 MSTORE DUP3 PUSH2 0x23D9 JUMP JUMPDEST MLOAD SWAP1 KECCAK256 PUSH2 0x26F4 JUMP JUMPDEST SWAP2 PUSH2 0x2576 JUMP JUMPDEST SWAP9 PUSH2 0x2782 JUMP JUMPDEST PUSH2 0x27E9 DUP2 DUP6 PUSH2 0x26E0 JUMP JUMPDEST MLOAD ISZERO ISZERO DUP1 PUSH2 0x2885 JUMPI JUMPDEST PUSH2 0x2788 JUMPI SWAP1 SWAP3 SWAP8 POP SWAP5 SWAP1 SWAP5 PUSH2 0x2807 DUP2 DUP10 PUSH2 0x26E0 JUMP JUMPDEST MLOAD ISZERO PUSH2 0x2821 JUMPI JUMPDEST POP PUSH2 0x2818 SWAP1 PUSH2 0x2576 JUMP JUMPDEST SWAP4 SWAP6 SWAP1 SWAP6 PUSH2 0x276D JUMP JUMPDEST PUSH2 0x2818 SWAP2 SWAP4 PUSH2 0x283F DUP3 PUSH1 0x1 PUSH2 0x2839 PUSH2 0x287E SWAP6 DUP14 PUSH2 0x26E0 JUMP JUMPDEST MSTORE PUSH2 0x249F JUMP JUMPDEST SWAP1 SLOAD PUSH1 0x3 SWAP2 SWAP1 SWAP2 SHL SHR PUSH1 0x1 PUSH1 0x1 PUSH1 0xA0 SHL SUB AND PUSH2 0x285E DUP2 PUSH1 0x6 DUP10 ADD PUSH2 0x25EA JUMP JUMPDEST PUSH1 0x0 MSTORE PUSH1 0xE PUSH1 0x20 MSTORE PUSH1 0x2 PUSH1 0x40 PUSH1 0x0 KECCAK256 ADD PUSH1 0x1 PUSH1 0xFF NOT DUP3 SLOAD AND OR SWAP1 SSTORE PUSH2 0x2576 JUMP JUMPDEST SWAP3 SWAP1 PUSH2 0x280E JUMP JUMPDEST POP DUP10 DUP10 LT PUSH2 0x27F2 JUMP JUMPDEST SWAP6 SWAP7 POP POP POP SWAP1 POP PUSH1 0x6 SWAP2 POP ADD SLOAD SUB PUSH2 0x28A2 JUMPI JUMP JUMPDEST PUSH1 0x40 MLOAD PUSH3 0x461BCD PUSH1 0xE5 SHL DUP2 MSTORE PUSH1 0x20 PUSH1 0x4 DUP3 ADD MSTORE PUSH1 0x25 PUSH1 0x24 DUP3 ADD MSTORE PUSH32 0x4661696C656420746F2061737369676E20656E6F7567682061707065616C206A PUSH1 0x44 DUP3 ADD MSTORE PUSH5 0x75726F7273 PUSH1 0xD8 SHL PUSH1 0x64 DUP3 ADD MSTORE PUSH1 0x84 SWAP1 REVERT JUMPDEST POP DUP8 DUP4 LT PUSH2 0x2776 JUMP JUMPDEST POP SWAP2 SWAP3 SWAP2 POP PUSH1 0x6 ADD PUSH1 0x0 JUMPDEST DUP3 DUP2 LT PUSH2 0x2915 JUMPI POP POP POP JUMP JUMPDEST DUP1 PUSH2 0x2921 PUSH1 0x1 SWAP3 PUSH2 0x249F JUMP JUMPDEST DUP4 DUP1 PUSH1 0xA0 SHL SUB SWAP2 SLOAD SWAP1 PUSH1 0x3 SHL SHR AND PUSH2 0x2939 DUP2 DUP6 PUSH2 0x25EA JUMP JUMPDEST PUSH1 0x0 MSTORE PUSH1 0xE PUSH1 0x20 MSTORE PUSH1 0x2 PUSH1 0x40 PUSH1 0x0 KECCAK256 ADD DUP3 PUSH1 0xFF NOT DUP3 SLOAD AND OR SWAP1 SSTORE ADD PUSH2 0x2909 JUMP JUMPDEST PUSH1 0x40 MLOAD PUSH3 0x461BCD PUSH1 0xE5 SHL DUP2 MSTORE PUSH1 0x20 PUSH1 0x4 DUP3 ADD MSTORE PUSH1 0x26 PUSH1 0x24 DUP3 ADD MSTORE PUSH32 0x4E6F7420656E6F75676820617661696C61626C65206A75726F727320666F7220 PUSH1 0x44 DUP3 ADD MSTORE PUSH6 0x185C1C19585B PUSH1 0xD2 SHL PUSH1 0x64 DUP3 ADD MSTORE PUSH1 0x84 SWAP1 REVERT JUMPDEST SWAP1 DUP2 PUSH1 0x0 MSTORE PUSH1 0xB PUSH1 0x20 MSTORE PUSH1 0x40 PUSH1 0x0 KECCAK256 SWAP1 PUSH1 0xC SLOAD SWAP3 PUSH1 0x3 SLOAD DUP5 EQ PUSH2 0x2B48 JUMPI PUSH1 0x40 SWAP3 SWAP2 SWAP3 MLOAD PUSH2 0x29F4 DUP2 PUSH2 0x27BD PUSH1 0x20 DUP3 ADD SWAP5 PREVRANDAO TIMESTAMP DUP8 SWAP2 PUSH1 0x60 SWAP4 SWAP2 DUP4 MSTORE PUSH1 0x20 DUP4 ADD MSTORE PUSH1 0x40 DUP3 ADD MSTORE ADD SWAP1 JUMP JUMPDEST MLOAD SWAP1 KECCAK256 SWAP1 PUSH2 0x2A01 DUP5 PUSH2 0x26AE JUMP JUMPDEST SWAP1 PUSH1 0x0 DUP1 SWAP3 JUMPDEST PUSH1 0x3 SLOAD DUP5 LT DUP1 PUSH2 0x2B3F JUMPI JUMPDEST ISZERO PUSH2 0x2AE4 JUMPI PUSH1 0x0 SWAP6 DUP7 PUSH1 0x1 JUMPDEST ISZERO PUSH2 0x2A5F JUMPI JUMPDEST POP PUSH1 0x0 SWAP7 PUSH2 0x2A59 PUSH2 0x27D3 DUP11 DUP10 DUP5 PUSH2 0x27CB DUP12 PUSH2 0x27BD PUSH1 0x40 MLOAD SWAP4 DUP5 SWAP3 PUSH1 0x20 DUP5 ADD SWAP7 DUP8 SWAP2 PUSH1 0x60 SWAP4 SWAP2 DUP4 MSTORE PUSH1 0x20 DUP4 ADD MSTORE PUSH1 0x40 DUP3 ADD MSTORE ADD SWAP1 JUMP JUMPDEST SWAP8 PUSH2 0x2A1E JUMP JUMPDEST PUSH2 0x2A69 DUP2 DUP5 PUSH2 0x26E0 JUMP JUMPDEST MLOAD ISZERO ISZERO DUP1 PUSH2 0x2ADB JUMPI JUMPDEST PUSH2 0x2A24 JUMPI SWAP1 SWAP5 SWAP2 SWAP7 POP PUSH2 0x2A85 DUP2 DUP9 PUSH2 0x26E0 JUMP JUMPDEST MLOAD ISZERO PUSH2 0x2A9D JUMPI JUMPDEST POP PUSH2 0x2A96 SWAP1 PUSH2 0x2576 JUMP JUMPDEST SWAP3 SWAP5 PUSH2 0x2A07 JUMP JUMPDEST PUSH2 0x2A96 SWAP2 SWAP3 PUSH2 0x2AB5 DUP3 PUSH1 0x1 PUSH2 0x2839 PUSH2 0x2AD4 SWAP6 DUP13 PUSH2 0x26E0 JUMP JUMPDEST SWAP1 SLOAD PUSH1 0x3 SWAP2 SWAP1 SWAP2 SHL SHR PUSH1 0x1 PUSH1 0x1 PUSH1 0xA0 SHL SUB AND PUSH2 0x285E DUP2 PUSH1 0x6 DUP9 ADD PUSH2 0x25EA JUMP JUMPDEST SWAP2 SWAP1 PUSH2 0x2A8C JUMP JUMPDEST POP DUP9 DUP9 LT PUSH2 0x2A72 JUMP JUMPDEST POP POP SWAP2 POP POP PUSH1 0x6 SWAP2 SWAP3 POP ADD SLOAD PUSH1 0x3 SLOAD SUB PUSH2 0x2AFA JUMPI JUMP JUMPDEST PUSH1 0x40 MLOAD PUSH3 0x461BCD PUSH1 0xE5 SHL DUP2 MSTORE PUSH1 0x20 PUSH1 0x4 DUP3 ADD MSTORE PUSH1 0x1E PUSH1 0x24 DUP3 ADD MSTORE PUSH32 0x4661696C656420746F2061737369676E20656E6F756768206A75726F72730000 PUSH1 0x44 DUP3 ADD MSTORE PUSH1 0x64 SWAP1 REVERT JUMPDEST POP DUP7 DUP3 LT PUSH2 0x2A12 JUMP JUMPDEST POP SWAP2 SWAP1 PUSH1 0x6 ADD PUSH1 0x0 JUMPDEST DUP3 DUP2 LT PUSH2 0x2B5D JUMPI POP POP POP JUMP JUMPDEST DUP1 PUSH2 0x2B69 PUSH1 0x1 SWAP3 PUSH2 0x249F JUMP JUMPDEST DUP4 DUP1 PUSH1 0xA0 SHL SUB SWAP2 SLOAD SWAP1 PUSH1 0x3 SHL SHR AND PUSH2 0x2B81 DUP2 DUP6 PUSH2 0x25EA JUMP JUMPDEST PUSH1 0x0 MSTORE PUSH1 0xE PUSH1 0x20 MSTORE PUSH1 0x2 PUSH1 0x40 PUSH1 0x0 KECCAK256 ADD DUP3 PUSH1 0xFF NOT DUP3 SLOAD AND OR SWAP1 SSTORE ADD PUSH2 0x2B51 JUMP INVALID 0xB1 PUSH26 0xB08881890BD8E13EDDE8255F745991199906456A378692EC1143 EXP GASLIMIT PUSH1 0xA9 LOG2 PUSH5 0x6970667358 0x22 SLT KECCAK256 0xEC 0xB9 DUP10 0xFC 0xAD 0xBE SWAP7 BYTE 0xAF PUSH21 0x7D5C8835D0BEA1F22D094FB29D956F8A665189F95C 0xD4 PUSH5 0x736F6C6343 STOP ADDMOD SHR STOP CALLER "
        },
        "methodIdentifiers": {
          "appeal(uint256)": "7e69b7b0",
          "appealDepositMultiplier()": "317e48b6",
          "appealDuration()": "867bc61b",
          "appealJurySize()": "04495c99",
          "cases(uint256)": "f09790dd",
          "commitDuration()": "6f833811",
          "commitVote(uint256,bytes32)": "9da69180",
          "createCase(address,string)": "a2febe29",
          "executeVerdict(uint256)": "1c204d0e",
          "filingFeeAmount()": "232e0c87",
          "getCaseDetails(uint256)": "c3a90635",
          "getCaseJurors(uint256)": "7035aba2",
          "getJurorReputation(address)": "4c4b848c",
          "jurorPenaltyRate()": "059a184c",
          "jurorPool(uint256)": "f643d3d7",
          "jurorStakeAmount()": "d496c455",
          "jurorsInfo(address)": "b55796f3",
          "jurySize()": "536c8c15",
          "juryToken()": "9eacb5b9",
          "nextCaseId()": "6350eae8",
          "registerAsJuror()": "71929ad5",
          "revealDuration()": "886a6de1",
          "revealVote(uint256,uint8,bytes32)": "0b05b14f",
          "unregisterAsJuror()": "43bbdd3f"
        }
      }
    }
  }
}